{
  "_format": "hh-sol-artifact-1",
  "contractName": "AIDuelsFree",
  "sourceName": "contracts/AIDuelsFree.sol",
  "abi": [
    {
      "inputs": [
        {
          "internalType": "address",
          "name": "_tokenAddress",
          "type": "address"
        },
        {
          "internalType": "address",
          "name": "_gelatoRelay",
          "type": "address"
        }
      ],
      "stateMutability": "nonpayable",
      "type": "constructor"
    },
    {
      "anonymous": false,
      "inputs": [
        {
          "indexed": true,
          "internalType": "address",
          "name": "owner",
          "type": "address"
        },
        {
          "indexed": true,
          "internalType": "address",
          "name": "spender",
          "type": "address"
        },
        {
          "indexed": false,
          "internalType": "uint256",
          "name": "value",
          "type": "uint256"
        }
      ],
      "name": "Approval",
      "type": "event"
    },
    {
      "anonymous": false,
      "inputs": [
        {
          "indexed": true,
          "internalType": "address",
          "name": "buyer",
          "type": "address"
        },
        {
          "indexed": false,
          "internalType": "uint256",
          "name": "value",
          "type": "uint256"
        }
      ],
      "name": "BuyTokens",
      "type": "event"
    },
    {
      "anonymous": false,
      "inputs": [
        {
          "indexed": false,
          "internalType": "uint256",
          "name": "id",
          "type": "uint256"
        },
        {
          "indexed": false,
          "internalType": "address",
          "name": "player",
          "type": "address"
        }
      ],
      "name": "DuelCreated",
      "type": "event"
    },
    {
      "anonymous": false,
      "inputs": [
        {
          "indexed": false,
          "internalType": "uint256",
          "name": "id",
          "type": "uint256"
        },
        {
          "indexed": false,
          "internalType": "address",
          "name": "winner",
          "type": "address"
        }
      ],
      "name": "DuelFinished",
      "type": "event"
    },
    {
      "anonymous": false,
      "inputs": [
        {
          "indexed": true,
          "internalType": "address",
          "name": "previousOwner",
          "type": "address"
        },
        {
          "indexed": true,
          "internalType": "address",
          "name": "newOwner",
          "type": "address"
        }
      ],
      "name": "OwnershipTransferred",
      "type": "event"
    },
    {
      "anonymous": false,
      "inputs": [
        {
          "indexed": false,
          "internalType": "address",
          "name": "winner",
          "type": "address"
        }
      ],
      "name": "RewardClaimed",
      "type": "event"
    },
    {
      "inputs": [],
      "name": "XP",
      "outputs": [
        {
          "internalType": "contract IERC20",
          "name": "",
          "type": "address"
        }
      ],
      "stateMutability": "view",
      "type": "function"
    },
    {
      "inputs": [
        {
          "internalType": "uint256",
          "name": "_amount",
          "type": "uint256"
        }
      ],
      "name": "approveToken",
      "outputs": [],
      "stateMutability": "nonpayable",
      "type": "function"
    },
    {
      "inputs": [],
      "name": "claimReward",
      "outputs": [],
      "stateMutability": "nonpayable",
      "type": "function"
    },
    {
      "inputs": [
        {
          "internalType": "address",
          "name": "_wallet",
          "type": "address"
        }
      ],
      "name": "claimedReward",
      "outputs": [
        {
          "internalType": "bool",
          "name": "",
          "type": "bool"
        }
      ],
      "stateMutability": "view",
      "type": "function"
    },
    {
      "inputs": [],
      "name": "createDuel",
      "outputs": [],
      "stateMutability": "payable",
      "type": "function"
    },
    {
      "inputs": [
        {
          "internalType": "uint256",
          "name": "",
          "type": "uint256"
        }
      ],
      "name": "duels",
      "outputs": [
        {
          "internalType": "uint256",
          "name": "id",
          "type": "uint256"
        },
        {
          "internalType": "address",
          "name": "player",
          "type": "address"
        },
        {
          "internalType": "uint256",
          "name": "createdAt",
          "type": "uint256"
        },
        {
          "internalType": "bool",
          "name": "claimedWinnings",
          "type": "bool"
        }
      ],
      "stateMutability": "view",
      "type": "function"
    },
    {
      "inputs": [
        {
          "internalType": "uint256",
          "name": "_duelId",
          "type": "uint256"
        }
      ],
      "name": "finishDuel",
      "outputs": [],
      "stateMutability": "nonpayable",
      "type": "function"
    },
    {
      "inputs": [
        {
          "internalType": "uint256",
          "name": "_amount",
          "type": "uint256"
        }
      ],
      "name": "fundGame",
      "outputs": [],
      "stateMutability": "nonpayable",
      "type": "function"
    },
    {
      "inputs": [],
      "name": "getBalance",
      "outputs": [
        {
          "internalType": "uint256",
          "name": "",
          "type": "uint256"
        }
      ],
      "stateMutability": "view",
      "type": "function"
    },
    {
      "inputs": [
        {
          "internalType": "uint256",
          "name": "_duelId",
          "type": "uint256"
        }
      ],
      "name": "getDuel",
      "outputs": [
        {
          "components": [
            {
              "internalType": "uint256",
              "name": "id",
              "type": "uint256"
            },
            {
              "internalType": "address",
              "name": "player",
              "type": "address"
            },
            {
              "internalType": "uint256",
              "name": "createdAt",
              "type": "uint256"
            },
            {
              "internalType": "bool",
              "name": "claimedWinnings",
              "type": "bool"
            }
          ],
          "internalType": "struct AIDuelsFree.Duel",
          "name": "",
          "type": "tuple"
        }
      ],
      "stateMutability": "view",
      "type": "function"
    },
    {
      "inputs": [],
      "name": "getDuels",
      "outputs": [
        {
          "components": [
            {
              "internalType": "uint256",
              "name": "id",
              "type": "uint256"
            },
            {
              "internalType": "address",
              "name": "player",
              "type": "address"
            },
            {
              "internalType": "uint256",
              "name": "createdAt",
              "type": "uint256"
            },
            {
              "internalType": "bool",
              "name": "claimedWinnings",
              "type": "bool"
            }
          ],
          "internalType": "struct AIDuelsFree.Duel[]",
          "name": "",
          "type": "tuple[]"
        }
      ],
      "stateMutability": "view",
      "type": "function"
    },
    {
      "inputs": [],
      "name": "getDuelsCount",
      "outputs": [
        {
          "internalType": "uint256",
          "name": "",
          "type": "uint256"
        }
      ],
      "stateMutability": "view",
      "type": "function"
    },
    {
      "inputs": [
        {
          "internalType": "address",
          "name": "_wallet",
          "type": "address"
        }
      ],
      "name": "getTokenAllowance",
      "outputs": [
        {
          "internalType": "uint256",
          "name": "",
          "type": "uint256"
        }
      ],
      "stateMutability": "view",
      "type": "function"
    },
    {
      "inputs": [],
      "name": "getTokenAllowanceContract",
      "outputs": [
        {
          "internalType": "uint256",
          "name": "",
          "type": "uint256"
        }
      ],
      "stateMutability": "view",
      "type": "function"
    },
    {
      "inputs": [
        {
          "internalType": "address",
          "name": "_wallet",
          "type": "address"
        }
      ],
      "name": "getTokenBalance",
      "outputs": [
        {
          "internalType": "uint256",
          "name": "",
          "type": "uint256"
        }
      ],
      "stateMutability": "view",
      "type": "function"
    },
    {
      "inputs": [],
      "name": "getTokenBalanceContract",
      "outputs": [
        {
          "internalType": "uint256",
          "name": "",
          "type": "uint256"
        }
      ],
      "stateMutability": "view",
      "type": "function"
    },
    {
      "inputs": [
        {
          "internalType": "address",
          "name": "",
          "type": "address"
        }
      ],
      "name": "hasClaimedReward",
      "outputs": [
        {
          "internalType": "bool",
          "name": "",
          "type": "bool"
        }
      ],
      "stateMutability": "view",
      "type": "function"
    },
    {
      "inputs": [
        {
          "internalType": "address",
          "name": "forwarder",
          "type": "address"
        }
      ],
      "name": "isTrustedForwarder",
      "outputs": [
        {
          "internalType": "bool",
          "name": "",
          "type": "bool"
        }
      ],
      "stateMutability": "view",
      "type": "function"
    },
    {
      "inputs": [],
      "name": "owner",
      "outputs": [
        {
          "internalType": "address",
          "name": "",
          "type": "address"
        }
      ],
      "stateMutability": "view",
      "type": "function"
    },
    {
      "inputs": [],
      "name": "renounceOwnership",
      "outputs": [],
      "stateMutability": "nonpayable",
      "type": "function"
    },
    {
      "inputs": [
        {
          "internalType": "uint256",
          "name": "_amountToPlay",
          "type": "uint256"
        },
        {
          "internalType": "uint256",
          "name": "_amountToWin",
          "type": "uint256"
        },
        {
          "internalType": "uint256",
          "name": "_amountToClaim",
          "type": "uint256"
        }
      ],
      "name": "setupGame",
      "outputs": [],
      "stateMutability": "nonpayable",
      "type": "function"
    },
    {
      "inputs": [
        {
          "internalType": "address",
          "name": "newOwner",
          "type": "address"
        }
      ],
      "name": "transferOwnership",
      "outputs": [],
      "stateMutability": "nonpayable",
      "type": "function"
    },
    {
      "inputs": [],
      "name": "withdraw",
      "outputs": [],
      "stateMutability": "nonpayable",
      "type": "function"
    },
    {
      "inputs": [],
      "name": "withdrawToken",
      "outputs": [],
      "stateMutability": "nonpayable",
      "type": "function"
    }
  ],
  "bytecode": "0x60c06040526012600a6200001491906200042d565b60026200002291906200047e565b6001556012600a6200003591906200042d565b60046200004391906200047e565b6002556012600a6200005691906200042d565b60026200006491906200047e565b6003553480156200007457600080fd5b5060405162002d4538038062002d4583398181016040528101906200009a919062000533565b808073ffffffffffffffffffffffffffffffffffffffff1660808173ffffffffffffffffffffffffffffffffffffffff168152505050620000f0620000e46200012c60201b60201c565b6200014360201b60201c565b8173ffffffffffffffffffffffffffffffffffffffff1660a08173ffffffffffffffffffffffffffffffffffffffff168152505050506200057a565b60006200013e6200020760201b60201c565b905090565b60008060009054906101000a900473ffffffffffffffffffffffffffffffffffffffff169050816000806101000a81548173ffffffffffffffffffffffffffffffffffffffff021916908373ffffffffffffffffffffffffffffffffffffffff1602179055508173ffffffffffffffffffffffffffffffffffffffff168173ffffffffffffffffffffffffffffffffffffffff167f8be0079c531659141344cd1fd0a4f28419497f9722a3daafe3b4186f6b6457e060405160405180910390a35050565b60006200021a336200025e60201b60201c565b80156200022c57506014600036905010155b156200024257601436033560601c90506200025a565b620002526200029860201b60201c565b90506200025b565b5b90565b600060805173ffffffffffffffffffffffffffffffffffffffff168273ffffffffffffffffffffffffffffffffffffffff16149050919050565b600033905090565b7f4e487b7100000000000000000000000000000000000000000000000000000000600052601160045260246000fd5b60008160011c9050919050565b6000808291508390505b60018511156200032e57808604811115620003065762000305620002a0565b5b6001851615620003165780820291505b80810290506200032685620002cf565b9450620002e6565b94509492505050565b6000826200034957600190506200041c565b816200035957600090506200041c565b81600181146200037257600281146200037d57620003b3565b60019150506200041c565b60ff841115620003925762000391620002a0565b5b8360020a915084821115620003ac57620003ab620002a0565b5b506200041c565b5060208310610133831016604e8410600b8410161715620003ed5782820a905083811115620003e757620003e6620002a0565b5b6200041c565b620003fc8484846001620002dc565b92509050818404811115620004165762000415620002a0565b5b81810290505b9392505050565b6000819050919050565b60006200043a8262000423565b9150620004478362000423565b9250620004767fffffffffffffffffffffffffffffffffffffffffffffffffffffffffffffffff848462000337565b905092915050565b60006200048b8262000423565b9150620004988362000423565b9250828202620004a88162000423565b91508282048414831517620004c257620004c1620002a0565b5b5092915050565b600080fd5b600073ffffffffffffffffffffffffffffffffffffffff82169050919050565b6000620004fb82620004ce565b9050919050565b6200050d81620004ee565b81146200051957600080fd5b50565b6000815190506200052d8162000502565b92915050565b600080604083850312156200054d576200054c620004c9565b5b60006200055d858286016200051c565b925050602062000570858286016200051c565b9150509250929050565b60805160a05161274a620005fb6000396000818161056a0152818161066901528181610799015281816108a901528181610adf01528181610dc2015281816110bd015281816111fc015281816113880152818161146d015281816116ba015281816117f101528181611835015261193201526000610a87015261274a6000f3fe60806040526004361061014b5760003560e01c806367fcbef3116100b6578063a5b599e41161006f578063a5b599e414610495578063b88a802f146104d2578063c78c5ae2146104e9578063ca628c78146104f3578063e5a379dd1461050a578063f2fde38b146105355761014b565b806367fcbef314610382578063715018a6146103ab578063859a62d0146103c25780638da5cb5b14610402578063a074696a1461042d578063a0c9ed471461046a5761014b565b80633ccfd60b116101085780633ccfd60b146102725780634bad559a14610289578063565e614f146102b2578063572b6c05146102ef5780635b0fa3661461032c5780636107814e146103575761014b565b806312065fe014610150578063130269c81461017b5780631e6f3d8a146101a65780632e55a767146101e35780633ac9fc111461020c5780633aecd0e314610235575b600080fd5b34801561015c57600080fd5b5061016561055e565b6040516101729190611bcc565b60405180910390f35b34801561018757600080fd5b50610190610566565b60405161019d9190611bcc565b60405180910390f35b3480156101b257600080fd5b506101cd60048036038101906101c89190611c4a565b610607565b6040516101da9190611c92565b60405180910390f35b3480156101ef57600080fd5b5061020a60048036038101906102059190611cd9565b61065d565b005b34801561021857600080fd5b50610233600480360381019061022e9190611cd9565b610754565b005b34801561024157600080fd5b5061025c60048036038101906102579190611c4a565b6108a5565b6040516102699190611bcc565b60405180910390f35b34801561027e57600080fd5b50610287610948565b005b34801561029557600080fd5b506102b060048036038101906102ab9190611d06565b6109a0565b005b3480156102be57600080fd5b506102d960048036038101906102d49190611cd9565b6109c2565b6040516102e69190611ddb565b60405180910390f35b3480156102fb57600080fd5b5061031660048036038101906103119190611c4a565b610a83565b6040516103239190611c92565b60405180910390f35b34801561033857600080fd5b50610341610adb565b60405161034e9190611bcc565b60405180910390f35b34801561036357600080fd5b5061036c610b7e565b6040516103799190611bcc565b60405180910390f35b34801561038e57600080fd5b506103a960048036038101906103a49190611cd9565b610b8b565b005b3480156103b757600080fd5b506103c0610f0b565b005b3480156103ce57600080fd5b506103e960048036038101906103e49190611cd9565b610f1f565b6040516103f99493929190611e05565b60405180910390f35b34801561040e57600080fd5b50610417610f8c565b6040516104249190611e4a565b60405180910390f35b34801561043957600080fd5b50610454600480360381019061044f9190611c4a565b610fb5565b6040516104619190611c92565b60405180910390f35b34801561047657600080fd5b5061047f610fd5565b60405161048c9190611f69565b60405180910390f35b3480156104a157600080fd5b506104bc60048036038101906104b79190611c4a565b6110b9565b6040516104c99190611bcc565b60405180910390f35b3480156104de57600080fd5b506104e761115e565b005b6104f1611383565b005b3480156104ff57600080fd5b506105086117e7565b005b34801561051657600080fd5b5061051f611930565b60405161052c9190611fea565b60405180910390f35b34801561054157600080fd5b5061055c60048036038101906105579190611c4a565b611954565b005b600047905090565b60007f000000000000000000000000000000000000000000000000000000000000000073ffffffffffffffffffffffffffffffffffffffff166370a08231306040518263ffffffff1660e01b81526004016105c19190611e4a565b602060405180830381865afa1580156105de573d6000803e3d6000fd5b505050506040513d601f19601f82011682018060405250810190610602919061201a565b905090565b6000600560008373ffffffffffffffffffffffffffffffffffffffff1673ffffffffffffffffffffffffffffffffffffffff16815260200190815260200160002060009054906101000a900460ff169050919050565b6106656119d7565b60007f000000000000000000000000000000000000000000000000000000000000000073ffffffffffffffffffffffffffffffffffffffff166323b872dd6106ab611a55565b30856040518463ffffffff1660e01b81526004016106cb93929190612047565b6020604051808303816000875af11580156106ea573d6000803e3d6000fd5b505050506040513d601f19601f8201168201806040525081019061070e91906120aa565b905080610750576040517f08c379a000000000000000000000000000000000000000000000000000000000815260040161074790612134565b60405180910390fd5b5050565b60008111610797576040517f08c379a000000000000000000000000000000000000000000000000000000000815260040161078e906121a0565b60405180910390fd5b7f000000000000000000000000000000000000000000000000000000000000000073ffffffffffffffffffffffffffffffffffffffff1663095ea7b330836040518363ffffffff1660e01b81526004016107f29291906121c0565b6020604051808303816000875af1158015610811573d6000803e3d6000fd5b505050506040513d601f19601f8201168201806040525081019061083591906120aa565b503073ffffffffffffffffffffffffffffffffffffffff16610855611a55565b73ffffffffffffffffffffffffffffffffffffffff167f8c5be1e5ebec7d5bd14f71427d1e84f3dd0314c0f7b2291e5b200ac8c7c3b9258360405161089a9190611bcc565b60405180910390a350565b60007f000000000000000000000000000000000000000000000000000000000000000073ffffffffffffffffffffffffffffffffffffffff166370a08231836040518263ffffffff1660e01b81526004016109009190611e4a565b602060405180830381865afa15801561091d573d6000803e3d6000fd5b505050506040513d601f19601f82011682018060405250810190610941919061201a565b9050919050565b6109506119d7565b610958610f8c565b73ffffffffffffffffffffffffffffffffffffffff166108fc479081150290604051600060405180830381858888f1935050505015801561099d573d6000803e3d6000fd5b50565b6109a86119d7565b826001819055508160028190555080600381905550505050565b6109ca611b73565b600482815481106109de576109dd6121e9565b5b9060005260206000209060040201604051806080016040529081600082015481526020016001820160009054906101000a900473ffffffffffffffffffffffffffffffffffffffff1673ffffffffffffffffffffffffffffffffffffffff1673ffffffffffffffffffffffffffffffffffffffff168152602001600282015481526020016003820160009054906101000a900460ff1615151515815250509050919050565b60007f000000000000000000000000000000000000000000000000000000000000000073ffffffffffffffffffffffffffffffffffffffff168273ffffffffffffffffffffffffffffffffffffffff16149050919050565b60007f000000000000000000000000000000000000000000000000000000000000000073ffffffffffffffffffffffffffffffffffffffff1663dd62ed3e30306040518363ffffffff1660e01b8152600401610b38929190612218565b602060405180830381865afa158015610b55573d6000803e3d6000fd5b505050506040513d601f19601f82011682018060405250810190610b79919061201a565b905090565b6000600480549050905090565b6004805490508110610bd2576040517f08c379a0000000000000000000000000000000000000000000000000000000008152600401610bc99061228d565b60405180910390fd5b600073ffffffffffffffffffffffffffffffffffffffff1660048281548110610bfe57610bfd6121e9565b5b906000526020600020906004020160010160009054906101000a900473ffffffffffffffffffffffffffffffffffffffff1673ffffffffffffffffffffffffffffffffffffffff1603610c86576040517f08c379a0000000000000000000000000000000000000000000000000000000008152600401610c7d9061231f565b60405180910390fd5b6001151560048281548110610c9e57610c9d6121e9565b5b906000526020600020906004020160030160009054906101000a900460ff16151503610cff576040517f08c379a0000000000000000000000000000000000000000000000000000000008152600401610cf69061238b565b60405180910390fd5b600060048281548110610d1557610d146121e9565b5b906000526020600020906004020190508060010160009054906101000a900473ffffffffffffffffffffffffffffffffffffffff1673ffffffffffffffffffffffffffffffffffffffff16610d68611a55565b73ffffffffffffffffffffffffffffffffffffffff1614610dbe576040517f08c379a0000000000000000000000000000000000000000000000000000000008152600401610db5906123f7565b60405180910390fd5b60007f000000000000000000000000000000000000000000000000000000000000000073ffffffffffffffffffffffffffffffffffffffff1663a9059cbb610e04611a55565b6002546040518363ffffffff1660e01b8152600401610e249291906121c0565b6020604051808303816000875af1158015610e43573d6000803e3d6000fd5b505050506040513d601f19601f82011682018060405250810190610e6791906120aa565b905080610ea9576040517f08c379a0000000000000000000000000000000000000000000000000000000008152600401610ea090612134565b60405180910390fd5b60018260030160006101000a81548160ff0219169083151502179055507f5556fc35d5e8685baaff99a10feb6d230a017ba150ebd158c7529e31dc5ba39383610ef0611a55565b604051610efe929190612417565b60405180910390a1505050565b610f136119d7565b610f1d6000611a64565b565b60048181548110610f2f57600080fd5b90600052602060002090600402016000915090508060000154908060010160009054906101000a900473ffffffffffffffffffffffffffffffffffffffff16908060020154908060030160009054906101000a900460ff16905084565b60008060009054906101000a900473ffffffffffffffffffffffffffffffffffffffff16905090565b60056020528060005260406000206000915054906101000a900460ff1681565b60606004805480602002602001604051908101604052809291908181526020016000905b828210156110b05783829060005260206000209060040201604051806080016040529081600082015481526020016001820160009054906101000a900473ffffffffffffffffffffffffffffffffffffffff1673ffffffffffffffffffffffffffffffffffffffff1673ffffffffffffffffffffffffffffffffffffffff168152602001600282015481526020016003820160009054906101000a900460ff16151515158152505081526020019060010190610ff9565b50505050905090565b60007f000000000000000000000000000000000000000000000000000000000000000073ffffffffffffffffffffffffffffffffffffffff1663dd62ed3e83306040518363ffffffff1660e01b8152600401611116929190612218565b602060405180830381865afa158015611133573d6000803e3d6000fd5b505050506040513d601f19601f82011682018060405250810190611157919061201a565b9050919050565b600115156005600061116e611a55565b73ffffffffffffffffffffffffffffffffffffffff1673ffffffffffffffffffffffffffffffffffffffff16815260200190815260200160002060009054906101000a900460ff161515036111f8576040517f08c379a00000000000000000000000000000000000000000000000000000000081526004016111ef9061248c565b60405180910390fd5b60007f000000000000000000000000000000000000000000000000000000000000000073ffffffffffffffffffffffffffffffffffffffff1663a9059cbb61123e611a55565b6003546040518363ffffffff1660e01b815260040161125e9291906121c0565b6020604051808303816000875af115801561127d573d6000803e3d6000fd5b505050506040513d601f19601f820116820180604052508101906112a191906120aa565b9050806112e3576040517f08c379a00000000000000000000000000000000000000000000000000000000081526004016112da90612134565b60405180910390fd5b6001600560006112f1611a55565b73ffffffffffffffffffffffffffffffffffffffff1673ffffffffffffffffffffffffffffffffffffffff16815260200190815260200160002060006101000a81548160ff0219169083151502179055507fea61a2a22523394f29506de20cc9db2e881f096477982d51012058ec9032714a61136b611a55565b6040516113789190611e4a565b60405180910390a150565b6001547f000000000000000000000000000000000000000000000000000000000000000073ffffffffffffffffffffffffffffffffffffffff166370a082316113ca611a55565b6040518263ffffffff1660e01b81526004016113e69190611e4a565b602060405180830381865afa158015611403573d6000803e3d6000fd5b505050506040513d601f19601f82011682018060405250810190611427919061201a565b1015611468576040517f08c379a000000000000000000000000000000000000000000000000000000000815260040161145f906124f8565b60405180910390fd5b6001547f000000000000000000000000000000000000000000000000000000000000000073ffffffffffffffffffffffffffffffffffffffff1663dd62ed3e6114af611a55565b306040518363ffffffff1660e01b81526004016114cd929190612218565b602060405180830381865afa1580156114ea573d6000803e3d6000fd5b505050506040513d601f19601f8201168201806040525081019061150e919061201a565b101561154f576040517f08c379a000000000000000000000000000000000000000000000000000000000815260040161154690612564565b60405180910390fd5b600073ffffffffffffffffffffffffffffffffffffffff1661156f611a55565b73ffffffffffffffffffffffffffffffffffffffff16036115c5576040517f08c379a00000000000000000000000000000000000000000000000000000000081526004016115bc906125f6565b60405180910390fd5b6000604051806080016040528060048054905081526020016115e5611a55565b73ffffffffffffffffffffffffffffffffffffffff16815260200142815260200160001515815250905060048190806001815401808255809150506001900390600052602060002090600402016000909190919091506000820151816000015560208201518160010160006101000a81548173ffffffffffffffffffffffffffffffffffffffff021916908373ffffffffffffffffffffffffffffffffffffffff1602179055506040820151816002015560608201518160030160006101000a81548160ff02191690831515021790555050507f000000000000000000000000000000000000000000000000000000000000000073ffffffffffffffffffffffffffffffffffffffff166323b872dd6116fc611a55565b306001546040518463ffffffff1660e01b815260040161171e93929190612047565b6020604051808303816000875af115801561173d573d6000803e3d6000fd5b505050506040513d601f19601f8201168201806040525081019061176191906120aa565b6117a0576040517f08c379a000000000000000000000000000000000000000000000000000000000815260040161179790612134565b60405180910390fd5b7fcd26131b45150811014e8f4d6f6c04f24f83a2571aaa878996973b82b2ab2d3f81600001516117ce611a55565b6040516117dc929190612417565b60405180910390a150565b6117ef6119d7565b7f000000000000000000000000000000000000000000000000000000000000000073ffffffffffffffffffffffffffffffffffffffff1663a9059cbb611833610f8c565b7f000000000000000000000000000000000000000000000000000000000000000073ffffffffffffffffffffffffffffffffffffffff166370a08231306040518263ffffffff1660e01b815260040161188c9190611e4a565b602060405180830381865afa1580156118a9573d6000803e3d6000fd5b505050506040513d601f19601f820116820180604052508101906118cd919061201a565b6040518363ffffffff1660e01b81526004016118ea9291906121c0565b6020604051808303816000875af1158015611909573d6000803e3d6000fd5b505050506040513d601f19601f8201168201806040525081019061192d91906120aa565b50565b7f000000000000000000000000000000000000000000000000000000000000000081565b61195c6119d7565b600073ffffffffffffffffffffffffffffffffffffffff168173ffffffffffffffffffffffffffffffffffffffff16036119cb576040517f08c379a00000000000000000000000000000000000000000000000000000000081526004016119c290612688565b60405180910390fd5b6119d481611a64565b50565b6119df611a55565b73ffffffffffffffffffffffffffffffffffffffff166119fd610f8c565b73ffffffffffffffffffffffffffffffffffffffff1614611a53576040517f08c379a0000000000000000000000000000000000000000000000000000000008152600401611a4a906126f4565b60405180910390fd5b565b6000611a5f611b28565b905090565b60008060009054906101000a900473ffffffffffffffffffffffffffffffffffffffff169050816000806101000a81548173ffffffffffffffffffffffffffffffffffffffff021916908373ffffffffffffffffffffffffffffffffffffffff1602179055508173ffffffffffffffffffffffffffffffffffffffff168173ffffffffffffffffffffffffffffffffffffffff167f8be0079c531659141344cd1fd0a4f28419497f9722a3daafe3b4186f6b6457e060405160405180910390a35050565b6000611b3333610a83565b8015611b4457506014600036905010155b15611b5857601436033560601c9050611b67565b611b60611b6b565b9050611b68565b5b90565b600033905090565b604051806080016040528060008152602001600073ffffffffffffffffffffffffffffffffffffffff168152602001600081526020016000151581525090565b6000819050919050565b611bc681611bb3565b82525050565b6000602082019050611be16000830184611bbd565b92915050565b600080fd5b600073ffffffffffffffffffffffffffffffffffffffff82169050919050565b6000611c1782611bec565b9050919050565b611c2781611c0c565b8114611c3257600080fd5b50565b600081359050611c4481611c1e565b92915050565b600060208284031215611c6057611c5f611be7565b5b6000611c6e84828501611c35565b91505092915050565b60008115159050919050565b611c8c81611c77565b82525050565b6000602082019050611ca76000830184611c83565b92915050565b611cb681611bb3565b8114611cc157600080fd5b50565b600081359050611cd381611cad565b92915050565b600060208284031215611cef57611cee611be7565b5b6000611cfd84828501611cc4565b91505092915050565b600080600060608486031215611d1f57611d1e611be7565b5b6000611d2d86828701611cc4565b9350506020611d3e86828701611cc4565b9250506040611d4f86828701611cc4565b9150509250925092565b611d6281611bb3565b82525050565b611d7181611c0c565b82525050565b611d8081611c77565b82525050565b608082016000820151611d9c6000850182611d59565b506020820151611daf6020850182611d68565b506040820151611dc26040850182611d59565b506060820151611dd56060850182611d77565b50505050565b6000608082019050611df06000830184611d86565b92915050565b611dff81611c0c565b82525050565b6000608082019050611e1a6000830187611bbd565b611e276020830186611df6565b611e346040830185611bbd565b611e416060830184611c83565b95945050505050565b6000602082019050611e5f6000830184611df6565b92915050565b600081519050919050565b600082825260208201905092915050565b6000819050602082019050919050565b608082016000820151611ea76000850182611d59565b506020820151611eba6020850182611d68565b506040820151611ecd6040850182611d59565b506060820151611ee06060850182611d77565b50505050565b6000611ef28383611e91565b60808301905092915050565b6000602082019050919050565b6000611f1682611e65565b611f208185611e70565b9350611f2b83611e81565b8060005b83811015611f5c578151611f438882611ee6565b9750611f4e83611efe565b925050600181019050611f2f565b5085935050505092915050565b60006020820190508181036000830152611f838184611f0b565b905092915050565b6000819050919050565b6000611fb0611fab611fa684611bec565b611f8b565b611bec565b9050919050565b6000611fc282611f95565b9050919050565b6000611fd482611fb7565b9050919050565b611fe481611fc9565b82525050565b6000602082019050611fff6000830184611fdb565b92915050565b60008151905061201481611cad565b92915050565b6000602082840312156120305761202f611be7565b5b600061203e84828501612005565b91505092915050565b600060608201905061205c6000830186611df6565b6120696020830185611df6565b6120766040830184611bbd565b949350505050565b61208781611c77565b811461209257600080fd5b50565b6000815190506120a48161207e565b92915050565b6000602082840312156120c0576120bf611be7565b5b60006120ce84828501612095565b91505092915050565b600082825260208201905092915050565b7f546f6b656e207472616e73666572206661696c65642100000000000000000000600082015250565b600061211e6016836120d7565b9150612129826120e8565b602082019050919050565b6000602082019050818103600083015261214d81612111565b9050919050565b7f416d6f756e74206d7573742062652067726561746572207468616e2030000000600082015250565b600061218a601d836120d7565b915061219582612154565b602082019050919050565b600060208201905081810360008301526121b98161217d565b9050919050565b60006040820190506121d56000830185611df6565b6121e26020830184611bbd565b9392505050565b7f4e487b7100000000000000000000000000000000000000000000000000000000600052603260045260246000fd5b600060408201905061222d6000830185611df6565b61223a6020830184611df6565b9392505050565b7f4475656c20646f6573206e6f7420657869737400000000000000000000000000600082015250565b60006122776013836120d7565b915061228282612241565b602082019050919050565b600060208201905081810360008301526122a68161226a565b9050919050565b7f506c61796572206d757374206e6f7420626520746865207a65726f206164647260008201527f6573730000000000000000000000000000000000000000000000000000000000602082015250565b60006123096023836120d7565b9150612314826122ad565b604082019050919050565b60006020820190508181036000830152612338816122fc565b9050919050565b7f57696e6e696e677320616c726561647920636c61696d65640000000000000000600082015250565b60006123756018836120d7565b91506123808261233f565b602082019050919050565b600060208201905081810360008301526123a481612368565b9050919050565b7f4f6e6c7920706c617965722063616e2066696e697368206475656c0000000000600082015250565b60006123e1601b836120d7565b91506123ec826123ab565b602082019050919050565b60006020820190508181036000830152612410816123d4565b9050919050565b600060408201905061242c6000830185611bbd565b6124396020830184611df6565b9392505050565b7f52657761726420616c726561647920636c61696d656400000000000000000000600082015250565b60006124766016836120d7565b915061248182612440565b602082019050919050565b600060208201905081810360008301526124a581612469565b9050919050565b7f496e73756666696369656e7420585020746f6b656e7300000000000000000000600082015250565b60006124e26016836120d7565b91506124ed826124ac565b602082019050919050565b60006020820190508181036000830152612511816124d5565b9050919050565b7f585020746f6b656e73206d75737420626520617070726f766564000000000000600082015250565b600061254e601a836120d7565b915061255982612518565b602082019050919050565b6000602082019050818103600083015261257d81612541565b9050919050565b7f53656e646572206d757374206e6f7420626520746865207a65726f206164647260008201527f6573730000000000000000000000000000000000000000000000000000000000602082015250565b60006125e06023836120d7565b91506125eb82612584565b604082019050919050565b6000602082019050818103600083015261260f816125d3565b9050919050565b7f4f776e61626c653a206e6577206f776e657220697320746865207a65726f206160008201527f6464726573730000000000000000000000000000000000000000000000000000602082015250565b60006126726026836120d7565b915061267d82612616565b604082019050919050565b600060208201905081810360008301526126a181612665565b9050919050565b7f4f776e61626c653a2063616c6c6572206973206e6f7420746865206f776e6572600082015250565b60006126de6020836120d7565b91506126e9826126a8565b602082019050919050565b6000602082019050818103600083015261270d816126d1565b905091905056fea264697066735822122072df2573d6466dc0ab0532825c8e0da63275afa40408415adcae42d11512f63a64736f6c63430008130033",
  "linkReferences": {},
  "deployedLinkReferences": {}
}