{
  "_format": "hh-sol-artifact-1",
  "contractName": "AIDuels",
  "sourceName": "contracts/AIDuels.sol",
  "abi": [
    {
      "inputs": [
        {
          "internalType": "address",
          "name": "_tokenAddress",
          "type": "address"
        }
      ],
      "stateMutability": "nonpayable",
      "type": "constructor"
    },
    {
      "anonymous": false,
      "inputs": [
        {
          "indexed": true,
          "internalType": "address",
          "name": "owner",
          "type": "address"
        },
        {
          "indexed": true,
          "internalType": "address",
          "name": "spender",
          "type": "address"
        },
        {
          "indexed": false,
          "internalType": "uint256",
          "name": "value",
          "type": "uint256"
        }
      ],
      "name": "Approval",
      "type": "event"
    },
    {
      "anonymous": false,
      "inputs": [
        {
          "indexed": true,
          "internalType": "address",
          "name": "buyer",
          "type": "address"
        },
        {
          "indexed": false,
          "internalType": "uint256",
          "name": "value",
          "type": "uint256"
        }
      ],
      "name": "BuyTokens",
      "type": "event"
    },
    {
      "anonymous": false,
      "inputs": [
        {
          "indexed": false,
          "internalType": "uint256",
          "name": "id",
          "type": "uint256"
        },
        {
          "indexed": false,
          "internalType": "address",
          "name": "player",
          "type": "address"
        }
      ],
      "name": "DuelCreated",
      "type": "event"
    },
    {
      "anonymous": false,
      "inputs": [
        {
          "indexed": false,
          "internalType": "uint256",
          "name": "id",
          "type": "uint256"
        },
        {
          "indexed": false,
          "internalType": "address",
          "name": "winner",
          "type": "address"
        }
      ],
      "name": "DuelFinished",
      "type": "event"
    },
    {
      "anonymous": false,
      "inputs": [
        {
          "indexed": true,
          "internalType": "address",
          "name": "previousOwner",
          "type": "address"
        },
        {
          "indexed": true,
          "internalType": "address",
          "name": "newOwner",
          "type": "address"
        }
      ],
      "name": "OwnershipTransferred",
      "type": "event"
    },
    {
      "anonymous": false,
      "inputs": [
        {
          "indexed": false,
          "internalType": "address",
          "name": "winner",
          "type": "address"
        }
      ],
      "name": "RewardClaimed",
      "type": "event"
    },
    {
      "inputs": [],
      "name": "XP",
      "outputs": [
        {
          "internalType": "contract IERC20",
          "name": "",
          "type": "address"
        }
      ],
      "stateMutability": "view",
      "type": "function"
    },
    {
      "inputs": [
        {
          "internalType": "uint256",
          "name": "_amount",
          "type": "uint256"
        }
      ],
      "name": "approveToken",
      "outputs": [],
      "stateMutability": "nonpayable",
      "type": "function"
    },
    {
      "inputs": [],
      "name": "buyTokens",
      "outputs": [],
      "stateMutability": "payable",
      "type": "function"
    },
    {
      "inputs": [],
      "name": "claimReward",
      "outputs": [],
      "stateMutability": "nonpayable",
      "type": "function"
    },
    {
      "inputs": [
        {
          "internalType": "address",
          "name": "_wallet",
          "type": "address"
        }
      ],
      "name": "claimedReward",
      "outputs": [
        {
          "internalType": "bool",
          "name": "",
          "type": "bool"
        }
      ],
      "stateMutability": "view",
      "type": "function"
    },
    {
      "inputs": [],
      "name": "createDuel",
      "outputs": [],
      "stateMutability": "payable",
      "type": "function"
    },
    {
      "inputs": [
        {
          "internalType": "uint256",
          "name": "",
          "type": "uint256"
        }
      ],
      "name": "duels",
      "outputs": [
        {
          "internalType": "uint256",
          "name": "id",
          "type": "uint256"
        },
        {
          "internalType": "address",
          "name": "player",
          "type": "address"
        },
        {
          "internalType": "uint256",
          "name": "createdAt",
          "type": "uint256"
        },
        {
          "internalType": "bool",
          "name": "claimedWinnings",
          "type": "bool"
        }
      ],
      "stateMutability": "view",
      "type": "function"
    },
    {
      "inputs": [
        {
          "internalType": "uint256",
          "name": "_duelId",
          "type": "uint256"
        }
      ],
      "name": "finishDuel",
      "outputs": [],
      "stateMutability": "nonpayable",
      "type": "function"
    },
    {
      "inputs": [
        {
          "internalType": "uint256",
          "name": "_amount",
          "type": "uint256"
        }
      ],
      "name": "fundGame",
      "outputs": [],
      "stateMutability": "nonpayable",
      "type": "function"
    },
    {
      "inputs": [],
      "name": "getBalance",
      "outputs": [
        {
          "internalType": "uint256",
          "name": "",
          "type": "uint256"
        }
      ],
      "stateMutability": "view",
      "type": "function"
    },
    {
      "inputs": [
        {
          "internalType": "uint256",
          "name": "_duelId",
          "type": "uint256"
        }
      ],
      "name": "getDuel",
      "outputs": [
        {
          "components": [
            {
              "internalType": "uint256",
              "name": "id",
              "type": "uint256"
            },
            {
              "internalType": "address",
              "name": "player",
              "type": "address"
            },
            {
              "internalType": "uint256",
              "name": "createdAt",
              "type": "uint256"
            },
            {
              "internalType": "bool",
              "name": "claimedWinnings",
              "type": "bool"
            }
          ],
          "internalType": "struct AIDuels.Duel",
          "name": "",
          "type": "tuple"
        }
      ],
      "stateMutability": "view",
      "type": "function"
    },
    {
      "inputs": [],
      "name": "getDuels",
      "outputs": [
        {
          "components": [
            {
              "internalType": "uint256",
              "name": "id",
              "type": "uint256"
            },
            {
              "internalType": "address",
              "name": "player",
              "type": "address"
            },
            {
              "internalType": "uint256",
              "name": "createdAt",
              "type": "uint256"
            },
            {
              "internalType": "bool",
              "name": "claimedWinnings",
              "type": "bool"
            }
          ],
          "internalType": "struct AIDuels.Duel[]",
          "name": "",
          "type": "tuple[]"
        }
      ],
      "stateMutability": "view",
      "type": "function"
    },
    {
      "inputs": [],
      "name": "getDuelsCount",
      "outputs": [
        {
          "internalType": "uint256",
          "name": "",
          "type": "uint256"
        }
      ],
      "stateMutability": "view",
      "type": "function"
    },
    {
      "inputs": [
        {
          "internalType": "address",
          "name": "_wallet",
          "type": "address"
        }
      ],
      "name": "getTokenAllowance",
      "outputs": [
        {
          "internalType": "uint256",
          "name": "",
          "type": "uint256"
        }
      ],
      "stateMutability": "view",
      "type": "function"
    },
    {
      "inputs": [],
      "name": "getTokenAllowanceContract",
      "outputs": [
        {
          "internalType": "uint256",
          "name": "",
          "type": "uint256"
        }
      ],
      "stateMutability": "view",
      "type": "function"
    },
    {
      "inputs": [
        {
          "internalType": "address",
          "name": "_wallet",
          "type": "address"
        }
      ],
      "name": "getTokenBalance",
      "outputs": [
        {
          "internalType": "uint256",
          "name": "",
          "type": "uint256"
        }
      ],
      "stateMutability": "view",
      "type": "function"
    },
    {
      "inputs": [],
      "name": "getTokenBalanceContract",
      "outputs": [
        {
          "internalType": "uint256",
          "name": "",
          "type": "uint256"
        }
      ],
      "stateMutability": "view",
      "type": "function"
    },
    {
      "inputs": [
        {
          "internalType": "address",
          "name": "",
          "type": "address"
        }
      ],
      "name": "hasClaimedReward",
      "outputs": [
        {
          "internalType": "bool",
          "name": "",
          "type": "bool"
        }
      ],
      "stateMutability": "view",
      "type": "function"
    },
    {
      "inputs": [],
      "name": "owner",
      "outputs": [
        {
          "internalType": "address",
          "name": "",
          "type": "address"
        }
      ],
      "stateMutability": "view",
      "type": "function"
    },
    {
      "inputs": [],
      "name": "renounceOwnership",
      "outputs": [],
      "stateMutability": "nonpayable",
      "type": "function"
    },
    {
      "inputs": [
        {
          "internalType": "uint256",
          "name": "_amountToPlay",
          "type": "uint256"
        },
        {
          "internalType": "uint256",
          "name": "_amountToWin",
          "type": "uint256"
        },
        {
          "internalType": "uint256",
          "name": "_amountToClaim",
          "type": "uint256"
        }
      ],
      "name": "setupGame",
      "outputs": [],
      "stateMutability": "nonpayable",
      "type": "function"
    },
    {
      "inputs": [
        {
          "internalType": "address",
          "name": "newOwner",
          "type": "address"
        }
      ],
      "name": "transferOwnership",
      "outputs": [],
      "stateMutability": "nonpayable",
      "type": "function"
    },
    {
      "inputs": [],
      "name": "withdraw",
      "outputs": [],
      "stateMutability": "nonpayable",
      "type": "function"
    },
    {
      "inputs": [],
      "name": "withdrawToken",
      "outputs": [],
      "stateMutability": "nonpayable",
      "type": "function"
    }
  ],
  "bytecode": "0x60a06040526012600a6200001491906200034e565b60026200002291906200039f565b6001556012600a6200003591906200034e565b60046200004391906200039f565b6002556012600a6200005691906200034e565b60026200006491906200039f565b6003553480156200007457600080fd5b5060405162002e4338038062002e4383398181016040528101906200009a919062000454565b620000ba620000ae620000f560201b60201c565b620000fd60201b60201c565b8073ffffffffffffffffffffffffffffffffffffffff1660808173ffffffffffffffffffffffffffffffffffffffff16815250505062000486565b600033905090565b60008060009054906101000a900473ffffffffffffffffffffffffffffffffffffffff169050816000806101000a81548173ffffffffffffffffffffffffffffffffffffffff021916908373ffffffffffffffffffffffffffffffffffffffff1602179055508173ffffffffffffffffffffffffffffffffffffffff168173ffffffffffffffffffffffffffffffffffffffff167f8be0079c531659141344cd1fd0a4f28419497f9722a3daafe3b4186f6b6457e060405160405180910390a35050565b7f4e487b7100000000000000000000000000000000000000000000000000000000600052601160045260246000fd5b60008160011c9050919050565b6000808291508390505b60018511156200024f57808604811115620002275762000226620001c1565b5b6001851615620002375780820291505b80810290506200024785620001f0565b945062000207565b94509492505050565b6000826200026a57600190506200033d565b816200027a57600090506200033d565b81600181146200029357600281146200029e57620002d4565b60019150506200033d565b60ff841115620002b357620002b2620001c1565b5b8360020a915084821115620002cd57620002cc620001c1565b5b506200033d565b5060208310610133831016604e8410600b84101617156200030e5782820a905083811115620003085762000307620001c1565b5b6200033d565b6200031d8484846001620001fd565b92509050818404811115620003375762000336620001c1565b5b81810290505b9392505050565b6000819050919050565b60006200035b8262000344565b9150620003688362000344565b9250620003977fffffffffffffffffffffffffffffffffffffffffffffffffffffffffffffffff848462000258565b905092915050565b6000620003ac8262000344565b9150620003b98362000344565b9250828202620003c98162000344565b91508282048414831517620003e357620003e2620001c1565b5b5092915050565b600080fd5b600073ffffffffffffffffffffffffffffffffffffffff82169050919050565b60006200041c82620003ef565b9050919050565b6200042e816200040f565b81146200043a57600080fd5b50565b6000815190506200044e8162000423565b92915050565b6000602082840312156200046d576200046c620003ea565b5b60006200047d848285016200043d565b91505092915050565b6080516129386200050b60003960008181610537015281816106360152818161075f0152818161086801528181610a4601528181610d220152818161100f01528181611147015281816112be0152818161139c015281816115d4015281816116fd015281816117410152818161188a015281816119670152611a9a01526129386000f3fe60806040526004361061014b5760003560e01c8063715018a6116100b6578063b88a802f1161006f578063b88a802f14610495578063c78c5ae2146104ac578063ca628c78146104b6578063d0febe4c146104cd578063e5a379dd146104d7578063f2fde38b146105025761014b565b8063715018a61461036e578063859a62d0146103855780638da5cb5b146103c5578063a074696a146103f0578063a0c9ed471461042d578063a5b599e4146104585761014b565b80633ccfd60b116101085780633ccfd60b146102725780634bad559a14610289578063565e614f146102b25780635b0fa366146102ef5780636107814e1461031a57806367fcbef3146103455761014b565b806312065fe014610150578063130269c81461017b5780631e6f3d8a146101a65780632e55a767146101e35780633ac9fc111461020c5780633aecd0e314610235575b600080fd5b34801561015c57600080fd5b5061016561052b565b6040516101729190611ce2565b60405180910390f35b34801561018757600080fd5b50610190610533565b60405161019d9190611ce2565b60405180910390f35b3480156101b257600080fd5b506101cd60048036038101906101c89190611d60565b6105d4565b6040516101da9190611da8565b60405180910390f35b3480156101ef57600080fd5b5061020a60048036038101906102059190611def565b61062a565b005b34801561021857600080fd5b50610233600480360381019061022e9190611def565b61071a565b005b34801561024157600080fd5b5061025c60048036038101906102579190611d60565b610864565b6040516102699190611ce2565b60405180910390f35b34801561027e57600080fd5b50610287610907565b005b34801561029557600080fd5b506102b060048036038101906102ab9190611e1c565b61095f565b005b3480156102be57600080fd5b506102d960048036038101906102d49190611def565b610981565b6040516102e69190611ef1565b60405180910390f35b3480156102fb57600080fd5b50610304610a42565b6040516103119190611ce2565b60405180910390f35b34801561032657600080fd5b5061032f610ae5565b60405161033c9190611ce2565b60405180910390f35b34801561035157600080fd5b5061036c60048036038101906103679190611def565b610af2565b005b34801561037a57600080fd5b50610383610e5d565b005b34801561039157600080fd5b506103ac60048036038101906103a79190611def565b610e71565b6040516103bc9493929190611f1b565b60405180910390f35b3480156103d157600080fd5b506103da610ede565b6040516103e79190611f60565b60405180910390f35b3480156103fc57600080fd5b5061041760048036038101906104129190611d60565b610f07565b6040516104249190611da8565b60405180910390f35b34801561043957600080fd5b50610442610f27565b60405161044f919061207f565b60405180910390f35b34801561046457600080fd5b5061047f600480360381019061047a9190611d60565b61100b565b60405161048c9190611ce2565b60405180910390f35b3480156104a157600080fd5b506104aa6110b0565b005b6104b46112b9565b005b3480156104c257600080fd5b506104cb6116f3565b005b6104d561183c565b005b3480156104e357600080fd5b506104ec611a98565b6040516104f99190612100565b60405180910390f35b34801561050e57600080fd5b5061052960048036038101906105249190611d60565b611abc565b005b600047905090565b60007f000000000000000000000000000000000000000000000000000000000000000073ffffffffffffffffffffffffffffffffffffffff166370a08231306040518263ffffffff1660e01b815260040161058e9190611f60565b602060405180830381865afa1580156105ab573d6000803e3d6000fd5b505050506040513d601f19601f820116820180604052508101906105cf9190612130565b905090565b6000600560008373ffffffffffffffffffffffffffffffffffffffff1673ffffffffffffffffffffffffffffffffffffffff16815260200190815260200160002060009054906101000a900460ff169050919050565b610632611b3f565b60007f000000000000000000000000000000000000000000000000000000000000000073ffffffffffffffffffffffffffffffffffffffff166323b872dd3330856040518463ffffffff1660e01b81526004016106919392919061215d565b6020604051808303816000875af11580156106b0573d6000803e3d6000fd5b505050506040513d601f19601f820116820180604052508101906106d491906121c0565b905080610716576040517f08c379a000000000000000000000000000000000000000000000000000000000815260040161070d9061224a565b60405180910390fd5b5050565b6000811161075d576040517f08c379a0000000000000000000000000000000000000000000000000000000008152600401610754906122b6565b60405180910390fd5b7f000000000000000000000000000000000000000000000000000000000000000073ffffffffffffffffffffffffffffffffffffffff1663095ea7b330836040518363ffffffff1660e01b81526004016107b89291906122d6565b6020604051808303816000875af11580156107d7573d6000803e3d6000fd5b505050506040513d601f19601f820116820180604052508101906107fb91906121c0565b503073ffffffffffffffffffffffffffffffffffffffff163373ffffffffffffffffffffffffffffffffffffffff167f8c5be1e5ebec7d5bd14f71427d1e84f3dd0314c0f7b2291e5b200ac8c7c3b925836040516108599190611ce2565b60405180910390a350565b60007f000000000000000000000000000000000000000000000000000000000000000073ffffffffffffffffffffffffffffffffffffffff166370a08231836040518263ffffffff1660e01b81526004016108bf9190611f60565b602060405180830381865afa1580156108dc573d6000803e3d6000fd5b505050506040513d601f19601f820116820180604052508101906109009190612130565b9050919050565b61090f611b3f565b610917610ede565b73ffffffffffffffffffffffffffffffffffffffff166108fc479081150290604051600060405180830381858888f1935050505015801561095c573d6000803e3d6000fd5b50565b610967611b3f565b826001819055508160028190555080600381905550505050565b610989611c89565b6004828154811061099d5761099c6122ff565b5b9060005260206000209060040201604051806080016040529081600082015481526020016001820160009054906101000a900473ffffffffffffffffffffffffffffffffffffffff1673ffffffffffffffffffffffffffffffffffffffff1673ffffffffffffffffffffffffffffffffffffffff168152602001600282015481526020016003820160009054906101000a900460ff1615151515815250509050919050565b60007f000000000000000000000000000000000000000000000000000000000000000073ffffffffffffffffffffffffffffffffffffffff1663dd62ed3e30306040518363ffffffff1660e01b8152600401610a9f92919061232e565b602060405180830381865afa158015610abc573d6000803e3d6000fd5b505050506040513d601f19601f82011682018060405250810190610ae09190612130565b905090565b6000600480549050905090565b6004805490508110610b39576040517f08c379a0000000000000000000000000000000000000000000000000000000008152600401610b30906123a3565b60405180910390fd5b600073ffffffffffffffffffffffffffffffffffffffff1660048281548110610b6557610b646122ff565b5b906000526020600020906004020160010160009054906101000a900473ffffffffffffffffffffffffffffffffffffffff1673ffffffffffffffffffffffffffffffffffffffff1603610bed576040517f08c379a0000000000000000000000000000000000000000000000000000000008152600401610be490612435565b60405180910390fd5b6001151560048281548110610c0557610c046122ff565b5b906000526020600020906004020160030160009054906101000a900460ff16151503610c66576040517f08c379a0000000000000000000000000000000000000000000000000000000008152600401610c5d906124a1565b60405180910390fd5b600060048281548110610c7c57610c7b6122ff565b5b906000526020600020906004020190508060010160009054906101000a900473ffffffffffffffffffffffffffffffffffffffff1673ffffffffffffffffffffffffffffffffffffffff163373ffffffffffffffffffffffffffffffffffffffff1614610d1e576040517f08c379a0000000000000000000000000000000000000000000000000000000008152600401610d159061250d565b60405180910390fd5b60007f000000000000000000000000000000000000000000000000000000000000000073ffffffffffffffffffffffffffffffffffffffff1663a9059cbb336002546040518363ffffffff1660e01b8152600401610d7d9291906122d6565b6020604051808303816000875af1158015610d9c573d6000803e3d6000fd5b505050506040513d601f19601f82011682018060405250810190610dc091906121c0565b905080610e02576040517f08c379a0000000000000000000000000000000000000000000000000000000008152600401610df99061224a565b60405180910390fd5b60018260030160006101000a81548160ff0219169083151502179055507f5556fc35d5e8685baaff99a10feb6d230a017ba150ebd158c7529e31dc5ba3938333604051610e5092919061252d565b60405180910390a1505050565b610e65611b3f565b610e6f6000611bbd565b565b60048181548110610e8157600080fd5b90600052602060002090600402016000915090508060000154908060010160009054906101000a900473ffffffffffffffffffffffffffffffffffffffff16908060020154908060030160009054906101000a900460ff16905084565b60008060009054906101000a900473ffffffffffffffffffffffffffffffffffffffff16905090565b60056020528060005260406000206000915054906101000a900460ff1681565b60606004805480602002602001604051908101604052809291908181526020016000905b828210156110025783829060005260206000209060040201604051806080016040529081600082015481526020016001820160009054906101000a900473ffffffffffffffffffffffffffffffffffffffff1673ffffffffffffffffffffffffffffffffffffffff1673ffffffffffffffffffffffffffffffffffffffff168152602001600282015481526020016003820160009054906101000a900460ff16151515158152505081526020019060010190610f4b565b50505050905090565b60007f000000000000000000000000000000000000000000000000000000000000000073ffffffffffffffffffffffffffffffffffffffff1663dd62ed3e83306040518363ffffffff1660e01b815260040161106892919061232e565b602060405180830381865afa158015611085573d6000803e3d6000fd5b505050506040513d601f19601f820116820180604052508101906110a99190612130565b9050919050565b60011515600560003373ffffffffffffffffffffffffffffffffffffffff1673ffffffffffffffffffffffffffffffffffffffff16815260200190815260200160002060009054906101000a900460ff16151503611143576040517f08c379a000000000000000000000000000000000000000000000000000000000815260040161113a906125a2565b60405180910390fd5b60007f000000000000000000000000000000000000000000000000000000000000000073ffffffffffffffffffffffffffffffffffffffff1663a9059cbb336003546040518363ffffffff1660e01b81526004016111a29291906122d6565b6020604051808303816000875af11580156111c1573d6000803e3d6000fd5b505050506040513d601f19601f820116820180604052508101906111e591906121c0565b905080611227576040517f08c379a000000000000000000000000000000000000000000000000000000000815260040161121e9061224a565b60405180910390fd5b6001600560003373ffffffffffffffffffffffffffffffffffffffff1673ffffffffffffffffffffffffffffffffffffffff16815260200190815260200160002060006101000a81548160ff0219169083151502179055507fea61a2a22523394f29506de20cc9db2e881f096477982d51012058ec9032714a336040516112ae9190611f60565b60405180910390a150565b6001547f000000000000000000000000000000000000000000000000000000000000000073ffffffffffffffffffffffffffffffffffffffff166370a08231336040518263ffffffff1660e01b81526004016113159190611f60565b602060405180830381865afa158015611332573d6000803e3d6000fd5b505050506040513d601f19601f820116820180604052508101906113569190612130565b1015611397576040517f08c379a000000000000000000000000000000000000000000000000000000000815260040161138e9061260e565b60405180910390fd5b6001547f000000000000000000000000000000000000000000000000000000000000000073ffffffffffffffffffffffffffffffffffffffff1663dd62ed3e33306040518363ffffffff1660e01b81526004016113f592919061232e565b602060405180830381865afa158015611412573d6000803e3d6000fd5b505050506040513d601f19601f820116820180604052508101906114369190612130565b1015611477576040517f08c379a000000000000000000000000000000000000000000000000000000000815260040161146e9061267a565b60405180910390fd5b600073ffffffffffffffffffffffffffffffffffffffff163373ffffffffffffffffffffffffffffffffffffffff16036114e6576040517f08c379a00000000000000000000000000000000000000000000000000000000081526004016114dd9061270c565b60405180910390fd5b6000604051806080016040528060048054905081526020013373ffffffffffffffffffffffffffffffffffffffff16815260200142815260200160001515815250905060048190806001815401808255809150506001900390600052602060002090600402016000909190919091506000820151816000015560208201518160010160006101000a81548173ffffffffffffffffffffffffffffffffffffffff021916908373ffffffffffffffffffffffffffffffffffffffff1602179055506040820151816002015560608201518160030160006101000a81548160ff02191690831515021790555050507f000000000000000000000000000000000000000000000000000000000000000073ffffffffffffffffffffffffffffffffffffffff166323b872dd33306001546040518463ffffffff1660e01b81526004016116319392919061215d565b6020604051808303816000875af1158015611650573d6000803e3d6000fd5b505050506040513d601f19601f8201168201806040525081019061167491906121c0565b6116b3576040517f08c379a00000000000000000000000000000000000000000000000000000000081526004016116aa9061224a565b60405180910390fd5b7fcd26131b45150811014e8f4d6f6c04f24f83a2571aaa878996973b82b2ab2d3f8160000151336040516116e892919061252d565b60405180910390a150565b6116fb611b3f565b7f000000000000000000000000000000000000000000000000000000000000000073ffffffffffffffffffffffffffffffffffffffff1663a9059cbb61173f610ede565b7f000000000000000000000000000000000000000000000000000000000000000073ffffffffffffffffffffffffffffffffffffffff166370a08231306040518263ffffffff1660e01b81526004016117989190611f60565b602060405180830381865afa1580156117b5573d6000803e3d6000fd5b505050506040513d601f19601f820116820180604052508101906117d99190612130565b6040518363ffffffff1660e01b81526004016117f69291906122d6565b6020604051808303816000875af1158015611815573d6000803e3d6000fd5b505050506040513d601f19601f8201168201806040525081019061183991906121c0565b50565b66470de4df8200003414611885576040517f08c379a000000000000000000000000000000000000000000000000000000000815260040161187c90612778565b60405180910390fd5b6001547f000000000000000000000000000000000000000000000000000000000000000073ffffffffffffffffffffffffffffffffffffffff166370a08231306040518263ffffffff1660e01b81526004016118e19190611f60565b602060405180830381865afa1580156118fe573d6000803e3d6000fd5b505050506040513d601f19601f820116820180604052508101906119229190612130565b1015611963576040517f08c379a000000000000000000000000000000000000000000000000000000000815260040161195a906127e4565b60405180910390fd5b60007f000000000000000000000000000000000000000000000000000000000000000073ffffffffffffffffffffffffffffffffffffffff1663a9059cbb336001546040518363ffffffff1660e01b81526004016119c29291906122d6565b6020604051808303816000875af11580156119e1573d6000803e3d6000fd5b505050506040513d601f19601f82011682018060405250810190611a0591906121c0565b905080611a47576040517f08c379a0000000000000000000000000000000000000000000000000000000008152600401611a3e9061224a565b60405180910390fd5b3373ffffffffffffffffffffffffffffffffffffffff167f4aff2c4e63da20aaa26764b3e97f557bf5e95b76ddba8f97a156abbecb08184634604051611a8d9190611ce2565b60405180910390a250565b7f000000000000000000000000000000000000000000000000000000000000000081565b611ac4611b3f565b600073ffffffffffffffffffffffffffffffffffffffff168173ffffffffffffffffffffffffffffffffffffffff1603611b33576040517f08c379a0000000000000000000000000000000000000000000000000000000008152600401611b2a90612876565b60405180910390fd5b611b3c81611bbd565b50565b611b47611c81565b73ffffffffffffffffffffffffffffffffffffffff16611b65610ede565b73ffffffffffffffffffffffffffffffffffffffff1614611bbb576040517f08c379a0000000000000000000000000000000000000000000000000000000008152600401611bb2906128e2565b60405180910390fd5b565b60008060009054906101000a900473ffffffffffffffffffffffffffffffffffffffff169050816000806101000a81548173ffffffffffffffffffffffffffffffffffffffff021916908373ffffffffffffffffffffffffffffffffffffffff1602179055508173ffffffffffffffffffffffffffffffffffffffff168173ffffffffffffffffffffffffffffffffffffffff167f8be0079c531659141344cd1fd0a4f28419497f9722a3daafe3b4186f6b6457e060405160405180910390a35050565b600033905090565b604051806080016040528060008152602001600073ffffffffffffffffffffffffffffffffffffffff168152602001600081526020016000151581525090565b6000819050919050565b611cdc81611cc9565b82525050565b6000602082019050611cf76000830184611cd3565b92915050565b600080fd5b600073ffffffffffffffffffffffffffffffffffffffff82169050919050565b6000611d2d82611d02565b9050919050565b611d3d81611d22565b8114611d4857600080fd5b50565b600081359050611d5a81611d34565b92915050565b600060208284031215611d7657611d75611cfd565b5b6000611d8484828501611d4b565b91505092915050565b60008115159050919050565b611da281611d8d565b82525050565b6000602082019050611dbd6000830184611d99565b92915050565b611dcc81611cc9565b8114611dd757600080fd5b50565b600081359050611de981611dc3565b92915050565b600060208284031215611e0557611e04611cfd565b5b6000611e1384828501611dda565b91505092915050565b600080600060608486031215611e3557611e34611cfd565b5b6000611e4386828701611dda565b9350506020611e5486828701611dda565b9250506040611e6586828701611dda565b9150509250925092565b611e7881611cc9565b82525050565b611e8781611d22565b82525050565b611e9681611d8d565b82525050565b608082016000820151611eb26000850182611e6f565b506020820151611ec56020850182611e7e565b506040820151611ed86040850182611e6f565b506060820151611eeb6060850182611e8d565b50505050565b6000608082019050611f066000830184611e9c565b92915050565b611f1581611d22565b82525050565b6000608082019050611f306000830187611cd3565b611f3d6020830186611f0c565b611f4a6040830185611cd3565b611f576060830184611d99565b95945050505050565b6000602082019050611f756000830184611f0c565b92915050565b600081519050919050565b600082825260208201905092915050565b6000819050602082019050919050565b608082016000820151611fbd6000850182611e6f565b506020820151611fd06020850182611e7e565b506040820151611fe36040850182611e6f565b506060820151611ff66060850182611e8d565b50505050565b60006120088383611fa7565b60808301905092915050565b6000602082019050919050565b600061202c82611f7b565b6120368185611f86565b935061204183611f97565b8060005b838110156120725781516120598882611ffc565b975061206483612014565b925050600181019050612045565b5085935050505092915050565b600060208201905081810360008301526120998184612021565b905092915050565b6000819050919050565b60006120c66120c16120bc84611d02565b6120a1565b611d02565b9050919050565b60006120d8826120ab565b9050919050565b60006120ea826120cd565b9050919050565b6120fa816120df565b82525050565b600060208201905061211560008301846120f1565b92915050565b60008151905061212a81611dc3565b92915050565b60006020828403121561214657612145611cfd565b5b60006121548482850161211b565b91505092915050565b60006060820190506121726000830186611f0c565b61217f6020830185611f0c565b61218c6040830184611cd3565b949350505050565b61219d81611d8d565b81146121a857600080fd5b50565b6000815190506121ba81612194565b92915050565b6000602082840312156121d6576121d5611cfd565b5b60006121e4848285016121ab565b91505092915050565b600082825260208201905092915050565b7f546f6b656e207472616e73666572206661696c65642100000000000000000000600082015250565b60006122346016836121ed565b915061223f826121fe565b602082019050919050565b6000602082019050818103600083015261226381612227565b9050919050565b7f416d6f756e74206d7573742062652067726561746572207468616e2030000000600082015250565b60006122a0601d836121ed565b91506122ab8261226a565b602082019050919050565b600060208201905081810360008301526122cf81612293565b9050919050565b60006040820190506122eb6000830185611f0c565b6122f86020830184611cd3565b9392505050565b7f4e487b7100000000000000000000000000000000000000000000000000000000600052603260045260246000fd5b60006040820190506123436000830185611f0c565b6123506020830184611f0c565b9392505050565b7f4475656c20646f6573206e6f7420657869737400000000000000000000000000600082015250565b600061238d6013836121ed565b915061239882612357565b602082019050919050565b600060208201905081810360008301526123bc81612380565b9050919050565b7f506c61796572206d757374206e6f7420626520746865207a65726f206164647260008201527f6573730000000000000000000000000000000000000000000000000000000000602082015250565b600061241f6023836121ed565b915061242a826123c3565b604082019050919050565b6000602082019050818103600083015261244e81612412565b9050919050565b7f57696e6e696e677320616c726561647920636c61696d65640000000000000000600082015250565b600061248b6018836121ed565b915061249682612455565b602082019050919050565b600060208201905081810360008301526124ba8161247e565b9050919050565b7f4f6e6c7920706c617965722063616e2066696e697368206475656c0000000000600082015250565b60006124f7601b836121ed565b9150612502826124c1565b602082019050919050565b60006020820190508181036000830152612526816124ea565b9050919050565b60006040820190506125426000830185611cd3565b61254f6020830184611f0c565b9392505050565b7f52657761726420616c726561647920636c61696d656400000000000000000000600082015250565b600061258c6016836121ed565b915061259782612556565b602082019050919050565b600060208201905081810360008301526125bb8161257f565b9050919050565b7f496e73756666696369656e7420585020746f6b656e7300000000000000000000600082015250565b60006125f86016836121ed565b9150612603826125c2565b602082019050919050565b60006020820190508181036000830152612627816125eb565b9050919050565b7f585020746f6b656e73206d75737420626520617070726f766564000000000000600082015250565b6000612664601a836121ed565b915061266f8261262e565b602082019050919050565b6000602082019050818103600083015261269381612657565b9050919050565b7f53656e646572206d757374206e6f7420626520746865207a65726f206164647260008201527f6573730000000000000000000000000000000000000000000000000000000000602082015250565b60006126f66023836121ed565b91506127018261269a565b604082019050919050565b60006020820190508181036000830152612725816126e9565b9050919050565b7f4d7573742073656e6420302e3032206574686572000000000000000000000000600082015250565b60006127626014836121ed565b915061276d8261272c565b602082019050919050565b6000602082019050818103600083015261279181612755565b9050919050565b7f4e6f7420656e6f75676820746f6b656e7320696e207265736572766500000000600082015250565b60006127ce601c836121ed565b91506127d982612798565b602082019050919050565b600060208201905081810360008301526127fd816127c1565b9050919050565b7f4f776e61626c653a206e6577206f776e657220697320746865207a65726f206160008201527f6464726573730000000000000000000000000000000000000000000000000000602082015250565b60006128606026836121ed565b915061286b82612804565b604082019050919050565b6000602082019050818103600083015261288f81612853565b9050919050565b7f4f776e61626c653a2063616c6c6572206973206e6f7420746865206f776e6572600082015250565b60006128cc6020836121ed565b91506128d782612896565b602082019050919050565b600060208201905081810360008301526128fb816128bf565b905091905056fea2646970667358221220bc42d7e05c381ab01f65d5e45fffdd39a91577119e2383f16e9f046b404b6c8e64736f6c63430008130033",
  "linkReferences": {},
  "deployedLinkReferences": {}
}