{
  "_format": "hh-sol-artifact-1",
  "contractName": "AIDuels",
  "sourceName": "contracts/AIDuels.sol",
  "abi": [
    {
      "anonymous": false,
      "inputs": [
        {
          "indexed": false,
          "internalType": "uint256",
          "name": "id",
          "type": "uint256"
        },
        {
          "indexed": false,
          "internalType": "address",
          "name": "player",
          "type": "address"
        }
      ],
      "name": "DuelCreated",
      "type": "event"
    },
    {
      "anonymous": false,
      "inputs": [
        {
          "indexed": false,
          "internalType": "uint256",
          "name": "id",
          "type": "uint256"
        },
        {
          "indexed": false,
          "internalType": "address",
          "name": "winner",
          "type": "address"
        }
      ],
      "name": "DuelFinished",
      "type": "event"
    },
    {
      "anonymous": false,
      "inputs": [
        {
          "indexed": true,
          "internalType": "address",
          "name": "previousOwner",
          "type": "address"
        },
        {
          "indexed": true,
          "internalType": "address",
          "name": "newOwner",
          "type": "address"
        }
      ],
      "name": "OwnershipTransferred",
      "type": "event"
    },
    {
      "inputs": [],
      "name": "createDuel",
      "outputs": [],
      "stateMutability": "payable",
      "type": "function"
    },
    {
      "inputs": [
        {
          "internalType": "uint256",
          "name": "",
          "type": "uint256"
        }
      ],
      "name": "duels",
      "outputs": [
        {
          "internalType": "uint256",
          "name": "id",
          "type": "uint256"
        },
        {
          "internalType": "address",
          "name": "player",
          "type": "address"
        },
        {
          "internalType": "uint256",
          "name": "createdAt",
          "type": "uint256"
        },
        {
          "internalType": "bool",
          "name": "claimedWinnings",
          "type": "bool"
        }
      ],
      "stateMutability": "view",
      "type": "function"
    },
    {
      "inputs": [
        {
          "internalType": "uint256",
          "name": "_duelId",
          "type": "uint256"
        }
      ],
      "name": "finishDuel",
      "outputs": [],
      "stateMutability": "nonpayable",
      "type": "function"
    },
    {
      "inputs": [],
      "name": "getBalance",
      "outputs": [
        {
          "internalType": "uint256",
          "name": "",
          "type": "uint256"
        }
      ],
      "stateMutability": "view",
      "type": "function"
    },
    {
      "inputs": [
        {
          "internalType": "uint256",
          "name": "_duelId",
          "type": "uint256"
        }
      ],
      "name": "getDuel",
      "outputs": [
        {
          "components": [
            {
              "internalType": "uint256",
              "name": "id",
              "type": "uint256"
            },
            {
              "internalType": "address",
              "name": "player",
              "type": "address"
            },
            {
              "internalType": "uint256",
              "name": "createdAt",
              "type": "uint256"
            },
            {
              "internalType": "bool",
              "name": "claimedWinnings",
              "type": "bool"
            }
          ],
          "internalType": "struct AIDuels.Duel",
          "name": "",
          "type": "tuple"
        }
      ],
      "stateMutability": "view",
      "type": "function"
    },
    {
      "inputs": [],
      "name": "getDuels",
      "outputs": [
        {
          "components": [
            {
              "internalType": "uint256",
              "name": "id",
              "type": "uint256"
            },
            {
              "internalType": "address",
              "name": "player",
              "type": "address"
            },
            {
              "internalType": "uint256",
              "name": "createdAt",
              "type": "uint256"
            },
            {
              "internalType": "bool",
              "name": "claimedWinnings",
              "type": "bool"
            }
          ],
          "internalType": "struct AIDuels.Duel[]",
          "name": "",
          "type": "tuple[]"
        }
      ],
      "stateMutability": "view",
      "type": "function"
    },
    {
      "inputs": [],
      "name": "getDuelsCount",
      "outputs": [
        {
          "internalType": "uint256",
          "name": "",
          "type": "uint256"
        }
      ],
      "stateMutability": "view",
      "type": "function"
    },
    {
      "inputs": [],
      "name": "owner",
      "outputs": [
        {
          "internalType": "address",
          "name": "",
          "type": "address"
        }
      ],
      "stateMutability": "view",
      "type": "function"
    },
    {
      "inputs": [],
      "name": "renounceOwnership",
      "outputs": [],
      "stateMutability": "nonpayable",
      "type": "function"
    },
    {
      "inputs": [
        {
          "internalType": "address",
          "name": "newOwner",
          "type": "address"
        }
      ],
      "name": "transferOwnership",
      "outputs": [],
      "stateMutability": "nonpayable",
      "type": "function"
    },
    {
      "inputs": [],
      "name": "withdraw",
      "outputs": [],
      "stateMutability": "nonpayable",
      "type": "function"
    },
    {
      "stateMutability": "payable",
      "type": "receive"
    }
  ],
  "bytecode": "0x6080604052662386f26fc1000060015566470de4df82000060025534801561002657600080fd5b5061004361003861004860201b60201c565b61005060201b60201c565b610114565b600033905090565b60008060009054906101000a900473ffffffffffffffffffffffffffffffffffffffff169050816000806101000a81548173ffffffffffffffffffffffffffffffffffffffff021916908373ffffffffffffffffffffffffffffffffffffffff1602179055508173ffffffffffffffffffffffffffffffffffffffff168173ffffffffffffffffffffffffffffffffffffffff167f8be0079c531659141344cd1fd0a4f28419497f9722a3daafe3b4186f6b6457e060405160405180910390a35050565b611303806101236000396000f3fe6080604052600436106100a05760003560e01c8063715018a611610064578063715018a61461017f578063859a62d0146101965780638da5cb5b146101d6578063a0c9ed4714610201578063c78c5ae21461022c578063f2fde38b14610236576100a7565b806312065fe0146100ac5780633ccfd60b146100d7578063565e614f146100ee5780636107814e1461012b57806367fcbef314610156576100a7565b366100a757005b600080fd5b3480156100b857600080fd5b506100c161025f565b6040516100ce9190610bad565b60405180910390f35b3480156100e357600080fd5b506100ec610267565b005b3480156100fa57600080fd5b5061011560048036038101906101109190610bf9565b6102bf565b6040516101229190610ce6565b60405180910390f35b34801561013757600080fd5b50610140610380565b60405161014d9190610bad565b60405180910390f35b34801561016257600080fd5b5061017d60048036038101906101789190610bf9565b61038d565b005b34801561018b57600080fd5b5061019461061a565b005b3480156101a257600080fd5b506101bd60048036038101906101b89190610bf9565b61062e565b6040516101cd9493929190610d1f565b60405180910390f35b3480156101e257600080fd5b506101eb61069b565b6040516101f89190610d64565b60405180910390f35b34801561020d57600080fd5b506102166106c4565b6040516102239190610e83565b60405180910390f35b6102346107a8565b005b34801561024257600080fd5b5061025d60048036038101906102589190610ed1565b610987565b005b600047905090565b61026f610a0a565b61027761069b565b73ffffffffffffffffffffffffffffffffffffffff166108fc479081150290604051600060405180830381858888f193505050501580156102bc573d6000803e3d6000fd5b50565b6102c7610b54565b600382815481106102db576102da610efe565b5b9060005260206000209060040201604051806080016040529081600082015481526020016001820160009054906101000a900473ffffffffffffffffffffffffffffffffffffffff1673ffffffffffffffffffffffffffffffffffffffff1673ffffffffffffffffffffffffffffffffffffffff168152602001600282015481526020016003820160009054906101000a900460ff1615151515815250509050919050565b6000600380549050905090565b610395610a0a565b60038054905081106103dc576040517f08c379a00000000000000000000000000000000000000000000000000000000081526004016103d390610f8a565b60405180910390fd5b600073ffffffffffffffffffffffffffffffffffffffff166003828154811061040857610407610efe565b5b906000526020600020906004020160010160009054906101000a900473ffffffffffffffffffffffffffffffffffffffff1673ffffffffffffffffffffffffffffffffffffffff1603610490576040517f08c379a00000000000000000000000000000000000000000000000000000000081526004016104879061101c565b60405180910390fd5b60011515600382815481106104a8576104a7610efe565b5b906000526020600020906004020160030160009054906101000a900460ff16151503610509576040517f08c379a000000000000000000000000000000000000000000000000000000000815260040161050090611088565b60405180910390fd5b60006003828154811061051f5761051e610efe565b5b906000526020600020906004020190508060010160009054906101000a900473ffffffffffffffffffffffffffffffffffffffff1673ffffffffffffffffffffffffffffffffffffffff166108fc6002549081150290604051600060405180830381858888f1935050505015801561059b573d6000803e3d6000fd5b5060018160030160006101000a81548160ff0219169083151502179055507f5556fc35d5e8685baaff99a10feb6d230a017ba150ebd158c7529e31dc5ba393828260010160009054906101000a900473ffffffffffffffffffffffffffffffffffffffff1660405161060e9291906110a8565b60405180910390a15050565b610622610a0a565b61062c6000610a88565b565b6003818154811061063e57600080fd5b90600052602060002090600402016000915090508060000154908060010160009054906101000a900473ffffffffffffffffffffffffffffffffffffffff16908060020154908060030160009054906101000a900460ff16905084565b60008060009054906101000a900473ffffffffffffffffffffffffffffffffffffffff16905090565b60606003805480602002602001604051908101604052809291908181526020016000905b8282101561079f5783829060005260206000209060040201604051806080016040529081600082015481526020016001820160009054906101000a900473ffffffffffffffffffffffffffffffffffffffff1673ffffffffffffffffffffffffffffffffffffffff1673ffffffffffffffffffffffffffffffffffffffff168152602001600282015481526020016003820160009054906101000a900460ff161515151581525050815260200190600101906106e8565b50505050905090565b60015434146107ec576040517f08c379a00000000000000000000000000000000000000000000000000000000081526004016107e39061111d565b60405180910390fd5b600073ffffffffffffffffffffffffffffffffffffffff163373ffffffffffffffffffffffffffffffffffffffff160361085b576040517f08c379a0000000000000000000000000000000000000000000000000000000008152600401610852906111af565b60405180910390fd5b6000604051806080016040528060038054905081526020013373ffffffffffffffffffffffffffffffffffffffff16815260200142815260200160001515815250905060038190806001815401808255809150506001900390600052602060002090600402016000909190919091506000820151816000015560208201518160010160006101000a81548173ffffffffffffffffffffffffffffffffffffffff021916908373ffffffffffffffffffffffffffffffffffffffff1602179055506040820151816002015560608201518160030160006101000a81548160ff02191690831515021790555050507fcd26131b45150811014e8f4d6f6c04f24f83a2571aaa878996973b82b2ab2d3f81600001513360405161097c9291906110a8565b60405180910390a150565b61098f610a0a565b600073ffffffffffffffffffffffffffffffffffffffff168173ffffffffffffffffffffffffffffffffffffffff16036109fe576040517f08c379a00000000000000000000000000000000000000000000000000000000081526004016109f590611241565b60405180910390fd5b610a0781610a88565b50565b610a12610b4c565b73ffffffffffffffffffffffffffffffffffffffff16610a3061069b565b73ffffffffffffffffffffffffffffffffffffffff1614610a86576040517f08c379a0000000000000000000000000000000000000000000000000000000008152600401610a7d906112ad565b60405180910390fd5b565b60008060009054906101000a900473ffffffffffffffffffffffffffffffffffffffff169050816000806101000a81548173ffffffffffffffffffffffffffffffffffffffff021916908373ffffffffffffffffffffffffffffffffffffffff1602179055508173ffffffffffffffffffffffffffffffffffffffff168173ffffffffffffffffffffffffffffffffffffffff167f8be0079c531659141344cd1fd0a4f28419497f9722a3daafe3b4186f6b6457e060405160405180910390a35050565b600033905090565b604051806080016040528060008152602001600073ffffffffffffffffffffffffffffffffffffffff168152602001600081526020016000151581525090565b6000819050919050565b610ba781610b94565b82525050565b6000602082019050610bc26000830184610b9e565b92915050565b600080fd5b610bd681610b94565b8114610be157600080fd5b50565b600081359050610bf381610bcd565b92915050565b600060208284031215610c0f57610c0e610bc8565b5b6000610c1d84828501610be4565b91505092915050565b610c2f81610b94565b82525050565b600073ffffffffffffffffffffffffffffffffffffffff82169050919050565b6000610c6082610c35565b9050919050565b610c7081610c55565b82525050565b60008115159050919050565b610c8b81610c76565b82525050565b608082016000820151610ca76000850182610c26565b506020820151610cba6020850182610c67565b506040820151610ccd6040850182610c26565b506060820151610ce06060850182610c82565b50505050565b6000608082019050610cfb6000830184610c91565b92915050565b610d0a81610c55565b82525050565b610d1981610c76565b82525050565b6000608082019050610d346000830187610b9e565b610d416020830186610d01565b610d4e6040830185610b9e565b610d5b6060830184610d10565b95945050505050565b6000602082019050610d796000830184610d01565b92915050565b600081519050919050565b600082825260208201905092915050565b6000819050602082019050919050565b608082016000820151610dc16000850182610c26565b506020820151610dd46020850182610c67565b506040820151610de76040850182610c26565b506060820151610dfa6060850182610c82565b50505050565b6000610e0c8383610dab565b60808301905092915050565b6000602082019050919050565b6000610e3082610d7f565b610e3a8185610d8a565b9350610e4583610d9b565b8060005b83811015610e76578151610e5d8882610e00565b9750610e6883610e18565b925050600181019050610e49565b5085935050505092915050565b60006020820190508181036000830152610e9d8184610e25565b905092915050565b610eae81610c55565b8114610eb957600080fd5b50565b600081359050610ecb81610ea5565b92915050565b600060208284031215610ee757610ee6610bc8565b5b6000610ef584828501610ebc565b91505092915050565b7f4e487b7100000000000000000000000000000000000000000000000000000000600052603260045260246000fd5b600082825260208201905092915050565b7f4475656c20646f6573206e6f7420657869737400000000000000000000000000600082015250565b6000610f74601383610f2d565b9150610f7f82610f3e565b602082019050919050565b60006020820190508181036000830152610fa381610f67565b9050919050565b7f506c61796572206d757374206e6f7420626520746865207a65726f206164647260008201527f6573730000000000000000000000000000000000000000000000000000000000602082015250565b6000611006602383610f2d565b915061101182610faa565b604082019050919050565b6000602082019050818103600083015261103581610ff9565b9050919050565b7f57696e6e696e677320616c726561647920636c61696d65640000000000000000600082015250565b6000611072601883610f2d565b915061107d8261103c565b602082019050919050565b600060208201905081810360008301526110a181611065565b9050919050565b60006040820190506110bd6000830185610b9e565b6110ca6020830184610d01565b9392505050565b7f4d7573742073656e6420302e3031206574686572000000000000000000000000600082015250565b6000611107601483610f2d565b9150611112826110d1565b602082019050919050565b60006020820190508181036000830152611136816110fa565b9050919050565b7f53656e646572206d757374206e6f7420626520746865207a65726f206164647260008201527f6573730000000000000000000000000000000000000000000000000000000000602082015250565b6000611199602383610f2d565b91506111a48261113d565b604082019050919050565b600060208201905081810360008301526111c88161118c565b9050919050565b7f4f776e61626c653a206e6577206f776e657220697320746865207a65726f206160008201527f6464726573730000000000000000000000000000000000000000000000000000602082015250565b600061122b602683610f2d565b9150611236826111cf565b604082019050919050565b6000602082019050818103600083015261125a8161121e565b9050919050565b7f4f776e61626c653a2063616c6c6572206973206e6f7420746865206f776e6572600082015250565b6000611297602083610f2d565b91506112a282611261565b602082019050919050565b600060208201905081810360008301526112c68161128a565b905091905056fea26469706673582212205de48f28a2f16345fc308ab6efa826eeec1147c34f62d8ff26a5780f07803e7c64736f6c63430008130033",
  "linkReferences": {},
  "deployedLinkReferences": {}
}