{
  "_format": "hh-sol-artifact-1",
  "contractName": "AIDuels",
  "sourceName": "contracts/AIDuels.sol",
  "abi": [
    {
      "inputs": [
        {
          "internalType": "address",
          "name": "_tokenAddress",
          "type": "address"
        }
      ],
      "stateMutability": "nonpayable",
      "type": "constructor"
    },
    {
      "anonymous": false,
      "inputs": [
        {
          "indexed": true,
          "internalType": "address",
          "name": "owner",
          "type": "address"
        },
        {
          "indexed": true,
          "internalType": "address",
          "name": "spender",
          "type": "address"
        },
        {
          "indexed": false,
          "internalType": "uint256",
          "name": "value",
          "type": "uint256"
        }
      ],
      "name": "Approval",
      "type": "event"
    },
    {
      "anonymous": false,
      "inputs": [
        {
          "indexed": true,
          "internalType": "address",
          "name": "buyer",
          "type": "address"
        },
        {
          "indexed": false,
          "internalType": "uint256",
          "name": "value",
          "type": "uint256"
        }
      ],
      "name": "BuyTokens",
      "type": "event"
    },
    {
      "anonymous": false,
      "inputs": [
        {
          "indexed": false,
          "internalType": "uint256",
          "name": "id",
          "type": "uint256"
        },
        {
          "indexed": false,
          "internalType": "address",
          "name": "player",
          "type": "address"
        }
      ],
      "name": "DuelCreated",
      "type": "event"
    },
    {
      "anonymous": false,
      "inputs": [
        {
          "indexed": false,
          "internalType": "uint256",
          "name": "id",
          "type": "uint256"
        },
        {
          "indexed": false,
          "internalType": "address",
          "name": "winner",
          "type": "address"
        }
      ],
      "name": "DuelFinished",
      "type": "event"
    },
    {
      "anonymous": false,
      "inputs": [
        {
          "indexed": true,
          "internalType": "address",
          "name": "previousOwner",
          "type": "address"
        },
        {
          "indexed": true,
          "internalType": "address",
          "name": "newOwner",
          "type": "address"
        }
      ],
      "name": "OwnershipTransferred",
      "type": "event"
    },
    {
      "anonymous": false,
      "inputs": [
        {
          "indexed": false,
          "internalType": "address",
          "name": "winner",
          "type": "address"
        }
      ],
      "name": "RewardClaimed",
      "type": "event"
    },
    {
      "inputs": [],
      "name": "XP",
      "outputs": [
        {
          "internalType": "contract IERC20",
          "name": "",
          "type": "address"
        }
      ],
      "stateMutability": "view",
      "type": "function"
    },
    {
      "inputs": [
        {
          "internalType": "uint256",
          "name": "_amount",
          "type": "uint256"
        }
      ],
      "name": "approveToken",
      "outputs": [],
      "stateMutability": "nonpayable",
      "type": "function"
    },
    {
      "inputs": [],
      "name": "buyTokens",
      "outputs": [],
      "stateMutability": "payable",
      "type": "function"
    },
    {
      "inputs": [],
      "name": "claimReward",
      "outputs": [],
      "stateMutability": "nonpayable",
      "type": "function"
    },
    {
      "inputs": [
        {
          "internalType": "address",
          "name": "_wallet",
          "type": "address"
        }
      ],
      "name": "claimedReward",
      "outputs": [
        {
          "internalType": "bool",
          "name": "",
          "type": "bool"
        }
      ],
      "stateMutability": "view",
      "type": "function"
    },
    {
      "inputs": [],
      "name": "createDuel",
      "outputs": [],
      "stateMutability": "payable",
      "type": "function"
    },
    {
      "inputs": [
        {
          "internalType": "uint256",
          "name": "",
          "type": "uint256"
        }
      ],
      "name": "duels",
      "outputs": [
        {
          "internalType": "uint256",
          "name": "id",
          "type": "uint256"
        },
        {
          "internalType": "address",
          "name": "player",
          "type": "address"
        },
        {
          "internalType": "uint256",
          "name": "createdAt",
          "type": "uint256"
        },
        {
          "internalType": "bool",
          "name": "claimedWinnings",
          "type": "bool"
        }
      ],
      "stateMutability": "view",
      "type": "function"
    },
    {
      "inputs": [
        {
          "internalType": "uint256",
          "name": "_duelId",
          "type": "uint256"
        }
      ],
      "name": "finishDuel",
      "outputs": [],
      "stateMutability": "nonpayable",
      "type": "function"
    },
    {
      "inputs": [
        {
          "internalType": "uint256",
          "name": "_amount",
          "type": "uint256"
        }
      ],
      "name": "fundGame",
      "outputs": [],
      "stateMutability": "nonpayable",
      "type": "function"
    },
    {
      "inputs": [],
      "name": "getBalance",
      "outputs": [
        {
          "internalType": "uint256",
          "name": "",
          "type": "uint256"
        }
      ],
      "stateMutability": "view",
      "type": "function"
    },
    {
      "inputs": [
        {
          "internalType": "uint256",
          "name": "_duelId",
          "type": "uint256"
        }
      ],
      "name": "getDuel",
      "outputs": [
        {
          "components": [
            {
              "internalType": "uint256",
              "name": "id",
              "type": "uint256"
            },
            {
              "internalType": "address",
              "name": "player",
              "type": "address"
            },
            {
              "internalType": "uint256",
              "name": "createdAt",
              "type": "uint256"
            },
            {
              "internalType": "bool",
              "name": "claimedWinnings",
              "type": "bool"
            }
          ],
          "internalType": "struct AIDuels.Duel",
          "name": "",
          "type": "tuple"
        }
      ],
      "stateMutability": "view",
      "type": "function"
    },
    {
      "inputs": [],
      "name": "getDuels",
      "outputs": [
        {
          "components": [
            {
              "internalType": "uint256",
              "name": "id",
              "type": "uint256"
            },
            {
              "internalType": "address",
              "name": "player",
              "type": "address"
            },
            {
              "internalType": "uint256",
              "name": "createdAt",
              "type": "uint256"
            },
            {
              "internalType": "bool",
              "name": "claimedWinnings",
              "type": "bool"
            }
          ],
          "internalType": "struct AIDuels.Duel[]",
          "name": "",
          "type": "tuple[]"
        }
      ],
      "stateMutability": "view",
      "type": "function"
    },
    {
      "inputs": [],
      "name": "getDuelsCount",
      "outputs": [
        {
          "internalType": "uint256",
          "name": "",
          "type": "uint256"
        }
      ],
      "stateMutability": "view",
      "type": "function"
    },
    {
      "inputs": [
        {
          "internalType": "address",
          "name": "_wallet",
          "type": "address"
        }
      ],
      "name": "getTokenAllowance",
      "outputs": [
        {
          "internalType": "uint256",
          "name": "",
          "type": "uint256"
        }
      ],
      "stateMutability": "view",
      "type": "function"
    },
    {
      "inputs": [],
      "name": "getTokenAllowanceContract",
      "outputs": [
        {
          "internalType": "uint256",
          "name": "",
          "type": "uint256"
        }
      ],
      "stateMutability": "view",
      "type": "function"
    },
    {
      "inputs": [
        {
          "internalType": "address",
          "name": "_wallet",
          "type": "address"
        }
      ],
      "name": "getTokenBalance",
      "outputs": [
        {
          "internalType": "uint256",
          "name": "",
          "type": "uint256"
        }
      ],
      "stateMutability": "view",
      "type": "function"
    },
    {
      "inputs": [],
      "name": "getTokenBalanceContract",
      "outputs": [
        {
          "internalType": "uint256",
          "name": "",
          "type": "uint256"
        }
      ],
      "stateMutability": "view",
      "type": "function"
    },
    {
      "inputs": [
        {
          "internalType": "address",
          "name": "",
          "type": "address"
        }
      ],
      "name": "hasClaimedReward",
      "outputs": [
        {
          "internalType": "bool",
          "name": "",
          "type": "bool"
        }
      ],
      "stateMutability": "view",
      "type": "function"
    },
    {
      "inputs": [],
      "name": "owner",
      "outputs": [
        {
          "internalType": "address",
          "name": "",
          "type": "address"
        }
      ],
      "stateMutability": "view",
      "type": "function"
    },
    {
      "inputs": [],
      "name": "renounceOwnership",
      "outputs": [],
      "stateMutability": "nonpayable",
      "type": "function"
    },
    {
      "inputs": [
        {
          "internalType": "uint256",
          "name": "_amountToPlay",
          "type": "uint256"
        },
        {
          "internalType": "uint256",
          "name": "_amountToWin",
          "type": "uint256"
        },
        {
          "internalType": "uint256",
          "name": "_amountToClaim",
          "type": "uint256"
        }
      ],
      "name": "setupGame",
      "outputs": [],
      "stateMutability": "nonpayable",
      "type": "function"
    },
    {
      "inputs": [
        {
          "internalType": "address",
          "name": "newOwner",
          "type": "address"
        }
      ],
      "name": "transferOwnership",
      "outputs": [],
      "stateMutability": "nonpayable",
      "type": "function"
    },
    {
      "inputs": [],
      "name": "withdraw",
      "outputs": [],
      "stateMutability": "nonpayable",
      "type": "function"
    },
    {
      "inputs": [],
      "name": "withdrawEther",
      "outputs": [],
      "stateMutability": "nonpayable",
      "type": "function"
    },
    {
      "inputs": [],
      "name": "withdrawToken",
      "outputs": [],
      "stateMutability": "nonpayable",
      "type": "function"
    }
  ],
  "bytecode": "0x60a06040526012600a6200001491906200034e565b60026200002291906200039f565b6001556012600a6200003591906200034e565b60046200004391906200039f565b6002556012600a6200005691906200034e565b60026200006491906200039f565b6003553480156200007457600080fd5b5060405162002f8538038062002f8583398181016040528101906200009a919062000454565b620000ba620000ae620000f560201b60201c565b620000fd60201b60201c565b8073ffffffffffffffffffffffffffffffffffffffff1660808173ffffffffffffffffffffffffffffffffffffffff16815250505062000486565b600033905090565b60008060009054906101000a900473ffffffffffffffffffffffffffffffffffffffff169050816000806101000a81548173ffffffffffffffffffffffffffffffffffffffff021916908373ffffffffffffffffffffffffffffffffffffffff1602179055508173ffffffffffffffffffffffffffffffffffffffff168173ffffffffffffffffffffffffffffffffffffffff167f8be0079c531659141344cd1fd0a4f28419497f9722a3daafe3b4186f6b6457e060405160405180910390a35050565b7f4e487b7100000000000000000000000000000000000000000000000000000000600052601160045260246000fd5b60008160011c9050919050565b6000808291508390505b60018511156200024f57808604811115620002275762000226620001c1565b5b6001851615620002375780820291505b80810290506200024785620001f0565b945062000207565b94509492505050565b6000826200026a57600190506200033d565b816200027a57600090506200033d565b81600181146200029357600281146200029e57620002d4565b60019150506200033d565b60ff841115620002b357620002b2620001c1565b5b8360020a915084821115620002cd57620002cc620001c1565b5b506200033d565b5060208310610133831016604e8410600b84101617156200030e5782820a905083811115620003085762000307620001c1565b5b6200033d565b6200031d8484846001620001fd565b92509050818404811115620003375762000336620001c1565b5b81810290505b9392505050565b6000819050919050565b60006200035b8262000344565b9150620003688362000344565b9250620003977fffffffffffffffffffffffffffffffffffffffffffffffffffffffffffffffff848462000258565b905092915050565b6000620003ac8262000344565b9150620003b98362000344565b9250828202620003c98162000344565b91508282048414831517620003e357620003e2620001c1565b5b5092915050565b600080fd5b600073ffffffffffffffffffffffffffffffffffffffff82169050919050565b60006200041c82620003ef565b9050919050565b6200042e816200040f565b81146200043a57600080fd5b50565b6000815190506200044e8162000423565b92915050565b6000602082840312156200046d576200046c620003ea565b5b60006200047d848285016200043d565b91505092915050565b608051612a81620005046000396000818161056901528181610668015281816107910152818161089a01528181610a7801528181610d5401528181611099015281816111d101528181611348015281816114260152818161165e01528181611787015281816117cb015281816119110152611a600152612a816000f3fe6080604052600436106101665760003560e01c8063715018a6116100d1578063a5b599e41161008a578063ca628c7811610064578063ca628c78146104e8578063d0febe4c146104ff578063e5a379dd14610509578063f2fde38b1461053457610166565b8063a5b599e41461048a578063b88a802f146104c7578063c78c5ae2146104de57610166565b8063715018a6146103895780637362377b146103a0578063859a62d0146103b75780638da5cb5b146103f7578063a074696a14610422578063a0c9ed471461045f57610166565b80633ccfd60b116101235780633ccfd60b1461028d5780634bad559a146102a4578063565e614f146102cd5780635b0fa3661461030a5780636107814e1461033557806367fcbef31461036057610166565b806312065fe01461016b578063130269c8146101965780631e6f3d8a146101c15780632e55a767146101fe5780633ac9fc11146102275780633aecd0e314610250575b600080fd5b34801561017757600080fd5b5061018061055d565b60405161018d9190611ca8565b60405180910390f35b3480156101a257600080fd5b506101ab610565565b6040516101b89190611ca8565b60405180910390f35b3480156101cd57600080fd5b506101e860048036038101906101e39190611d26565b610606565b6040516101f59190611d6e565b60405180910390f35b34801561020a57600080fd5b5061022560048036038101906102209190611db5565b61065c565b005b34801561023357600080fd5b5061024e60048036038101906102499190611db5565b61074c565b005b34801561025c57600080fd5b5061027760048036038101906102729190611d26565b610896565b6040516102849190611ca8565b60405180910390f35b34801561029957600080fd5b506102a2610939565b005b3480156102b057600080fd5b506102cb60048036038101906102c69190611de2565b610991565b005b3480156102d957600080fd5b506102f460048036038101906102ef9190611db5565b6109b3565b6040516103019190611eb7565b60405180910390f35b34801561031657600080fd5b5061031f610a74565b60405161032c9190611ca8565b60405180910390f35b34801561034157600080fd5b5061034a610b17565b6040516103579190611ca8565b60405180910390f35b34801561036c57600080fd5b5061038760048036038101906103829190611db5565b610b24565b005b34801561039557600080fd5b5061039e610e8f565b005b3480156103ac57600080fd5b506103b5610ea3565b005b3480156103c357600080fd5b506103de60048036038101906103d99190611db5565b610efb565b6040516103ee9493929190611ee1565b60405180910390f35b34801561040357600080fd5b5061040c610f68565b6040516104199190611f26565b60405180910390f35b34801561042e57600080fd5b5061044960048036038101906104449190611d26565b610f91565b6040516104569190611d6e565b60405180910390f35b34801561046b57600080fd5b50610474610fb1565b6040516104819190612045565b60405180910390f35b34801561049657600080fd5b506104b160048036038101906104ac9190611d26565b611095565b6040516104be9190611ca8565b60405180910390f35b3480156104d357600080fd5b506104dc61113a565b005b6104e6611343565b005b3480156104f457600080fd5b506104fd61177d565b005b6105076118c6565b005b34801561051557600080fd5b5061051e611a5e565b60405161052b91906120c6565b60405180910390f35b34801561054057600080fd5b5061055b60048036038101906105569190611d26565b611a82565b005b600047905090565b60007f000000000000000000000000000000000000000000000000000000000000000073ffffffffffffffffffffffffffffffffffffffff166370a08231306040518263ffffffff1660e01b81526004016105c09190611f26565b602060405180830381865afa1580156105dd573d6000803e3d6000fd5b505050506040513d601f19601f8201168201806040525081019061060191906120f6565b905090565b6000600560008373ffffffffffffffffffffffffffffffffffffffff1673ffffffffffffffffffffffffffffffffffffffff16815260200190815260200160002060009054906101000a900460ff169050919050565b610664611b05565b60007f000000000000000000000000000000000000000000000000000000000000000073ffffffffffffffffffffffffffffffffffffffff166323b872dd3330856040518463ffffffff1660e01b81526004016106c393929190612123565b6020604051808303816000875af11580156106e2573d6000803e3d6000fd5b505050506040513d601f19601f820116820180604052508101906107069190612186565b905080610748576040517f08c379a000000000000000000000000000000000000000000000000000000000815260040161073f90612210565b60405180910390fd5b5050565b6000811161078f576040517f08c379a00000000000000000000000000000000000000000000000000000000081526004016107869061227c565b60405180910390fd5b7f000000000000000000000000000000000000000000000000000000000000000073ffffffffffffffffffffffffffffffffffffffff1663095ea7b330836040518363ffffffff1660e01b81526004016107ea92919061229c565b6020604051808303816000875af1158015610809573d6000803e3d6000fd5b505050506040513d601f19601f8201168201806040525081019061082d9190612186565b503073ffffffffffffffffffffffffffffffffffffffff163373ffffffffffffffffffffffffffffffffffffffff167f8c5be1e5ebec7d5bd14f71427d1e84f3dd0314c0f7b2291e5b200ac8c7c3b9258360405161088b9190611ca8565b60405180910390a350565b60007f000000000000000000000000000000000000000000000000000000000000000073ffffffffffffffffffffffffffffffffffffffff166370a08231836040518263ffffffff1660e01b81526004016108f19190611f26565b602060405180830381865afa15801561090e573d6000803e3d6000fd5b505050506040513d601f19601f8201168201806040525081019061093291906120f6565b9050919050565b610941611b05565b610949610f68565b73ffffffffffffffffffffffffffffffffffffffff166108fc479081150290604051600060405180830381858888f1935050505015801561098e573d6000803e3d6000fd5b50565b610999611b05565b826001819055508160028190555080600381905550505050565b6109bb611c4f565b600482815481106109cf576109ce6122c5565b5b9060005260206000209060040201604051806080016040529081600082015481526020016001820160009054906101000a900473ffffffffffffffffffffffffffffffffffffffff1673ffffffffffffffffffffffffffffffffffffffff1673ffffffffffffffffffffffffffffffffffffffff168152602001600282015481526020016003820160009054906101000a900460ff1615151515815250509050919050565b60007f000000000000000000000000000000000000000000000000000000000000000073ffffffffffffffffffffffffffffffffffffffff1663dd62ed3e30306040518363ffffffff1660e01b8152600401610ad19291906122f4565b602060405180830381865afa158015610aee573d6000803e3d6000fd5b505050506040513d601f19601f82011682018060405250810190610b1291906120f6565b905090565b6000600480549050905090565b6004805490508110610b6b576040517f08c379a0000000000000000000000000000000000000000000000000000000008152600401610b6290612369565b60405180910390fd5b600073ffffffffffffffffffffffffffffffffffffffff1660048281548110610b9757610b966122c5565b5b906000526020600020906004020160010160009054906101000a900473ffffffffffffffffffffffffffffffffffffffff1673ffffffffffffffffffffffffffffffffffffffff1603610c1f576040517f08c379a0000000000000000000000000000000000000000000000000000000008152600401610c16906123fb565b60405180910390fd5b6001151560048281548110610c3757610c366122c5565b5b906000526020600020906004020160030160009054906101000a900460ff16151503610c98576040517f08c379a0000000000000000000000000000000000000000000000000000000008152600401610c8f90612467565b60405180910390fd5b600060048281548110610cae57610cad6122c5565b5b906000526020600020906004020190508060010160009054906101000a900473ffffffffffffffffffffffffffffffffffffffff1673ffffffffffffffffffffffffffffffffffffffff163373ffffffffffffffffffffffffffffffffffffffff1614610d50576040517f08c379a0000000000000000000000000000000000000000000000000000000008152600401610d47906124d3565b60405180910390fd5b60007f000000000000000000000000000000000000000000000000000000000000000073ffffffffffffffffffffffffffffffffffffffff1663a9059cbb336002546040518363ffffffff1660e01b8152600401610daf92919061229c565b6020604051808303816000875af1158015610dce573d6000803e3d6000fd5b505050506040513d601f19601f82011682018060405250810190610df29190612186565b905080610e34576040517f08c379a0000000000000000000000000000000000000000000000000000000008152600401610e2b90612210565b60405180910390fd5b60018260030160006101000a81548160ff0219169083151502179055507f5556fc35d5e8685baaff99a10feb6d230a017ba150ebd158c7529e31dc5ba3938333604051610e829291906124f3565b60405180910390a1505050565b610e97611b05565b610ea16000611b83565b565b610eab611b05565b610eb3610f68565b73ffffffffffffffffffffffffffffffffffffffff166108fc479081150290604051600060405180830381858888f19350505050158015610ef8573d6000803e3d6000fd5b50565b60048181548110610f0b57600080fd5b90600052602060002090600402016000915090508060000154908060010160009054906101000a900473ffffffffffffffffffffffffffffffffffffffff16908060020154908060030160009054906101000a900460ff16905084565b60008060009054906101000a900473ffffffffffffffffffffffffffffffffffffffff16905090565b60056020528060005260406000206000915054906101000a900460ff1681565b60606004805480602002602001604051908101604052809291908181526020016000905b8282101561108c5783829060005260206000209060040201604051806080016040529081600082015481526020016001820160009054906101000a900473ffffffffffffffffffffffffffffffffffffffff1673ffffffffffffffffffffffffffffffffffffffff1673ffffffffffffffffffffffffffffffffffffffff168152602001600282015481526020016003820160009054906101000a900460ff16151515158152505081526020019060010190610fd5565b50505050905090565b60007f000000000000000000000000000000000000000000000000000000000000000073ffffffffffffffffffffffffffffffffffffffff1663dd62ed3e83306040518363ffffffff1660e01b81526004016110f29291906122f4565b602060405180830381865afa15801561110f573d6000803e3d6000fd5b505050506040513d601f19601f8201168201806040525081019061113391906120f6565b9050919050565b60011515600560003373ffffffffffffffffffffffffffffffffffffffff1673ffffffffffffffffffffffffffffffffffffffff16815260200190815260200160002060009054906101000a900460ff161515036111cd576040517f08c379a00000000000000000000000000000000000000000000000000000000081526004016111c490612568565b60405180910390fd5b60007f000000000000000000000000000000000000000000000000000000000000000073ffffffffffffffffffffffffffffffffffffffff1663a9059cbb336003546040518363ffffffff1660e01b815260040161122c92919061229c565b6020604051808303816000875af115801561124b573d6000803e3d6000fd5b505050506040513d601f19601f8201168201806040525081019061126f9190612186565b9050806112b1576040517f08c379a00000000000000000000000000000000000000000000000000000000081526004016112a890612210565b60405180910390fd5b6001600560003373ffffffffffffffffffffffffffffffffffffffff1673ffffffffffffffffffffffffffffffffffffffff16815260200190815260200160002060006101000a81548160ff0219169083151502179055507fea61a2a22523394f29506de20cc9db2e881f096477982d51012058ec9032714a336040516113389190611f26565b60405180910390a150565b6001547f000000000000000000000000000000000000000000000000000000000000000073ffffffffffffffffffffffffffffffffffffffff166370a08231336040518263ffffffff1660e01b815260040161139f9190611f26565b602060405180830381865afa1580156113bc573d6000803e3d6000fd5b505050506040513d601f19601f820116820180604052508101906113e091906120f6565b1015611421576040517f08c379a0000000000000000000000000000000000000000000000000000000008152600401611418906125d4565b60405180910390fd5b6001547f000000000000000000000000000000000000000000000000000000000000000073ffffffffffffffffffffffffffffffffffffffff1663dd62ed3e33306040518363ffffffff1660e01b815260040161147f9291906122f4565b602060405180830381865afa15801561149c573d6000803e3d6000fd5b505050506040513d601f19601f820116820180604052508101906114c091906120f6565b1015611501576040517f08c379a00000000000000000000000000000000000000000000000000000000081526004016114f890612640565b60405180910390fd5b600073ffffffffffffffffffffffffffffffffffffffff163373ffffffffffffffffffffffffffffffffffffffff1603611570576040517f08c379a0000000000000000000000000000000000000000000000000000000008152600401611567906126d2565b60405180910390fd5b6000604051806080016040528060048054905081526020013373ffffffffffffffffffffffffffffffffffffffff16815260200142815260200160001515815250905060048190806001815401808255809150506001900390600052602060002090600402016000909190919091506000820151816000015560208201518160010160006101000a81548173ffffffffffffffffffffffffffffffffffffffff021916908373ffffffffffffffffffffffffffffffffffffffff1602179055506040820151816002015560608201518160030160006101000a81548160ff02191690831515021790555050507f000000000000000000000000000000000000000000000000000000000000000073ffffffffffffffffffffffffffffffffffffffff166323b872dd33306001546040518463ffffffff1660e01b81526004016116bb93929190612123565b6020604051808303816000875af11580156116da573d6000803e3d6000fd5b505050506040513d601f19601f820116820180604052508101906116fe9190612186565b61173d576040517f08c379a000000000000000000000000000000000000000000000000000000000815260040161173490612210565b60405180910390fd5b7fcd26131b45150811014e8f4d6f6c04f24f83a2571aaa878996973b82b2ab2d3f8160000151336040516117729291906124f3565b60405180910390a150565b611785611b05565b7f000000000000000000000000000000000000000000000000000000000000000073ffffffffffffffffffffffffffffffffffffffff1663a9059cbb6117c9610f68565b7f000000000000000000000000000000000000000000000000000000000000000073ffffffffffffffffffffffffffffffffffffffff166370a08231306040518263ffffffff1660e01b81526004016118229190611f26565b602060405180830381865afa15801561183f573d6000803e3d6000fd5b505050506040513d601f19601f8201168201806040525081019061186391906120f6565b6040518363ffffffff1660e01b815260040161188092919061229c565b6020604051808303816000875af115801561189f573d6000803e3d6000fd5b505050506040513d601f19601f820116820180604052508101906118c39190612186565b50565b66470de4df820000341461190f576040517f08c379a00000000000000000000000000000000000000000000000000000000081526004016119069061273e565b60405180910390fd5b7f000000000000000000000000000000000000000000000000000000000000000073ffffffffffffffffffffffffffffffffffffffff1663a9059cbb336012600a61195a91906128c0565b6002611966919061290b565b6040518363ffffffff1660e01b815260040161198392919061229c565b6020604051808303816000875af11580156119a2573d6000803e3d6000fd5b505050506040513d601f19601f820116820180604052508101906119c69190612186565b503073ffffffffffffffffffffffffffffffffffffffff166108fc349081150290604051600060405180830381858888f19350505050158015611a0d573d6000803e3d6000fd5b503373ffffffffffffffffffffffffffffffffffffffff167f4aff2c4e63da20aaa26764b3e97f557bf5e95b76ddba8f97a156abbecb08184634604051611a549190611ca8565b60405180910390a2565b7f000000000000000000000000000000000000000000000000000000000000000081565b611a8a611b05565b600073ffffffffffffffffffffffffffffffffffffffff168173ffffffffffffffffffffffffffffffffffffffff1603611af9576040517f08c379a0000000000000000000000000000000000000000000000000000000008152600401611af0906129bf565b60405180910390fd5b611b0281611b83565b50565b611b0d611c47565b73ffffffffffffffffffffffffffffffffffffffff16611b2b610f68565b73ffffffffffffffffffffffffffffffffffffffff1614611b81576040517f08c379a0000000000000000000000000000000000000000000000000000000008152600401611b7890612a2b565b60405180910390fd5b565b60008060009054906101000a900473ffffffffffffffffffffffffffffffffffffffff169050816000806101000a81548173ffffffffffffffffffffffffffffffffffffffff021916908373ffffffffffffffffffffffffffffffffffffffff1602179055508173ffffffffffffffffffffffffffffffffffffffff168173ffffffffffffffffffffffffffffffffffffffff167f8be0079c531659141344cd1fd0a4f28419497f9722a3daafe3b4186f6b6457e060405160405180910390a35050565b600033905090565b604051806080016040528060008152602001600073ffffffffffffffffffffffffffffffffffffffff168152602001600081526020016000151581525090565b6000819050919050565b611ca281611c8f565b82525050565b6000602082019050611cbd6000830184611c99565b92915050565b600080fd5b600073ffffffffffffffffffffffffffffffffffffffff82169050919050565b6000611cf382611cc8565b9050919050565b611d0381611ce8565b8114611d0e57600080fd5b50565b600081359050611d2081611cfa565b92915050565b600060208284031215611d3c57611d3b611cc3565b5b6000611d4a84828501611d11565b91505092915050565b60008115159050919050565b611d6881611d53565b82525050565b6000602082019050611d836000830184611d5f565b92915050565b611d9281611c8f565b8114611d9d57600080fd5b50565b600081359050611daf81611d89565b92915050565b600060208284031215611dcb57611dca611cc3565b5b6000611dd984828501611da0565b91505092915050565b600080600060608486031215611dfb57611dfa611cc3565b5b6000611e0986828701611da0565b9350506020611e1a86828701611da0565b9250506040611e2b86828701611da0565b9150509250925092565b611e3e81611c8f565b82525050565b611e4d81611ce8565b82525050565b611e5c81611d53565b82525050565b608082016000820151611e786000850182611e35565b506020820151611e8b6020850182611e44565b506040820151611e9e6040850182611e35565b506060820151611eb16060850182611e53565b50505050565b6000608082019050611ecc6000830184611e62565b92915050565b611edb81611ce8565b82525050565b6000608082019050611ef66000830187611c99565b611f036020830186611ed2565b611f106040830185611c99565b611f1d6060830184611d5f565b95945050505050565b6000602082019050611f3b6000830184611ed2565b92915050565b600081519050919050565b600082825260208201905092915050565b6000819050602082019050919050565b608082016000820151611f836000850182611e35565b506020820151611f966020850182611e44565b506040820151611fa96040850182611e35565b506060820151611fbc6060850182611e53565b50505050565b6000611fce8383611f6d565b60808301905092915050565b6000602082019050919050565b6000611ff282611f41565b611ffc8185611f4c565b935061200783611f5d565b8060005b8381101561203857815161201f8882611fc2565b975061202a83611fda565b92505060018101905061200b565b5085935050505092915050565b6000602082019050818103600083015261205f8184611fe7565b905092915050565b6000819050919050565b600061208c61208761208284611cc8565b612067565b611cc8565b9050919050565b600061209e82612071565b9050919050565b60006120b082612093565b9050919050565b6120c0816120a5565b82525050565b60006020820190506120db60008301846120b7565b92915050565b6000815190506120f081611d89565b92915050565b60006020828403121561210c5761210b611cc3565b5b600061211a848285016120e1565b91505092915050565b60006060820190506121386000830186611ed2565b6121456020830185611ed2565b6121526040830184611c99565b949350505050565b61216381611d53565b811461216e57600080fd5b50565b6000815190506121808161215a565b92915050565b60006020828403121561219c5761219b611cc3565b5b60006121aa84828501612171565b91505092915050565b600082825260208201905092915050565b7f546f6b656e207472616e73666572206661696c65642100000000000000000000600082015250565b60006121fa6016836121b3565b9150612205826121c4565b602082019050919050565b60006020820190508181036000830152612229816121ed565b9050919050565b7f416d6f756e74206d7573742062652067726561746572207468616e2030000000600082015250565b6000612266601d836121b3565b915061227182612230565b602082019050919050565b6000602082019050818103600083015261229581612259565b9050919050565b60006040820190506122b16000830185611ed2565b6122be6020830184611c99565b9392505050565b7f4e487b7100000000000000000000000000000000000000000000000000000000600052603260045260246000fd5b60006040820190506123096000830185611ed2565b6123166020830184611ed2565b9392505050565b7f4475656c20646f6573206e6f7420657869737400000000000000000000000000600082015250565b60006123536013836121b3565b915061235e8261231d565b602082019050919050565b6000602082019050818103600083015261238281612346565b9050919050565b7f506c61796572206d757374206e6f7420626520746865207a65726f206164647260008201527f6573730000000000000000000000000000000000000000000000000000000000602082015250565b60006123e56023836121b3565b91506123f082612389565b604082019050919050565b60006020820190508181036000830152612414816123d8565b9050919050565b7f57696e6e696e677320616c726561647920636c61696d65640000000000000000600082015250565b60006124516018836121b3565b915061245c8261241b565b602082019050919050565b6000602082019050818103600083015261248081612444565b9050919050565b7f4f6e6c7920706c617965722063616e2066696e697368206475656c0000000000600082015250565b60006124bd601b836121b3565b91506124c882612487565b602082019050919050565b600060208201905081810360008301526124ec816124b0565b9050919050565b60006040820190506125086000830185611c99565b6125156020830184611ed2565b9392505050565b7f52657761726420616c726561647920636c61696d656400000000000000000000600082015250565b60006125526016836121b3565b915061255d8261251c565b602082019050919050565b6000602082019050818103600083015261258181612545565b9050919050565b7f496e73756666696369656e7420585020746f6b656e7300000000000000000000600082015250565b60006125be6016836121b3565b91506125c982612588565b602082019050919050565b600060208201905081810360008301526125ed816125b1565b9050919050565b7f585020746f6b656e73206d75737420626520617070726f766564000000000000600082015250565b600061262a601a836121b3565b9150612635826125f4565b602082019050919050565b600060208201905081810360008301526126598161261d565b9050919050565b7f53656e646572206d757374206e6f7420626520746865207a65726f206164647260008201527f6573730000000000000000000000000000000000000000000000000000000000602082015250565b60006126bc6023836121b3565b91506126c782612660565b604082019050919050565b600060208201905081810360008301526126eb816126af565b9050919050565b7f302e303220657468657220726571756972656400000000000000000000000000600082015250565b60006127286013836121b3565b9150612733826126f2565b602082019050919050565b600060208201905081810360008301526127578161271b565b9050919050565b7f4e487b7100000000000000000000000000000000000000000000000000000000600052601160045260246000fd5b60008160011c9050919050565b6000808291508390505b60018511156127e4578086048111156127c0576127bf61275e565b5b60018516156127cf5780820291505b80810290506127dd8561278d565b94506127a4565b94509492505050565b6000826127fd57600190506128b9565b8161280b57600090506128b9565b8160018114612821576002811461282b5761285a565b60019150506128b9565b60ff84111561283d5761283c61275e565b5b8360020a9150848211156128545761285361275e565b5b506128b9565b5060208310610133831016604e8410600b841016171561288f5782820a90508381111561288a5761288961275e565b5b6128b9565b61289c848484600161279a565b925090508184048111156128b3576128b261275e565b5b81810290505b9392505050565b60006128cb82611c8f565b91506128d683611c8f565b92506129037fffffffffffffffffffffffffffffffffffffffffffffffffffffffffffffffff84846127ed565b905092915050565b600061291682611c8f565b915061292183611c8f565b925082820261292f81611c8f565b915082820484148315176129465761294561275e565b5b5092915050565b7f4f776e61626c653a206e6577206f776e657220697320746865207a65726f206160008201527f6464726573730000000000000000000000000000000000000000000000000000602082015250565b60006129a96026836121b3565b91506129b48261294d565b604082019050919050565b600060208201905081810360008301526129d88161299c565b9050919050565b7f4f776e61626c653a2063616c6c6572206973206e6f7420746865206f776e6572600082015250565b6000612a156020836121b3565b9150612a20826129df565b602082019050919050565b60006020820190508181036000830152612a4481612a08565b905091905056fea2646970667358221220cb9c812b0cf4080640393f486d36ea79bda318c1fd41d9122c27c25b5de7716964736f6c63430008130033",
  "linkReferences": {},
  "deployedLinkReferences": {}
}