{
  "_format": "hh-sol-artifact-1",
  "contractName": "AIDuels",
  "sourceName": "contracts/AIDuels.sol",
  "abi": [
    {
      "inputs": [
        {
          "internalType": "address",
          "name": "_tokenAddress",
          "type": "address"
        }
      ],
      "stateMutability": "nonpayable",
      "type": "constructor"
    },
    {
      "anonymous": false,
      "inputs": [
        {
          "indexed": true,
          "internalType": "address",
          "name": "owner",
          "type": "address"
        },
        {
          "indexed": true,
          "internalType": "address",
          "name": "spender",
          "type": "address"
        },
        {
          "indexed": false,
          "internalType": "uint256",
          "name": "value",
          "type": "uint256"
        }
      ],
      "name": "Approval",
      "type": "event"
    },
    {
      "anonymous": false,
      "inputs": [
        {
          "indexed": true,
          "internalType": "address",
          "name": "buyer",
          "type": "address"
        },
        {
          "indexed": false,
          "internalType": "uint256",
          "name": "value",
          "type": "uint256"
        }
      ],
      "name": "BuyTokens",
      "type": "event"
    },
    {
      "anonymous": false,
      "inputs": [
        {
          "indexed": false,
          "internalType": "uint256",
          "name": "id",
          "type": "uint256"
        },
        {
          "indexed": false,
          "internalType": "address",
          "name": "player",
          "type": "address"
        }
      ],
      "name": "DuelCreated",
      "type": "event"
    },
    {
      "anonymous": false,
      "inputs": [
        {
          "indexed": false,
          "internalType": "uint256",
          "name": "id",
          "type": "uint256"
        },
        {
          "indexed": false,
          "internalType": "address",
          "name": "winner",
          "type": "address"
        }
      ],
      "name": "DuelFinished",
      "type": "event"
    },
    {
      "anonymous": false,
      "inputs": [
        {
          "indexed": true,
          "internalType": "address",
          "name": "previousOwner",
          "type": "address"
        },
        {
          "indexed": true,
          "internalType": "address",
          "name": "newOwner",
          "type": "address"
        }
      ],
      "name": "OwnershipTransferred",
      "type": "event"
    },
    {
      "anonymous": false,
      "inputs": [
        {
          "indexed": false,
          "internalType": "address",
          "name": "winner",
          "type": "address"
        }
      ],
      "name": "RewardClaimed",
      "type": "event"
    },
    {
      "inputs": [],
      "name": "XP",
      "outputs": [
        {
          "internalType": "contract IERC20",
          "name": "",
          "type": "address"
        }
      ],
      "stateMutability": "view",
      "type": "function"
    },
    {
      "inputs": [
        {
          "internalType": "uint256",
          "name": "_amount",
          "type": "uint256"
        }
      ],
      "name": "approveToken",
      "outputs": [],
      "stateMutability": "nonpayable",
      "type": "function"
    },
    {
      "inputs": [],
      "name": "buyTokens",
      "outputs": [],
      "stateMutability": "payable",
      "type": "function"
    },
    {
      "inputs": [],
      "name": "claimReward",
      "outputs": [],
      "stateMutability": "nonpayable",
      "type": "function"
    },
    {
      "inputs": [
        {
          "internalType": "address",
          "name": "_wallet",
          "type": "address"
        }
      ],
      "name": "claimedReward",
      "outputs": [
        {
          "internalType": "bool",
          "name": "",
          "type": "bool"
        }
      ],
      "stateMutability": "view",
      "type": "function"
    },
    {
      "inputs": [],
      "name": "createDuel",
      "outputs": [],
      "stateMutability": "payable",
      "type": "function"
    },
    {
      "inputs": [
        {
          "internalType": "uint256",
          "name": "",
          "type": "uint256"
        }
      ],
      "name": "duels",
      "outputs": [
        {
          "internalType": "uint256",
          "name": "id",
          "type": "uint256"
        },
        {
          "internalType": "address",
          "name": "player",
          "type": "address"
        },
        {
          "internalType": "uint256",
          "name": "createdAt",
          "type": "uint256"
        },
        {
          "internalType": "bool",
          "name": "claimedWinnings",
          "type": "bool"
        }
      ],
      "stateMutability": "view",
      "type": "function"
    },
    {
      "inputs": [
        {
          "internalType": "uint256",
          "name": "_duelId",
          "type": "uint256"
        }
      ],
      "name": "finishDuel",
      "outputs": [],
      "stateMutability": "nonpayable",
      "type": "function"
    },
    {
      "inputs": [
        {
          "internalType": "uint256",
          "name": "_amount",
          "type": "uint256"
        }
      ],
      "name": "fundGame",
      "outputs": [],
      "stateMutability": "nonpayable",
      "type": "function"
    },
    {
      "inputs": [],
      "name": "getBalance",
      "outputs": [
        {
          "internalType": "uint256",
          "name": "",
          "type": "uint256"
        }
      ],
      "stateMutability": "view",
      "type": "function"
    },
    {
      "inputs": [
        {
          "internalType": "uint256",
          "name": "_duelId",
          "type": "uint256"
        }
      ],
      "name": "getDuel",
      "outputs": [
        {
          "components": [
            {
              "internalType": "uint256",
              "name": "id",
              "type": "uint256"
            },
            {
              "internalType": "address",
              "name": "player",
              "type": "address"
            },
            {
              "internalType": "uint256",
              "name": "createdAt",
              "type": "uint256"
            },
            {
              "internalType": "bool",
              "name": "claimedWinnings",
              "type": "bool"
            }
          ],
          "internalType": "struct AIDuels.Duel",
          "name": "",
          "type": "tuple"
        }
      ],
      "stateMutability": "view",
      "type": "function"
    },
    {
      "inputs": [],
      "name": "getDuels",
      "outputs": [
        {
          "components": [
            {
              "internalType": "uint256",
              "name": "id",
              "type": "uint256"
            },
            {
              "internalType": "address",
              "name": "player",
              "type": "address"
            },
            {
              "internalType": "uint256",
              "name": "createdAt",
              "type": "uint256"
            },
            {
              "internalType": "bool",
              "name": "claimedWinnings",
              "type": "bool"
            }
          ],
          "internalType": "struct AIDuels.Duel[]",
          "name": "",
          "type": "tuple[]"
        }
      ],
      "stateMutability": "view",
      "type": "function"
    },
    {
      "inputs": [],
      "name": "getDuelsCount",
      "outputs": [
        {
          "internalType": "uint256",
          "name": "",
          "type": "uint256"
        }
      ],
      "stateMutability": "view",
      "type": "function"
    },
    {
      "inputs": [
        {
          "internalType": "address",
          "name": "_wallet",
          "type": "address"
        }
      ],
      "name": "getTokenAllowance",
      "outputs": [
        {
          "internalType": "uint256",
          "name": "",
          "type": "uint256"
        }
      ],
      "stateMutability": "view",
      "type": "function"
    },
    {
      "inputs": [],
      "name": "getTokenAllowanceContract",
      "outputs": [
        {
          "internalType": "uint256",
          "name": "",
          "type": "uint256"
        }
      ],
      "stateMutability": "view",
      "type": "function"
    },
    {
      "inputs": [
        {
          "internalType": "address",
          "name": "_wallet",
          "type": "address"
        }
      ],
      "name": "getTokenBalance",
      "outputs": [
        {
          "internalType": "uint256",
          "name": "",
          "type": "uint256"
        }
      ],
      "stateMutability": "view",
      "type": "function"
    },
    {
      "inputs": [],
      "name": "getTokenBalanceContract",
      "outputs": [
        {
          "internalType": "uint256",
          "name": "",
          "type": "uint256"
        }
      ],
      "stateMutability": "view",
      "type": "function"
    },
    {
      "inputs": [
        {
          "internalType": "address",
          "name": "",
          "type": "address"
        }
      ],
      "name": "hasClaimedReward",
      "outputs": [
        {
          "internalType": "bool",
          "name": "",
          "type": "bool"
        }
      ],
      "stateMutability": "view",
      "type": "function"
    },
    {
      "inputs": [],
      "name": "owner",
      "outputs": [
        {
          "internalType": "address",
          "name": "",
          "type": "address"
        }
      ],
      "stateMutability": "view",
      "type": "function"
    },
    {
      "inputs": [],
      "name": "renounceOwnership",
      "outputs": [],
      "stateMutability": "nonpayable",
      "type": "function"
    },
    {
      "inputs": [
        {
          "internalType": "uint256",
          "name": "_amountToPlay",
          "type": "uint256"
        },
        {
          "internalType": "uint256",
          "name": "_amountToWin",
          "type": "uint256"
        },
        {
          "internalType": "uint256",
          "name": "_amountToClaim",
          "type": "uint256"
        }
      ],
      "name": "setupGame",
      "outputs": [],
      "stateMutability": "nonpayable",
      "type": "function"
    },
    {
      "inputs": [
        {
          "internalType": "address",
          "name": "newOwner",
          "type": "address"
        }
      ],
      "name": "transferOwnership",
      "outputs": [],
      "stateMutability": "nonpayable",
      "type": "function"
    },
    {
      "inputs": [],
      "name": "withdraw",
      "outputs": [],
      "stateMutability": "nonpayable",
      "type": "function"
    },
    {
      "inputs": [],
      "name": "withdrawToken",
      "outputs": [],
      "stateMutability": "nonpayable",
      "type": "function"
    }
  ],
  "bytecode": "0x60a06040526012600a6200001491906200034e565b60026200002291906200039f565b6001556012600a6200003591906200034e565b60046200004391906200039f565b6002556012600a6200005691906200034e565b60026200006491906200039f565b6003553480156200007457600080fd5b5060405162002eb438038062002eb483398181016040528101906200009a919062000454565b620000ba620000ae620000f560201b60201c565b620000fd60201b60201c565b8073ffffffffffffffffffffffffffffffffffffffff1660808173ffffffffffffffffffffffffffffffffffffffff16815250505062000486565b600033905090565b60008060009054906101000a900473ffffffffffffffffffffffffffffffffffffffff169050816000806101000a81548173ffffffffffffffffffffffffffffffffffffffff021916908373ffffffffffffffffffffffffffffffffffffffff1602179055508173ffffffffffffffffffffffffffffffffffffffff168173ffffffffffffffffffffffffffffffffffffffff167f8be0079c531659141344cd1fd0a4f28419497f9722a3daafe3b4186f6b6457e060405160405180910390a35050565b7f4e487b7100000000000000000000000000000000000000000000000000000000600052601160045260246000fd5b60008160011c9050919050565b6000808291508390505b60018511156200024f57808604811115620002275762000226620001c1565b5b6001851615620002375780820291505b80810290506200024785620001f0565b945062000207565b94509492505050565b6000826200026a57600190506200033d565b816200027a57600090506200033d565b81600181146200029357600281146200029e57620002d4565b60019150506200033d565b60ff841115620002b357620002b2620001c1565b5b8360020a915084821115620002cd57620002cc620001c1565b5b506200033d565b5060208310610133831016604e8410600b84101617156200030e5782820a905083811115620003085762000307620001c1565b5b6200033d565b6200031d8484846001620001fd565b92509050818404811115620003375762000336620001c1565b5b81810290505b9392505050565b6000819050919050565b60006200035b8262000344565b9150620003688362000344565b9250620003977fffffffffffffffffffffffffffffffffffffffffffffffffffffffffffffffff848462000258565b905092915050565b6000620003ac8262000344565b9150620003b98362000344565b9250828202620003c98162000344565b91508282048414831517620003e357620003e2620001c1565b5b5092915050565b600080fd5b600073ffffffffffffffffffffffffffffffffffffffff82169050919050565b60006200041c82620003ef565b9050919050565b6200042e816200040f565b81146200043a57600080fd5b50565b6000815190506200044e8162000423565b92915050565b6000602082840312156200046d576200046c620003ea565b5b60006200047d848285016200043d565b91505092915050565b6080516129b06200050460003960008181610537015281816106360152818161075f0152818161086801528181610a4601528181610d220152818161100f01528181611147015281816112be0152818161139c015281816115d4015281816116fd0152818161174101528181611887015261198f01526129b06000f3fe60806040526004361061014b5760003560e01c8063715018a6116100b6578063b88a802f1161006f578063b88a802f14610495578063c78c5ae2146104ac578063ca628c78146104b6578063d0febe4c146104cd578063e5a379dd146104d7578063f2fde38b146105025761014b565b8063715018a61461036e578063859a62d0146103855780638da5cb5b146103c5578063a074696a146103f0578063a0c9ed471461042d578063a5b599e4146104585761014b565b80633ccfd60b116101085780633ccfd60b146102725780634bad559a14610289578063565e614f146102b25780635b0fa366146102ef5780636107814e1461031a57806367fcbef3146103455761014b565b806312065fe014610150578063130269c81461017b5780631e6f3d8a146101a65780632e55a767146101e35780633ac9fc111461020c5780633aecd0e314610235575b600080fd5b34801561015c57600080fd5b5061016561052b565b6040516101729190611bd7565b60405180910390f35b34801561018757600080fd5b50610190610533565b60405161019d9190611bd7565b60405180910390f35b3480156101b257600080fd5b506101cd60048036038101906101c89190611c55565b6105d4565b6040516101da9190611c9d565b60405180910390f35b3480156101ef57600080fd5b5061020a60048036038101906102059190611ce4565b61062a565b005b34801561021857600080fd5b50610233600480360381019061022e9190611ce4565b61071a565b005b34801561024157600080fd5b5061025c60048036038101906102579190611c55565b610864565b6040516102699190611bd7565b60405180910390f35b34801561027e57600080fd5b50610287610907565b005b34801561029557600080fd5b506102b060048036038101906102ab9190611d11565b61095f565b005b3480156102be57600080fd5b506102d960048036038101906102d49190611ce4565b610981565b6040516102e69190611de6565b60405180910390f35b3480156102fb57600080fd5b50610304610a42565b6040516103119190611bd7565b60405180910390f35b34801561032657600080fd5b5061032f610ae5565b60405161033c9190611bd7565b60405180910390f35b34801561035157600080fd5b5061036c60048036038101906103679190611ce4565b610af2565b005b34801561037a57600080fd5b50610383610e5d565b005b34801561039157600080fd5b506103ac60048036038101906103a79190611ce4565b610e71565b6040516103bc9493929190611e10565b60405180910390f35b3480156103d157600080fd5b506103da610ede565b6040516103e79190611e55565b60405180910390f35b3480156103fc57600080fd5b5061041760048036038101906104129190611c55565b610f07565b6040516104249190611c9d565b60405180910390f35b34801561043957600080fd5b50610442610f27565b60405161044f9190611f74565b60405180910390f35b34801561046457600080fd5b5061047f600480360381019061047a9190611c55565b61100b565b60405161048c9190611bd7565b60405180910390f35b3480156104a157600080fd5b506104aa6110b0565b005b6104b46112b9565b005b3480156104c257600080fd5b506104cb6116f3565b005b6104d561183c565b005b3480156104e357600080fd5b506104ec61198d565b6040516104f99190611ff5565b60405180910390f35b34801561050e57600080fd5b5061052960048036038101906105249190611c55565b6119b1565b005b600047905090565b60007f000000000000000000000000000000000000000000000000000000000000000073ffffffffffffffffffffffffffffffffffffffff166370a08231306040518263ffffffff1660e01b815260040161058e9190611e55565b602060405180830381865afa1580156105ab573d6000803e3d6000fd5b505050506040513d601f19601f820116820180604052508101906105cf9190612025565b905090565b6000600560008373ffffffffffffffffffffffffffffffffffffffff1673ffffffffffffffffffffffffffffffffffffffff16815260200190815260200160002060009054906101000a900460ff169050919050565b610632611a34565b60007f000000000000000000000000000000000000000000000000000000000000000073ffffffffffffffffffffffffffffffffffffffff166323b872dd3330856040518463ffffffff1660e01b815260040161069193929190612052565b6020604051808303816000875af11580156106b0573d6000803e3d6000fd5b505050506040513d601f19601f820116820180604052508101906106d491906120b5565b905080610716576040517f08c379a000000000000000000000000000000000000000000000000000000000815260040161070d9061213f565b60405180910390fd5b5050565b6000811161075d576040517f08c379a0000000000000000000000000000000000000000000000000000000008152600401610754906121ab565b60405180910390fd5b7f000000000000000000000000000000000000000000000000000000000000000073ffffffffffffffffffffffffffffffffffffffff1663095ea7b330836040518363ffffffff1660e01b81526004016107b89291906121cb565b6020604051808303816000875af11580156107d7573d6000803e3d6000fd5b505050506040513d601f19601f820116820180604052508101906107fb91906120b5565b503073ffffffffffffffffffffffffffffffffffffffff163373ffffffffffffffffffffffffffffffffffffffff167f8c5be1e5ebec7d5bd14f71427d1e84f3dd0314c0f7b2291e5b200ac8c7c3b925836040516108599190611bd7565b60405180910390a350565b60007f000000000000000000000000000000000000000000000000000000000000000073ffffffffffffffffffffffffffffffffffffffff166370a08231836040518263ffffffff1660e01b81526004016108bf9190611e55565b602060405180830381865afa1580156108dc573d6000803e3d6000fd5b505050506040513d601f19601f820116820180604052508101906109009190612025565b9050919050565b61090f611a34565b610917610ede565b73ffffffffffffffffffffffffffffffffffffffff166108fc479081150290604051600060405180830381858888f1935050505015801561095c573d6000803e3d6000fd5b50565b610967611a34565b826001819055508160028190555080600381905550505050565b610989611b7e565b6004828154811061099d5761099c6121f4565b5b9060005260206000209060040201604051806080016040529081600082015481526020016001820160009054906101000a900473ffffffffffffffffffffffffffffffffffffffff1673ffffffffffffffffffffffffffffffffffffffff1673ffffffffffffffffffffffffffffffffffffffff168152602001600282015481526020016003820160009054906101000a900460ff1615151515815250509050919050565b60007f000000000000000000000000000000000000000000000000000000000000000073ffffffffffffffffffffffffffffffffffffffff1663dd62ed3e30306040518363ffffffff1660e01b8152600401610a9f929190612223565b602060405180830381865afa158015610abc573d6000803e3d6000fd5b505050506040513d601f19601f82011682018060405250810190610ae09190612025565b905090565b6000600480549050905090565b6004805490508110610b39576040517f08c379a0000000000000000000000000000000000000000000000000000000008152600401610b3090612298565b60405180910390fd5b600073ffffffffffffffffffffffffffffffffffffffff1660048281548110610b6557610b646121f4565b5b906000526020600020906004020160010160009054906101000a900473ffffffffffffffffffffffffffffffffffffffff1673ffffffffffffffffffffffffffffffffffffffff1603610bed576040517f08c379a0000000000000000000000000000000000000000000000000000000008152600401610be49061232a565b60405180910390fd5b6001151560048281548110610c0557610c046121f4565b5b906000526020600020906004020160030160009054906101000a900460ff16151503610c66576040517f08c379a0000000000000000000000000000000000000000000000000000000008152600401610c5d90612396565b60405180910390fd5b600060048281548110610c7c57610c7b6121f4565b5b906000526020600020906004020190508060010160009054906101000a900473ffffffffffffffffffffffffffffffffffffffff1673ffffffffffffffffffffffffffffffffffffffff163373ffffffffffffffffffffffffffffffffffffffff1614610d1e576040517f08c379a0000000000000000000000000000000000000000000000000000000008152600401610d1590612402565b60405180910390fd5b60007f000000000000000000000000000000000000000000000000000000000000000073ffffffffffffffffffffffffffffffffffffffff1663a9059cbb336002546040518363ffffffff1660e01b8152600401610d7d9291906121cb565b6020604051808303816000875af1158015610d9c573d6000803e3d6000fd5b505050506040513d601f19601f82011682018060405250810190610dc091906120b5565b905080610e02576040517f08c379a0000000000000000000000000000000000000000000000000000000008152600401610df99061213f565b60405180910390fd5b60018260030160006101000a81548160ff0219169083151502179055507f5556fc35d5e8685baaff99a10feb6d230a017ba150ebd158c7529e31dc5ba3938333604051610e50929190612422565b60405180910390a1505050565b610e65611a34565b610e6f6000611ab2565b565b60048181548110610e8157600080fd5b90600052602060002090600402016000915090508060000154908060010160009054906101000a900473ffffffffffffffffffffffffffffffffffffffff16908060020154908060030160009054906101000a900460ff16905084565b60008060009054906101000a900473ffffffffffffffffffffffffffffffffffffffff16905090565b60056020528060005260406000206000915054906101000a900460ff1681565b60606004805480602002602001604051908101604052809291908181526020016000905b828210156110025783829060005260206000209060040201604051806080016040529081600082015481526020016001820160009054906101000a900473ffffffffffffffffffffffffffffffffffffffff1673ffffffffffffffffffffffffffffffffffffffff1673ffffffffffffffffffffffffffffffffffffffff168152602001600282015481526020016003820160009054906101000a900460ff16151515158152505081526020019060010190610f4b565b50505050905090565b60007f000000000000000000000000000000000000000000000000000000000000000073ffffffffffffffffffffffffffffffffffffffff1663dd62ed3e83306040518363ffffffff1660e01b8152600401611068929190612223565b602060405180830381865afa158015611085573d6000803e3d6000fd5b505050506040513d601f19601f820116820180604052508101906110a99190612025565b9050919050565b60011515600560003373ffffffffffffffffffffffffffffffffffffffff1673ffffffffffffffffffffffffffffffffffffffff16815260200190815260200160002060009054906101000a900460ff16151503611143576040517f08c379a000000000000000000000000000000000000000000000000000000000815260040161113a90612497565b60405180910390fd5b60007f000000000000000000000000000000000000000000000000000000000000000073ffffffffffffffffffffffffffffffffffffffff1663a9059cbb336003546040518363ffffffff1660e01b81526004016111a29291906121cb565b6020604051808303816000875af11580156111c1573d6000803e3d6000fd5b505050506040513d601f19601f820116820180604052508101906111e591906120b5565b905080611227576040517f08c379a000000000000000000000000000000000000000000000000000000000815260040161121e9061213f565b60405180910390fd5b6001600560003373ffffffffffffffffffffffffffffffffffffffff1673ffffffffffffffffffffffffffffffffffffffff16815260200190815260200160002060006101000a81548160ff0219169083151502179055507fea61a2a22523394f29506de20cc9db2e881f096477982d51012058ec9032714a336040516112ae9190611e55565b60405180910390a150565b6001547f000000000000000000000000000000000000000000000000000000000000000073ffffffffffffffffffffffffffffffffffffffff166370a08231336040518263ffffffff1660e01b81526004016113159190611e55565b602060405180830381865afa158015611332573d6000803e3d6000fd5b505050506040513d601f19601f820116820180604052508101906113569190612025565b1015611397576040517f08c379a000000000000000000000000000000000000000000000000000000000815260040161138e90612503565b60405180910390fd5b6001547f000000000000000000000000000000000000000000000000000000000000000073ffffffffffffffffffffffffffffffffffffffff1663dd62ed3e33306040518363ffffffff1660e01b81526004016113f5929190612223565b602060405180830381865afa158015611412573d6000803e3d6000fd5b505050506040513d601f19601f820116820180604052508101906114369190612025565b1015611477576040517f08c379a000000000000000000000000000000000000000000000000000000000815260040161146e9061256f565b60405180910390fd5b600073ffffffffffffffffffffffffffffffffffffffff163373ffffffffffffffffffffffffffffffffffffffff16036114e6576040517f08c379a00000000000000000000000000000000000000000000000000000000081526004016114dd90612601565b60405180910390fd5b6000604051806080016040528060048054905081526020013373ffffffffffffffffffffffffffffffffffffffff16815260200142815260200160001515815250905060048190806001815401808255809150506001900390600052602060002090600402016000909190919091506000820151816000015560208201518160010160006101000a81548173ffffffffffffffffffffffffffffffffffffffff021916908373ffffffffffffffffffffffffffffffffffffffff1602179055506040820151816002015560608201518160030160006101000a81548160ff02191690831515021790555050507f000000000000000000000000000000000000000000000000000000000000000073ffffffffffffffffffffffffffffffffffffffff166323b872dd33306001546040518463ffffffff1660e01b815260040161163193929190612052565b6020604051808303816000875af1158015611650573d6000803e3d6000fd5b505050506040513d601f19601f8201168201806040525081019061167491906120b5565b6116b3576040517f08c379a00000000000000000000000000000000000000000000000000000000081526004016116aa9061213f565b60405180910390fd5b7fcd26131b45150811014e8f4d6f6c04f24f83a2571aaa878996973b82b2ab2d3f8160000151336040516116e8929190612422565b60405180910390a150565b6116fb611a34565b7f000000000000000000000000000000000000000000000000000000000000000073ffffffffffffffffffffffffffffffffffffffff1663a9059cbb61173f610ede565b7f000000000000000000000000000000000000000000000000000000000000000073ffffffffffffffffffffffffffffffffffffffff166370a08231306040518263ffffffff1660e01b81526004016117989190611e55565b602060405180830381865afa1580156117b5573d6000803e3d6000fd5b505050506040513d601f19601f820116820180604052508101906117d99190612025565b6040518363ffffffff1660e01b81526004016117f69291906121cb565b6020604051808303816000875af1158015611815573d6000803e3d6000fd5b505050506040513d601f19601f8201168201806040525081019061183991906120b5565b50565b66470de4df8200003414611885576040517f08c379a000000000000000000000000000000000000000000000000000000000815260040161187c9061266d565b60405180910390fd5b7f000000000000000000000000000000000000000000000000000000000000000073ffffffffffffffffffffffffffffffffffffffff1663a9059cbb336012600a6118d091906127ef565b60026118dc919061283a565b6040518363ffffffff1660e01b81526004016118f99291906121cb565b6020604051808303816000875af1158015611918573d6000803e3d6000fd5b505050506040513d601f19601f8201168201806040525081019061193c91906120b5565b503373ffffffffffffffffffffffffffffffffffffffff167f4aff2c4e63da20aaa26764b3e97f557bf5e95b76ddba8f97a156abbecb081846346040516119839190611bd7565b60405180910390a2565b7f000000000000000000000000000000000000000000000000000000000000000081565b6119b9611a34565b600073ffffffffffffffffffffffffffffffffffffffff168173ffffffffffffffffffffffffffffffffffffffff1603611a28576040517f08c379a0000000000000000000000000000000000000000000000000000000008152600401611a1f906128ee565b60405180910390fd5b611a3181611ab2565b50565b611a3c611b76565b73ffffffffffffffffffffffffffffffffffffffff16611a5a610ede565b73ffffffffffffffffffffffffffffffffffffffff1614611ab0576040517f08c379a0000000000000000000000000000000000000000000000000000000008152600401611aa79061295a565b60405180910390fd5b565b60008060009054906101000a900473ffffffffffffffffffffffffffffffffffffffff169050816000806101000a81548173ffffffffffffffffffffffffffffffffffffffff021916908373ffffffffffffffffffffffffffffffffffffffff1602179055508173ffffffffffffffffffffffffffffffffffffffff168173ffffffffffffffffffffffffffffffffffffffff167f8be0079c531659141344cd1fd0a4f28419497f9722a3daafe3b4186f6b6457e060405160405180910390a35050565b600033905090565b604051806080016040528060008152602001600073ffffffffffffffffffffffffffffffffffffffff168152602001600081526020016000151581525090565b6000819050919050565b611bd181611bbe565b82525050565b6000602082019050611bec6000830184611bc8565b92915050565b600080fd5b600073ffffffffffffffffffffffffffffffffffffffff82169050919050565b6000611c2282611bf7565b9050919050565b611c3281611c17565b8114611c3d57600080fd5b50565b600081359050611c4f81611c29565b92915050565b600060208284031215611c6b57611c6a611bf2565b5b6000611c7984828501611c40565b91505092915050565b60008115159050919050565b611c9781611c82565b82525050565b6000602082019050611cb26000830184611c8e565b92915050565b611cc181611bbe565b8114611ccc57600080fd5b50565b600081359050611cde81611cb8565b92915050565b600060208284031215611cfa57611cf9611bf2565b5b6000611d0884828501611ccf565b91505092915050565b600080600060608486031215611d2a57611d29611bf2565b5b6000611d3886828701611ccf565b9350506020611d4986828701611ccf565b9250506040611d5a86828701611ccf565b9150509250925092565b611d6d81611bbe565b82525050565b611d7c81611c17565b82525050565b611d8b81611c82565b82525050565b608082016000820151611da76000850182611d64565b506020820151611dba6020850182611d73565b506040820151611dcd6040850182611d64565b506060820151611de06060850182611d82565b50505050565b6000608082019050611dfb6000830184611d91565b92915050565b611e0a81611c17565b82525050565b6000608082019050611e256000830187611bc8565b611e326020830186611e01565b611e3f6040830185611bc8565b611e4c6060830184611c8e565b95945050505050565b6000602082019050611e6a6000830184611e01565b92915050565b600081519050919050565b600082825260208201905092915050565b6000819050602082019050919050565b608082016000820151611eb26000850182611d64565b506020820151611ec56020850182611d73565b506040820151611ed86040850182611d64565b506060820151611eeb6060850182611d82565b50505050565b6000611efd8383611e9c565b60808301905092915050565b6000602082019050919050565b6000611f2182611e70565b611f2b8185611e7b565b9350611f3683611e8c565b8060005b83811015611f67578151611f4e8882611ef1565b9750611f5983611f09565b925050600181019050611f3a565b5085935050505092915050565b60006020820190508181036000830152611f8e8184611f16565b905092915050565b6000819050919050565b6000611fbb611fb6611fb184611bf7565b611f96565b611bf7565b9050919050565b6000611fcd82611fa0565b9050919050565b6000611fdf82611fc2565b9050919050565b611fef81611fd4565b82525050565b600060208201905061200a6000830184611fe6565b92915050565b60008151905061201f81611cb8565b92915050565b60006020828403121561203b5761203a611bf2565b5b600061204984828501612010565b91505092915050565b60006060820190506120676000830186611e01565b6120746020830185611e01565b6120816040830184611bc8565b949350505050565b61209281611c82565b811461209d57600080fd5b50565b6000815190506120af81612089565b92915050565b6000602082840312156120cb576120ca611bf2565b5b60006120d9848285016120a0565b91505092915050565b600082825260208201905092915050565b7f546f6b656e207472616e73666572206661696c65642100000000000000000000600082015250565b60006121296016836120e2565b9150612134826120f3565b602082019050919050565b600060208201905081810360008301526121588161211c565b9050919050565b7f416d6f756e74206d7573742062652067726561746572207468616e2030000000600082015250565b6000612195601d836120e2565b91506121a08261215f565b602082019050919050565b600060208201905081810360008301526121c481612188565b9050919050565b60006040820190506121e06000830185611e01565b6121ed6020830184611bc8565b9392505050565b7f4e487b7100000000000000000000000000000000000000000000000000000000600052603260045260246000fd5b60006040820190506122386000830185611e01565b6122456020830184611e01565b9392505050565b7f4475656c20646f6573206e6f7420657869737400000000000000000000000000600082015250565b60006122826013836120e2565b915061228d8261224c565b602082019050919050565b600060208201905081810360008301526122b181612275565b9050919050565b7f506c61796572206d757374206e6f7420626520746865207a65726f206164647260008201527f6573730000000000000000000000000000000000000000000000000000000000602082015250565b60006123146023836120e2565b915061231f826122b8565b604082019050919050565b6000602082019050818103600083015261234381612307565b9050919050565b7f57696e6e696e677320616c726561647920636c61696d65640000000000000000600082015250565b60006123806018836120e2565b915061238b8261234a565b602082019050919050565b600060208201905081810360008301526123af81612373565b9050919050565b7f4f6e6c7920706c617965722063616e2066696e697368206475656c0000000000600082015250565b60006123ec601b836120e2565b91506123f7826123b6565b602082019050919050565b6000602082019050818103600083015261241b816123df565b9050919050565b60006040820190506124376000830185611bc8565b6124446020830184611e01565b9392505050565b7f52657761726420616c726561647920636c61696d656400000000000000000000600082015250565b60006124816016836120e2565b915061248c8261244b565b602082019050919050565b600060208201905081810360008301526124b081612474565b9050919050565b7f496e73756666696369656e7420585020746f6b656e7300000000000000000000600082015250565b60006124ed6016836120e2565b91506124f8826124b7565b602082019050919050565b6000602082019050818103600083015261251c816124e0565b9050919050565b7f585020746f6b656e73206d75737420626520617070726f766564000000000000600082015250565b6000612559601a836120e2565b915061256482612523565b602082019050919050565b600060208201905081810360008301526125888161254c565b9050919050565b7f53656e646572206d757374206e6f7420626520746865207a65726f206164647260008201527f6573730000000000000000000000000000000000000000000000000000000000602082015250565b60006125eb6023836120e2565b91506125f68261258f565b604082019050919050565b6000602082019050818103600083015261261a816125de565b9050919050565b7f302e303220657468657220726571756972656400000000000000000000000000600082015250565b60006126576013836120e2565b915061266282612621565b602082019050919050565b600060208201905081810360008301526126868161264a565b9050919050565b7f4e487b7100000000000000000000000000000000000000000000000000000000600052601160045260246000fd5b60008160011c9050919050565b6000808291508390505b6001851115612713578086048111156126ef576126ee61268d565b5b60018516156126fe5780820291505b808102905061270c856126bc565b94506126d3565b94509492505050565b60008261272c57600190506127e8565b8161273a57600090506127e8565b8160018114612750576002811461275a57612789565b60019150506127e8565b60ff84111561276c5761276b61268d565b5b8360020a9150848211156127835761278261268d565b5b506127e8565b5060208310610133831016604e8410600b84101617156127be5782820a9050838111156127b9576127b861268d565b5b6127e8565b6127cb84848460016126c9565b925090508184048111156127e2576127e161268d565b5b81810290505b9392505050565b60006127fa82611bbe565b915061280583611bbe565b92506128327fffffffffffffffffffffffffffffffffffffffffffffffffffffffffffffffff848461271c565b905092915050565b600061284582611bbe565b915061285083611bbe565b925082820261285e81611bbe565b915082820484148315176128755761287461268d565b5b5092915050565b7f4f776e61626c653a206e6577206f776e657220697320746865207a65726f206160008201527f6464726573730000000000000000000000000000000000000000000000000000602082015250565b60006128d86026836120e2565b91506128e38261287c565b604082019050919050565b60006020820190508181036000830152612907816128cb565b9050919050565b7f4f776e61626c653a2063616c6c6572206973206e6f7420746865206f776e6572600082015250565b60006129446020836120e2565b915061294f8261290e565b602082019050919050565b6000602082019050818103600083015261297381612937565b905091905056fea26469706673582212202ff17607fbd31cb5b6d7b96951b5fc707a07ec2fed8c5c34b57eda0265577f9e64736f6c63430008130033",
  "linkReferences": {},
  "deployedLinkReferences": {}
}