{
  "_format": "hh-sol-artifact-1",
  "contractName": "Duels",
  "sourceName": "contracts/Duels.sol",
  "abi": [
    {
      "anonymous": false,
      "inputs": [
        {
          "indexed": false,
          "internalType": "uint256",
          "name": "id",
          "type": "uint256"
        }
      ],
      "name": "DuelAccepted",
      "type": "event"
    },
    {
      "anonymous": false,
      "inputs": [
        {
          "indexed": false,
          "internalType": "uint256",
          "name": "id",
          "type": "uint256"
        }
      ],
      "name": "DuelCancelled",
      "type": "event"
    },
    {
      "anonymous": false,
      "inputs": [
        {
          "indexed": false,
          "internalType": "uint256",
          "name": "id",
          "type": "uint256"
        }
      ],
      "name": "DuelCreated",
      "type": "event"
    },
    {
      "anonymous": false,
      "inputs": [
        {
          "indexed": false,
          "internalType": "uint256",
          "name": "id",
          "type": "uint256"
        },
        {
          "indexed": false,
          "internalType": "address",
          "name": "winner",
          "type": "address"
        }
      ],
      "name": "DuelFinished",
      "type": "event"
    },
    {
      "anonymous": false,
      "inputs": [
        {
          "indexed": false,
          "internalType": "uint256",
          "name": "id",
          "type": "uint256"
        },
        {
          "indexed": false,
          "internalType": "address",
          "name": "currentPlayer",
          "type": "address"
        }
      ],
      "name": "DuelMove",
      "type": "event"
    },
    {
      "anonymous": false,
      "inputs": [
        {
          "indexed": true,
          "internalType": "address",
          "name": "previousOwner",
          "type": "address"
        },
        {
          "indexed": true,
          "internalType": "address",
          "name": "newOwner",
          "type": "address"
        }
      ],
      "name": "OwnershipTransferred",
      "type": "event"
    },
    {
      "inputs": [],
      "name": "FEE",
      "outputs": [
        {
          "internalType": "uint256",
          "name": "",
          "type": "uint256"
        }
      ],
      "stateMutability": "view",
      "type": "function"
    },
    {
      "inputs": [
        {
          "internalType": "uint256",
          "name": "_duelId",
          "type": "uint256"
        }
      ],
      "name": "acceptDuel",
      "outputs": [],
      "stateMutability": "payable",
      "type": "function"
    },
    {
      "inputs": [
        {
          "internalType": "uint256",
          "name": "_duelId",
          "type": "uint256"
        }
      ],
      "name": "cancelDuel",
      "outputs": [],
      "stateMutability": "nonpayable",
      "type": "function"
    },
    {
      "inputs": [
        {
          "internalType": "string",
          "name": "_email",
          "type": "string"
        },
        {
          "internalType": "string",
          "name": "_targetWord",
          "type": "string"
        }
      ],
      "name": "createDuel",
      "outputs": [],
      "stateMutability": "payable",
      "type": "function"
    },
    {
      "inputs": [
        {
          "internalType": "uint256",
          "name": "",
          "type": "uint256"
        }
      ],
      "name": "duels",
      "outputs": [
        {
          "internalType": "uint256",
          "name": "id",
          "type": "uint256"
        },
        {
          "internalType": "address",
          "name": "challenger",
          "type": "address"
        },
        {
          "internalType": "address",
          "name": "opponent",
          "type": "address"
        },
        {
          "internalType": "address",
          "name": "currentPlayer",
          "type": "address"
        },
        {
          "internalType": "string",
          "name": "email",
          "type": "string"
        },
        {
          "internalType": "string",
          "name": "targetWord",
          "type": "string"
        },
        {
          "internalType": "string",
          "name": "words",
          "type": "string"
        },
        {
          "internalType": "uint256",
          "name": "moveAmount",
          "type": "uint256"
        },
        {
          "internalType": "uint256",
          "name": "potAmount",
          "type": "uint256"
        },
        {
          "internalType": "uint256",
          "name": "createdAt",
          "type": "uint256"
        },
        {
          "internalType": "uint256",
          "name": "finishedAt",
          "type": "uint256"
        },
        {
          "internalType": "enum Duels.DuelState",
          "name": "state",
          "type": "uint8"
        }
      ],
      "stateMutability": "view",
      "type": "function"
    },
    {
      "inputs": [],
      "name": "getBalance",
      "outputs": [
        {
          "internalType": "uint256",
          "name": "",
          "type": "uint256"
        }
      ],
      "stateMutability": "view",
      "type": "function"
    },
    {
      "inputs": [
        {
          "internalType": "uint256",
          "name": "_duelId",
          "type": "uint256"
        }
      ],
      "name": "getDuel",
      "outputs": [
        {
          "components": [
            {
              "internalType": "uint256",
              "name": "id",
              "type": "uint256"
            },
            {
              "internalType": "address",
              "name": "challenger",
              "type": "address"
            },
            {
              "internalType": "address",
              "name": "opponent",
              "type": "address"
            },
            {
              "internalType": "address",
              "name": "currentPlayer",
              "type": "address"
            },
            {
              "internalType": "string",
              "name": "email",
              "type": "string"
            },
            {
              "internalType": "string",
              "name": "targetWord",
              "type": "string"
            },
            {
              "internalType": "string",
              "name": "words",
              "type": "string"
            },
            {
              "internalType": "uint256",
              "name": "moveAmount",
              "type": "uint256"
            },
            {
              "internalType": "uint256",
              "name": "potAmount",
              "type": "uint256"
            },
            {
              "internalType": "uint256",
              "name": "createdAt",
              "type": "uint256"
            },
            {
              "internalType": "uint256",
              "name": "finishedAt",
              "type": "uint256"
            },
            {
              "internalType": "enum Duels.DuelState",
              "name": "state",
              "type": "uint8"
            }
          ],
          "internalType": "struct Duels.Duel",
          "name": "",
          "type": "tuple"
        }
      ],
      "stateMutability": "view",
      "type": "function"
    },
    {
      "inputs": [],
      "name": "getDuels",
      "outputs": [
        {
          "components": [
            {
              "internalType": "uint256",
              "name": "id",
              "type": "uint256"
            },
            {
              "internalType": "address",
              "name": "challenger",
              "type": "address"
            },
            {
              "internalType": "address",
              "name": "opponent",
              "type": "address"
            },
            {
              "internalType": "address",
              "name": "currentPlayer",
              "type": "address"
            },
            {
              "internalType": "string",
              "name": "email",
              "type": "string"
            },
            {
              "internalType": "string",
              "name": "targetWord",
              "type": "string"
            },
            {
              "internalType": "string",
              "name": "words",
              "type": "string"
            },
            {
              "internalType": "uint256",
              "name": "moveAmount",
              "type": "uint256"
            },
            {
              "internalType": "uint256",
              "name": "potAmount",
              "type": "uint256"
            },
            {
              "internalType": "uint256",
              "name": "createdAt",
              "type": "uint256"
            },
            {
              "internalType": "uint256",
              "name": "finishedAt",
              "type": "uint256"
            },
            {
              "internalType": "enum Duels.DuelState",
              "name": "state",
              "type": "uint8"
            }
          ],
          "internalType": "struct Duels.Duel[]",
          "name": "",
          "type": "tuple[]"
        }
      ],
      "stateMutability": "view",
      "type": "function"
    },
    {
      "inputs": [],
      "name": "getDuelsCount",
      "outputs": [
        {
          "internalType": "uint256",
          "name": "",
          "type": "uint256"
        }
      ],
      "stateMutability": "view",
      "type": "function"
    },
    {
      "inputs": [
        {
          "internalType": "address",
          "name": "_wallet",
          "type": "address"
        }
      ],
      "name": "getMyDuels",
      "outputs": [
        {
          "internalType": "uint256[]",
          "name": "",
          "type": "uint256[]"
        }
      ],
      "stateMutability": "view",
      "type": "function"
    },
    {
      "inputs": [
        {
          "internalType": "address",
          "name": "_wallet",
          "type": "address"
        }
      ],
      "name": "getMyDuelsCount",
      "outputs": [
        {
          "internalType": "uint256",
          "name": "",
          "type": "uint256"
        }
      ],
      "stateMutability": "view",
      "type": "function"
    },
    {
      "inputs": [
        {
          "internalType": "uint256",
          "name": "_duelId",
          "type": "uint256"
        },
        {
          "internalType": "string",
          "name": "_word",
          "type": "string"
        }
      ],
      "name": "makeMove",
      "outputs": [],
      "stateMutability": "payable",
      "type": "function"
    },
    {
      "inputs": [
        {
          "internalType": "address",
          "name": "",
          "type": "address"
        },
        {
          "internalType": "uint256",
          "name": "",
          "type": "uint256"
        }
      ],
      "name": "myDuels",
      "outputs": [
        {
          "internalType": "uint256",
          "name": "",
          "type": "uint256"
        }
      ],
      "stateMutability": "view",
      "type": "function"
    },
    {
      "inputs": [],
      "name": "owner",
      "outputs": [
        {
          "internalType": "address",
          "name": "",
          "type": "address"
        }
      ],
      "stateMutability": "view",
      "type": "function"
    },
    {
      "inputs": [],
      "name": "renounceOwnership",
      "outputs": [],
      "stateMutability": "nonpayable",
      "type": "function"
    },
    {
      "inputs": [
        {
          "internalType": "address",
          "name": "newOwner",
          "type": "address"
        }
      ],
      "name": "transferOwnership",
      "outputs": [],
      "stateMutability": "nonpayable",
      "type": "function"
    }
  ],
  "bytecode": "0x60806040523480156200001157600080fd5b5062000032620000266200003860201b60201c565b6200004060201b60201c565b62000104565b600033905090565b60008060009054906101000a900473ffffffffffffffffffffffffffffffffffffffff169050816000806101000a81548173ffffffffffffffffffffffffffffffffffffffff021916908373ffffffffffffffffffffffffffffffffffffffff1602179055508173ffffffffffffffffffffffffffffffffffffffff168173ffffffffffffffffffffffffffffffffffffffff167f8be0079c531659141344cd1fd0a4f28419497f9722a3daafe3b4186f6b6457e060405160405180910390a35050565b6134a680620001146000396000f3fe6080604052600436106100f35760003560e01c8063a0c9ed471161008a578063c7081d3d11610059578063c7081d3d1461031d578063c874b1c21461035a578063d9c312f414610376578063f2fde38b1461039f576100f3565b8063a0c9ed471461026e578063afce75d414610299578063b1cf42d8146102d6578063c57981b5146102f2576100f3565b8063715018a6116100c6578063715018a6146101c85780637d20e927146101df578063859a62d0146101fb5780638da5cb5b14610243576100f3565b806312065fe0146100f85780631d9e39d114610123578063565e614f146101605780636107814e1461019d575b600080fd5b34801561010457600080fd5b5061010d6103c8565b60405161011a91906120e3565b60405180910390f35b34801561012f57600080fd5b5061014a60048036038101906101459190612170565b6103d0565b60405161015791906120e3565b60405180910390f35b34801561016c57600080fd5b50610187600480360381019061018291906121c9565b61041c565b604051610194919061242d565b60405180910390f35b3480156101a957600080fd5b506101b261077e565b6040516101bf91906120e3565b60405180910390f35b3480156101d457600080fd5b506101dd61078b565b005b6101f960048036038101906101f49190612584565b61079f565b005b34801561020757600080fd5b50610222600480360381019061021d91906121c9565b610ec1565b60405161023a9c9b9a99989796959493929190612648565b60405180910390f35b34801561024f57600080fd5b50610258611136565b6040516102659190612717565b60405180910390f35b34801561027a57600080fd5b5061028361115f565b6040516102909190612906565b60405180910390f35b3480156102a557600080fd5b506102c060048036038101906102bb9190612928565b6114e4565b6040516102cd91906120e3565b60405180910390f35b6102f060048036038101906102eb9190612968565b611515565b005b3480156102fe57600080fd5b506103076118d9565b60405161031491906120e3565b60405180910390f35b34801561032957600080fd5b50610344600480360381019061033f9190612170565b6118e4565b6040516103519190612a8f565b60405180910390f35b610374600480360381019061036f91906121c9565b61197b565b005b34801561038257600080fd5b5061039d600480360381019061039891906121c9565b611c08565b005b3480156103ab57600080fd5b506103c660048036038101906103c19190612170565b611e48565b005b600047905090565b6000600260008373ffffffffffffffffffffffffffffffffffffffff1673ffffffffffffffffffffffffffffffffffffffff168152602001908152602001600020805490509050919050565b610424612015565b6001828154811061043857610437612ab1565b5b90600052602060002090600c020160405180610180016040529081600082015481526020016001820160009054906101000a900473ffffffffffffffffffffffffffffffffffffffff1673ffffffffffffffffffffffffffffffffffffffff1673ffffffffffffffffffffffffffffffffffffffff1681526020016002820160009054906101000a900473ffffffffffffffffffffffffffffffffffffffff1673ffffffffffffffffffffffffffffffffffffffff1673ffffffffffffffffffffffffffffffffffffffff1681526020016003820160009054906101000a900473ffffffffffffffffffffffffffffffffffffffff1673ffffffffffffffffffffffffffffffffffffffff1673ffffffffffffffffffffffffffffffffffffffff16815260200160048201805461056e90612b0f565b80601f016020809104026020016040519081016040528092919081815260200182805461059a90612b0f565b80156105e75780601f106105bc576101008083540402835291602001916105e7565b820191906000526020600020905b8154815290600101906020018083116105ca57829003601f168201915b5050505050815260200160058201805461060090612b0f565b80601f016020809104026020016040519081016040528092919081815260200182805461062c90612b0f565b80156106795780601f1061064e57610100808354040283529160200191610679565b820191906000526020600020905b81548152906001019060200180831161065c57829003601f168201915b5050505050815260200160068201805461069290612b0f565b80601f01602080910402602001604051908101604052809291908181526020018280546106be90612b0f565b801561070b5780601f106106e05761010080835404028352916020019161070b565b820191906000526020600020905b8154815290600101906020018083116106ee57829003601f168201915b50505050508152602001600782015481526020016008820154815260200160098201548152602001600a8201548152602001600b820160009054906101000a900460ff166003811115610761576107606122a4565b5b6003811115610773576107726122a4565b5b815250509050919050565b6000600180549050905090565b610793611ecb565b61079d6000611f49565b565b600160038111156107b3576107b26122a4565b5b600183815481106107c7576107c6612ab1565b5b90600052602060002090600c0201600b0160009054906101000a900460ff1660038111156107f8576107f76122a4565b5b14610838576040517f08c379a000000000000000000000000000000000000000000000000000000000815260040161082f90612b8c565b60405180910390fd5b3373ffffffffffffffffffffffffffffffffffffffff166001838154811061086357610862612ab1565b5b90600052602060002090600c020160030160009054906101000a900473ffffffffffffffffffffffffffffffffffffffff1673ffffffffffffffffffffffffffffffffffffffff16146108eb576040517f08c379a00000000000000000000000000000000000000000000000000000000081526004016108e290612c1e565b60405180910390fd5b600182815481106108ff576108fe612ab1565b5b90600052602060002090600c0201600701543414610952576040517f08c379a000000000000000000000000000000000000000000000000000000000815260040161094990612cb0565b60405180910390fd5b346001838154811061096757610966612ab1565b5b90600052602060002090600c020160080160008282546109879190612cff565b92505081905550600182815481106109a2576109a1612ab1565b5b90600052602060002090600c02016005016040516020016109c39190612dd6565b60405160208183030381529060405280519060200120816040516020016109ea9190612e1e565b6040516020818303038152906040528051906020012003610bb157600260018381548110610a1b57610a1a612ab1565b5b90600052602060002090600c0201600b0160006101000a81548160ff02191690836003811115610a4e57610a4d6122a4565b5b02179055504260018381548110610a6857610a67612ab1565b5b90600052602060002090600c0201600a018190555060018281548110610a9157610a90612ab1565b5b90600052602060002090600c020160030160009054906101000a900473ffffffffffffffffffffffffffffffffffffffff1673ffffffffffffffffffffffffffffffffffffffff166108fc60018481548110610af057610aef612ab1565b5b90600052602060002090600c0201600801549081150290604051600060405180830381858888f19350505050158015610b2d573d6000803e3d6000fd5b507f5556fc35d5e8685baaff99a10feb6d230a017ba150ebd158c7529e31dc5ba3938260018481548110610b6457610b63612ab1565b5b90600052602060002090600c020160030160009054906101000a900473ffffffffffffffffffffffffffffffffffffffff16604051610ba4929190612e35565b60405180910390a1610ebd565b60018281548110610bc557610bc4612ab1565b5b90600052602060002090600c020160060181604051602001610be8929190612eaa565b60405160208183030381529060405260018381548110610c0b57610c0a612ab1565b5b90600052602060002090600c02016006019081610c289190613070565b5060018281548110610c3d57610c3c612ab1565b5b90600052602060002090600c020160010160009054906101000a900473ffffffffffffffffffffffffffffffffffffffff1673ffffffffffffffffffffffffffffffffffffffff1660018381548110610c9957610c98612ab1565b5b90600052602060002090600c020160030160009054906101000a900473ffffffffffffffffffffffffffffffffffffffff1673ffffffffffffffffffffffffffffffffffffffff1603610d945760018281548110610cfa57610cf9612ab1565b5b90600052602060002090600c020160020160009054906101000a900473ffffffffffffffffffffffffffffffffffffffff1660018381548110610d4057610d3f612ab1565b5b90600052602060002090600c020160030160006101000a81548173ffffffffffffffffffffffffffffffffffffffff021916908373ffffffffffffffffffffffffffffffffffffffff160217905550610e3e565b60018281548110610da857610da7612ab1565b5b90600052602060002090600c020160010160009054906101000a900473ffffffffffffffffffffffffffffffffffffffff1660018381548110610dee57610ded612ab1565b5b90600052602060002090600c020160030160006101000a81548173ffffffffffffffffffffffffffffffffffffffff021916908373ffffffffffffffffffffffffffffffffffffffff1602179055505b7fbd07e81f1cd8969d7a97af1616e9b9044e52f7b0a22830a20f4be0c99f69b6c68260018481548110610e7457610e73612ab1565b5b90600052602060002090600c020160030160009054906101000a900473ffffffffffffffffffffffffffffffffffffffff16604051610eb4929190612e35565b60405180910390a15b5050565b60018181548110610ed157600080fd5b90600052602060002090600c02016000915090508060000154908060010160009054906101000a900473ffffffffffffffffffffffffffffffffffffffff16908060020160009054906101000a900473ffffffffffffffffffffffffffffffffffffffff16908060030160009054906101000a900473ffffffffffffffffffffffffffffffffffffffff1690806004018054610f6c90612b0f565b80601f0160208091040260200160405190810160405280929190818152602001828054610f9890612b0f565b8015610fe55780601f10610fba57610100808354040283529160200191610fe5565b820191906000526020600020905b815481529060010190602001808311610fc857829003601f168201915b505050505090806005018054610ffa90612b0f565b80601f016020809104026020016040519081016040528092919081815260200182805461102690612b0f565b80156110735780601f1061104857610100808354040283529160200191611073565b820191906000526020600020905b81548152906001019060200180831161105657829003601f168201915b50505050509080600601805461108890612b0f565b80601f01602080910402602001604051908101604052809291908181526020018280546110b490612b0f565b80156111015780601f106110d657610100808354040283529160200191611101565b820191906000526020600020905b8154815290600101906020018083116110e457829003601f168201915b50505050509080600701549080600801549080600901549080600a01549080600b0160009054906101000a900460ff1690508c565b60008060009054906101000a900473ffffffffffffffffffffffffffffffffffffffff16905090565b60606001805480602002602001604051908101604052809291908181526020016000905b828210156114db57838290600052602060002090600c020160405180610180016040529081600082015481526020016001820160009054906101000a900473ffffffffffffffffffffffffffffffffffffffff1673ffffffffffffffffffffffffffffffffffffffff1673ffffffffffffffffffffffffffffffffffffffff1681526020016002820160009054906101000a900473ffffffffffffffffffffffffffffffffffffffff1673ffffffffffffffffffffffffffffffffffffffff1673ffffffffffffffffffffffffffffffffffffffff1681526020016003820160009054906101000a900473ffffffffffffffffffffffffffffffffffffffff1673ffffffffffffffffffffffffffffffffffffffff1673ffffffffffffffffffffffffffffffffffffffff1681526020016004820180546112c390612b0f565b80601f01602080910402602001604051908101604052809291908181526020018280546112ef90612b0f565b801561133c5780601f106113115761010080835404028352916020019161133c565b820191906000526020600020905b81548152906001019060200180831161131f57829003601f168201915b5050505050815260200160058201805461135590612b0f565b80601f016020809104026020016040519081016040528092919081815260200182805461138190612b0f565b80156113ce5780601f106113a3576101008083540402835291602001916113ce565b820191906000526020600020905b8154815290600101906020018083116113b157829003601f168201915b505050505081526020016006820180546113e790612b0f565b80601f016020809104026020016040519081016040528092919081815260200182805461141390612b0f565b80156114605780601f1061143557610100808354040283529160200191611460565b820191906000526020600020905b81548152906001019060200180831161144357829003601f168201915b50505050508152602001600782015481526020016008820154815260200160098201548152602001600a8201548152602001600b820160009054906101000a900460ff1660038111156114b6576114b56122a4565b5b60038111156114c8576114c76122a4565b5b8152505081526020019060010190611183565b50505050905090565b6002602052816000526040600020818154811061150057600080fd5b90600052602060002001600091509150505481565b66034dd47fa42000341161155e576040517f08c379a0000000000000000000000000000000000000000000000000000000008152600401611555906131b4565b60405180910390fd5b6000600180549050905060006040518061018001604052808381526020013373ffffffffffffffffffffffffffffffffffffffff168152602001600073ffffffffffffffffffffffffffffffffffffffff1681526020013373ffffffffffffffffffffffffffffffffffffffff16815260200185815260200184815260200160405180602001604052806000815250815260200134815260200166034dd47fa420003461160b91906131d4565b81526020014281526020016000815260200160006003811115611631576116306122a4565b5b815250905060018190806001815401808255809150506001900390600052602060002090600c02016000909190919091506000820151816000015560208201518160010160006101000a81548173ffffffffffffffffffffffffffffffffffffffff021916908373ffffffffffffffffffffffffffffffffffffffff16021790555060408201518160020160006101000a81548173ffffffffffffffffffffffffffffffffffffffff021916908373ffffffffffffffffffffffffffffffffffffffff16021790555060608201518160030160006101000a81548173ffffffffffffffffffffffffffffffffffffffff021916908373ffffffffffffffffffffffffffffffffffffffff16021790555060808201518160040190816117569190613070565b5060a082015181600501908161176c9190613070565b5060c08201518160060190816117829190613070565b5060e082015181600701556101008201518160080155610120820151816009015561014082015181600a015561016082015181600b0160006101000a81548160ff021916908360038111156117da576117d96122a4565b5b02179055505050600260003373ffffffffffffffffffffffffffffffffffffffff1673ffffffffffffffffffffffffffffffffffffffff16815260200190815260200160002082908060018154018082558091505060019003906000526020600020016000909190919091505561184f611136565b73ffffffffffffffffffffffffffffffffffffffff166108fc66034dd47fa420009081150290604051600060405180830381858888f1935050505015801561189b573d6000803e3d6000fd5b507fb0dbe2e299e34ddf17287956670f83f8023010cd8f30be461d12379d40447b06826040516118cb91906120e3565b60405180910390a150505050565b66034dd47fa4200081565b6060600260008373ffffffffffffffffffffffffffffffffffffffff1673ffffffffffffffffffffffffffffffffffffffff16815260200190815260200160002080548060200260200160405190810160405280929190818152602001828054801561196f57602002820191906000526020600020905b81548152602001906001019080831161195b575b50505050509050919050565b6000600381111561198f5761198e6122a4565b5b600182815481106119a3576119a2612ab1565b5b90600052602060002090600c0201600b0160009054906101000a900460ff1660038111156119d4576119d36122a4565b5b14611a14576040517f08c379a0000000000000000000000000000000000000000000000000000000008152600401611a0b90613254565b60405180910390fd5b60018181548110611a2857611a27612ab1565b5b90600052602060002090600c0201600701543414611a7b576040517f08c379a0000000000000000000000000000000000000000000000000000000008152600401611a7290612cb0565b60405180910390fd5b3360018281548110611a9057611a8f612ab1565b5b90600052602060002090600c020160020160006101000a81548173ffffffffffffffffffffffffffffffffffffffff021916908373ffffffffffffffffffffffffffffffffffffffff1602179055503460018281548110611af457611af3612ab1565b5b90600052602060002090600c02016008016000828254611b149190612cff565b925050819055506001808281548110611b3057611b2f612ab1565b5b90600052602060002090600c0201600b0160006101000a81548160ff02191690836003811115611b6357611b626122a4565b5b0217905550600260003373ffffffffffffffffffffffffffffffffffffffff1673ffffffffffffffffffffffffffffffffffffffff1681526020019081526020016000208190806001815401808255809150506001900390600052602060002001600090919091909150557f8ea16fd26bf5a97624d8b6fb303928937b9b559c4627028620ecf8e221dd32e981604051611bfd91906120e3565b60405180910390a150565b3373ffffffffffffffffffffffffffffffffffffffff1660018281548110611c3357611c32612ab1565b5b90600052602060002090600c020160010160009054906101000a900473ffffffffffffffffffffffffffffffffffffffff1673ffffffffffffffffffffffffffffffffffffffff1614611cbb576040517f08c379a0000000000000000000000000000000000000000000000000000000008152600401611cb2906132e6565b60405180910390fd5b60006003811115611ccf57611cce6122a4565b5b60018281548110611ce357611ce2612ab1565b5b90600052602060002090600c0201600b0160009054906101000a900460ff166003811115611d1457611d136122a4565b5b14611d54576040517f08c379a0000000000000000000000000000000000000000000000000000000008152600401611d4b90613352565b60405180910390fd5b600360018281548110611d6a57611d69612ab1565b5b90600052602060002090600c0201600b0160006101000a81548160ff02191690836003811115611d9d57611d9c6122a4565b5b02179055503373ffffffffffffffffffffffffffffffffffffffff166108fc60018381548110611dd057611dcf612ab1565b5b90600052602060002090600c0201600801549081150290604051600060405180830381858888f19350505050158015611e0d573d6000803e3d6000fd5b507fe6869595d58c61aa991d00acb41ac260a2d3b5a40d58255f6aad94a14c2804a781604051611e3d91906120e3565b60405180910390a150565b611e50611ecb565b600073ffffffffffffffffffffffffffffffffffffffff168173ffffffffffffffffffffffffffffffffffffffff1603611ebf576040517f08c379a0000000000000000000000000000000000000000000000000000000008152600401611eb6906133e4565b60405180910390fd5b611ec881611f49565b50565b611ed361200d565b73ffffffffffffffffffffffffffffffffffffffff16611ef1611136565b73ffffffffffffffffffffffffffffffffffffffff1614611f47576040517f08c379a0000000000000000000000000000000000000000000000000000000008152600401611f3e90613450565b60405180910390fd5b565b60008060009054906101000a900473ffffffffffffffffffffffffffffffffffffffff169050816000806101000a81548173ffffffffffffffffffffffffffffffffffffffff021916908373ffffffffffffffffffffffffffffffffffffffff1602179055508173ffffffffffffffffffffffffffffffffffffffff168173ffffffffffffffffffffffffffffffffffffffff167f8be0079c531659141344cd1fd0a4f28419497f9722a3daafe3b4186f6b6457e060405160405180910390a35050565b600033905090565b60405180610180016040528060008152602001600073ffffffffffffffffffffffffffffffffffffffff168152602001600073ffffffffffffffffffffffffffffffffffffffff168152602001600073ffffffffffffffffffffffffffffffffffffffff16815260200160608152602001606081526020016060815260200160008152602001600081526020016000815260200160008152602001600060038111156120c4576120c36122a4565b5b81525090565b6000819050919050565b6120dd816120ca565b82525050565b60006020820190506120f860008301846120d4565b92915050565b6000604051905090565b600080fd5b600080fd5b600073ffffffffffffffffffffffffffffffffffffffff82169050919050565b600061213d82612112565b9050919050565b61214d81612132565b811461215857600080fd5b50565b60008135905061216a81612144565b92915050565b60006020828403121561218657612185612108565b5b60006121948482850161215b565b91505092915050565b6121a6816120ca565b81146121b157600080fd5b50565b6000813590506121c38161219d565b92915050565b6000602082840312156121df576121de612108565b5b60006121ed848285016121b4565b91505092915050565b6121ff816120ca565b82525050565b61220e81612132565b82525050565b600081519050919050565b600082825260208201905092915050565b60005b8381101561224e578082015181840152602081019050612233565b60008484015250505050565b6000601f19601f8301169050919050565b600061227682612214565b612280818561221f565b9350612290818560208601612230565b6122998161225a565b840191505092915050565b7f4e487b7100000000000000000000000000000000000000000000000000000000600052602160045260246000fd5b600481106122e4576122e36122a4565b5b50565b60008190506122f5826122d3565b919050565b6000612305826122e7565b9050919050565b612315816122fa565b82525050565b60006101808301600083015161233460008601826121f6565b5060208301516123476020860182612205565b50604083015161235a6040860182612205565b50606083015161236d6060860182612205565b5060808301518482036080860152612385828261226b565b91505060a083015184820360a086015261239f828261226b565b91505060c083015184820360c08601526123b9828261226b565b91505060e08301516123ce60e08601826121f6565b506101008301516123e36101008601826121f6565b506101208301516123f86101208601826121f6565b5061014083015161240d6101408601826121f6565b5061016083015161242261016086018261230c565b508091505092915050565b60006020820190508181036000830152612447818461231b565b905092915050565b600080fd5b600080fd5b7f4e487b7100000000000000000000000000000000000000000000000000000000600052604160045260246000fd5b6124918261225a565b810181811067ffffffffffffffff821117156124b0576124af612459565b5b80604052505050565b60006124c36120fe565b90506124cf8282612488565b919050565b600067ffffffffffffffff8211156124ef576124ee612459565b5b6124f88261225a565b9050602081019050919050565b82818337600083830152505050565b6000612527612522846124d4565b6124b9565b90508281526020810184848401111561254357612542612454565b5b61254e848285612505565b509392505050565b600082601f83011261256b5761256a61244f565b5b813561257b848260208601612514565b91505092915050565b6000806040838503121561259b5761259a612108565b5b60006125a9858286016121b4565b925050602083013567ffffffffffffffff8111156125ca576125c961210d565b5b6125d685828601612556565b9150509250929050565b6125e981612132565b82525050565b600082825260208201905092915050565b600061260b82612214565b61261581856125ef565b9350612625818560208601612230565b61262e8161225a565b840191505092915050565b612642816122fa565b82525050565b60006101808201905061265e600083018f6120d4565b61266b602083018e6125e0565b612678604083018d6125e0565b612685606083018c6125e0565b8181036080830152612697818b612600565b905081810360a08301526126ab818a612600565b905081810360c08301526126bf8189612600565b90506126ce60e08301886120d4565b6126dc6101008301876120d4565b6126ea6101208301866120d4565b6126f86101408301856120d4565b612706610160830184612639565b9d9c50505050505050505050505050565b600060208201905061272c60008301846125e0565b92915050565b600081519050919050565b600082825260208201905092915050565b6000819050602082019050919050565b60006101808301600083015161277760008601826121f6565b50602083015161278a6020860182612205565b50604083015161279d6040860182612205565b5060608301516127b06060860182612205565b50608083015184820360808601526127c8828261226b565b91505060a083015184820360a08601526127e2828261226b565b91505060c083015184820360c08601526127fc828261226b565b91505060e083015161281160e08601826121f6565b506101008301516128266101008601826121f6565b5061012083015161283b6101208601826121f6565b506101408301516128506101408601826121f6565b5061016083015161286561016086018261230c565b508091505092915050565b600061287c838361275e565b905092915050565b6000602082019050919050565b600061289c82612732565b6128a6818561273d565b9350836020820285016128b88561274e565b8060005b858110156128f457848403895281516128d58582612870565b94506128e083612884565b925060208a019950506001810190506128bc565b50829750879550505050505092915050565b600060208201905081810360008301526129208184612891565b905092915050565b6000806040838503121561293f5761293e612108565b5b600061294d8582860161215b565b925050602061295e858286016121b4565b9150509250929050565b6000806040838503121561297f5761297e612108565b5b600083013567ffffffffffffffff81111561299d5761299c61210d565b5b6129a985828601612556565b925050602083013567ffffffffffffffff8111156129ca576129c961210d565b5b6129d685828601612556565b9150509250929050565b600081519050919050565b600082825260208201905092915050565b6000819050602082019050919050565b6000612a1883836121f6565b60208301905092915050565b6000602082019050919050565b6000612a3c826129e0565b612a4681856129eb565b9350612a51836129fc565b8060005b83811015612a82578151612a698882612a0c565b9750612a7483612a24565b925050600181019050612a55565b5085935050505092915050565b60006020820190508181036000830152612aa98184612a31565b905092915050565b7f4e487b7100000000000000000000000000000000000000000000000000000000600052603260045260246000fd5b7f4e487b7100000000000000000000000000000000000000000000000000000000600052602260045260246000fd5b60006002820490506001821680612b2757607f821691505b602082108103612b3a57612b39612ae0565b5b50919050565b7f4475656c206d7573742062652061636365707465640000000000000000000000600082015250565b6000612b766015836125ef565b9150612b8182612b40565b602082019050919050565b60006020820190508181036000830152612ba581612b69565b9050919050565b7f4f6e6c79207468652063757272656e7420706c617965722063616e206d616b6560008201527f2061206d6f766500000000000000000000000000000000000000000000000000602082015250565b6000612c086027836125ef565b9150612c1382612bac565b604082019050919050565b60006020820190508181036000830152612c3781612bfb565b9050919050565b7f416d6f756e74206d75737420626520657175616c20746f20746865206368616c60008201527f6c656e6765722773206d6f766520616d6f756e74000000000000000000000000602082015250565b6000612c9a6034836125ef565b9150612ca582612c3e565b604082019050919050565b60006020820190508181036000830152612cc981612c8d565b9050919050565b7f4e487b7100000000000000000000000000000000000000000000000000000000600052601160045260246000fd5b6000612d0a826120ca565b9150612d15836120ca565b9250828201905080821115612d2d57612d2c612cd0565b5b92915050565b600081905092915050565b60008190508160005260206000209050919050565b60008154612d6081612b0f565b612d6a8186612d33565b94506001821660008114612d855760018114612d9a57612dcd565b60ff1983168652811515820286019350612dcd565b612da385612d3e565b60005b83811015612dc557815481890152600182019150602081019050612da6565b838801955050505b50505092915050565b6000612de28284612d53565b915081905092915050565b6000612df882612214565b612e028185612d33565b9350612e12818560208601612230565b80840191505092915050565b6000612e2a8284612ded565b915081905092915050565b6000604082019050612e4a60008301856120d4565b612e5760208301846125e0565b9392505050565b7f2c00000000000000000000000000000000000000000000000000000000000000600082015250565b6000612e94600183612d33565b9150612e9f82612e5e565b600182019050919050565b6000612eb68285612d53565b9150612ec182612e87565b9150612ecd8284612ded565b91508190509392505050565b60006020601f8301049050919050565b600082821b905092915050565b600060088302612f267fffffffffffffffffffffffffffffffffffffffffffffffffffffffffffffffff82612ee9565b612f308683612ee9565b95508019841693508086168417925050509392505050565b6000819050919050565b6000612f6d612f68612f63846120ca565b612f48565b6120ca565b9050919050565b6000819050919050565b612f8783612f52565b612f9b612f9382612f74565b848454612ef6565b825550505050565b600090565b612fb0612fa3565b612fbb818484612f7e565b505050565b5b81811015612fdf57612fd4600082612fa8565b600181019050612fc1565b5050565b601f82111561302457612ff581612d3e565b612ffe84612ed9565b8101602085101561300d578190505b61302161301985612ed9565b830182612fc0565b50505b505050565b600082821c905092915050565b600061304760001984600802613029565b1980831691505092915050565b60006130608383613036565b9150826002028217905092915050565b61307982612214565b67ffffffffffffffff81111561309257613091612459565b5b61309c8254612b0f565b6130a7828285612fe3565b600060209050601f8311600181146130da57600084156130c8578287015190505b6130d28582613054565b86555061313a565b601f1984166130e886612d3e565b60005b82811015613110578489015182556001820191506020850194506020810190506130eb565b8683101561312d5784890151613129601f891682613036565b8355505b6001600288020188555050505b505050505050565b7f416d6f756e74206d7573742062652067726561746572207468616e20302e303060008201527f3039332045544800000000000000000000000000000000000000000000000000602082015250565b600061319e6027836125ef565b91506131a982613142565b604082019050919050565b600060208201905081810360008301526131cd81613191565b9050919050565b60006131df826120ca565b91506131ea836120ca565b925082820390508181111561320257613201612cd0565b5b92915050565b7f4475656c206d757374206e6f7420626520616363657074656420796574000000600082015250565b600061323e601d836125ef565b915061324982613208565b602082019050919050565b6000602082019050818103600083015261326d81613231565b9050919050565b7f4f6e6c7920746865206368616c6c656e6765722063616e2063616e63656c207460008201527f6865206475656c00000000000000000000000000000000000000000000000000602082015250565b60006132d06027836125ef565b91506132db82613274565b604082019050919050565b600060208201905081810360008301526132ff816132c3565b9050919050565b7f4475656c206d757374206265206e6f7420626520616363657074656420796574600082015250565b600061333c6020836125ef565b915061334782613306565b602082019050919050565b6000602082019050818103600083015261336b8161332f565b9050919050565b7f4f776e61626c653a206e6577206f776e657220697320746865207a65726f206160008201527f6464726573730000000000000000000000000000000000000000000000000000602082015250565b60006133ce6026836125ef565b91506133d982613372565b604082019050919050565b600060208201905081810360008301526133fd816133c1565b9050919050565b7f4f776e61626c653a2063616c6c6572206973206e6f7420746865206f776e6572600082015250565b600061343a6020836125ef565b915061344582613404565b602082019050919050565b600060208201905081810360008301526134698161342d565b905091905056fea264697066735822122045dfee24b0cbbb578d1dd9a8f93500307bde5c0158caef20badd0f4913ccf7e864736f6c63430008130033",
  "linkReferences": {},
  "deployedLinkReferences": {}
}