{
  "_format": "hh-sol-artifact-1",
  "contractName": "Duels",
  "sourceName": "contracts/Duels.sol",
  "abi": [
    {
      "anonymous": false,
      "inputs": [
        {
          "indexed": false,
          "internalType": "uint256",
          "name": "id",
          "type": "uint256"
        }
      ],
      "name": "DuelAccepted",
      "type": "event"
    },
    {
      "anonymous": false,
      "inputs": [
        {
          "indexed": false,
          "internalType": "uint256",
          "name": "id",
          "type": "uint256"
        }
      ],
      "name": "DuelCancelled",
      "type": "event"
    },
    {
      "anonymous": false,
      "inputs": [
        {
          "indexed": false,
          "internalType": "uint256",
          "name": "id",
          "type": "uint256"
        }
      ],
      "name": "DuelCreated",
      "type": "event"
    },
    {
      "anonymous": false,
      "inputs": [
        {
          "indexed": false,
          "internalType": "uint256",
          "name": "id",
          "type": "uint256"
        },
        {
          "indexed": false,
          "internalType": "address",
          "name": "currentPlayer",
          "type": "address"
        },
        {
          "indexed": false,
          "internalType": "string",
          "name": "words",
          "type": "string"
        }
      ],
      "name": "DuelMove",
      "type": "event"
    },
    {
      "anonymous": false,
      "inputs": [
        {
          "indexed": true,
          "internalType": "address",
          "name": "previousOwner",
          "type": "address"
        },
        {
          "indexed": true,
          "internalType": "address",
          "name": "newOwner",
          "type": "address"
        }
      ],
      "name": "OwnershipTransferred",
      "type": "event"
    },
    {
      "inputs": [],
      "name": "FEE",
      "outputs": [
        {
          "internalType": "uint256",
          "name": "",
          "type": "uint256"
        }
      ],
      "stateMutability": "view",
      "type": "function"
    },
    {
      "inputs": [
        {
          "internalType": "uint256",
          "name": "_duelId",
          "type": "uint256"
        }
      ],
      "name": "acceptDuel",
      "outputs": [],
      "stateMutability": "payable",
      "type": "function"
    },
    {
      "inputs": [
        {
          "internalType": "uint256",
          "name": "_duelId",
          "type": "uint256"
        }
      ],
      "name": "cancelDuel",
      "outputs": [],
      "stateMutability": "nonpayable",
      "type": "function"
    },
    {
      "inputs": [
        {
          "internalType": "string",
          "name": "_email",
          "type": "string"
        },
        {
          "internalType": "string",
          "name": "_targetWord",
          "type": "string"
        }
      ],
      "name": "createDuel",
      "outputs": [],
      "stateMutability": "payable",
      "type": "function"
    },
    {
      "inputs": [
        {
          "internalType": "uint256",
          "name": "",
          "type": "uint256"
        }
      ],
      "name": "duels",
      "outputs": [
        {
          "internalType": "uint256",
          "name": "id",
          "type": "uint256"
        },
        {
          "internalType": "address",
          "name": "challenger",
          "type": "address"
        },
        {
          "internalType": "address",
          "name": "opponent",
          "type": "address"
        },
        {
          "internalType": "address",
          "name": "currentPlayer",
          "type": "address"
        },
        {
          "internalType": "string",
          "name": "email",
          "type": "string"
        },
        {
          "internalType": "string",
          "name": "targetWord",
          "type": "string"
        },
        {
          "internalType": "string",
          "name": "words",
          "type": "string"
        },
        {
          "internalType": "uint256",
          "name": "moveAmount",
          "type": "uint256"
        },
        {
          "internalType": "uint256",
          "name": "potAmount",
          "type": "uint256"
        },
        {
          "internalType": "uint256",
          "name": "createdAt",
          "type": "uint256"
        },
        {
          "internalType": "uint256",
          "name": "finishedAt",
          "type": "uint256"
        },
        {
          "internalType": "enum Duels.DuelState",
          "name": "state",
          "type": "uint8"
        }
      ],
      "stateMutability": "view",
      "type": "function"
    },
    {
      "inputs": [],
      "name": "getBalance",
      "outputs": [
        {
          "internalType": "uint256",
          "name": "",
          "type": "uint256"
        }
      ],
      "stateMutability": "view",
      "type": "function"
    },
    {
      "inputs": [
        {
          "internalType": "uint256",
          "name": "_duelId",
          "type": "uint256"
        }
      ],
      "name": "getDuel",
      "outputs": [
        {
          "components": [
            {
              "internalType": "uint256",
              "name": "id",
              "type": "uint256"
            },
            {
              "internalType": "address",
              "name": "challenger",
              "type": "address"
            },
            {
              "internalType": "address",
              "name": "opponent",
              "type": "address"
            },
            {
              "internalType": "address",
              "name": "currentPlayer",
              "type": "address"
            },
            {
              "internalType": "string",
              "name": "email",
              "type": "string"
            },
            {
              "internalType": "string",
              "name": "targetWord",
              "type": "string"
            },
            {
              "internalType": "string",
              "name": "words",
              "type": "string"
            },
            {
              "internalType": "uint256",
              "name": "moveAmount",
              "type": "uint256"
            },
            {
              "internalType": "uint256",
              "name": "potAmount",
              "type": "uint256"
            },
            {
              "internalType": "uint256",
              "name": "createdAt",
              "type": "uint256"
            },
            {
              "internalType": "uint256",
              "name": "finishedAt",
              "type": "uint256"
            },
            {
              "internalType": "enum Duels.DuelState",
              "name": "state",
              "type": "uint8"
            }
          ],
          "internalType": "struct Duels.Duel",
          "name": "",
          "type": "tuple"
        }
      ],
      "stateMutability": "view",
      "type": "function"
    },
    {
      "inputs": [],
      "name": "getDuels",
      "outputs": [
        {
          "components": [
            {
              "internalType": "uint256",
              "name": "id",
              "type": "uint256"
            },
            {
              "internalType": "address",
              "name": "challenger",
              "type": "address"
            },
            {
              "internalType": "address",
              "name": "opponent",
              "type": "address"
            },
            {
              "internalType": "address",
              "name": "currentPlayer",
              "type": "address"
            },
            {
              "internalType": "string",
              "name": "email",
              "type": "string"
            },
            {
              "internalType": "string",
              "name": "targetWord",
              "type": "string"
            },
            {
              "internalType": "string",
              "name": "words",
              "type": "string"
            },
            {
              "internalType": "uint256",
              "name": "moveAmount",
              "type": "uint256"
            },
            {
              "internalType": "uint256",
              "name": "potAmount",
              "type": "uint256"
            },
            {
              "internalType": "uint256",
              "name": "createdAt",
              "type": "uint256"
            },
            {
              "internalType": "uint256",
              "name": "finishedAt",
              "type": "uint256"
            },
            {
              "internalType": "enum Duels.DuelState",
              "name": "state",
              "type": "uint8"
            }
          ],
          "internalType": "struct Duels.Duel[]",
          "name": "",
          "type": "tuple[]"
        }
      ],
      "stateMutability": "view",
      "type": "function"
    },
    {
      "inputs": [
        {
          "internalType": "string",
          "name": "_email",
          "type": "string"
        }
      ],
      "name": "getDuelsByEmail",
      "outputs": [
        {
          "components": [
            {
              "internalType": "uint256",
              "name": "id",
              "type": "uint256"
            },
            {
              "internalType": "address",
              "name": "challenger",
              "type": "address"
            },
            {
              "internalType": "address",
              "name": "opponent",
              "type": "address"
            },
            {
              "internalType": "address",
              "name": "currentPlayer",
              "type": "address"
            },
            {
              "internalType": "string",
              "name": "email",
              "type": "string"
            },
            {
              "internalType": "string",
              "name": "targetWord",
              "type": "string"
            },
            {
              "internalType": "string",
              "name": "words",
              "type": "string"
            },
            {
              "internalType": "uint256",
              "name": "moveAmount",
              "type": "uint256"
            },
            {
              "internalType": "uint256",
              "name": "potAmount",
              "type": "uint256"
            },
            {
              "internalType": "uint256",
              "name": "createdAt",
              "type": "uint256"
            },
            {
              "internalType": "uint256",
              "name": "finishedAt",
              "type": "uint256"
            },
            {
              "internalType": "enum Duels.DuelState",
              "name": "state",
              "type": "uint8"
            }
          ],
          "internalType": "struct Duels.Duel[]",
          "name": "",
          "type": "tuple[]"
        }
      ],
      "stateMutability": "view",
      "type": "function"
    },
    {
      "inputs": [],
      "name": "getDuelsCount",
      "outputs": [
        {
          "internalType": "uint256",
          "name": "",
          "type": "uint256"
        }
      ],
      "stateMutability": "view",
      "type": "function"
    },
    {
      "inputs": [
        {
          "internalType": "address",
          "name": "_wallet",
          "type": "address"
        }
      ],
      "name": "getMyDuels",
      "outputs": [
        {
          "internalType": "uint256[]",
          "name": "",
          "type": "uint256[]"
        }
      ],
      "stateMutability": "view",
      "type": "function"
    },
    {
      "inputs": [
        {
          "internalType": "address",
          "name": "_wallet",
          "type": "address"
        }
      ],
      "name": "getMyDuelsCount",
      "outputs": [
        {
          "internalType": "uint256",
          "name": "",
          "type": "uint256"
        }
      ],
      "stateMutability": "view",
      "type": "function"
    },
    {
      "inputs": [
        {
          "internalType": "uint256",
          "name": "_duelId",
          "type": "uint256"
        },
        {
          "internalType": "string",
          "name": "_word",
          "type": "string"
        }
      ],
      "name": "makeMove",
      "outputs": [],
      "stateMutability": "payable",
      "type": "function"
    },
    {
      "inputs": [
        {
          "internalType": "address",
          "name": "",
          "type": "address"
        },
        {
          "internalType": "uint256",
          "name": "",
          "type": "uint256"
        }
      ],
      "name": "myDuels",
      "outputs": [
        {
          "internalType": "uint256",
          "name": "",
          "type": "uint256"
        }
      ],
      "stateMutability": "view",
      "type": "function"
    },
    {
      "inputs": [],
      "name": "owner",
      "outputs": [
        {
          "internalType": "address",
          "name": "",
          "type": "address"
        }
      ],
      "stateMutability": "view",
      "type": "function"
    },
    {
      "inputs": [],
      "name": "renounceOwnership",
      "outputs": [],
      "stateMutability": "nonpayable",
      "type": "function"
    },
    {
      "inputs": [
        {
          "internalType": "address",
          "name": "newOwner",
          "type": "address"
        }
      ],
      "name": "transferOwnership",
      "outputs": [],
      "stateMutability": "nonpayable",
      "type": "function"
    }
  ],
  "bytecode": "0x60806040523480156200001157600080fd5b5062000032620000266200003860201b60201c565b6200004060201b60201c565b62000104565b600033905090565b60008060009054906101000a900473ffffffffffffffffffffffffffffffffffffffff169050816000806101000a81548173ffffffffffffffffffffffffffffffffffffffff021916908373ffffffffffffffffffffffffffffffffffffffff1602179055508173ffffffffffffffffffffffffffffffffffffffff168173ffffffffffffffffffffffffffffffffffffffff167f8be0079c531659141344cd1fd0a4f28419497f9722a3daafe3b4186f6b6457e060405160405180910390a35050565b613aec80620001146000396000f3fe6080604052600436106100fe5760003560e01c8063a0c9ed4711610095578063c57981b511610064578063c57981b51461033a578063c7081d3d14610365578063c874b1c2146103a2578063d9c312f4146103be578063f2fde38b146103e7576100fe565b8063a0c9ed4714610279578063afce75d4146102a4578063b1cf42d8146102e1578063b9cf2408146102fd576100fe565b8063715018a6116100d1578063715018a6146101d35780637d20e927146101ea578063859a62d0146102065780638da5cb5b1461024e576100fe565b806312065fe0146101035780631d9e39d11461012e578063565e614f1461016b5780636107814e146101a8575b600080fd5b34801561010f57600080fd5b50610118610410565b60405161012591906125ff565b60405180910390f35b34801561013a57600080fd5b506101556004803603810190610150919061268c565b610418565b60405161016291906125ff565b60405180910390f35b34801561017757600080fd5b50610192600480360381019061018d91906126e5565b610464565b60405161019f9190612949565b60405180910390f35b3480156101b457600080fd5b506101bd6107c6565b6040516101ca91906125ff565b60405180910390f35b3480156101df57600080fd5b506101e86107d3565b005b61020460048036038101906101ff9190612aa0565b6107e7565b005b34801561021257600080fd5b5061022d600480360381019061022891906126e5565b610eb1565b6040516102459c9b9a99989796959493929190612b64565b60405180910390f35b34801561025a57600080fd5b50610263611126565b6040516102709190612c33565b60405180910390f35b34801561028557600080fd5b5061028e61114f565b60405161029b9190612e22565b60405180910390f35b3480156102b057600080fd5b506102cb60048036038101906102c69190612e44565b6114d4565b6040516102d891906125ff565b60405180910390f35b6102fb60048036038101906102f69190612e84565b611505565b005b34801561030957600080fd5b50610324600480360381019061031f9190612efc565b6118c9565b6040516103319190612e22565b60405180910390f35b34801561034657600080fd5b5061034f611df5565b60405161035c91906125ff565b60405180910390f35b34801561037157600080fd5b5061038c6004803603810190610387919061268c565b611e00565b6040516103999190612ff4565b60405180910390f35b6103bc60048036038101906103b791906126e5565b611e97565b005b3480156103ca57600080fd5b506103e560048036038101906103e091906126e5565b612124565b005b3480156103f357600080fd5b5061040e6004803603810190610409919061268c565b612364565b005b600047905090565b6000600260008373ffffffffffffffffffffffffffffffffffffffff1673ffffffffffffffffffffffffffffffffffffffff168152602001908152602001600020805490509050919050565b61046c612531565b600182815481106104805761047f613016565b5b90600052602060002090600c020160405180610180016040529081600082015481526020016001820160009054906101000a900473ffffffffffffffffffffffffffffffffffffffff1673ffffffffffffffffffffffffffffffffffffffff1673ffffffffffffffffffffffffffffffffffffffff1681526020016002820160009054906101000a900473ffffffffffffffffffffffffffffffffffffffff1673ffffffffffffffffffffffffffffffffffffffff1673ffffffffffffffffffffffffffffffffffffffff1681526020016003820160009054906101000a900473ffffffffffffffffffffffffffffffffffffffff1673ffffffffffffffffffffffffffffffffffffffff1673ffffffffffffffffffffffffffffffffffffffff1681526020016004820180546105b690613074565b80601f01602080910402602001604051908101604052809291908181526020018280546105e290613074565b801561062f5780601f106106045761010080835404028352916020019161062f565b820191906000526020600020905b81548152906001019060200180831161061257829003601f168201915b5050505050815260200160058201805461064890613074565b80601f016020809104026020016040519081016040528092919081815260200182805461067490613074565b80156106c15780601f10610696576101008083540402835291602001916106c1565b820191906000526020600020905b8154815290600101906020018083116106a457829003601f168201915b505050505081526020016006820180546106da90613074565b80601f016020809104026020016040519081016040528092919081815260200182805461070690613074565b80156107535780601f1061072857610100808354040283529160200191610753565b820191906000526020600020905b81548152906001019060200180831161073657829003601f168201915b50505050508152602001600782015481526020016008820154815260200160098201548152602001600a8201548152602001600b820160009054906101000a900460ff1660038111156107a9576107a86127c0565b5b60038111156107bb576107ba6127c0565b5b815250509050919050565b6000600180549050905090565b6107db6123e7565b6107e56000612465565b565b600160038111156107fb576107fa6127c0565b5b6001838154811061080f5761080e613016565b5b90600052602060002090600c0201600b0160009054906101000a900460ff1660038111156108405761083f6127c0565b5b14610880576040517f08c379a0000000000000000000000000000000000000000000000000000000008152600401610877906130f1565b60405180910390fd5b3373ffffffffffffffffffffffffffffffffffffffff16600183815481106108ab576108aa613016565b5b90600052602060002090600c020160030160009054906101000a900473ffffffffffffffffffffffffffffffffffffffff1673ffffffffffffffffffffffffffffffffffffffff1614610933576040517f08c379a000000000000000000000000000000000000000000000000000000000815260040161092a90613183565b60405180910390fd5b6001828154811061094757610946613016565b5b90600052602060002090600c020160070154341461099a576040517f08c379a000000000000000000000000000000000000000000000000000000000815260040161099190613215565b60405180910390fd5b34600183815481106109af576109ae613016565b5b90600052602060002090600c020160080160008282546109cf9190613264565b92505081905550600182815481106109ea576109e9613016565b5b90600052602060002090600c0201600501604051602001610a0b919061333b565b6040516020818303038152906040528051906020012081604051602001610a329190613383565b6040516020818303038152906040528051906020012003610b7b57600260018381548110610a6357610a62613016565b5b90600052602060002090600c0201600b0160006101000a81548160ff02191690836003811115610a9657610a956127c0565b5b02179055504260018381548110610ab057610aaf613016565b5b90600052602060002090600c0201600a018190555060018281548110610ad957610ad8613016565b5b90600052602060002090600c020160030160009054906101000a900473ffffffffffffffffffffffffffffffffffffffff1673ffffffffffffffffffffffffffffffffffffffff166108fc60018481548110610b3857610b37613016565b5b90600052602060002090600c0201600801549081150290604051600060405180830381858888f19350505050158015610b75573d6000803e3d6000fd5b50610ead565b60018281548110610b8f57610b8e613016565b5b90600052602060002090600c020160060181604051602001610bb29291906133e6565b60405160208183030381529060405260018381548110610bd557610bd4613016565b5b90600052602060002090600c02016006019081610bf291906135ac565b5060018281548110610c0757610c06613016565b5b90600052602060002090600c020160010160009054906101000a900473ffffffffffffffffffffffffffffffffffffffff1673ffffffffffffffffffffffffffffffffffffffff1660018381548110610c6357610c62613016565b5b90600052602060002090600c020160030160009054906101000a900473ffffffffffffffffffffffffffffffffffffffff1673ffffffffffffffffffffffffffffffffffffffff1603610d5e5760018281548110610cc457610cc3613016565b5b90600052602060002090600c020160020160009054906101000a900473ffffffffffffffffffffffffffffffffffffffff1660018381548110610d0a57610d09613016565b5b90600052602060002090600c020160030160006101000a81548173ffffffffffffffffffffffffffffffffffffffff021916908373ffffffffffffffffffffffffffffffffffffffff160217905550610e08565b60018281548110610d7257610d71613016565b5b90600052602060002090600c020160010160009054906101000a900473ffffffffffffffffffffffffffffffffffffffff1660018381548110610db857610db7613016565b5b90600052602060002090600c020160030160006101000a81548173ffffffffffffffffffffffffffffffffffffffff021916908373ffffffffffffffffffffffffffffffffffffffff1602179055505b7f66205e9441969fd8502e7a3ddc75f4678967f8c9002f4ec4156ce3fcdf824d848260018481548110610e3e57610e3d613016565b5b90600052602060002090600c020160030160009054906101000a900473ffffffffffffffffffffffffffffffffffffffff1660018581548110610e8457610e83613016565b5b90600052602060002090600c0201600601604051610ea493929190613702565b60405180910390a15b5050565b60018181548110610ec157600080fd5b90600052602060002090600c02016000915090508060000154908060010160009054906101000a900473ffffffffffffffffffffffffffffffffffffffff16908060020160009054906101000a900473ffffffffffffffffffffffffffffffffffffffff16908060030160009054906101000a900473ffffffffffffffffffffffffffffffffffffffff1690806004018054610f5c90613074565b80601f0160208091040260200160405190810160405280929190818152602001828054610f8890613074565b8015610fd55780601f10610faa57610100808354040283529160200191610fd5565b820191906000526020600020905b815481529060010190602001808311610fb857829003601f168201915b505050505090806005018054610fea90613074565b80601f016020809104026020016040519081016040528092919081815260200182805461101690613074565b80156110635780601f1061103857610100808354040283529160200191611063565b820191906000526020600020905b81548152906001019060200180831161104657829003601f168201915b50505050509080600601805461107890613074565b80601f01602080910402602001604051908101604052809291908181526020018280546110a490613074565b80156110f15780601f106110c6576101008083540402835291602001916110f1565b820191906000526020600020905b8154815290600101906020018083116110d457829003601f168201915b50505050509080600701549080600801549080600901549080600a01549080600b0160009054906101000a900460ff1690508c565b60008060009054906101000a900473ffffffffffffffffffffffffffffffffffffffff16905090565b60606001805480602002602001604051908101604052809291908181526020016000905b828210156114cb57838290600052602060002090600c020160405180610180016040529081600082015481526020016001820160009054906101000a900473ffffffffffffffffffffffffffffffffffffffff1673ffffffffffffffffffffffffffffffffffffffff1673ffffffffffffffffffffffffffffffffffffffff1681526020016002820160009054906101000a900473ffffffffffffffffffffffffffffffffffffffff1673ffffffffffffffffffffffffffffffffffffffff1673ffffffffffffffffffffffffffffffffffffffff1681526020016003820160009054906101000a900473ffffffffffffffffffffffffffffffffffffffff1673ffffffffffffffffffffffffffffffffffffffff1673ffffffffffffffffffffffffffffffffffffffff1681526020016004820180546112b390613074565b80601f01602080910402602001604051908101604052809291908181526020018280546112df90613074565b801561132c5780601f106113015761010080835404028352916020019161132c565b820191906000526020600020905b81548152906001019060200180831161130f57829003601f168201915b5050505050815260200160058201805461134590613074565b80601f016020809104026020016040519081016040528092919081815260200182805461137190613074565b80156113be5780601f10611393576101008083540402835291602001916113be565b820191906000526020600020905b8154815290600101906020018083116113a157829003601f168201915b505050505081526020016006820180546113d790613074565b80601f016020809104026020016040519081016040528092919081815260200182805461140390613074565b80156114505780601f1061142557610100808354040283529160200191611450565b820191906000526020600020905b81548152906001019060200180831161143357829003601f168201915b50505050508152602001600782015481526020016008820154815260200160098201548152602001600a8201548152602001600b820160009054906101000a900460ff1660038111156114a6576114a56127c0565b5b60038111156114b8576114b76127c0565b5b8152505081526020019060010190611173565b50505050905090565b600260205281600052604060002081815481106114f057600080fd5b90600052602060002001600091509150505481565b66034dd47fa42000341161154e576040517f08c379a0000000000000000000000000000000000000000000000000000000008152600401611545906137b2565b60405180910390fd5b6000600180549050905060006040518061018001604052808381526020013373ffffffffffffffffffffffffffffffffffffffff168152602001600073ffffffffffffffffffffffffffffffffffffffff1681526020013373ffffffffffffffffffffffffffffffffffffffff16815260200185815260200184815260200160405180602001604052806000815250815260200134815260200166034dd47fa42000346115fb91906137d2565b81526020014281526020016000815260200160006003811115611621576116206127c0565b5b815250905060018190806001815401808255809150506001900390600052602060002090600c02016000909190919091506000820151816000015560208201518160010160006101000a81548173ffffffffffffffffffffffffffffffffffffffff021916908373ffffffffffffffffffffffffffffffffffffffff16021790555060408201518160020160006101000a81548173ffffffffffffffffffffffffffffffffffffffff021916908373ffffffffffffffffffffffffffffffffffffffff16021790555060608201518160030160006101000a81548173ffffffffffffffffffffffffffffffffffffffff021916908373ffffffffffffffffffffffffffffffffffffffff160217905550608082015181600401908161174691906135ac565b5060a082015181600501908161175c91906135ac565b5060c082015181600601908161177291906135ac565b5060e082015181600701556101008201518160080155610120820151816009015561014082015181600a015561016082015181600b0160006101000a81548160ff021916908360038111156117ca576117c96127c0565b5b02179055505050600260003373ffffffffffffffffffffffffffffffffffffffff1673ffffffffffffffffffffffffffffffffffffffff16815260200190815260200160002082908060018154018082558091505060019003906000526020600020016000909190919091505561183f611126565b73ffffffffffffffffffffffffffffffffffffffff166108fc66034dd47fa420009081150290604051600060405180830381858888f1935050505015801561188b573d6000803e3d6000fd5b507fb0dbe2e299e34ddf17287956670f83f8023010cd8f30be461d12379d40447b06826040516118bb91906125ff565b60405180910390a150505050565b60606000805b60018054905081101561197557836040516020016118ed9190613383565b604051602081830303815290604052805190602001206001828154811061191757611916613016565b5b90600052602060002090600c0201600401604051602001611938919061333b565b604051602081830303815290604052805190602001200361196257818061195e90613806565b9250505b808061196d90613806565b9150506118cf565b5060008167ffffffffffffffff81111561199257611991612975565b5b6040519080825280602002602001820160405280156119cb57816020015b6119b8612531565b8152602001906001900390816119b05790505b5090506000805b600180549050811015611de957856040516020016119f09190613383565b6040516020818303038152906040528051906020012060018281548110611a1a57611a19613016565b5b90600052602060002090600c0201600401604051602001611a3b919061333b565b6040516020818303038152906040528051906020012003611dd65760018181548110611a6a57611a69613016565b5b90600052602060002090600c020160405180610180016040529081600082015481526020016001820160009054906101000a900473ffffffffffffffffffffffffffffffffffffffff1673ffffffffffffffffffffffffffffffffffffffff1673ffffffffffffffffffffffffffffffffffffffff1681526020016002820160009054906101000a900473ffffffffffffffffffffffffffffffffffffffff1673ffffffffffffffffffffffffffffffffffffffff1673ffffffffffffffffffffffffffffffffffffffff1681526020016003820160009054906101000a900473ffffffffffffffffffffffffffffffffffffffff1673ffffffffffffffffffffffffffffffffffffffff1673ffffffffffffffffffffffffffffffffffffffff168152602001600482018054611ba090613074565b80601f0160208091040260200160405190810160405280929190818152602001828054611bcc90613074565b8015611c195780601f10611bee57610100808354040283529160200191611c19565b820191906000526020600020905b815481529060010190602001808311611bfc57829003601f168201915b50505050508152602001600582018054611c3290613074565b80601f0160208091040260200160405190810160405280929190818152602001828054611c5e90613074565b8015611cab5780601f10611c8057610100808354040283529160200191611cab565b820191906000526020600020905b815481529060010190602001808311611c8e57829003601f168201915b50505050508152602001600682018054611cc490613074565b80601f0160208091040260200160405190810160405280929190818152602001828054611cf090613074565b8015611d3d5780601f10611d1257610100808354040283529160200191611d3d565b820191906000526020600020905b815481529060010190602001808311611d2057829003601f168201915b50505050508152602001600782015481526020016008820154815260200160098201548152602001600a8201548152602001600b820160009054906101000a900460ff166003811115611d9357611d926127c0565b5b6003811115611da557611da46127c0565b5b81525050838381518110611dbc57611dbb613016565b5b60200260200101819052508180611dd290613806565b9250505b8080611de190613806565b9150506119d2565b50819350505050919050565b66034dd47fa4200081565b6060600260008373ffffffffffffffffffffffffffffffffffffffff1673ffffffffffffffffffffffffffffffffffffffff168152602001908152602001600020805480602002602001604051908101604052809291908181526020018280548015611e8b57602002820191906000526020600020905b815481526020019060010190808311611e77575b50505050509050919050565b60006003811115611eab57611eaa6127c0565b5b60018281548110611ebf57611ebe613016565b5b90600052602060002090600c0201600b0160009054906101000a900460ff166003811115611ef057611eef6127c0565b5b14611f30576040517f08c379a0000000000000000000000000000000000000000000000000000000008152600401611f279061389a565b60405180910390fd5b60018181548110611f4457611f43613016565b5b90600052602060002090600c0201600701543414611f97576040517f08c379a0000000000000000000000000000000000000000000000000000000008152600401611f8e90613215565b60405180910390fd5b3360018281548110611fac57611fab613016565b5b90600052602060002090600c020160020160006101000a81548173ffffffffffffffffffffffffffffffffffffffff021916908373ffffffffffffffffffffffffffffffffffffffff16021790555034600182815481106120105761200f613016565b5b90600052602060002090600c020160080160008282546120309190613264565b92505081905550600180828154811061204c5761204b613016565b5b90600052602060002090600c0201600b0160006101000a81548160ff0219169083600381111561207f5761207e6127c0565b5b0217905550600260003373ffffffffffffffffffffffffffffffffffffffff1673ffffffffffffffffffffffffffffffffffffffff1681526020019081526020016000208190806001815401808255809150506001900390600052602060002001600090919091909150557f8ea16fd26bf5a97624d8b6fb303928937b9b559c4627028620ecf8e221dd32e98160405161211991906125ff565b60405180910390a150565b3373ffffffffffffffffffffffffffffffffffffffff166001828154811061214f5761214e613016565b5b90600052602060002090600c020160010160009054906101000a900473ffffffffffffffffffffffffffffffffffffffff1673ffffffffffffffffffffffffffffffffffffffff16146121d7576040517f08c379a00000000000000000000000000000000000000000000000000000000081526004016121ce9061392c565b60405180910390fd5b600060038111156121eb576121ea6127c0565b5b600182815481106121ff576121fe613016565b5b90600052602060002090600c0201600b0160009054906101000a900460ff1660038111156122305761222f6127c0565b5b14612270576040517f08c379a000000000000000000000000000000000000000000000000000000000815260040161226790613998565b60405180910390fd5b60036001828154811061228657612285613016565b5b90600052602060002090600c0201600b0160006101000a81548160ff021916908360038111156122b9576122b86127c0565b5b02179055503373ffffffffffffffffffffffffffffffffffffffff166108fc600183815481106122ec576122eb613016565b5b90600052602060002090600c0201600801549081150290604051600060405180830381858888f19350505050158015612329573d6000803e3d6000fd5b507fe6869595d58c61aa991d00acb41ac260a2d3b5a40d58255f6aad94a14c2804a78160405161235991906125ff565b60405180910390a150565b61236c6123e7565b600073ffffffffffffffffffffffffffffffffffffffff168173ffffffffffffffffffffffffffffffffffffffff16036123db576040517f08c379a00000000000000000000000000000000000000000000000000000000081526004016123d290613a2a565b60405180910390fd5b6123e481612465565b50565b6123ef612529565b73ffffffffffffffffffffffffffffffffffffffff1661240d611126565b73ffffffffffffffffffffffffffffffffffffffff1614612463576040517f08c379a000000000000000000000000000000000000000000000000000000000815260040161245a90613a96565b60405180910390fd5b565b60008060009054906101000a900473ffffffffffffffffffffffffffffffffffffffff169050816000806101000a81548173ffffffffffffffffffffffffffffffffffffffff021916908373ffffffffffffffffffffffffffffffffffffffff1602179055508173ffffffffffffffffffffffffffffffffffffffff168173ffffffffffffffffffffffffffffffffffffffff167f8be0079c531659141344cd1fd0a4f28419497f9722a3daafe3b4186f6b6457e060405160405180910390a35050565b600033905090565b60405180610180016040528060008152602001600073ffffffffffffffffffffffffffffffffffffffff168152602001600073ffffffffffffffffffffffffffffffffffffffff168152602001600073ffffffffffffffffffffffffffffffffffffffff16815260200160608152602001606081526020016060815260200160008152602001600081526020016000815260200160008152602001600060038111156125e0576125df6127c0565b5b81525090565b6000819050919050565b6125f9816125e6565b82525050565b600060208201905061261460008301846125f0565b92915050565b6000604051905090565b600080fd5b600080fd5b600073ffffffffffffffffffffffffffffffffffffffff82169050919050565b60006126598261262e565b9050919050565b6126698161264e565b811461267457600080fd5b50565b60008135905061268681612660565b92915050565b6000602082840312156126a2576126a1612624565b5b60006126b084828501612677565b91505092915050565b6126c2816125e6565b81146126cd57600080fd5b50565b6000813590506126df816126b9565b92915050565b6000602082840312156126fb576126fa612624565b5b6000612709848285016126d0565b91505092915050565b61271b816125e6565b82525050565b61272a8161264e565b82525050565b600081519050919050565b600082825260208201905092915050565b60005b8381101561276a57808201518184015260208101905061274f565b60008484015250505050565b6000601f19601f8301169050919050565b600061279282612730565b61279c818561273b565b93506127ac81856020860161274c565b6127b581612776565b840191505092915050565b7f4e487b7100000000000000000000000000000000000000000000000000000000600052602160045260246000fd5b60048110612800576127ff6127c0565b5b50565b6000819050612811826127ef565b919050565b600061282182612803565b9050919050565b61283181612816565b82525050565b6000610180830160008301516128506000860182612712565b5060208301516128636020860182612721565b5060408301516128766040860182612721565b5060608301516128896060860182612721565b50608083015184820360808601526128a18282612787565b91505060a083015184820360a08601526128bb8282612787565b91505060c083015184820360c08601526128d58282612787565b91505060e08301516128ea60e0860182612712565b506101008301516128ff610100860182612712565b50610120830151612914610120860182612712565b50610140830151612929610140860182612712565b5061016083015161293e610160860182612828565b508091505092915050565b600060208201905081810360008301526129638184612837565b905092915050565b600080fd5b600080fd5b7f4e487b7100000000000000000000000000000000000000000000000000000000600052604160045260246000fd5b6129ad82612776565b810181811067ffffffffffffffff821117156129cc576129cb612975565b5b80604052505050565b60006129df61261a565b90506129eb82826129a4565b919050565b600067ffffffffffffffff821115612a0b57612a0a612975565b5b612a1482612776565b9050602081019050919050565b82818337600083830152505050565b6000612a43612a3e846129f0565b6129d5565b905082815260208101848484011115612a5f57612a5e612970565b5b612a6a848285612a21565b509392505050565b600082601f830112612a8757612a8661296b565b5b8135612a97848260208601612a30565b91505092915050565b60008060408385031215612ab757612ab6612624565b5b6000612ac5858286016126d0565b925050602083013567ffffffffffffffff811115612ae657612ae5612629565b5b612af285828601612a72565b9150509250929050565b612b058161264e565b82525050565b600082825260208201905092915050565b6000612b2782612730565b612b318185612b0b565b9350612b4181856020860161274c565b612b4a81612776565b840191505092915050565b612b5e81612816565b82525050565b600061018082019050612b7a600083018f6125f0565b612b87602083018e612afc565b612b94604083018d612afc565b612ba1606083018c612afc565b8181036080830152612bb3818b612b1c565b905081810360a0830152612bc7818a612b1c565b905081810360c0830152612bdb8189612b1c565b9050612bea60e08301886125f0565b612bf86101008301876125f0565b612c066101208301866125f0565b612c146101408301856125f0565b612c22610160830184612b55565b9d9c50505050505050505050505050565b6000602082019050612c486000830184612afc565b92915050565b600081519050919050565b600082825260208201905092915050565b6000819050602082019050919050565b600061018083016000830151612c936000860182612712565b506020830151612ca66020860182612721565b506040830151612cb96040860182612721565b506060830151612ccc6060860182612721565b5060808301518482036080860152612ce48282612787565b91505060a083015184820360a0860152612cfe8282612787565b91505060c083015184820360c0860152612d188282612787565b91505060e0830151612d2d60e0860182612712565b50610100830151612d42610100860182612712565b50610120830151612d57610120860182612712565b50610140830151612d6c610140860182612712565b50610160830151612d81610160860182612828565b508091505092915050565b6000612d988383612c7a565b905092915050565b6000602082019050919050565b6000612db882612c4e565b612dc28185612c59565b935083602082028501612dd485612c6a565b8060005b85811015612e105784840389528151612df18582612d8c565b9450612dfc83612da0565b925060208a01995050600181019050612dd8565b50829750879550505050505092915050565b60006020820190508181036000830152612e3c8184612dad565b905092915050565b60008060408385031215612e5b57612e5a612624565b5b6000612e6985828601612677565b9250506020612e7a858286016126d0565b9150509250929050565b60008060408385031215612e9b57612e9a612624565b5b600083013567ffffffffffffffff811115612eb957612eb8612629565b5b612ec585828601612a72565b925050602083013567ffffffffffffffff811115612ee657612ee5612629565b5b612ef285828601612a72565b9150509250929050565b600060208284031215612f1257612f11612624565b5b600082013567ffffffffffffffff811115612f3057612f2f612629565b5b612f3c84828501612a72565b91505092915050565b600081519050919050565b600082825260208201905092915050565b6000819050602082019050919050565b6000612f7d8383612712565b60208301905092915050565b6000602082019050919050565b6000612fa182612f45565b612fab8185612f50565b9350612fb683612f61565b8060005b83811015612fe7578151612fce8882612f71565b9750612fd983612f89565b925050600181019050612fba565b5085935050505092915050565b6000602082019050818103600083015261300e8184612f96565b905092915050565b7f4e487b7100000000000000000000000000000000000000000000000000000000600052603260045260246000fd5b7f4e487b7100000000000000000000000000000000000000000000000000000000600052602260045260246000fd5b6000600282049050600182168061308c57607f821691505b60208210810361309f5761309e613045565b5b50919050565b7f4475656c206d7573742062652061636365707465640000000000000000000000600082015250565b60006130db601583612b0b565b91506130e6826130a5565b602082019050919050565b6000602082019050818103600083015261310a816130ce565b9050919050565b7f4f6e6c79207468652063757272656e7420706c617965722063616e206d616b6560008201527f2061206d6f766500000000000000000000000000000000000000000000000000602082015250565b600061316d602783612b0b565b915061317882613111565b604082019050919050565b6000602082019050818103600083015261319c81613160565b9050919050565b7f416d6f756e74206d75737420626520657175616c20746f20746865206368616c60008201527f6c656e6765722773206d6f766520616d6f756e74000000000000000000000000602082015250565b60006131ff603483612b0b565b915061320a826131a3565b604082019050919050565b6000602082019050818103600083015261322e816131f2565b9050919050565b7f4e487b7100000000000000000000000000000000000000000000000000000000600052601160045260246000fd5b600061326f826125e6565b915061327a836125e6565b925082820190508082111561329257613291613235565b5b92915050565b600081905092915050565b60008190508160005260206000209050919050565b600081546132c581613074565b6132cf8186613298565b945060018216600081146132ea57600181146132ff57613332565b60ff1983168652811515820286019350613332565b613308856132a3565b60005b8381101561332a5781548189015260018201915060208101905061330b565b838801955050505b50505092915050565b600061334782846132b8565b915081905092915050565b600061335d82612730565b6133678185613298565b935061337781856020860161274c565b80840191505092915050565b600061338f8284613352565b915081905092915050565b7f2c00000000000000000000000000000000000000000000000000000000000000600082015250565b60006133d0600183613298565b91506133db8261339a565b600182019050919050565b60006133f282856132b8565b91506133fd826133c3565b91506134098284613352565b91508190509392505050565b60006020601f8301049050919050565b600082821b905092915050565b6000600883026134627fffffffffffffffffffffffffffffffffffffffffffffffffffffffffffffffff82613425565b61346c8683613425565b95508019841693508086168417925050509392505050565b6000819050919050565b60006134a96134a461349f846125e6565b613484565b6125e6565b9050919050565b6000819050919050565b6134c38361348e565b6134d76134cf826134b0565b848454613432565b825550505050565b600090565b6134ec6134df565b6134f78184846134ba565b505050565b5b8181101561351b576135106000826134e4565b6001810190506134fd565b5050565b601f82111561356057613531816132a3565b61353a84613415565b81016020851015613549578190505b61355d61355585613415565b8301826134fc565b50505b505050565b600082821c905092915050565b600061358360001984600802613565565b1980831691505092915050565b600061359c8383613572565b9150826002028217905092915050565b6135b582612730565b67ffffffffffffffff8111156135ce576135cd612975565b5b6135d88254613074565b6135e382828561351f565b600060209050601f8311600181146136165760008415613604578287015190505b61360e8582613590565b865550613676565b601f198416613624866132a3565b60005b8281101561364c57848901518255600182019150602085019450602081019050613627565b868310156136695784890151613665601f891682613572565b8355505b6001600288020188555050505b505050505050565b6000815461368b81613074565b6136958186612b0b565b945060018216600081146136b057600181146136c6576136f9565b60ff1983168652811515602002860193506136f9565b6136cf856132a3565b60005b838110156136f1578154818901526001820191506020810190506136d2565b808801955050505b50505092915050565b600060608201905061371760008301866125f0565b6137246020830185612afc565b8181036040830152613736818461367e565b9050949350505050565b7f416d6f756e74206d7573742062652067726561746572207468616e20302e303060008201527f3039332045544800000000000000000000000000000000000000000000000000602082015250565b600061379c602783612b0b565b91506137a782613740565b604082019050919050565b600060208201905081810360008301526137cb8161378f565b9050919050565b60006137dd826125e6565b91506137e8836125e6565b9250828203905081811115613800576137ff613235565b5b92915050565b6000613811826125e6565b91507fffffffffffffffffffffffffffffffffffffffffffffffffffffffffffffffff820361384357613842613235565b5b600182019050919050565b7f4475656c206d757374206e6f7420626520616363657074656420796574000000600082015250565b6000613884601d83612b0b565b915061388f8261384e565b602082019050919050565b600060208201905081810360008301526138b381613877565b9050919050565b7f4f6e6c7920746865206368616c6c656e6765722063616e2063616e63656c207460008201527f6865206475656c00000000000000000000000000000000000000000000000000602082015250565b6000613916602783612b0b565b9150613921826138ba565b604082019050919050565b6000602082019050818103600083015261394581613909565b9050919050565b7f4475656c206d757374206265206e6f7420626520616363657074656420796574600082015250565b6000613982602083612b0b565b915061398d8261394c565b602082019050919050565b600060208201905081810360008301526139b181613975565b9050919050565b7f4f776e61626c653a206e6577206f776e657220697320746865207a65726f206160008201527f6464726573730000000000000000000000000000000000000000000000000000602082015250565b6000613a14602683612b0b565b9150613a1f826139b8565b604082019050919050565b60006020820190508181036000830152613a4381613a07565b9050919050565b7f4f776e61626c653a2063616c6c6572206973206e6f7420746865206f776e6572600082015250565b6000613a80602083612b0b565b9150613a8b82613a4a565b602082019050919050565b60006020820190508181036000830152613aaf81613a73565b905091905056fea264697066735822122098e391463d94c6c370ffc001baeb7bfceb30d717710acdc2b2d0ca67a095ec8a64736f6c63430008130033",
  "linkReferences": {},
  "deployedLinkReferences": {}
}