{
  "_format": "hh-sol-artifact-1",
  "contractName": "Duels",
  "sourceName": "contracts/Duels.sol",
  "abi": [
    {
      "anonymous": false,
      "inputs": [
        {
          "indexed": false,
          "internalType": "uint256",
          "name": "id",
          "type": "uint256"
        }
      ],
      "name": "DuelAccepted",
      "type": "event"
    },
    {
      "anonymous": false,
      "inputs": [
        {
          "indexed": false,
          "internalType": "uint256",
          "name": "id",
          "type": "uint256"
        }
      ],
      "name": "DuelCancelled",
      "type": "event"
    },
    {
      "anonymous": false,
      "inputs": [
        {
          "indexed": false,
          "internalType": "uint256",
          "name": "id",
          "type": "uint256"
        }
      ],
      "name": "DuelCreated",
      "type": "event"
    },
    {
      "anonymous": false,
      "inputs": [
        {
          "indexed": false,
          "internalType": "uint256",
          "name": "id",
          "type": "uint256"
        },
        {
          "indexed": false,
          "internalType": "address",
          "name": "winner",
          "type": "address"
        }
      ],
      "name": "DuelFinished",
      "type": "event"
    },
    {
      "anonymous": false,
      "inputs": [
        {
          "indexed": false,
          "internalType": "uint256",
          "name": "id",
          "type": "uint256"
        },
        {
          "indexed": false,
          "internalType": "address",
          "name": "currentPlayer",
          "type": "address"
        }
      ],
      "name": "DuelMove",
      "type": "event"
    },
    {
      "anonymous": false,
      "inputs": [
        {
          "indexed": true,
          "internalType": "address",
          "name": "previousOwner",
          "type": "address"
        },
        {
          "indexed": true,
          "internalType": "address",
          "name": "newOwner",
          "type": "address"
        }
      ],
      "name": "OwnershipTransferred",
      "type": "event"
    },
    {
      "inputs": [],
      "name": "FEE",
      "outputs": [
        {
          "internalType": "uint256",
          "name": "",
          "type": "uint256"
        }
      ],
      "stateMutability": "view",
      "type": "function"
    },
    {
      "inputs": [
        {
          "internalType": "uint256",
          "name": "_duelId",
          "type": "uint256"
        }
      ],
      "name": "acceptDuel",
      "outputs": [],
      "stateMutability": "payable",
      "type": "function"
    },
    {
      "inputs": [
        {
          "internalType": "uint256",
          "name": "_duelId",
          "type": "uint256"
        }
      ],
      "name": "cancelDuel",
      "outputs": [],
      "stateMutability": "nonpayable",
      "type": "function"
    },
    {
      "inputs": [
        {
          "internalType": "string",
          "name": "_email",
          "type": "string"
        },
        {
          "internalType": "string",
          "name": "_targetWord",
          "type": "string"
        }
      ],
      "name": "createDuel",
      "outputs": [],
      "stateMutability": "payable",
      "type": "function"
    },
    {
      "inputs": [
        {
          "internalType": "uint256",
          "name": "",
          "type": "uint256"
        }
      ],
      "name": "duels",
      "outputs": [
        {
          "internalType": "uint256",
          "name": "id",
          "type": "uint256"
        },
        {
          "internalType": "address",
          "name": "challenger",
          "type": "address"
        },
        {
          "internalType": "address",
          "name": "opponent",
          "type": "address"
        },
        {
          "internalType": "string",
          "name": "email",
          "type": "string"
        },
        {
          "internalType": "string",
          "name": "targetWord",
          "type": "string"
        },
        {
          "internalType": "address",
          "name": "currentPlayer",
          "type": "address"
        },
        {
          "internalType": "string",
          "name": "words",
          "type": "string"
        },
        {
          "internalType": "uint256",
          "name": "moveAmount",
          "type": "uint256"
        },
        {
          "internalType": "uint256",
          "name": "potAmount",
          "type": "uint256"
        },
        {
          "internalType": "uint256",
          "name": "createdAt",
          "type": "uint256"
        },
        {
          "internalType": "uint256",
          "name": "finishedAt",
          "type": "uint256"
        },
        {
          "internalType": "enum Duels.DuelState",
          "name": "state",
          "type": "uint8"
        }
      ],
      "stateMutability": "view",
      "type": "function"
    },
    {
      "inputs": [],
      "name": "getBalance",
      "outputs": [
        {
          "internalType": "uint256",
          "name": "",
          "type": "uint256"
        }
      ],
      "stateMutability": "view",
      "type": "function"
    },
    {
      "inputs": [
        {
          "internalType": "uint256",
          "name": "_duelId",
          "type": "uint256"
        }
      ],
      "name": "getDuel",
      "outputs": [
        {
          "components": [
            {
              "internalType": "uint256",
              "name": "id",
              "type": "uint256"
            },
            {
              "internalType": "address",
              "name": "challenger",
              "type": "address"
            },
            {
              "internalType": "address",
              "name": "opponent",
              "type": "address"
            },
            {
              "internalType": "string",
              "name": "email",
              "type": "string"
            },
            {
              "internalType": "string",
              "name": "targetWord",
              "type": "string"
            },
            {
              "internalType": "address",
              "name": "currentPlayer",
              "type": "address"
            },
            {
              "internalType": "string",
              "name": "words",
              "type": "string"
            },
            {
              "internalType": "uint256",
              "name": "moveAmount",
              "type": "uint256"
            },
            {
              "internalType": "uint256",
              "name": "potAmount",
              "type": "uint256"
            },
            {
              "internalType": "uint256",
              "name": "createdAt",
              "type": "uint256"
            },
            {
              "internalType": "uint256",
              "name": "finishedAt",
              "type": "uint256"
            },
            {
              "internalType": "enum Duels.DuelState",
              "name": "state",
              "type": "uint8"
            }
          ],
          "internalType": "struct Duels.Duel",
          "name": "",
          "type": "tuple"
        }
      ],
      "stateMutability": "view",
      "type": "function"
    },
    {
      "inputs": [],
      "name": "getDuels",
      "outputs": [
        {
          "components": [
            {
              "internalType": "uint256",
              "name": "id",
              "type": "uint256"
            },
            {
              "internalType": "address",
              "name": "challenger",
              "type": "address"
            },
            {
              "internalType": "address",
              "name": "opponent",
              "type": "address"
            },
            {
              "internalType": "string",
              "name": "email",
              "type": "string"
            },
            {
              "internalType": "string",
              "name": "targetWord",
              "type": "string"
            },
            {
              "internalType": "address",
              "name": "currentPlayer",
              "type": "address"
            },
            {
              "internalType": "string",
              "name": "words",
              "type": "string"
            },
            {
              "internalType": "uint256",
              "name": "moveAmount",
              "type": "uint256"
            },
            {
              "internalType": "uint256",
              "name": "potAmount",
              "type": "uint256"
            },
            {
              "internalType": "uint256",
              "name": "createdAt",
              "type": "uint256"
            },
            {
              "internalType": "uint256",
              "name": "finishedAt",
              "type": "uint256"
            },
            {
              "internalType": "enum Duels.DuelState",
              "name": "state",
              "type": "uint8"
            }
          ],
          "internalType": "struct Duels.Duel[]",
          "name": "",
          "type": "tuple[]"
        }
      ],
      "stateMutability": "view",
      "type": "function"
    },
    {
      "inputs": [],
      "name": "getDuelsCount",
      "outputs": [
        {
          "internalType": "uint256",
          "name": "",
          "type": "uint256"
        }
      ],
      "stateMutability": "view",
      "type": "function"
    },
    {
      "inputs": [],
      "name": "getMyDuels",
      "outputs": [
        {
          "components": [
            {
              "internalType": "uint256",
              "name": "id",
              "type": "uint256"
            },
            {
              "internalType": "address",
              "name": "challenger",
              "type": "address"
            },
            {
              "internalType": "address",
              "name": "opponent",
              "type": "address"
            },
            {
              "internalType": "string",
              "name": "email",
              "type": "string"
            },
            {
              "internalType": "string",
              "name": "targetWord",
              "type": "string"
            },
            {
              "internalType": "address",
              "name": "currentPlayer",
              "type": "address"
            },
            {
              "internalType": "string",
              "name": "words",
              "type": "string"
            },
            {
              "internalType": "uint256",
              "name": "moveAmount",
              "type": "uint256"
            },
            {
              "internalType": "uint256",
              "name": "potAmount",
              "type": "uint256"
            },
            {
              "internalType": "uint256",
              "name": "createdAt",
              "type": "uint256"
            },
            {
              "internalType": "uint256",
              "name": "finishedAt",
              "type": "uint256"
            },
            {
              "internalType": "enum Duels.DuelState",
              "name": "state",
              "type": "uint8"
            }
          ],
          "internalType": "struct Duels.Duel[]",
          "name": "",
          "type": "tuple[]"
        }
      ],
      "stateMutability": "view",
      "type": "function"
    },
    {
      "inputs": [],
      "name": "getMyDuelsCount",
      "outputs": [
        {
          "internalType": "uint256",
          "name": "",
          "type": "uint256"
        }
      ],
      "stateMutability": "view",
      "type": "function"
    },
    {
      "inputs": [
        {
          "internalType": "uint256",
          "name": "_duelId",
          "type": "uint256"
        },
        {
          "internalType": "string",
          "name": "_word",
          "type": "string"
        }
      ],
      "name": "makeMove",
      "outputs": [],
      "stateMutability": "nonpayable",
      "type": "function"
    },
    {
      "inputs": [
        {
          "internalType": "address",
          "name": "",
          "type": "address"
        },
        {
          "internalType": "uint256",
          "name": "",
          "type": "uint256"
        }
      ],
      "name": "myDuels",
      "outputs": [
        {
          "internalType": "uint256",
          "name": "",
          "type": "uint256"
        }
      ],
      "stateMutability": "view",
      "type": "function"
    },
    {
      "inputs": [],
      "name": "owner",
      "outputs": [
        {
          "internalType": "address",
          "name": "",
          "type": "address"
        }
      ],
      "stateMutability": "view",
      "type": "function"
    },
    {
      "inputs": [],
      "name": "renounceOwnership",
      "outputs": [],
      "stateMutability": "nonpayable",
      "type": "function"
    },
    {
      "inputs": [
        {
          "internalType": "address",
          "name": "newOwner",
          "type": "address"
        }
      ],
      "name": "transferOwnership",
      "outputs": [],
      "stateMutability": "nonpayable",
      "type": "function"
    },
    {
      "inputs": [],
      "name": "withdraw",
      "outputs": [],
      "stateMutability": "nonpayable",
      "type": "function"
    },
    {
      "inputs": [
        {
          "internalType": "uint256",
          "name": "_amount",
          "type": "uint256"
        }
      ],
      "name": "withdrawPortion",
      "outputs": [],
      "stateMutability": "nonpayable",
      "type": "function"
    }
  ],
  "bytecode": "0x60806040523480156200001157600080fd5b5062000032620000266200003860201b60201c565b6200004060201b60201c565b62000104565b600033905090565b60008060009054906101000a900473ffffffffffffffffffffffffffffffffffffffff169050816000806101000a81548173ffffffffffffffffffffffffffffffffffffffff021916908373ffffffffffffffffffffffffffffffffffffffff1602179055508173ffffffffffffffffffffffffffffffffffffffff168173ffffffffffffffffffffffffffffffffffffffff167f8be0079c531659141344cd1fd0a4f28419497f9722a3daafe3b4186f6b6457e060405160405180910390a35050565b61374780620001146000396000f3fe6080604052600436106101095760003560e01c80638da5cb5b11610095578063b1cf42d811610064578063b1cf42d814610352578063c57981b51461036e578063c874b1c214610399578063d9c312f4146103b5578063f2fde38b146103de57610109565b80638da5cb5b14610294578063a0c9ed47146102bf578063aae63abf146102ea578063afce75d41461031557610109565b80636107814e116100dc5780636107814e146101b8578063715018a6146101e35780637d20e927146101fa578063859a62d01461022357806386c344011461026b57610109565b806312065fe01461010e5780633ccfd60b14610139578063565e614f146101505780635aad09ca1461018d575b600080fd5b34801561011a57600080fd5b50610123610407565b6040516101309190612433565b60405180910390f35b34801561014557600080fd5b5061014e61040f565b005b34801561015c57600080fd5b506101776004803603810190610172919061248e565b610460565b6040516101849190612724565b60405180910390f35b34801561019957600080fd5b506101a26107c2565b6040516101af9190612433565b60405180910390f35b3480156101c457600080fd5b506101cd61080c565b6040516101da9190612433565b60405180910390f35b3480156101ef57600080fd5b506101f8610819565b005b34801561020657600080fd5b50610221600480360381019061021c919061287b565b61082d565b005b34801561022f57600080fd5b5061024a6004803603810190610245919061248e565b610eac565b6040516102629c9b9a9998979695949392919061293f565b60405180910390f35b34801561027757600080fd5b50610292600480360381019061028d919061248e565b611121565b005b3480156102a057600080fd5b506102a9611173565b6040516102b69190612a0e565b60405180910390f35b3480156102cb57600080fd5b506102d461119c565b6040516102e19190612bfd565b60405180910390f35b3480156102f657600080fd5b506102ff611521565b60405161030c9190612bfd565b60405180910390f35b34801561032157600080fd5b5061033c60048036038101906103379190612c4b565b61197a565b6040516103499190612433565b60405180910390f35b61036c60048036038101906103679190612c8b565b6119ab565b005b34801561037a57600080fd5b50610383611cc0565b6040516103909190612433565b60405180910390f35b6103b360048036038101906103ae919061248e565b611ccb565b005b3480156103c157600080fd5b506103dc60048036038101906103d7919061248e565b611f58565b005b3480156103ea57600080fd5b5061040560048036038101906104009190612d03565b612198565b005b600047905090565b61041761221b565b3373ffffffffffffffffffffffffffffffffffffffff166108fc479081150290604051600060405180830381858888f1935050505015801561045d573d6000803e3d6000fd5b50565b610468612365565b6001828154811061047c5761047b612d30565b5b90600052602060002090600c020160405180610180016040529081600082015481526020016001820160009054906101000a900473ffffffffffffffffffffffffffffffffffffffff1673ffffffffffffffffffffffffffffffffffffffff1673ffffffffffffffffffffffffffffffffffffffff1681526020016002820160009054906101000a900473ffffffffffffffffffffffffffffffffffffffff1673ffffffffffffffffffffffffffffffffffffffff1673ffffffffffffffffffffffffffffffffffffffff16815260200160038201805461055c90612d8e565b80601f016020809104026020016040519081016040528092919081815260200182805461058890612d8e565b80156105d55780601f106105aa576101008083540402835291602001916105d5565b820191906000526020600020905b8154815290600101906020018083116105b857829003601f168201915b505050505081526020016004820180546105ee90612d8e565b80601f016020809104026020016040519081016040528092919081815260200182805461061a90612d8e565b80156106675780601f1061063c57610100808354040283529160200191610667565b820191906000526020600020905b81548152906001019060200180831161064a57829003601f168201915b505050505081526020016005820160009054906101000a900473ffffffffffffffffffffffffffffffffffffffff1673ffffffffffffffffffffffffffffffffffffffff1673ffffffffffffffffffffffffffffffffffffffff1681526020016006820180546106d690612d8e565b80601f016020809104026020016040519081016040528092919081815260200182805461070290612d8e565b801561074f5780601f106107245761010080835404028352916020019161074f565b820191906000526020600020905b81548152906001019060200180831161073257829003601f168201915b50505050508152602001600782015481526020016008820154815260200160098201548152602001600a8201548152602001600b820160009054906101000a900460ff1660038111156107a5576107a461259b565b5b60038111156107b7576107b661259b565b5b815250509050919050565b6000600260003373ffffffffffffffffffffffffffffffffffffffff1673ffffffffffffffffffffffffffffffffffffffff16815260200190815260200160002080549050905090565b6000600180549050905090565b61082161221b565b61082b6000612299565b565b600160038111156108415761084061259b565b5b6001838154811061085557610854612d30565b5b90600052602060002090600c0201600b0160009054906101000a900460ff1660038111156108865761088561259b565b5b146108c6576040517f08c379a00000000000000000000000000000000000000000000000000000000081526004016108bd90612e0b565b60405180910390fd5b3373ffffffffffffffffffffffffffffffffffffffff16600183815481106108f1576108f0612d30565b5b90600052602060002090600c020160050160009054906101000a900473ffffffffffffffffffffffffffffffffffffffff1673ffffffffffffffffffffffffffffffffffffffff1614610979576040517f08c379a000000000000000000000000000000000000000000000000000000000815260040161097090612e9d565b60405180910390fd5b6001828154811061098d5761098c612d30565b5b90600052602060002090600c02016004016040516020016109ae9190612f60565b60405160208183030381529060405280519060200120816040516020016109d59190612fa8565b6040516020818303038152906040528051906020012003610b9c57600260018381548110610a0657610a05612d30565b5b90600052602060002090600c0201600b0160006101000a81548160ff02191690836003811115610a3957610a3861259b565b5b02179055504260018381548110610a5357610a52612d30565b5b90600052602060002090600c0201600a018190555060018281548110610a7c57610a7b612d30565b5b90600052602060002090600c020160050160009054906101000a900473ffffffffffffffffffffffffffffffffffffffff1673ffffffffffffffffffffffffffffffffffffffff166108fc60018481548110610adb57610ada612d30565b5b90600052602060002090600c0201600801549081150290604051600060405180830381858888f19350505050158015610b18573d6000803e3d6000fd5b507f5556fc35d5e8685baaff99a10feb6d230a017ba150ebd158c7529e31dc5ba3938260018481548110610b4f57610b4e612d30565b5b90600052602060002090600c020160050160009054906101000a900473ffffffffffffffffffffffffffffffffffffffff16604051610b8f929190612fbf565b60405180910390a1610ea8565b60018281548110610bb057610baf612d30565b5b90600052602060002090600c020160060181604051602001610bd3929190613034565b60405160208183030381529060405260018381548110610bf657610bf5612d30565b5b90600052602060002090600c02016006019081610c1391906131fa565b5060018281548110610c2857610c27612d30565b5b90600052602060002090600c020160010160009054906101000a900473ffffffffffffffffffffffffffffffffffffffff1673ffffffffffffffffffffffffffffffffffffffff1660018381548110610c8457610c83612d30565b5b90600052602060002090600c020160050160009054906101000a900473ffffffffffffffffffffffffffffffffffffffff1673ffffffffffffffffffffffffffffffffffffffff1603610d7f5760018281548110610ce557610ce4612d30565b5b90600052602060002090600c020160020160009054906101000a900473ffffffffffffffffffffffffffffffffffffffff1660018381548110610d2b57610d2a612d30565b5b90600052602060002090600c020160050160006101000a81548173ffffffffffffffffffffffffffffffffffffffff021916908373ffffffffffffffffffffffffffffffffffffffff160217905550610e29565b60018281548110610d9357610d92612d30565b5b90600052602060002090600c020160010160009054906101000a900473ffffffffffffffffffffffffffffffffffffffff1660018381548110610dd957610dd8612d30565b5b90600052602060002090600c020160050160006101000a81548173ffffffffffffffffffffffffffffffffffffffff021916908373ffffffffffffffffffffffffffffffffffffffff1602179055505b7fbd07e81f1cd8969d7a97af1616e9b9044e52f7b0a22830a20f4be0c99f69b6c68260018481548110610e5f57610e5e612d30565b5b90600052602060002090600c020160050160009054906101000a900473ffffffffffffffffffffffffffffffffffffffff16604051610e9f929190612fbf565b60405180910390a15b5050565b60018181548110610ebc57600080fd5b90600052602060002090600c02016000915090508060000154908060010160009054906101000a900473ffffffffffffffffffffffffffffffffffffffff16908060020160009054906101000a900473ffffffffffffffffffffffffffffffffffffffff1690806003018054610f3190612d8e565b80601f0160208091040260200160405190810160405280929190818152602001828054610f5d90612d8e565b8015610faa5780601f10610f7f57610100808354040283529160200191610faa565b820191906000526020600020905b815481529060010190602001808311610f8d57829003601f168201915b505050505090806004018054610fbf90612d8e565b80601f0160208091040260200160405190810160405280929190818152602001828054610feb90612d8e565b80156110385780601f1061100d57610100808354040283529160200191611038565b820191906000526020600020905b81548152906001019060200180831161101b57829003601f168201915b5050505050908060050160009054906101000a900473ffffffffffffffffffffffffffffffffffffffff169080600601805461107390612d8e565b80601f016020809104026020016040519081016040528092919081815260200182805461109f90612d8e565b80156110ec5780601f106110c1576101008083540402835291602001916110ec565b820191906000526020600020905b8154815290600101906020018083116110cf57829003601f168201915b50505050509080600701549080600801549080600901549080600a01549080600b0160009054906101000a900460ff1690508c565b61112961221b565b3373ffffffffffffffffffffffffffffffffffffffff166108fc829081150290604051600060405180830381858888f1935050505015801561116f573d6000803e3d6000fd5b5050565b60008060009054906101000a900473ffffffffffffffffffffffffffffffffffffffff16905090565b60606001805480602002602001604051908101604052809291908181526020016000905b8282101561151857838290600052602060002090600c020160405180610180016040529081600082015481526020016001820160009054906101000a900473ffffffffffffffffffffffffffffffffffffffff1673ffffffffffffffffffffffffffffffffffffffff1673ffffffffffffffffffffffffffffffffffffffff1681526020016002820160009054906101000a900473ffffffffffffffffffffffffffffffffffffffff1673ffffffffffffffffffffffffffffffffffffffff1673ffffffffffffffffffffffffffffffffffffffff1681526020016003820180546112aa90612d8e565b80601f01602080910402602001604051908101604052809291908181526020018280546112d690612d8e565b80156113235780601f106112f857610100808354040283529160200191611323565b820191906000526020600020905b81548152906001019060200180831161130657829003601f168201915b5050505050815260200160048201805461133c90612d8e565b80601f016020809104026020016040519081016040528092919081815260200182805461136890612d8e565b80156113b55780601f1061138a576101008083540402835291602001916113b5565b820191906000526020600020905b81548152906001019060200180831161139857829003601f168201915b505050505081526020016005820160009054906101000a900473ffffffffffffffffffffffffffffffffffffffff1673ffffffffffffffffffffffffffffffffffffffff1673ffffffffffffffffffffffffffffffffffffffff16815260200160068201805461142490612d8e565b80601f016020809104026020016040519081016040528092919081815260200182805461145090612d8e565b801561149d5780601f106114725761010080835404028352916020019161149d565b820191906000526020600020905b81548152906001019060200180831161148057829003601f168201915b50505050508152602001600782015481526020016008820154815260200160098201548152602001600a8201548152602001600b820160009054906101000a900460ff1660038111156114f3576114f261259b565b5b60038111156115055761150461259b565b5b81525050815260200190600101906111c0565b50505050905090565b6060600061152d6107c2565b905060008167ffffffffffffffff81111561154b5761154a612750565b5b60405190808252806020026020018201604052801561158457816020015b611571612365565b8152602001906001900390816115695790505b50905060005b82811015611971576001600260003373ffffffffffffffffffffffffffffffffffffffff1673ffffffffffffffffffffffffffffffffffffffff16815260200190815260200160002082815481106115e5576115e4612d30565b5b90600052602060002001548154811061160157611600612d30565b5b90600052602060002090600c020160405180610180016040529081600082015481526020016001820160009054906101000a900473ffffffffffffffffffffffffffffffffffffffff1673ffffffffffffffffffffffffffffffffffffffff1673ffffffffffffffffffffffffffffffffffffffff1681526020016002820160009054906101000a900473ffffffffffffffffffffffffffffffffffffffff1673ffffffffffffffffffffffffffffffffffffffff1673ffffffffffffffffffffffffffffffffffffffff1681526020016003820180546116e190612d8e565b80601f016020809104026020016040519081016040528092919081815260200182805461170d90612d8e565b801561175a5780601f1061172f5761010080835404028352916020019161175a565b820191906000526020600020905b81548152906001019060200180831161173d57829003601f168201915b5050505050815260200160048201805461177390612d8e565b80601f016020809104026020016040519081016040528092919081815260200182805461179f90612d8e565b80156117ec5780601f106117c1576101008083540402835291602001916117ec565b820191906000526020600020905b8154815290600101906020018083116117cf57829003601f168201915b505050505081526020016005820160009054906101000a900473ffffffffffffffffffffffffffffffffffffffff1673ffffffffffffffffffffffffffffffffffffffff1673ffffffffffffffffffffffffffffffffffffffff16815260200160068201805461185b90612d8e565b80601f016020809104026020016040519081016040528092919081815260200182805461188790612d8e565b80156118d45780601f106118a9576101008083540402835291602001916118d4565b820191906000526020600020905b8154815290600101906020018083116118b757829003601f168201915b50505050508152602001600782015481526020016008820154815260200160098201548152602001600a8201548152602001600b820160009054906101000a900460ff16600381111561192a5761192961259b565b5b600381111561193c5761193b61259b565b5b8152505082828151811061195357611952612d30565b5b60200260200101819052508080611969906132fb565b91505061158a565b50809250505090565b6002602052816000526040600020818154811061199657600080fd5b90600052602060002001600091509150505481565b600034116119ee576040517f08c379a00000000000000000000000000000000000000000000000000000000081526004016119e59061338f565b60405180910390fd5b6000600180549050905060006040518061018001604052808381526020013373ffffffffffffffffffffffffffffffffffffffff168152602001600073ffffffffffffffffffffffffffffffffffffffff1681526020018581526020018481526020013373ffffffffffffffffffffffffffffffffffffffff16815260200160405180602001604052806000815250815260200166034dd47fa4200034611a9591906133af565b815260200166034dd47fa4200034611aad91906133af565b81526020014281526020016000815260200160006003811115611ad357611ad261259b565b5b815250905060018190806001815401808255809150506001900390600052602060002090600c02016000909190919091506000820151816000015560208201518160010160006101000a81548173ffffffffffffffffffffffffffffffffffffffff021916908373ffffffffffffffffffffffffffffffffffffffff16021790555060408201518160020160006101000a81548173ffffffffffffffffffffffffffffffffffffffff021916908373ffffffffffffffffffffffffffffffffffffffff1602179055506060820151816003019081611bb191906131fa565b506080820151816004019081611bc791906131fa565b5060a08201518160050160006101000a81548173ffffffffffffffffffffffffffffffffffffffff021916908373ffffffffffffffffffffffffffffffffffffffff16021790555060c0820151816006019081611c2491906131fa565b5060e082015181600701556101008201518160080155610120820151816009015561014082015181600a015561016082015181600b0160006101000a81548160ff02191690836003811115611c7c57611c7b61259b565b5b021790555050507fb0dbe2e299e34ddf17287956670f83f8023010cd8f30be461d12379d40447b0682604051611cb29190612433565b60405180910390a150505050565b66034dd47fa4200081565b60006003811115611cdf57611cde61259b565b5b60018281548110611cf357611cf2612d30565b5b90600052602060002090600c0201600b0160009054906101000a900460ff166003811115611d2457611d2361259b565b5b14611d64576040517f08c379a0000000000000000000000000000000000000000000000000000000008152600401611d5b9061342f565b60405180910390fd5b60018181548110611d7857611d77612d30565b5b90600052602060002090600c0201600701543414611dcb576040517f08c379a0000000000000000000000000000000000000000000000000000000008152600401611dc2906134c1565b60405180910390fd5b3360018281548110611de057611ddf612d30565b5b90600052602060002090600c020160020160006101000a81548173ffffffffffffffffffffffffffffffffffffffff021916908373ffffffffffffffffffffffffffffffffffffffff1602179055503460018281548110611e4457611e43612d30565b5b90600052602060002090600c02016008016000828254611e6491906134e1565b925050819055506001808281548110611e8057611e7f612d30565b5b90600052602060002090600c0201600b0160006101000a81548160ff02191690836003811115611eb357611eb261259b565b5b0217905550600260003373ffffffffffffffffffffffffffffffffffffffff1673ffffffffffffffffffffffffffffffffffffffff1681526020019081526020016000208190806001815401808255809150506001900390600052602060002001600090919091909150557f8ea16fd26bf5a97624d8b6fb303928937b9b559c4627028620ecf8e221dd32e981604051611f4d9190612433565b60405180910390a150565b3373ffffffffffffffffffffffffffffffffffffffff1660018281548110611f8357611f82612d30565b5b90600052602060002090600c020160010160009054906101000a900473ffffffffffffffffffffffffffffffffffffffff1673ffffffffffffffffffffffffffffffffffffffff161461200b576040517f08c379a000000000000000000000000000000000000000000000000000000000815260040161200290613587565b60405180910390fd5b6000600381111561201f5761201e61259b565b5b6001828154811061203357612032612d30565b5b90600052602060002090600c0201600b0160009054906101000a900460ff1660038111156120645761206361259b565b5b146120a4576040517f08c379a000000000000000000000000000000000000000000000000000000000815260040161209b906135f3565b60405180910390fd5b6003600182815481106120ba576120b9612d30565b5b90600052602060002090600c0201600b0160006101000a81548160ff021916908360038111156120ed576120ec61259b565b5b02179055503373ffffffffffffffffffffffffffffffffffffffff166108fc600183815481106121205761211f612d30565b5b90600052602060002090600c0201600801549081150290604051600060405180830381858888f1935050505015801561215d573d6000803e3d6000fd5b507fe6869595d58c61aa991d00acb41ac260a2d3b5a40d58255f6aad94a14c2804a78160405161218d9190612433565b60405180910390a150565b6121a061221b565b600073ffffffffffffffffffffffffffffffffffffffff168173ffffffffffffffffffffffffffffffffffffffff160361220f576040517f08c379a000000000000000000000000000000000000000000000000000000000815260040161220690613685565b60405180910390fd5b61221881612299565b50565b61222361235d565b73ffffffffffffffffffffffffffffffffffffffff16612241611173565b73ffffffffffffffffffffffffffffffffffffffff1614612297576040517f08c379a000000000000000000000000000000000000000000000000000000000815260040161228e906136f1565b60405180910390fd5b565b60008060009054906101000a900473ffffffffffffffffffffffffffffffffffffffff169050816000806101000a81548173ffffffffffffffffffffffffffffffffffffffff021916908373ffffffffffffffffffffffffffffffffffffffff1602179055508173ffffffffffffffffffffffffffffffffffffffff168173ffffffffffffffffffffffffffffffffffffffff167f8be0079c531659141344cd1fd0a4f28419497f9722a3daafe3b4186f6b6457e060405160405180910390a35050565b600033905090565b60405180610180016040528060008152602001600073ffffffffffffffffffffffffffffffffffffffff168152602001600073ffffffffffffffffffffffffffffffffffffffff1681526020016060815260200160608152602001600073ffffffffffffffffffffffffffffffffffffffff1681526020016060815260200160008152602001600081526020016000815260200160008152602001600060038111156124145761241361259b565b5b81525090565b6000819050919050565b61242d8161241a565b82525050565b60006020820190506124486000830184612424565b92915050565b6000604051905090565b600080fd5b600080fd5b61246b8161241a565b811461247657600080fd5b50565b60008135905061248881612462565b92915050565b6000602082840312156124a4576124a3612458565b5b60006124b284828501612479565b91505092915050565b6124c48161241a565b82525050565b600073ffffffffffffffffffffffffffffffffffffffff82169050919050565b60006124f5826124ca565b9050919050565b612505816124ea565b82525050565b600081519050919050565b600082825260208201905092915050565b60005b8381101561254557808201518184015260208101905061252a565b60008484015250505050565b6000601f19601f8301169050919050565b600061256d8261250b565b6125778185612516565b9350612587818560208601612527565b61259081612551565b840191505092915050565b7f4e487b7100000000000000000000000000000000000000000000000000000000600052602160045260246000fd5b600481106125db576125da61259b565b5b50565b60008190506125ec826125ca565b919050565b60006125fc826125de565b9050919050565b61260c816125f1565b82525050565b60006101808301600083015161262b60008601826124bb565b50602083015161263e60208601826124fc565b50604083015161265160408601826124fc565b50606083015184820360608601526126698282612562565b915050608083015184820360808601526126838282612562565b91505060a083015161269860a08601826124fc565b5060c083015184820360c08601526126b08282612562565b91505060e08301516126c560e08601826124bb565b506101008301516126da6101008601826124bb565b506101208301516126ef6101208601826124bb565b506101408301516127046101408601826124bb565b50610160830151612719610160860182612603565b508091505092915050565b6000602082019050818103600083015261273e8184612612565b905092915050565b600080fd5b600080fd5b7f4e487b7100000000000000000000000000000000000000000000000000000000600052604160045260246000fd5b61278882612551565b810181811067ffffffffffffffff821117156127a7576127a6612750565b5b80604052505050565b60006127ba61244e565b90506127c6828261277f565b919050565b600067ffffffffffffffff8211156127e6576127e5612750565b5b6127ef82612551565b9050602081019050919050565b82818337600083830152505050565b600061281e612819846127cb565b6127b0565b90508281526020810184848401111561283a5761283961274b565b5b6128458482856127fc565b509392505050565b600082601f83011261286257612861612746565b5b813561287284826020860161280b565b91505092915050565b6000806040838503121561289257612891612458565b5b60006128a085828601612479565b925050602083013567ffffffffffffffff8111156128c1576128c061245d565b5b6128cd8582860161284d565b9150509250929050565b6128e0816124ea565b82525050565b600082825260208201905092915050565b60006129028261250b565b61290c81856128e6565b935061291c818560208601612527565b61292581612551565b840191505092915050565b612939816125f1565b82525050565b600061018082019050612955600083018f612424565b612962602083018e6128d7565b61296f604083018d6128d7565b8181036060830152612981818c6128f7565b90508181036080830152612995818b6128f7565b90506129a460a083018a6128d7565b81810360c08301526129b681896128f7565b90506129c560e0830188612424565b6129d3610100830187612424565b6129e1610120830186612424565b6129ef610140830185612424565b6129fd610160830184612930565b9d9c50505050505050505050505050565b6000602082019050612a2360008301846128d7565b92915050565b600081519050919050565b600082825260208201905092915050565b6000819050602082019050919050565b600061018083016000830151612a6e60008601826124bb565b506020830151612a8160208601826124fc565b506040830151612a9460408601826124fc565b5060608301518482036060860152612aac8282612562565b91505060808301518482036080860152612ac68282612562565b91505060a0830151612adb60a08601826124fc565b5060c083015184820360c0860152612af38282612562565b91505060e0830151612b0860e08601826124bb565b50610100830151612b1d6101008601826124bb565b50610120830151612b326101208601826124bb565b50610140830151612b476101408601826124bb565b50610160830151612b5c610160860182612603565b508091505092915050565b6000612b738383612a55565b905092915050565b6000602082019050919050565b6000612b9382612a29565b612b9d8185612a34565b935083602082028501612baf85612a45565b8060005b85811015612beb5784840389528151612bcc8582612b67565b9450612bd783612b7b565b925060208a01995050600181019050612bb3565b50829750879550505050505092915050565b60006020820190508181036000830152612c178184612b88565b905092915050565b612c28816124ea565b8114612c3357600080fd5b50565b600081359050612c4581612c1f565b92915050565b60008060408385031215612c6257612c61612458565b5b6000612c7085828601612c36565b9250506020612c8185828601612479565b9150509250929050565b60008060408385031215612ca257612ca1612458565b5b600083013567ffffffffffffffff811115612cc057612cbf61245d565b5b612ccc8582860161284d565b925050602083013567ffffffffffffffff811115612ced57612cec61245d565b5b612cf98582860161284d565b9150509250929050565b600060208284031215612d1957612d18612458565b5b6000612d2784828501612c36565b91505092915050565b7f4e487b7100000000000000000000000000000000000000000000000000000000600052603260045260246000fd5b7f4e487b7100000000000000000000000000000000000000000000000000000000600052602260045260246000fd5b60006002820490506001821680612da657607f821691505b602082108103612db957612db8612d5f565b5b50919050565b7f4475656c206d7573742062652061636365707465640000000000000000000000600082015250565b6000612df56015836128e6565b9150612e0082612dbf565b602082019050919050565b60006020820190508181036000830152612e2481612de8565b9050919050565b7f4f6e6c79207468652063757272656e7420706c617965722063616e206d616b6560008201527f2061206d6f766500000000000000000000000000000000000000000000000000602082015250565b6000612e876027836128e6565b9150612e9282612e2b565b604082019050919050565b60006020820190508181036000830152612eb681612e7a565b9050919050565b600081905092915050565b60008190508160005260206000209050919050565b60008154612eea81612d8e565b612ef48186612ebd565b94506001821660008114612f0f5760018114612f2457612f57565b60ff1983168652811515820286019350612f57565b612f2d85612ec8565b60005b83811015612f4f57815481890152600182019150602081019050612f30565b838801955050505b50505092915050565b6000612f6c8284612edd565b915081905092915050565b6000612f828261250b565b612f8c8185612ebd565b9350612f9c818560208601612527565b80840191505092915050565b6000612fb48284612f77565b915081905092915050565b6000604082019050612fd46000830185612424565b612fe160208301846128d7565b9392505050565b7f2c00000000000000000000000000000000000000000000000000000000000000600082015250565b600061301e600183612ebd565b915061302982612fe8565b600182019050919050565b60006130408285612edd565b915061304b82613011565b91506130578284612f77565b91508190509392505050565b60006020601f8301049050919050565b600082821b905092915050565b6000600883026130b07fffffffffffffffffffffffffffffffffffffffffffffffffffffffffffffffff82613073565b6130ba8683613073565b95508019841693508086168417925050509392505050565b6000819050919050565b60006130f76130f26130ed8461241a565b6130d2565b61241a565b9050919050565b6000819050919050565b613111836130dc565b61312561311d826130fe565b848454613080565b825550505050565b600090565b61313a61312d565b613145818484613108565b505050565b5b818110156131695761315e600082613132565b60018101905061314b565b5050565b601f8211156131ae5761317f81612ec8565b61318884613063565b81016020851015613197578190505b6131ab6131a385613063565b83018261314a565b50505b505050565b600082821c905092915050565b60006131d1600019846008026131b3565b1980831691505092915050565b60006131ea83836131c0565b9150826002028217905092915050565b6132038261250b565b67ffffffffffffffff81111561321c5761321b612750565b5b6132268254612d8e565b61323182828561316d565b600060209050601f8311600181146132645760008415613252578287015190505b61325c85826131de565b8655506132c4565b601f19841661327286612ec8565b60005b8281101561329a57848901518255600182019150602085019450602081019050613275565b868310156132b757848901516132b3601f8916826131c0565b8355505b6001600288020188555050505b505050505050565b7f4e487b7100000000000000000000000000000000000000000000000000000000600052601160045260246000fd5b60006133068261241a565b91507fffffffffffffffffffffffffffffffffffffffffffffffffffffffffffffffff8203613338576133376132cc565b5b600182019050919050565b7f416d6f756e74206d7573742062652067726561746572207468616e2030000000600082015250565b6000613379601d836128e6565b915061338482613343565b602082019050919050565b600060208201905081810360008301526133a88161336c565b9050919050565b60006133ba8261241a565b91506133c58361241a565b92508282039050818111156133dd576133dc6132cc565b5b92915050565b7f4475656c206d757374206e6f7420626520616363657074656420796574000000600082015250565b6000613419601d836128e6565b9150613424826133e3565b602082019050919050565b600060208201905081810360008301526134488161340c565b9050919050565b7f416d6f756e74206d75737420626520657175616c20746f20746865206368616c60008201527f6c656e6765722773206d6f766520616d6f756e74000000000000000000000000602082015250565b60006134ab6034836128e6565b91506134b68261344f565b604082019050919050565b600060208201905081810360008301526134da8161349e565b9050919050565b60006134ec8261241a565b91506134f78361241a565b925082820190508082111561350f5761350e6132cc565b5b92915050565b7f4f6e6c7920746865206368616c6c656e6765722063616e2063616e63656c207460008201527f6865206475656c00000000000000000000000000000000000000000000000000602082015250565b60006135716027836128e6565b915061357c82613515565b604082019050919050565b600060208201905081810360008301526135a081613564565b9050919050565b7f4475656c206d757374206265206e6f7420626520616363657074656420796574600082015250565b60006135dd6020836128e6565b91506135e8826135a7565b602082019050919050565b6000602082019050818103600083015261360c816135d0565b9050919050565b7f4f776e61626c653a206e6577206f776e657220697320746865207a65726f206160008201527f6464726573730000000000000000000000000000000000000000000000000000602082015250565b600061366f6026836128e6565b915061367a82613613565b604082019050919050565b6000602082019050818103600083015261369e81613662565b9050919050565b7f4f776e61626c653a2063616c6c6572206973206e6f7420746865206f776e6572600082015250565b60006136db6020836128e6565b91506136e6826136a5565b602082019050919050565b6000602082019050818103600083015261370a816136ce565b905091905056fea264697066735822122012c7474057e93326c667d333db463e958982f150b512e55f65212b273843dc9464736f6c63430008130033",
  "linkReferences": {},
  "deployedLinkReferences": {}
}