{
  "_format": "hh-sol-artifact-1",
  "contractName": "Duels",
  "sourceName": "contracts/Duels.sol",
  "abi": [
    {
      "anonymous": false,
      "inputs": [
        {
          "indexed": false,
          "internalType": "uint256",
          "name": "id",
          "type": "uint256"
        }
      ],
      "name": "DuelAccepted",
      "type": "event"
    },
    {
      "anonymous": false,
      "inputs": [
        {
          "indexed": false,
          "internalType": "uint256",
          "name": "id",
          "type": "uint256"
        }
      ],
      "name": "DuelCancelled",
      "type": "event"
    },
    {
      "anonymous": false,
      "inputs": [
        {
          "indexed": false,
          "internalType": "uint256",
          "name": "id",
          "type": "uint256"
        }
      ],
      "name": "DuelCreated",
      "type": "event"
    },
    {
      "anonymous": false,
      "inputs": [
        {
          "indexed": false,
          "internalType": "uint256",
          "name": "id",
          "type": "uint256"
        },
        {
          "indexed": false,
          "internalType": "address",
          "name": "currentPlayer",
          "type": "address"
        },
        {
          "indexed": false,
          "internalType": "string",
          "name": "words",
          "type": "string"
        },
        {
          "indexed": false,
          "internalType": "uint256",
          "name": "moveCount",
          "type": "uint256"
        }
      ],
      "name": "DuelMove",
      "type": "event"
    },
    {
      "anonymous": false,
      "inputs": [
        {
          "indexed": true,
          "internalType": "address",
          "name": "previousOwner",
          "type": "address"
        },
        {
          "indexed": true,
          "internalType": "address",
          "name": "newOwner",
          "type": "address"
        }
      ],
      "name": "OwnershipTransferred",
      "type": "event"
    },
    {
      "inputs": [],
      "name": "FEE",
      "outputs": [
        {
          "internalType": "uint256",
          "name": "",
          "type": "uint256"
        }
      ],
      "stateMutability": "view",
      "type": "function"
    },
    {
      "inputs": [
        {
          "internalType": "uint256",
          "name": "_duelId",
          "type": "uint256"
        }
      ],
      "name": "acceptDuel",
      "outputs": [],
      "stateMutability": "payable",
      "type": "function"
    },
    {
      "inputs": [
        {
          "internalType": "uint256",
          "name": "_duelId",
          "type": "uint256"
        }
      ],
      "name": "cancelDuel",
      "outputs": [],
      "stateMutability": "nonpayable",
      "type": "function"
    },
    {
      "inputs": [
        {
          "internalType": "string",
          "name": "_email",
          "type": "string"
        },
        {
          "internalType": "string",
          "name": "_targetWord",
          "type": "string"
        }
      ],
      "name": "createDuel",
      "outputs": [],
      "stateMutability": "payable",
      "type": "function"
    },
    {
      "inputs": [
        {
          "internalType": "uint256",
          "name": "",
          "type": "uint256"
        }
      ],
      "name": "duels",
      "outputs": [
        {
          "internalType": "uint256",
          "name": "id",
          "type": "uint256"
        },
        {
          "internalType": "address",
          "name": "challenger",
          "type": "address"
        },
        {
          "internalType": "address",
          "name": "opponent",
          "type": "address"
        },
        {
          "internalType": "address",
          "name": "currentPlayer",
          "type": "address"
        },
        {
          "internalType": "string",
          "name": "email",
          "type": "string"
        },
        {
          "internalType": "string",
          "name": "targetWord",
          "type": "string"
        },
        {
          "internalType": "string",
          "name": "words",
          "type": "string"
        },
        {
          "internalType": "uint256",
          "name": "moveAmount",
          "type": "uint256"
        },
        {
          "internalType": "uint256",
          "name": "potAmount",
          "type": "uint256"
        },
        {
          "internalType": "uint256",
          "name": "createdAt",
          "type": "uint256"
        },
        {
          "internalType": "uint256",
          "name": "moveCount",
          "type": "uint256"
        },
        {
          "internalType": "enum Duels.DuelState",
          "name": "state",
          "type": "uint8"
        }
      ],
      "stateMutability": "view",
      "type": "function"
    },
    {
      "inputs": [],
      "name": "getBalance",
      "outputs": [
        {
          "internalType": "uint256",
          "name": "",
          "type": "uint256"
        }
      ],
      "stateMutability": "view",
      "type": "function"
    },
    {
      "inputs": [
        {
          "internalType": "uint256",
          "name": "_duelId",
          "type": "uint256"
        }
      ],
      "name": "getDuel",
      "outputs": [
        {
          "components": [
            {
              "internalType": "uint256",
              "name": "id",
              "type": "uint256"
            },
            {
              "internalType": "address",
              "name": "challenger",
              "type": "address"
            },
            {
              "internalType": "address",
              "name": "opponent",
              "type": "address"
            },
            {
              "internalType": "address",
              "name": "currentPlayer",
              "type": "address"
            },
            {
              "internalType": "string",
              "name": "email",
              "type": "string"
            },
            {
              "internalType": "string",
              "name": "targetWord",
              "type": "string"
            },
            {
              "internalType": "string",
              "name": "words",
              "type": "string"
            },
            {
              "internalType": "uint256",
              "name": "moveAmount",
              "type": "uint256"
            },
            {
              "internalType": "uint256",
              "name": "potAmount",
              "type": "uint256"
            },
            {
              "internalType": "uint256",
              "name": "createdAt",
              "type": "uint256"
            },
            {
              "internalType": "uint256",
              "name": "moveCount",
              "type": "uint256"
            },
            {
              "internalType": "enum Duels.DuelState",
              "name": "state",
              "type": "uint8"
            }
          ],
          "internalType": "struct Duels.Duel",
          "name": "",
          "type": "tuple"
        }
      ],
      "stateMutability": "view",
      "type": "function"
    },
    {
      "inputs": [],
      "name": "getDuels",
      "outputs": [
        {
          "components": [
            {
              "internalType": "uint256",
              "name": "id",
              "type": "uint256"
            },
            {
              "internalType": "address",
              "name": "challenger",
              "type": "address"
            },
            {
              "internalType": "address",
              "name": "opponent",
              "type": "address"
            },
            {
              "internalType": "address",
              "name": "currentPlayer",
              "type": "address"
            },
            {
              "internalType": "string",
              "name": "email",
              "type": "string"
            },
            {
              "internalType": "string",
              "name": "targetWord",
              "type": "string"
            },
            {
              "internalType": "string",
              "name": "words",
              "type": "string"
            },
            {
              "internalType": "uint256",
              "name": "moveAmount",
              "type": "uint256"
            },
            {
              "internalType": "uint256",
              "name": "potAmount",
              "type": "uint256"
            },
            {
              "internalType": "uint256",
              "name": "createdAt",
              "type": "uint256"
            },
            {
              "internalType": "uint256",
              "name": "moveCount",
              "type": "uint256"
            },
            {
              "internalType": "enum Duels.DuelState",
              "name": "state",
              "type": "uint8"
            }
          ],
          "internalType": "struct Duels.Duel[]",
          "name": "",
          "type": "tuple[]"
        }
      ],
      "stateMutability": "view",
      "type": "function"
    },
    {
      "inputs": [
        {
          "internalType": "string",
          "name": "_email",
          "type": "string"
        }
      ],
      "name": "getDuelsByEmail",
      "outputs": [
        {
          "components": [
            {
              "internalType": "uint256",
              "name": "id",
              "type": "uint256"
            },
            {
              "internalType": "address",
              "name": "challenger",
              "type": "address"
            },
            {
              "internalType": "address",
              "name": "opponent",
              "type": "address"
            },
            {
              "internalType": "address",
              "name": "currentPlayer",
              "type": "address"
            },
            {
              "internalType": "string",
              "name": "email",
              "type": "string"
            },
            {
              "internalType": "string",
              "name": "targetWord",
              "type": "string"
            },
            {
              "internalType": "string",
              "name": "words",
              "type": "string"
            },
            {
              "internalType": "uint256",
              "name": "moveAmount",
              "type": "uint256"
            },
            {
              "internalType": "uint256",
              "name": "potAmount",
              "type": "uint256"
            },
            {
              "internalType": "uint256",
              "name": "createdAt",
              "type": "uint256"
            },
            {
              "internalType": "uint256",
              "name": "moveCount",
              "type": "uint256"
            },
            {
              "internalType": "enum Duels.DuelState",
              "name": "state",
              "type": "uint8"
            }
          ],
          "internalType": "struct Duels.Duel[]",
          "name": "",
          "type": "tuple[]"
        }
      ],
      "stateMutability": "view",
      "type": "function"
    },
    {
      "inputs": [],
      "name": "getDuelsCount",
      "outputs": [
        {
          "internalType": "uint256",
          "name": "",
          "type": "uint256"
        }
      ],
      "stateMutability": "view",
      "type": "function"
    },
    {
      "inputs": [
        {
          "internalType": "address",
          "name": "_wallet",
          "type": "address"
        }
      ],
      "name": "getMyDuels",
      "outputs": [
        {
          "internalType": "uint256[]",
          "name": "",
          "type": "uint256[]"
        }
      ],
      "stateMutability": "view",
      "type": "function"
    },
    {
      "inputs": [
        {
          "internalType": "address",
          "name": "_wallet",
          "type": "address"
        }
      ],
      "name": "getMyDuelsCount",
      "outputs": [
        {
          "internalType": "uint256",
          "name": "",
          "type": "uint256"
        }
      ],
      "stateMutability": "view",
      "type": "function"
    },
    {
      "inputs": [
        {
          "internalType": "uint256",
          "name": "_duelId",
          "type": "uint256"
        },
        {
          "internalType": "string",
          "name": "_word",
          "type": "string"
        }
      ],
      "name": "makeMove",
      "outputs": [],
      "stateMutability": "payable",
      "type": "function"
    },
    {
      "inputs": [
        {
          "internalType": "address",
          "name": "",
          "type": "address"
        },
        {
          "internalType": "uint256",
          "name": "",
          "type": "uint256"
        }
      ],
      "name": "myDuels",
      "outputs": [
        {
          "internalType": "uint256",
          "name": "",
          "type": "uint256"
        }
      ],
      "stateMutability": "view",
      "type": "function"
    },
    {
      "inputs": [],
      "name": "owner",
      "outputs": [
        {
          "internalType": "address",
          "name": "",
          "type": "address"
        }
      ],
      "stateMutability": "view",
      "type": "function"
    },
    {
      "inputs": [],
      "name": "renounceOwnership",
      "outputs": [],
      "stateMutability": "nonpayable",
      "type": "function"
    },
    {
      "inputs": [
        {
          "internalType": "address",
          "name": "newOwner",
          "type": "address"
        }
      ],
      "name": "transferOwnership",
      "outputs": [],
      "stateMutability": "nonpayable",
      "type": "function"
    }
  ],
  "bytecode": "0x60806040523480156200001157600080fd5b5062000032620000266200003860201b60201c565b6200004060201b60201c565b62000104565b600033905090565b60008060009054906101000a900473ffffffffffffffffffffffffffffffffffffffff169050816000806101000a81548173ffffffffffffffffffffffffffffffffffffffff021916908373ffffffffffffffffffffffffffffffffffffffff1602179055508173ffffffffffffffffffffffffffffffffffffffff168173ffffffffffffffffffffffffffffffffffffffff167f8be0079c531659141344cd1fd0a4f28419497f9722a3daafe3b4186f6b6457e060405160405180910390a35050565b613d8d80620001146000396000f3fe6080604052600436106100fe5760003560e01c8063a0c9ed4711610095578063c57981b511610064578063c57981b51461033a578063c7081d3d14610365578063c874b1c2146103a2578063d9c312f4146103be578063f2fde38b146103e7576100fe565b8063a0c9ed4714610279578063afce75d4146102a4578063b1cf42d8146102e1578063b9cf2408146102fd576100fe565b8063715018a6116100d1578063715018a6146101d35780637d20e927146101ea578063859a62d0146102065780638da5cb5b1461024e576100fe565b806312065fe0146101035780631d9e39d11461012e578063565e614f1461016b5780636107814e146101a8575b600080fd5b34801561010f57600080fd5b50610118610410565b6040516101259190612832565b60405180910390f35b34801561013a57600080fd5b50610155600480360381019061015091906128bf565b610418565b6040516101629190612832565b60405180910390f35b34801561017757600080fd5b50610192600480360381019061018d9190612918565b610464565b60405161019f9190612b7c565b60405180910390f35b3480156101b457600080fd5b506101bd6107c6565b6040516101ca9190612832565b60405180910390f35b3480156101df57600080fd5b506101e86107d3565b005b61020460048036038101906101ff9190612cd3565b6107e7565b005b34801561021257600080fd5b5061022d60048036038101906102289190612918565b6110e4565b6040516102459c9b9a99989796959493929190612d97565b60405180910390f35b34801561025a57600080fd5b50610263611359565b6040516102709190612e66565b60405180910390f35b34801561028557600080fd5b5061028e611382565b60405161029b9190613055565b60405180910390f35b3480156102b057600080fd5b506102cb60048036038101906102c69190613077565b611707565b6040516102d89190612832565b60405180910390f35b6102fb60048036038101906102f691906130b7565b611738565b005b34801561030957600080fd5b50610324600480360381019061031f919061312f565b611afc565b6040516103319190613055565b60405180910390f35b34801561034657600080fd5b5061034f612028565b60405161035c9190612832565b60405180910390f35b34801561037157600080fd5b5061038c600480360381019061038791906128bf565b612033565b6040516103999190613227565b60405180910390f35b6103bc60048036038101906103b79190612918565b6120ca565b005b3480156103ca57600080fd5b506103e560048036038101906103e09190612918565b612357565b005b3480156103f357600080fd5b5061040e600480360381019061040991906128bf565b612597565b005b600047905090565b6000600260008373ffffffffffffffffffffffffffffffffffffffff1673ffffffffffffffffffffffffffffffffffffffff168152602001908152602001600020805490509050919050565b61046c612764565b600182815481106104805761047f613249565b5b90600052602060002090600c020160405180610180016040529081600082015481526020016001820160009054906101000a900473ffffffffffffffffffffffffffffffffffffffff1673ffffffffffffffffffffffffffffffffffffffff1673ffffffffffffffffffffffffffffffffffffffff1681526020016002820160009054906101000a900473ffffffffffffffffffffffffffffffffffffffff1673ffffffffffffffffffffffffffffffffffffffff1673ffffffffffffffffffffffffffffffffffffffff1681526020016003820160009054906101000a900473ffffffffffffffffffffffffffffffffffffffff1673ffffffffffffffffffffffffffffffffffffffff1673ffffffffffffffffffffffffffffffffffffffff1681526020016004820180546105b6906132a7565b80601f01602080910402602001604051908101604052809291908181526020018280546105e2906132a7565b801561062f5780601f106106045761010080835404028352916020019161062f565b820191906000526020600020905b81548152906001019060200180831161061257829003601f168201915b50505050508152602001600582018054610648906132a7565b80601f0160208091040260200160405190810160405280929190818152602001828054610674906132a7565b80156106c15780601f10610696576101008083540402835291602001916106c1565b820191906000526020600020905b8154815290600101906020018083116106a457829003601f168201915b505050505081526020016006820180546106da906132a7565b80601f0160208091040260200160405190810160405280929190818152602001828054610706906132a7565b80156107535780601f1061072857610100808354040283529160200191610753565b820191906000526020600020905b81548152906001019060200180831161073657829003601f168201915b50505050508152602001600782015481526020016008820154815260200160098201548152602001600a8201548152602001600b820160009054906101000a900460ff1660038111156107a9576107a86129f3565b5b60038111156107bb576107ba6129f3565b5b815250509050919050565b6000600180549050905090565b6107db61261a565b6107e56000612698565b565b600160038111156107fb576107fa6129f3565b5b6001838154811061080f5761080e613249565b5b90600052602060002090600c0201600b0160009054906101000a900460ff1660038111156108405761083f6129f3565b5b14610880576040517f08c379a000000000000000000000000000000000000000000000000000000000815260040161087790613324565b60405180910390fd5b3373ffffffffffffffffffffffffffffffffffffffff16600183815481106108ab576108aa613249565b5b90600052602060002090600c020160030160009054906101000a900473ffffffffffffffffffffffffffffffffffffffff1673ffffffffffffffffffffffffffffffffffffffff1614610933576040517f08c379a000000000000000000000000000000000000000000000000000000000815260040161092a906133b6565b60405180910390fd5b6001828154811061094757610946613249565b5b90600052602060002090600c020160070154341461099a576040517f08c379a000000000000000000000000000000000000000000000000000000000815260040161099190613448565b60405180910390fd5b34600183815481106109af576109ae613249565b5b90600052602060002090600c020160080160008282546109cf9190613497565b92505081905550600182815481106109ea576109e9613249565b5b90600052602060002090600c020160060181604051602001610a0d9291906135eb565b60405160208183030381529060405260018381548110610a3057610a2f613249565b5b90600052602060002090600c02016006019081610a4d91906137b1565b5060018281548110610a6257610a61613249565b5b90600052602060002090600c0201600501604051602001610a839190613883565b6040516020818303038152906040528051906020012081604051602001610aaa919061389a565b6040516020818303038152906040528051906020012003610bc957600260018381548110610adb57610ada613249565b5b90600052602060002090600c0201600b0160006101000a81548160ff02191690836003811115610b0e57610b0d6129f3565b5b021790555060018281548110610b2757610b26613249565b5b90600052602060002090600c020160030160009054906101000a900473ffffffffffffffffffffffffffffffffffffffff1673ffffffffffffffffffffffffffffffffffffffff166108fc60018481548110610b8657610b85613249565b5b90600052602060002090600c0201600801549081150290604051600060405180830381858888f19350505050158015610bc3573d6000803e3d6000fd5b506110e0565b60018281548110610bdd57610bdc613249565b5b90600052602060002090600c020160010160009054906101000a900473ffffffffffffffffffffffffffffffffffffffff1673ffffffffffffffffffffffffffffffffffffffff1660018381548110610c3957610c38613249565b5b90600052602060002090600c020160030160009054906101000a900473ffffffffffffffffffffffffffffffffffffffff1673ffffffffffffffffffffffffffffffffffffffff1603610d345760018281548110610c9a57610c99613249565b5b90600052602060002090600c020160020160009054906101000a900473ffffffffffffffffffffffffffffffffffffffff1660018381548110610ce057610cdf613249565b5b90600052602060002090600c020160030160006101000a81548173ffffffffffffffffffffffffffffffffffffffff021916908373ffffffffffffffffffffffffffffffffffffffff160217905550610dde565b60018281548110610d4857610d47613249565b5b90600052602060002090600c020160010160009054906101000a900473ffffffffffffffffffffffffffffffffffffffff1660018381548110610d8e57610d8d613249565b5b90600052602060002090600c020160030160006101000a81548173ffffffffffffffffffffffffffffffffffffffff021916908373ffffffffffffffffffffffffffffffffffffffff1602179055505b60018281548110610df257610df1613249565b5b90600052602060002090600c0201600a016000815480929190610e14906138b1565b9190505550600660018381548110610e2f57610e2e613249565b5b90600052602060002090600c0201600a01540361101357600260018381548110610e5c57610e5b613249565b5b90600052602060002090600c0201600b0160006101000a81548160ff02191690836003811115610e8f57610e8e6129f3565b5b021790555060018281548110610ea857610ea7613249565b5b90600052602060002090600c020160010160009054906101000a900473ffffffffffffffffffffffffffffffffffffffff1673ffffffffffffffffffffffffffffffffffffffff166108fc600260018581548110610f0957610f08613249565b5b90600052602060002090600c020160080154610f259190613928565b9081150290604051600060405180830381858888f19350505050158015610f50573d6000803e3d6000fd5b5060018281548110610f6557610f64613249565b5b90600052602060002090600c020160020160009054906101000a900473ffffffffffffffffffffffffffffffffffffffff1673ffffffffffffffffffffffffffffffffffffffff166108fc600260018581548110610fc657610fc5613249565b5b90600052602060002090600c020160080154610fe29190613928565b9081150290604051600060405180830381858888f1935050505015801561100d573d6000803e3d6000fd5b506110df565b7ff1fb0272a0c5071948832056b653548b50099324be42a8c46a012cf7ae6e3019826001848154811061104957611048613249565b5b90600052602060002090600c020160030160009054906101000a900473ffffffffffffffffffffffffffffffffffffffff166001858154811061108f5761108e613249565b5b90600052602060002090600c0201600601600186815481106110b4576110b3613249565b5b90600052602060002090600c0201600a01546040516110d694939291906139dd565b60405180910390a15b5b5050565b600181815481106110f457600080fd5b90600052602060002090600c02016000915090508060000154908060010160009054906101000a900473ffffffffffffffffffffffffffffffffffffffff16908060020160009054906101000a900473ffffffffffffffffffffffffffffffffffffffff16908060030160009054906101000a900473ffffffffffffffffffffffffffffffffffffffff169080600401805461118f906132a7565b80601f01602080910402602001604051908101604052809291908181526020018280546111bb906132a7565b80156112085780601f106111dd57610100808354040283529160200191611208565b820191906000526020600020905b8154815290600101906020018083116111eb57829003601f168201915b50505050509080600501805461121d906132a7565b80601f0160208091040260200160405190810160405280929190818152602001828054611249906132a7565b80156112965780601f1061126b57610100808354040283529160200191611296565b820191906000526020600020905b81548152906001019060200180831161127957829003601f168201915b5050505050908060060180546112ab906132a7565b80601f01602080910402602001604051908101604052809291908181526020018280546112d7906132a7565b80156113245780601f106112f957610100808354040283529160200191611324565b820191906000526020600020905b81548152906001019060200180831161130757829003601f168201915b50505050509080600701549080600801549080600901549080600a01549080600b0160009054906101000a900460ff1690508c565b60008060009054906101000a900473ffffffffffffffffffffffffffffffffffffffff16905090565b60606001805480602002602001604051908101604052809291908181526020016000905b828210156116fe57838290600052602060002090600c020160405180610180016040529081600082015481526020016001820160009054906101000a900473ffffffffffffffffffffffffffffffffffffffff1673ffffffffffffffffffffffffffffffffffffffff1673ffffffffffffffffffffffffffffffffffffffff1681526020016002820160009054906101000a900473ffffffffffffffffffffffffffffffffffffffff1673ffffffffffffffffffffffffffffffffffffffff1673ffffffffffffffffffffffffffffffffffffffff1681526020016003820160009054906101000a900473ffffffffffffffffffffffffffffffffffffffff1673ffffffffffffffffffffffffffffffffffffffff1673ffffffffffffffffffffffffffffffffffffffff1681526020016004820180546114e6906132a7565b80601f0160208091040260200160405190810160405280929190818152602001828054611512906132a7565b801561155f5780601f106115345761010080835404028352916020019161155f565b820191906000526020600020905b81548152906001019060200180831161154257829003601f168201915b50505050508152602001600582018054611578906132a7565b80601f01602080910402602001604051908101604052809291908181526020018280546115a4906132a7565b80156115f15780601f106115c6576101008083540402835291602001916115f1565b820191906000526020600020905b8154815290600101906020018083116115d457829003601f168201915b5050505050815260200160068201805461160a906132a7565b80601f0160208091040260200160405190810160405280929190818152602001828054611636906132a7565b80156116835780601f1061165857610100808354040283529160200191611683565b820191906000526020600020905b81548152906001019060200180831161166657829003601f168201915b50505050508152602001600782015481526020016008820154815260200160098201548152602001600a8201548152602001600b820160009054906101000a900460ff1660038111156116d9576116d86129f3565b5b60038111156116eb576116ea6129f3565b5b81525050815260200190600101906113a6565b50505050905090565b6002602052816000526040600020818154811061172357600080fd5b90600052602060002001600091509150505481565b66034dd47fa420003411611781576040517f08c379a000000000000000000000000000000000000000000000000000000000815260040161177890613a9b565b60405180910390fd5b6000600180549050905060006040518061018001604052808381526020013373ffffffffffffffffffffffffffffffffffffffff168152602001600073ffffffffffffffffffffffffffffffffffffffff1681526020013373ffffffffffffffffffffffffffffffffffffffff16815260200185815260200184815260200160405180602001604052806000815250815260200134815260200166034dd47fa420003461182e9190613abb565b81526020014281526020016000815260200160006003811115611854576118536129f3565b5b815250905060018190806001815401808255809150506001900390600052602060002090600c02016000909190919091506000820151816000015560208201518160010160006101000a81548173ffffffffffffffffffffffffffffffffffffffff021916908373ffffffffffffffffffffffffffffffffffffffff16021790555060408201518160020160006101000a81548173ffffffffffffffffffffffffffffffffffffffff021916908373ffffffffffffffffffffffffffffffffffffffff16021790555060608201518160030160006101000a81548173ffffffffffffffffffffffffffffffffffffffff021916908373ffffffffffffffffffffffffffffffffffffffff160217905550608082015181600401908161197991906137b1565b5060a082015181600501908161198f91906137b1565b5060c08201518160060190816119a591906137b1565b5060e082015181600701556101008201518160080155610120820151816009015561014082015181600a015561016082015181600b0160006101000a81548160ff021916908360038111156119fd576119fc6129f3565b5b02179055505050600260003373ffffffffffffffffffffffffffffffffffffffff1673ffffffffffffffffffffffffffffffffffffffff168152602001908152602001600020829080600181540180825580915050600190039060005260206000200160009091909190915055611a72611359565b73ffffffffffffffffffffffffffffffffffffffff166108fc66034dd47fa420009081150290604051600060405180830381858888f19350505050158015611abe573d6000803e3d6000fd5b507fb0dbe2e299e34ddf17287956670f83f8023010cd8f30be461d12379d40447b0682604051611aee9190612832565b60405180910390a150505050565b60606000805b600180549050811015611ba85783604051602001611b20919061389a565b6040516020818303038152906040528051906020012060018281548110611b4a57611b49613249565b5b90600052602060002090600c0201600401604051602001611b6b9190613883565b6040516020818303038152906040528051906020012003611b95578180611b91906138b1565b9250505b8080611ba0906138b1565b915050611b02565b5060008167ffffffffffffffff811115611bc557611bc4612ba8565b5b604051908082528060200260200182016040528015611bfe57816020015b611beb612764565b815260200190600190039081611be35790505b5090506000805b60018054905081101561201c5785604051602001611c23919061389a565b6040516020818303038152906040528051906020012060018281548110611c4d57611c4c613249565b5b90600052602060002090600c0201600401604051602001611c6e9190613883565b60405160208183030381529060405280519060200120036120095760018181548110611c9d57611c9c613249565b5b90600052602060002090600c020160405180610180016040529081600082015481526020016001820160009054906101000a900473ffffffffffffffffffffffffffffffffffffffff1673ffffffffffffffffffffffffffffffffffffffff1673ffffffffffffffffffffffffffffffffffffffff1681526020016002820160009054906101000a900473ffffffffffffffffffffffffffffffffffffffff1673ffffffffffffffffffffffffffffffffffffffff1673ffffffffffffffffffffffffffffffffffffffff1681526020016003820160009054906101000a900473ffffffffffffffffffffffffffffffffffffffff1673ffffffffffffffffffffffffffffffffffffffff1673ffffffffffffffffffffffffffffffffffffffff168152602001600482018054611dd3906132a7565b80601f0160208091040260200160405190810160405280929190818152602001828054611dff906132a7565b8015611e4c5780601f10611e2157610100808354040283529160200191611e4c565b820191906000526020600020905b815481529060010190602001808311611e2f57829003601f168201915b50505050508152602001600582018054611e65906132a7565b80601f0160208091040260200160405190810160405280929190818152602001828054611e91906132a7565b8015611ede5780601f10611eb357610100808354040283529160200191611ede565b820191906000526020600020905b815481529060010190602001808311611ec157829003601f168201915b50505050508152602001600682018054611ef7906132a7565b80601f0160208091040260200160405190810160405280929190818152602001828054611f23906132a7565b8015611f705780601f10611f4557610100808354040283529160200191611f70565b820191906000526020600020905b815481529060010190602001808311611f5357829003601f168201915b50505050508152602001600782015481526020016008820154815260200160098201548152602001600a8201548152602001600b820160009054906101000a900460ff166003811115611fc657611fc56129f3565b5b6003811115611fd857611fd76129f3565b5b81525050838381518110611fef57611fee613249565b5b60200260200101819052508180612005906138b1565b9250505b8080612014906138b1565b915050611c05565b50819350505050919050565b66034dd47fa4200081565b6060600260008373ffffffffffffffffffffffffffffffffffffffff1673ffffffffffffffffffffffffffffffffffffffff1681526020019081526020016000208054806020026020016040519081016040528092919081815260200182805480156120be57602002820191906000526020600020905b8154815260200190600101908083116120aa575b50505050509050919050565b600060038111156120de576120dd6129f3565b5b600182815481106120f2576120f1613249565b5b90600052602060002090600c0201600b0160009054906101000a900460ff166003811115612123576121226129f3565b5b14612163576040517f08c379a000000000000000000000000000000000000000000000000000000000815260040161215a90613b3b565b60405180910390fd5b6001818154811061217757612176613249565b5b90600052602060002090600c02016007015434146121ca576040517f08c379a00000000000000000000000000000000000000000000000000000000081526004016121c190613448565b60405180910390fd5b33600182815481106121df576121de613249565b5b90600052602060002090600c020160020160006101000a81548173ffffffffffffffffffffffffffffffffffffffff021916908373ffffffffffffffffffffffffffffffffffffffff160217905550346001828154811061224357612242613249565b5b90600052602060002090600c020160080160008282546122639190613497565b92505081905550600180828154811061227f5761227e613249565b5b90600052602060002090600c0201600b0160006101000a81548160ff021916908360038111156122b2576122b16129f3565b5b0217905550600260003373ffffffffffffffffffffffffffffffffffffffff1673ffffffffffffffffffffffffffffffffffffffff1681526020019081526020016000208190806001815401808255809150506001900390600052602060002001600090919091909150557f8ea16fd26bf5a97624d8b6fb303928937b9b559c4627028620ecf8e221dd32e98160405161234c9190612832565b60405180910390a150565b3373ffffffffffffffffffffffffffffffffffffffff166001828154811061238257612381613249565b5b90600052602060002090600c020160010160009054906101000a900473ffffffffffffffffffffffffffffffffffffffff1673ffffffffffffffffffffffffffffffffffffffff161461240a576040517f08c379a000000000000000000000000000000000000000000000000000000000815260040161240190613bcd565b60405180910390fd5b6000600381111561241e5761241d6129f3565b5b6001828154811061243257612431613249565b5b90600052602060002090600c0201600b0160009054906101000a900460ff166003811115612463576124626129f3565b5b146124a3576040517f08c379a000000000000000000000000000000000000000000000000000000000815260040161249a90613c39565b60405180910390fd5b6003600182815481106124b9576124b8613249565b5b90600052602060002090600c0201600b0160006101000a81548160ff021916908360038111156124ec576124eb6129f3565b5b02179055503373ffffffffffffffffffffffffffffffffffffffff166108fc6001838154811061251f5761251e613249565b5b90600052602060002090600c0201600801549081150290604051600060405180830381858888f1935050505015801561255c573d6000803e3d6000fd5b507fe6869595d58c61aa991d00acb41ac260a2d3b5a40d58255f6aad94a14c2804a78160405161258c9190612832565b60405180910390a150565b61259f61261a565b600073ffffffffffffffffffffffffffffffffffffffff168173ffffffffffffffffffffffffffffffffffffffff160361260e576040517f08c379a000000000000000000000000000000000000000000000000000000000815260040161260590613ccb565b60405180910390fd5b61261781612698565b50565b61262261275c565b73ffffffffffffffffffffffffffffffffffffffff16612640611359565b73ffffffffffffffffffffffffffffffffffffffff1614612696576040517f08c379a000000000000000000000000000000000000000000000000000000000815260040161268d90613d37565b60405180910390fd5b565b60008060009054906101000a900473ffffffffffffffffffffffffffffffffffffffff169050816000806101000a81548173ffffffffffffffffffffffffffffffffffffffff021916908373ffffffffffffffffffffffffffffffffffffffff1602179055508173ffffffffffffffffffffffffffffffffffffffff168173ffffffffffffffffffffffffffffffffffffffff167f8be0079c531659141344cd1fd0a4f28419497f9722a3daafe3b4186f6b6457e060405160405180910390a35050565b600033905090565b60405180610180016040528060008152602001600073ffffffffffffffffffffffffffffffffffffffff168152602001600073ffffffffffffffffffffffffffffffffffffffff168152602001600073ffffffffffffffffffffffffffffffffffffffff1681526020016060815260200160608152602001606081526020016000815260200160008152602001600081526020016000815260200160006003811115612813576128126129f3565b5b81525090565b6000819050919050565b61282c81612819565b82525050565b60006020820190506128476000830184612823565b92915050565b6000604051905090565b600080fd5b600080fd5b600073ffffffffffffffffffffffffffffffffffffffff82169050919050565b600061288c82612861565b9050919050565b61289c81612881565b81146128a757600080fd5b50565b6000813590506128b981612893565b92915050565b6000602082840312156128d5576128d4612857565b5b60006128e3848285016128aa565b91505092915050565b6128f581612819565b811461290057600080fd5b50565b600081359050612912816128ec565b92915050565b60006020828403121561292e5761292d612857565b5b600061293c84828501612903565b91505092915050565b61294e81612819565b82525050565b61295d81612881565b82525050565b600081519050919050565b600082825260208201905092915050565b60005b8381101561299d578082015181840152602081019050612982565b60008484015250505050565b6000601f19601f8301169050919050565b60006129c582612963565b6129cf818561296e565b93506129df81856020860161297f565b6129e8816129a9565b840191505092915050565b7f4e487b7100000000000000000000000000000000000000000000000000000000600052602160045260246000fd5b60048110612a3357612a326129f3565b5b50565b6000819050612a4482612a22565b919050565b6000612a5482612a36565b9050919050565b612a6481612a49565b82525050565b600061018083016000830151612a836000860182612945565b506020830151612a966020860182612954565b506040830151612aa96040860182612954565b506060830151612abc6060860182612954565b5060808301518482036080860152612ad482826129ba565b91505060a083015184820360a0860152612aee82826129ba565b91505060c083015184820360c0860152612b0882826129ba565b91505060e0830151612b1d60e0860182612945565b50610100830151612b32610100860182612945565b50610120830151612b47610120860182612945565b50610140830151612b5c610140860182612945565b50610160830151612b71610160860182612a5b565b508091505092915050565b60006020820190508181036000830152612b968184612a6a565b905092915050565b600080fd5b600080fd5b7f4e487b7100000000000000000000000000000000000000000000000000000000600052604160045260246000fd5b612be0826129a9565b810181811067ffffffffffffffff82111715612bff57612bfe612ba8565b5b80604052505050565b6000612c1261284d565b9050612c1e8282612bd7565b919050565b600067ffffffffffffffff821115612c3e57612c3d612ba8565b5b612c47826129a9565b9050602081019050919050565b82818337600083830152505050565b6000612c76612c7184612c23565b612c08565b905082815260208101848484011115612c9257612c91612ba3565b5b612c9d848285612c54565b509392505050565b600082601f830112612cba57612cb9612b9e565b5b8135612cca848260208601612c63565b91505092915050565b60008060408385031215612cea57612ce9612857565b5b6000612cf885828601612903565b925050602083013567ffffffffffffffff811115612d1957612d1861285c565b5b612d2585828601612ca5565b9150509250929050565b612d3881612881565b82525050565b600082825260208201905092915050565b6000612d5a82612963565b612d648185612d3e565b9350612d7481856020860161297f565b612d7d816129a9565b840191505092915050565b612d9181612a49565b82525050565b600061018082019050612dad600083018f612823565b612dba602083018e612d2f565b612dc7604083018d612d2f565b612dd4606083018c612d2f565b8181036080830152612de6818b612d4f565b905081810360a0830152612dfa818a612d4f565b905081810360c0830152612e0e8189612d4f565b9050612e1d60e0830188612823565b612e2b610100830187612823565b612e39610120830186612823565b612e47610140830185612823565b612e55610160830184612d88565b9d9c50505050505050505050505050565b6000602082019050612e7b6000830184612d2f565b92915050565b600081519050919050565b600082825260208201905092915050565b6000819050602082019050919050565b600061018083016000830151612ec66000860182612945565b506020830151612ed96020860182612954565b506040830151612eec6040860182612954565b506060830151612eff6060860182612954565b5060808301518482036080860152612f1782826129ba565b91505060a083015184820360a0860152612f3182826129ba565b91505060c083015184820360c0860152612f4b82826129ba565b91505060e0830151612f6060e0860182612945565b50610100830151612f75610100860182612945565b50610120830151612f8a610120860182612945565b50610140830151612f9f610140860182612945565b50610160830151612fb4610160860182612a5b565b508091505092915050565b6000612fcb8383612ead565b905092915050565b6000602082019050919050565b6000612feb82612e81565b612ff58185612e8c565b93508360208202850161300785612e9d565b8060005b8581101561304357848403895281516130248582612fbf565b945061302f83612fd3565b925060208a0199505060018101905061300b565b50829750879550505050505092915050565b6000602082019050818103600083015261306f8184612fe0565b905092915050565b6000806040838503121561308e5761308d612857565b5b600061309c858286016128aa565b92505060206130ad85828601612903565b9150509250929050565b600080604083850312156130ce576130cd612857565b5b600083013567ffffffffffffffff8111156130ec576130eb61285c565b5b6130f885828601612ca5565b925050602083013567ffffffffffffffff8111156131195761311861285c565b5b61312585828601612ca5565b9150509250929050565b60006020828403121561314557613144612857565b5b600082013567ffffffffffffffff8111156131635761316261285c565b5b61316f84828501612ca5565b91505092915050565b600081519050919050565b600082825260208201905092915050565b6000819050602082019050919050565b60006131b08383612945565b60208301905092915050565b6000602082019050919050565b60006131d482613178565b6131de8185613183565b93506131e983613194565b8060005b8381101561321a57815161320188826131a4565b975061320c836131bc565b9250506001810190506131ed565b5085935050505092915050565b6000602082019050818103600083015261324181846131c9565b905092915050565b7f4e487b7100000000000000000000000000000000000000000000000000000000600052603260045260246000fd5b7f4e487b7100000000000000000000000000000000000000000000000000000000600052602260045260246000fd5b600060028204905060018216806132bf57607f821691505b6020821081036132d2576132d1613278565b5b50919050565b7f4475656c206d7573742062652061636365707465640000000000000000000000600082015250565b600061330e601583612d3e565b9150613319826132d8565b602082019050919050565b6000602082019050818103600083015261333d81613301565b9050919050565b7f4f6e6c79207468652063757272656e7420706c617965722063616e206d616b6560008201527f2061206d6f766500000000000000000000000000000000000000000000000000602082015250565b60006133a0602783612d3e565b91506133ab82613344565b604082019050919050565b600060208201905081810360008301526133cf81613393565b9050919050565b7f416d6f756e74206d75737420626520657175616c20746f20746865206368616c60008201527f6c656e6765722773206d6f766520616d6f756e74000000000000000000000000602082015250565b6000613432603483612d3e565b915061343d826133d6565b604082019050919050565b6000602082019050818103600083015261346181613425565b9050919050565b7f4e487b7100000000000000000000000000000000000000000000000000000000600052601160045260246000fd5b60006134a282612819565b91506134ad83612819565b92508282019050808211156134c5576134c4613468565b5b92915050565b600081905092915050565b60008190508160005260206000209050919050565b600081546134f8816132a7565b61350281866134cb565b9450600182166000811461351d576001811461353257613565565b60ff1983168652811515820286019350613565565b61353b856134d6565b60005b8381101561355d5781548189015260018201915060208101905061353e565b838801955050505b50505092915050565b7f2c00000000000000000000000000000000000000000000000000000000000000600082015250565b60006135a46001836134cb565b91506135af8261356e565b600182019050919050565b60006135c582612963565b6135cf81856134cb565b93506135df81856020860161297f565b80840191505092915050565b60006135f782856134eb565b915061360282613597565b915061360e82846135ba565b91508190509392505050565b60006020601f8301049050919050565b600082821b905092915050565b6000600883026136677fffffffffffffffffffffffffffffffffffffffffffffffffffffffffffffffff8261362a565b613671868361362a565b95508019841693508086168417925050509392505050565b6000819050919050565b60006136ae6136a96136a484612819565b613689565b612819565b9050919050565b6000819050919050565b6136c883613693565b6136dc6136d4826136b5565b848454613637565b825550505050565b600090565b6136f16136e4565b6136fc8184846136bf565b505050565b5b81811015613720576137156000826136e9565b600181019050613702565b5050565b601f82111561376557613736816134d6565b61373f8461361a565b8101602085101561374e578190505b61376261375a8561361a565b830182613701565b50505b505050565b600082821c905092915050565b60006137886000198460080261376a565b1980831691505092915050565b60006137a18383613777565b9150826002028217905092915050565b6137ba82612963565b67ffffffffffffffff8111156137d3576137d2612ba8565b5b6137dd82546132a7565b6137e8828285613724565b600060209050601f83116001811461381b5760008415613809578287015190505b6138138582613795565b86555061387b565b601f198416613829866134d6565b60005b828110156138515784890151825560018201915060208501945060208101905061382c565b8683101561386e578489015161386a601f891682613777565b8355505b6001600288020188555050505b505050505050565b600061388f82846134eb565b915081905092915050565b60006138a682846135ba565b915081905092915050565b60006138bc82612819565b91507fffffffffffffffffffffffffffffffffffffffffffffffffffffffffffffffff82036138ee576138ed613468565b5b600182019050919050565b7f4e487b7100000000000000000000000000000000000000000000000000000000600052601260045260246000fd5b600061393382612819565b915061393e83612819565b92508261394e5761394d6138f9565b5b828204905092915050565b60008154613966816132a7565b6139708186612d3e565b9450600182166000811461398b57600181146139a1576139d4565b60ff1983168652811515602002860193506139d4565b6139aa856134d6565b60005b838110156139cc578154818901526001820191506020810190506139ad565b808801955050505b50505092915050565b60006080820190506139f26000830187612823565b6139ff6020830186612d2f565b8181036040830152613a118185613959565b9050613a206060830184612823565b95945050505050565b7f416d6f756e74206d7573742062652067726561746572207468616e20302e303060008201527f3039332045544800000000000000000000000000000000000000000000000000602082015250565b6000613a85602783612d3e565b9150613a9082613a29565b604082019050919050565b60006020820190508181036000830152613ab481613a78565b9050919050565b6000613ac682612819565b9150613ad183612819565b9250828203905081811115613ae957613ae8613468565b5b92915050565b7f4475656c206d757374206e6f7420626520616363657074656420796574000000600082015250565b6000613b25601d83612d3e565b9150613b3082613aef565b602082019050919050565b60006020820190508181036000830152613b5481613b18565b9050919050565b7f4f6e6c7920746865206368616c6c656e6765722063616e2063616e63656c207460008201527f6865206475656c00000000000000000000000000000000000000000000000000602082015250565b6000613bb7602783612d3e565b9150613bc282613b5b565b604082019050919050565b60006020820190508181036000830152613be681613baa565b9050919050565b7f4475656c206d757374206265206e6f7420626520616363657074656420796574600082015250565b6000613c23602083612d3e565b9150613c2e82613bed565b602082019050919050565b60006020820190508181036000830152613c5281613c16565b9050919050565b7f4f776e61626c653a206e6577206f776e657220697320746865207a65726f206160008201527f6464726573730000000000000000000000000000000000000000000000000000602082015250565b6000613cb5602683612d3e565b9150613cc082613c59565b604082019050919050565b60006020820190508181036000830152613ce481613ca8565b9050919050565b7f4f776e61626c653a2063616c6c6572206973206e6f7420746865206f776e6572600082015250565b6000613d21602083612d3e565b9150613d2c82613ceb565b602082019050919050565b60006020820190508181036000830152613d5081613d14565b905091905056fea2646970667358221220cbb56140b59c138131620e7b27e477ad05f4fb1551efad4838365451f81063fc64736f6c63430008130033",
  "linkReferences": {},
  "deployedLinkReferences": {}
}