{
  "_format": "hh-sol-artifact-1",
  "contractName": "Duels",
  "sourceName": "contracts/Duels.sol",
  "abi": [
    {
      "anonymous": false,
      "inputs": [
        {
          "indexed": false,
          "internalType": "uint256",
          "name": "id",
          "type": "uint256"
        }
      ],
      "name": "DuelAccepted",
      "type": "event"
    },
    {
      "anonymous": false,
      "inputs": [
        {
          "indexed": false,
          "internalType": "uint256",
          "name": "id",
          "type": "uint256"
        }
      ],
      "name": "DuelCancelled",
      "type": "event"
    },
    {
      "anonymous": false,
      "inputs": [
        {
          "indexed": false,
          "internalType": "uint256",
          "name": "id",
          "type": "uint256"
        }
      ],
      "name": "DuelCreated",
      "type": "event"
    },
    {
      "anonymous": false,
      "inputs": [
        {
          "indexed": false,
          "internalType": "uint256",
          "name": "id",
          "type": "uint256"
        },
        {
          "indexed": false,
          "internalType": "address",
          "name": "winner",
          "type": "address"
        }
      ],
      "name": "DuelFinished",
      "type": "event"
    },
    {
      "anonymous": false,
      "inputs": [
        {
          "indexed": false,
          "internalType": "uint256",
          "name": "id",
          "type": "uint256"
        },
        {
          "indexed": false,
          "internalType": "address",
          "name": "currentPlayer",
          "type": "address"
        }
      ],
      "name": "DuelMove",
      "type": "event"
    },
    {
      "anonymous": false,
      "inputs": [
        {
          "indexed": true,
          "internalType": "address",
          "name": "previousOwner",
          "type": "address"
        },
        {
          "indexed": true,
          "internalType": "address",
          "name": "newOwner",
          "type": "address"
        }
      ],
      "name": "OwnershipTransferred",
      "type": "event"
    },
    {
      "inputs": [],
      "name": "FEE",
      "outputs": [
        {
          "internalType": "uint256",
          "name": "",
          "type": "uint256"
        }
      ],
      "stateMutability": "view",
      "type": "function"
    },
    {
      "inputs": [
        {
          "internalType": "uint256",
          "name": "_duelId",
          "type": "uint256"
        }
      ],
      "name": "acceptDuel",
      "outputs": [],
      "stateMutability": "payable",
      "type": "function"
    },
    {
      "inputs": [
        {
          "internalType": "uint256",
          "name": "_duelId",
          "type": "uint256"
        }
      ],
      "name": "cancelDuel",
      "outputs": [],
      "stateMutability": "nonpayable",
      "type": "function"
    },
    {
      "inputs": [
        {
          "internalType": "string",
          "name": "_email",
          "type": "string"
        },
        {
          "internalType": "string",
          "name": "_targetWord",
          "type": "string"
        }
      ],
      "name": "createDuel",
      "outputs": [],
      "stateMutability": "payable",
      "type": "function"
    },
    {
      "inputs": [
        {
          "internalType": "uint256",
          "name": "",
          "type": "uint256"
        }
      ],
      "name": "duels",
      "outputs": [
        {
          "internalType": "uint256",
          "name": "id",
          "type": "uint256"
        },
        {
          "internalType": "address",
          "name": "challenger",
          "type": "address"
        },
        {
          "internalType": "address",
          "name": "opponent",
          "type": "address"
        },
        {
          "internalType": "string",
          "name": "email",
          "type": "string"
        },
        {
          "internalType": "string",
          "name": "targetWord",
          "type": "string"
        },
        {
          "internalType": "address",
          "name": "currentPlayer",
          "type": "address"
        },
        {
          "internalType": "string",
          "name": "words",
          "type": "string"
        },
        {
          "internalType": "uint256",
          "name": "moveAmount",
          "type": "uint256"
        },
        {
          "internalType": "uint256",
          "name": "potAmount",
          "type": "uint256"
        },
        {
          "internalType": "uint256",
          "name": "createdAt",
          "type": "uint256"
        },
        {
          "internalType": "uint256",
          "name": "finishedAt",
          "type": "uint256"
        },
        {
          "internalType": "enum Duels.DuelState",
          "name": "state",
          "type": "uint8"
        }
      ],
      "stateMutability": "view",
      "type": "function"
    },
    {
      "inputs": [],
      "name": "getBalance",
      "outputs": [
        {
          "internalType": "uint256",
          "name": "",
          "type": "uint256"
        }
      ],
      "stateMutability": "view",
      "type": "function"
    },
    {
      "inputs": [
        {
          "internalType": "uint256",
          "name": "_duelId",
          "type": "uint256"
        }
      ],
      "name": "getDuel",
      "outputs": [
        {
          "components": [
            {
              "internalType": "uint256",
              "name": "id",
              "type": "uint256"
            },
            {
              "internalType": "address",
              "name": "challenger",
              "type": "address"
            },
            {
              "internalType": "address",
              "name": "opponent",
              "type": "address"
            },
            {
              "internalType": "string",
              "name": "email",
              "type": "string"
            },
            {
              "internalType": "string",
              "name": "targetWord",
              "type": "string"
            },
            {
              "internalType": "address",
              "name": "currentPlayer",
              "type": "address"
            },
            {
              "internalType": "string",
              "name": "words",
              "type": "string"
            },
            {
              "internalType": "uint256",
              "name": "moveAmount",
              "type": "uint256"
            },
            {
              "internalType": "uint256",
              "name": "potAmount",
              "type": "uint256"
            },
            {
              "internalType": "uint256",
              "name": "createdAt",
              "type": "uint256"
            },
            {
              "internalType": "uint256",
              "name": "finishedAt",
              "type": "uint256"
            },
            {
              "internalType": "enum Duels.DuelState",
              "name": "state",
              "type": "uint8"
            }
          ],
          "internalType": "struct Duels.Duel",
          "name": "",
          "type": "tuple"
        }
      ],
      "stateMutability": "view",
      "type": "function"
    },
    {
      "inputs": [],
      "name": "getDuels",
      "outputs": [
        {
          "components": [
            {
              "internalType": "uint256",
              "name": "id",
              "type": "uint256"
            },
            {
              "internalType": "address",
              "name": "challenger",
              "type": "address"
            },
            {
              "internalType": "address",
              "name": "opponent",
              "type": "address"
            },
            {
              "internalType": "string",
              "name": "email",
              "type": "string"
            },
            {
              "internalType": "string",
              "name": "targetWord",
              "type": "string"
            },
            {
              "internalType": "address",
              "name": "currentPlayer",
              "type": "address"
            },
            {
              "internalType": "string",
              "name": "words",
              "type": "string"
            },
            {
              "internalType": "uint256",
              "name": "moveAmount",
              "type": "uint256"
            },
            {
              "internalType": "uint256",
              "name": "potAmount",
              "type": "uint256"
            },
            {
              "internalType": "uint256",
              "name": "createdAt",
              "type": "uint256"
            },
            {
              "internalType": "uint256",
              "name": "finishedAt",
              "type": "uint256"
            },
            {
              "internalType": "enum Duels.DuelState",
              "name": "state",
              "type": "uint8"
            }
          ],
          "internalType": "struct Duels.Duel[]",
          "name": "",
          "type": "tuple[]"
        }
      ],
      "stateMutability": "view",
      "type": "function"
    },
    {
      "inputs": [],
      "name": "getDuelsCount",
      "outputs": [
        {
          "internalType": "uint256",
          "name": "",
          "type": "uint256"
        }
      ],
      "stateMutability": "view",
      "type": "function"
    },
    {
      "inputs": [
        {
          "internalType": "address",
          "name": "_wallet",
          "type": "address"
        }
      ],
      "name": "getMyDuels",
      "outputs": [
        {
          "internalType": "uint256[]",
          "name": "",
          "type": "uint256[]"
        }
      ],
      "stateMutability": "view",
      "type": "function"
    },
    {
      "inputs": [
        {
          "internalType": "address",
          "name": "_wallet",
          "type": "address"
        }
      ],
      "name": "getMyDuelsCount",
      "outputs": [
        {
          "internalType": "uint256",
          "name": "",
          "type": "uint256"
        }
      ],
      "stateMutability": "view",
      "type": "function"
    },
    {
      "inputs": [
        {
          "internalType": "uint256",
          "name": "_duelId",
          "type": "uint256"
        },
        {
          "internalType": "string",
          "name": "_word",
          "type": "string"
        }
      ],
      "name": "makeMove",
      "outputs": [],
      "stateMutability": "nonpayable",
      "type": "function"
    },
    {
      "inputs": [
        {
          "internalType": "address",
          "name": "",
          "type": "address"
        },
        {
          "internalType": "uint256",
          "name": "",
          "type": "uint256"
        }
      ],
      "name": "myDuels",
      "outputs": [
        {
          "internalType": "uint256",
          "name": "",
          "type": "uint256"
        }
      ],
      "stateMutability": "view",
      "type": "function"
    },
    {
      "inputs": [],
      "name": "owner",
      "outputs": [
        {
          "internalType": "address",
          "name": "",
          "type": "address"
        }
      ],
      "stateMutability": "view",
      "type": "function"
    },
    {
      "inputs": [],
      "name": "renounceOwnership",
      "outputs": [],
      "stateMutability": "nonpayable",
      "type": "function"
    },
    {
      "inputs": [
        {
          "internalType": "address",
          "name": "newOwner",
          "type": "address"
        }
      ],
      "name": "transferOwnership",
      "outputs": [],
      "stateMutability": "nonpayable",
      "type": "function"
    },
    {
      "inputs": [],
      "name": "withdraw",
      "outputs": [],
      "stateMutability": "nonpayable",
      "type": "function"
    },
    {
      "inputs": [
        {
          "internalType": "uint256",
          "name": "_amount",
          "type": "uint256"
        }
      ],
      "name": "withdrawPortion",
      "outputs": [],
      "stateMutability": "nonpayable",
      "type": "function"
    }
  ],
  "bytecode": "0x60806040523480156200001157600080fd5b5062000032620000266200003860201b60201c565b6200004060201b60201c565b62000104565b600033905090565b60008060009054906101000a900473ffffffffffffffffffffffffffffffffffffffff169050816000806101000a81548173ffffffffffffffffffffffffffffffffffffffff021916908373ffffffffffffffffffffffffffffffffffffffff1602179055508173ffffffffffffffffffffffffffffffffffffffff168173ffffffffffffffffffffffffffffffffffffffff167f8be0079c531659141344cd1fd0a4f28419497f9722a3daafe3b4186f6b6457e060405160405180910390a35050565b61349a80620001146000396000f3fe6080604052600436106101095760003560e01c80638da5cb5b11610095578063c57981b511610064578063c57981b514610355578063c7081d3d14610380578063c874b1c2146103bd578063d9c312f4146103d9578063f2fde38b1461040257610109565b80638da5cb5b146102a6578063a0c9ed47146102d1578063afce75d4146102fc578063b1cf42d81461033957610109565b80636107814e116100dc5780636107814e146101ca578063715018a6146101f55780637d20e9271461020c578063859a62d01461023557806386c344011461027d57610109565b806312065fe01461010e5780631d9e39d1146101395780633ccfd60b14610176578063565e614f1461018d575b600080fd5b34801561011a57600080fd5b5061012361042b565b60405161013091906120fd565b60405180910390f35b34801561014557600080fd5b50610160600480360381019061015b919061218a565b610433565b60405161016d91906120fd565b60405180910390f35b34801561018257600080fd5b5061018b61047f565b005b34801561019957600080fd5b506101b460048036038101906101af91906121e3565b6104d0565b6040516101c19190612447565b60405180910390f35b3480156101d657600080fd5b506101df610832565b6040516101ec91906120fd565b60405180910390f35b34801561020157600080fd5b5061020a61083f565b005b34801561021857600080fd5b50610233600480360381019061022e919061259e565b610853565b005b34801561024157600080fd5b5061025c600480360381019061025791906121e3565b610ed2565b6040516102749c9b9a99989796959493929190612662565b60405180910390f35b34801561028957600080fd5b506102a4600480360381019061029f91906121e3565b611147565b005b3480156102b257600080fd5b506102bb611199565b6040516102c89190612731565b60405180910390f35b3480156102dd57600080fd5b506102e66111c2565b6040516102f39190612920565b60405180910390f35b34801561030857600080fd5b50610323600480360381019061031e9190612942565b611547565b60405161033091906120fd565b60405180910390f35b610353600480360381019061034e9190612982565b611578565b005b34801561036157600080fd5b5061036a6118f3565b60405161037791906120fd565b60405180910390f35b34801561038c57600080fd5b506103a760048036038101906103a2919061218a565b6118fe565b6040516103b49190612aa9565b60405180910390f35b6103d760048036038101906103d291906121e3565b611995565b005b3480156103e557600080fd5b5061040060048036038101906103fb91906121e3565b611c22565b005b34801561040e57600080fd5b506104296004803603810190610424919061218a565b611e62565b005b600047905090565b6000600260008373ffffffffffffffffffffffffffffffffffffffff1673ffffffffffffffffffffffffffffffffffffffff168152602001908152602001600020805490509050919050565b610487611ee5565b3373ffffffffffffffffffffffffffffffffffffffff166108fc479081150290604051600060405180830381858888f193505050501580156104cd573d6000803e3d6000fd5b50565b6104d861202f565b600182815481106104ec576104eb612acb565b5b90600052602060002090600c020160405180610180016040529081600082015481526020016001820160009054906101000a900473ffffffffffffffffffffffffffffffffffffffff1673ffffffffffffffffffffffffffffffffffffffff1673ffffffffffffffffffffffffffffffffffffffff1681526020016002820160009054906101000a900473ffffffffffffffffffffffffffffffffffffffff1673ffffffffffffffffffffffffffffffffffffffff1673ffffffffffffffffffffffffffffffffffffffff1681526020016003820180546105cc90612b29565b80601f01602080910402602001604051908101604052809291908181526020018280546105f890612b29565b80156106455780601f1061061a57610100808354040283529160200191610645565b820191906000526020600020905b81548152906001019060200180831161062857829003601f168201915b5050505050815260200160048201805461065e90612b29565b80601f016020809104026020016040519081016040528092919081815260200182805461068a90612b29565b80156106d75780601f106106ac576101008083540402835291602001916106d7565b820191906000526020600020905b8154815290600101906020018083116106ba57829003601f168201915b505050505081526020016005820160009054906101000a900473ffffffffffffffffffffffffffffffffffffffff1673ffffffffffffffffffffffffffffffffffffffff1673ffffffffffffffffffffffffffffffffffffffff16815260200160068201805461074690612b29565b80601f016020809104026020016040519081016040528092919081815260200182805461077290612b29565b80156107bf5780601f10610794576101008083540402835291602001916107bf565b820191906000526020600020905b8154815290600101906020018083116107a257829003601f168201915b50505050508152602001600782015481526020016008820154815260200160098201548152602001600a8201548152602001600b820160009054906101000a900460ff166003811115610815576108146122be565b5b6003811115610827576108266122be565b5b815250509050919050565b6000600180549050905090565b610847611ee5565b6108516000611f63565b565b60016003811115610867576108666122be565b5b6001838154811061087b5761087a612acb565b5b90600052602060002090600c0201600b0160009054906101000a900460ff1660038111156108ac576108ab6122be565b5b146108ec576040517f08c379a00000000000000000000000000000000000000000000000000000000081526004016108e390612ba6565b60405180910390fd5b3373ffffffffffffffffffffffffffffffffffffffff166001838154811061091757610916612acb565b5b90600052602060002090600c020160050160009054906101000a900473ffffffffffffffffffffffffffffffffffffffff1673ffffffffffffffffffffffffffffffffffffffff161461099f576040517f08c379a000000000000000000000000000000000000000000000000000000000815260040161099690612c38565b60405180910390fd5b600182815481106109b3576109b2612acb565b5b90600052602060002090600c02016004016040516020016109d49190612cfb565b60405160208183030381529060405280519060200120816040516020016109fb9190612d43565b6040516020818303038152906040528051906020012003610bc257600260018381548110610a2c57610a2b612acb565b5b90600052602060002090600c0201600b0160006101000a81548160ff02191690836003811115610a5f57610a5e6122be565b5b02179055504260018381548110610a7957610a78612acb565b5b90600052602060002090600c0201600a018190555060018281548110610aa257610aa1612acb565b5b90600052602060002090600c020160050160009054906101000a900473ffffffffffffffffffffffffffffffffffffffff1673ffffffffffffffffffffffffffffffffffffffff166108fc60018481548110610b0157610b00612acb565b5b90600052602060002090600c0201600801549081150290604051600060405180830381858888f19350505050158015610b3e573d6000803e3d6000fd5b507f5556fc35d5e8685baaff99a10feb6d230a017ba150ebd158c7529e31dc5ba3938260018481548110610b7557610b74612acb565b5b90600052602060002090600c020160050160009054906101000a900473ffffffffffffffffffffffffffffffffffffffff16604051610bb5929190612d5a565b60405180910390a1610ece565b60018281548110610bd657610bd5612acb565b5b90600052602060002090600c020160060181604051602001610bf9929190612dcf565b60405160208183030381529060405260018381548110610c1c57610c1b612acb565b5b90600052602060002090600c02016006019081610c399190612f95565b5060018281548110610c4e57610c4d612acb565b5b90600052602060002090600c020160010160009054906101000a900473ffffffffffffffffffffffffffffffffffffffff1673ffffffffffffffffffffffffffffffffffffffff1660018381548110610caa57610ca9612acb565b5b90600052602060002090600c020160050160009054906101000a900473ffffffffffffffffffffffffffffffffffffffff1673ffffffffffffffffffffffffffffffffffffffff1603610da55760018281548110610d0b57610d0a612acb565b5b90600052602060002090600c020160020160009054906101000a900473ffffffffffffffffffffffffffffffffffffffff1660018381548110610d5157610d50612acb565b5b90600052602060002090600c020160050160006101000a81548173ffffffffffffffffffffffffffffffffffffffff021916908373ffffffffffffffffffffffffffffffffffffffff160217905550610e4f565b60018281548110610db957610db8612acb565b5b90600052602060002090600c020160010160009054906101000a900473ffffffffffffffffffffffffffffffffffffffff1660018381548110610dff57610dfe612acb565b5b90600052602060002090600c020160050160006101000a81548173ffffffffffffffffffffffffffffffffffffffff021916908373ffffffffffffffffffffffffffffffffffffffff1602179055505b7fbd07e81f1cd8969d7a97af1616e9b9044e52f7b0a22830a20f4be0c99f69b6c68260018481548110610e8557610e84612acb565b5b90600052602060002090600c020160050160009054906101000a900473ffffffffffffffffffffffffffffffffffffffff16604051610ec5929190612d5a565b60405180910390a15b5050565b60018181548110610ee257600080fd5b90600052602060002090600c02016000915090508060000154908060010160009054906101000a900473ffffffffffffffffffffffffffffffffffffffff16908060020160009054906101000a900473ffffffffffffffffffffffffffffffffffffffff1690806003018054610f5790612b29565b80601f0160208091040260200160405190810160405280929190818152602001828054610f8390612b29565b8015610fd05780601f10610fa557610100808354040283529160200191610fd0565b820191906000526020600020905b815481529060010190602001808311610fb357829003601f168201915b505050505090806004018054610fe590612b29565b80601f016020809104026020016040519081016040528092919081815260200182805461101190612b29565b801561105e5780601f106110335761010080835404028352916020019161105e565b820191906000526020600020905b81548152906001019060200180831161104157829003601f168201915b5050505050908060050160009054906101000a900473ffffffffffffffffffffffffffffffffffffffff169080600601805461109990612b29565b80601f01602080910402602001604051908101604052809291908181526020018280546110c590612b29565b80156111125780601f106110e757610100808354040283529160200191611112565b820191906000526020600020905b8154815290600101906020018083116110f557829003601f168201915b50505050509080600701549080600801549080600901549080600a01549080600b0160009054906101000a900460ff1690508c565b61114f611ee5565b3373ffffffffffffffffffffffffffffffffffffffff166108fc829081150290604051600060405180830381858888f19350505050158015611195573d6000803e3d6000fd5b5050565b60008060009054906101000a900473ffffffffffffffffffffffffffffffffffffffff16905090565b60606001805480602002602001604051908101604052809291908181526020016000905b8282101561153e57838290600052602060002090600c020160405180610180016040529081600082015481526020016001820160009054906101000a900473ffffffffffffffffffffffffffffffffffffffff1673ffffffffffffffffffffffffffffffffffffffff1673ffffffffffffffffffffffffffffffffffffffff1681526020016002820160009054906101000a900473ffffffffffffffffffffffffffffffffffffffff1673ffffffffffffffffffffffffffffffffffffffff1673ffffffffffffffffffffffffffffffffffffffff1681526020016003820180546112d090612b29565b80601f01602080910402602001604051908101604052809291908181526020018280546112fc90612b29565b80156113495780601f1061131e57610100808354040283529160200191611349565b820191906000526020600020905b81548152906001019060200180831161132c57829003601f168201915b5050505050815260200160048201805461136290612b29565b80601f016020809104026020016040519081016040528092919081815260200182805461138e90612b29565b80156113db5780601f106113b0576101008083540402835291602001916113db565b820191906000526020600020905b8154815290600101906020018083116113be57829003601f168201915b505050505081526020016005820160009054906101000a900473ffffffffffffffffffffffffffffffffffffffff1673ffffffffffffffffffffffffffffffffffffffff1673ffffffffffffffffffffffffffffffffffffffff16815260200160068201805461144a90612b29565b80601f016020809104026020016040519081016040528092919081815260200182805461147690612b29565b80156114c35780601f10611498576101008083540402835291602001916114c3565b820191906000526020600020905b8154815290600101906020018083116114a657829003601f168201915b50505050508152602001600782015481526020016008820154815260200160098201548152602001600a8201548152602001600b820160009054906101000a900460ff166003811115611519576115186122be565b5b600381111561152b5761152a6122be565b5b81525050815260200190600101906111e6565b50505050905090565b6002602052816000526040600020818154811061156357600080fd5b90600052602060002001600091509150505481565b600034116115bb576040517f08c379a00000000000000000000000000000000000000000000000000000000081526004016115b2906130b3565b60405180910390fd5b6000600180549050905060006040518061018001604052808381526020013373ffffffffffffffffffffffffffffffffffffffff168152602001600073ffffffffffffffffffffffffffffffffffffffff1681526020018581526020018481526020013373ffffffffffffffffffffffffffffffffffffffff16815260200160405180602001604052806000815250815260200166034dd47fa42000346116629190613102565b815260200166034dd47fa420003461167a9190613102565b815260200142815260200160008152602001600060038111156116a05761169f6122be565b5b815250905060018190806001815401808255809150506001900390600052602060002090600c02016000909190919091506000820151816000015560208201518160010160006101000a81548173ffffffffffffffffffffffffffffffffffffffff021916908373ffffffffffffffffffffffffffffffffffffffff16021790555060408201518160020160006101000a81548173ffffffffffffffffffffffffffffffffffffffff021916908373ffffffffffffffffffffffffffffffffffffffff160217905550606082015181600301908161177e9190612f95565b5060808201518160040190816117949190612f95565b5060a08201518160050160006101000a81548173ffffffffffffffffffffffffffffffffffffffff021916908373ffffffffffffffffffffffffffffffffffffffff16021790555060c08201518160060190816117f19190612f95565b5060e082015181600701556101008201518160080155610120820151816009015561014082015181600a015561016082015181600b0160006101000a81548160ff02191690836003811115611849576118486122be565b5b02179055505050600260003373ffffffffffffffffffffffffffffffffffffffff1673ffffffffffffffffffffffffffffffffffffffff1681526020019081526020016000208290806001815401808255809150506001900390600052602060002001600090919091909150557fb0dbe2e299e34ddf17287956670f83f8023010cd8f30be461d12379d40447b06826040516118e591906120fd565b60405180910390a150505050565b66034dd47fa4200081565b6060600260008373ffffffffffffffffffffffffffffffffffffffff1673ffffffffffffffffffffffffffffffffffffffff16815260200190815260200160002080548060200260200160405190810160405280929190818152602001828054801561198957602002820191906000526020600020905b815481526020019060010190808311611975575b50505050509050919050565b600060038111156119a9576119a86122be565b5b600182815481106119bd576119bc612acb565b5b90600052602060002090600c0201600b0160009054906101000a900460ff1660038111156119ee576119ed6122be565b5b14611a2e576040517f08c379a0000000000000000000000000000000000000000000000000000000008152600401611a2590613182565b60405180910390fd5b60018181548110611a4257611a41612acb565b5b90600052602060002090600c0201600701543414611a95576040517f08c379a0000000000000000000000000000000000000000000000000000000008152600401611a8c90613214565b60405180910390fd5b3360018281548110611aaa57611aa9612acb565b5b90600052602060002090600c020160020160006101000a81548173ffffffffffffffffffffffffffffffffffffffff021916908373ffffffffffffffffffffffffffffffffffffffff1602179055503460018281548110611b0e57611b0d612acb565b5b90600052602060002090600c02016008016000828254611b2e9190613234565b925050819055506001808281548110611b4a57611b49612acb565b5b90600052602060002090600c0201600b0160006101000a81548160ff02191690836003811115611b7d57611b7c6122be565b5b0217905550600260003373ffffffffffffffffffffffffffffffffffffffff1673ffffffffffffffffffffffffffffffffffffffff1681526020019081526020016000208190806001815401808255809150506001900390600052602060002001600090919091909150557f8ea16fd26bf5a97624d8b6fb303928937b9b559c4627028620ecf8e221dd32e981604051611c1791906120fd565b60405180910390a150565b3373ffffffffffffffffffffffffffffffffffffffff1660018281548110611c4d57611c4c612acb565b5b90600052602060002090600c020160010160009054906101000a900473ffffffffffffffffffffffffffffffffffffffff1673ffffffffffffffffffffffffffffffffffffffff1614611cd5576040517f08c379a0000000000000000000000000000000000000000000000000000000008152600401611ccc906132da565b60405180910390fd5b60006003811115611ce957611ce86122be565b5b60018281548110611cfd57611cfc612acb565b5b90600052602060002090600c0201600b0160009054906101000a900460ff166003811115611d2e57611d2d6122be565b5b14611d6e576040517f08c379a0000000000000000000000000000000000000000000000000000000008152600401611d6590613346565b60405180910390fd5b600360018281548110611d8457611d83612acb565b5b90600052602060002090600c0201600b0160006101000a81548160ff02191690836003811115611db757611db66122be565b5b02179055503373ffffffffffffffffffffffffffffffffffffffff166108fc60018381548110611dea57611de9612acb565b5b90600052602060002090600c0201600801549081150290604051600060405180830381858888f19350505050158015611e27573d6000803e3d6000fd5b507fe6869595d58c61aa991d00acb41ac260a2d3b5a40d58255f6aad94a14c2804a781604051611e5791906120fd565b60405180910390a150565b611e6a611ee5565b600073ffffffffffffffffffffffffffffffffffffffff168173ffffffffffffffffffffffffffffffffffffffff1603611ed9576040517f08c379a0000000000000000000000000000000000000000000000000000000008152600401611ed0906133d8565b60405180910390fd5b611ee281611f63565b50565b611eed612027565b73ffffffffffffffffffffffffffffffffffffffff16611f0b611199565b73ffffffffffffffffffffffffffffffffffffffff1614611f61576040517f08c379a0000000000000000000000000000000000000000000000000000000008152600401611f5890613444565b60405180910390fd5b565b60008060009054906101000a900473ffffffffffffffffffffffffffffffffffffffff169050816000806101000a81548173ffffffffffffffffffffffffffffffffffffffff021916908373ffffffffffffffffffffffffffffffffffffffff1602179055508173ffffffffffffffffffffffffffffffffffffffff168173ffffffffffffffffffffffffffffffffffffffff167f8be0079c531659141344cd1fd0a4f28419497f9722a3daafe3b4186f6b6457e060405160405180910390a35050565b600033905090565b60405180610180016040528060008152602001600073ffffffffffffffffffffffffffffffffffffffff168152602001600073ffffffffffffffffffffffffffffffffffffffff1681526020016060815260200160608152602001600073ffffffffffffffffffffffffffffffffffffffff1681526020016060815260200160008152602001600081526020016000815260200160008152602001600060038111156120de576120dd6122be565b5b81525090565b6000819050919050565b6120f7816120e4565b82525050565b600060208201905061211260008301846120ee565b92915050565b6000604051905090565b600080fd5b600080fd5b600073ffffffffffffffffffffffffffffffffffffffff82169050919050565b60006121578261212c565b9050919050565b6121678161214c565b811461217257600080fd5b50565b6000813590506121848161215e565b92915050565b6000602082840312156121a05761219f612122565b5b60006121ae84828501612175565b91505092915050565b6121c0816120e4565b81146121cb57600080fd5b50565b6000813590506121dd816121b7565b92915050565b6000602082840312156121f9576121f8612122565b5b6000612207848285016121ce565b91505092915050565b612219816120e4565b82525050565b6122288161214c565b82525050565b600081519050919050565b600082825260208201905092915050565b60005b8381101561226857808201518184015260208101905061224d565b60008484015250505050565b6000601f19601f8301169050919050565b60006122908261222e565b61229a8185612239565b93506122aa81856020860161224a565b6122b381612274565b840191505092915050565b7f4e487b7100000000000000000000000000000000000000000000000000000000600052602160045260246000fd5b600481106122fe576122fd6122be565b5b50565b600081905061230f826122ed565b919050565b600061231f82612301565b9050919050565b61232f81612314565b82525050565b60006101808301600083015161234e6000860182612210565b506020830151612361602086018261221f565b506040830151612374604086018261221f565b506060830151848203606086015261238c8282612285565b915050608083015184820360808601526123a68282612285565b91505060a08301516123bb60a086018261221f565b5060c083015184820360c08601526123d38282612285565b91505060e08301516123e860e0860182612210565b506101008301516123fd610100860182612210565b50610120830151612412610120860182612210565b50610140830151612427610140860182612210565b5061016083015161243c610160860182612326565b508091505092915050565b600060208201905081810360008301526124618184612335565b905092915050565b600080fd5b600080fd5b7f4e487b7100000000000000000000000000000000000000000000000000000000600052604160045260246000fd5b6124ab82612274565b810181811067ffffffffffffffff821117156124ca576124c9612473565b5b80604052505050565b60006124dd612118565b90506124e982826124a2565b919050565b600067ffffffffffffffff82111561250957612508612473565b5b61251282612274565b9050602081019050919050565b82818337600083830152505050565b600061254161253c846124ee565b6124d3565b90508281526020810184848401111561255d5761255c61246e565b5b61256884828561251f565b509392505050565b600082601f83011261258557612584612469565b5b813561259584826020860161252e565b91505092915050565b600080604083850312156125b5576125b4612122565b5b60006125c3858286016121ce565b925050602083013567ffffffffffffffff8111156125e4576125e3612127565b5b6125f085828601612570565b9150509250929050565b6126038161214c565b82525050565b600082825260208201905092915050565b60006126258261222e565b61262f8185612609565b935061263f81856020860161224a565b61264881612274565b840191505092915050565b61265c81612314565b82525050565b600061018082019050612678600083018f6120ee565b612685602083018e6125fa565b612692604083018d6125fa565b81810360608301526126a4818c61261a565b905081810360808301526126b8818b61261a565b90506126c760a083018a6125fa565b81810360c08301526126d9818961261a565b90506126e860e08301886120ee565b6126f66101008301876120ee565b6127046101208301866120ee565b6127126101408301856120ee565b612720610160830184612653565b9d9c50505050505050505050505050565b600060208201905061274660008301846125fa565b92915050565b600081519050919050565b600082825260208201905092915050565b6000819050602082019050919050565b6000610180830160008301516127916000860182612210565b5060208301516127a4602086018261221f565b5060408301516127b7604086018261221f565b50606083015184820360608601526127cf8282612285565b915050608083015184820360808601526127e98282612285565b91505060a08301516127fe60a086018261221f565b5060c083015184820360c08601526128168282612285565b91505060e083015161282b60e0860182612210565b50610100830151612840610100860182612210565b50610120830151612855610120860182612210565b5061014083015161286a610140860182612210565b5061016083015161287f610160860182612326565b508091505092915050565b60006128968383612778565b905092915050565b6000602082019050919050565b60006128b68261274c565b6128c08185612757565b9350836020820285016128d285612768565b8060005b8581101561290e57848403895281516128ef858261288a565b94506128fa8361289e565b925060208a019950506001810190506128d6565b50829750879550505050505092915050565b6000602082019050818103600083015261293a81846128ab565b905092915050565b6000806040838503121561295957612958612122565b5b600061296785828601612175565b9250506020612978858286016121ce565b9150509250929050565b6000806040838503121561299957612998612122565b5b600083013567ffffffffffffffff8111156129b7576129b6612127565b5b6129c385828601612570565b925050602083013567ffffffffffffffff8111156129e4576129e3612127565b5b6129f085828601612570565b9150509250929050565b600081519050919050565b600082825260208201905092915050565b6000819050602082019050919050565b6000612a328383612210565b60208301905092915050565b6000602082019050919050565b6000612a56826129fa565b612a608185612a05565b9350612a6b83612a16565b8060005b83811015612a9c578151612a838882612a26565b9750612a8e83612a3e565b925050600181019050612a6f565b5085935050505092915050565b60006020820190508181036000830152612ac38184612a4b565b905092915050565b7f4e487b7100000000000000000000000000000000000000000000000000000000600052603260045260246000fd5b7f4e487b7100000000000000000000000000000000000000000000000000000000600052602260045260246000fd5b60006002820490506001821680612b4157607f821691505b602082108103612b5457612b53612afa565b5b50919050565b7f4475656c206d7573742062652061636365707465640000000000000000000000600082015250565b6000612b90601583612609565b9150612b9b82612b5a565b602082019050919050565b60006020820190508181036000830152612bbf81612b83565b9050919050565b7f4f6e6c79207468652063757272656e7420706c617965722063616e206d616b6560008201527f2061206d6f766500000000000000000000000000000000000000000000000000602082015250565b6000612c22602783612609565b9150612c2d82612bc6565b604082019050919050565b60006020820190508181036000830152612c5181612c15565b9050919050565b600081905092915050565b60008190508160005260206000209050919050565b60008154612c8581612b29565b612c8f8186612c58565b94506001821660008114612caa5760018114612cbf57612cf2565b60ff1983168652811515820286019350612cf2565b612cc885612c63565b60005b83811015612cea57815481890152600182019150602081019050612ccb565b838801955050505b50505092915050565b6000612d078284612c78565b915081905092915050565b6000612d1d8261222e565b612d278185612c58565b9350612d3781856020860161224a565b80840191505092915050565b6000612d4f8284612d12565b915081905092915050565b6000604082019050612d6f60008301856120ee565b612d7c60208301846125fa565b9392505050565b7f2c00000000000000000000000000000000000000000000000000000000000000600082015250565b6000612db9600183612c58565b9150612dc482612d83565b600182019050919050565b6000612ddb8285612c78565b9150612de682612dac565b9150612df28284612d12565b91508190509392505050565b60006020601f8301049050919050565b600082821b905092915050565b600060088302612e4b7fffffffffffffffffffffffffffffffffffffffffffffffffffffffffffffffff82612e0e565b612e558683612e0e565b95508019841693508086168417925050509392505050565b6000819050919050565b6000612e92612e8d612e88846120e4565b612e6d565b6120e4565b9050919050565b6000819050919050565b612eac83612e77565b612ec0612eb882612e99565b848454612e1b565b825550505050565b600090565b612ed5612ec8565b612ee0818484612ea3565b505050565b5b81811015612f0457612ef9600082612ecd565b600181019050612ee6565b5050565b601f821115612f4957612f1a81612c63565b612f2384612dfe565b81016020851015612f32578190505b612f46612f3e85612dfe565b830182612ee5565b50505b505050565b600082821c905092915050565b6000612f6c60001984600802612f4e565b1980831691505092915050565b6000612f858383612f5b565b9150826002028217905092915050565b612f9e8261222e565b67ffffffffffffffff811115612fb757612fb6612473565b5b612fc18254612b29565b612fcc828285612f08565b600060209050601f831160018114612fff5760008415612fed578287015190505b612ff78582612f79565b86555061305f565b601f19841661300d86612c63565b60005b8281101561303557848901518255600182019150602085019450602081019050613010565b86831015613052578489015161304e601f891682612f5b565b8355505b6001600288020188555050505b505050505050565b7f416d6f756e74206d7573742062652067726561746572207468616e2030000000600082015250565b600061309d601d83612609565b91506130a882613067565b602082019050919050565b600060208201905081810360008301526130cc81613090565b9050919050565b7f4e487b7100000000000000000000000000000000000000000000000000000000600052601160045260246000fd5b600061310d826120e4565b9150613118836120e4565b92508282039050818111156131305761312f6130d3565b5b92915050565b7f4475656c206d757374206e6f7420626520616363657074656420796574000000600082015250565b600061316c601d83612609565b915061317782613136565b602082019050919050565b6000602082019050818103600083015261319b8161315f565b9050919050565b7f416d6f756e74206d75737420626520657175616c20746f20746865206368616c60008201527f6c656e6765722773206d6f766520616d6f756e74000000000000000000000000602082015250565b60006131fe603483612609565b9150613209826131a2565b604082019050919050565b6000602082019050818103600083015261322d816131f1565b9050919050565b600061323f826120e4565b915061324a836120e4565b9250828201905080821115613262576132616130d3565b5b92915050565b7f4f6e6c7920746865206368616c6c656e6765722063616e2063616e63656c207460008201527f6865206475656c00000000000000000000000000000000000000000000000000602082015250565b60006132c4602783612609565b91506132cf82613268565b604082019050919050565b600060208201905081810360008301526132f3816132b7565b9050919050565b7f4475656c206d757374206265206e6f7420626520616363657074656420796574600082015250565b6000613330602083612609565b915061333b826132fa565b602082019050919050565b6000602082019050818103600083015261335f81613323565b9050919050565b7f4f776e61626c653a206e6577206f776e657220697320746865207a65726f206160008201527f6464726573730000000000000000000000000000000000000000000000000000602082015250565b60006133c2602683612609565b91506133cd82613366565b604082019050919050565b600060208201905081810360008301526133f1816133b5565b9050919050565b7f4f776e61626c653a2063616c6c6572206973206e6f7420746865206f776e6572600082015250565b600061342e602083612609565b9150613439826133f8565b602082019050919050565b6000602082019050818103600083015261345d81613421565b905091905056fea2646970667358221220400fa1f98f1f36580647582ecbff50ac12ec990589bc110cbf7e4e591fd589a464736f6c63430008130033",
  "linkReferences": {},
  "deployedLinkReferences": {}
}