{
  "_format": "hh-sol-artifact-1",
  "contractName": "FreeDuels",
  "sourceName": "contracts/FreeDuels.sol",
  "abi": [
    {
      "inputs": [
        {
          "internalType": "address",
          "name": "_gelatoRelay",
          "type": "address"
        }
      ],
      "stateMutability": "nonpayable",
      "type": "constructor"
    },
    {
      "anonymous": false,
      "inputs": [
        {
          "indexed": false,
          "internalType": "uint256",
          "name": "id",
          "type": "uint256"
        }
      ],
      "name": "DuelAccepted",
      "type": "event"
    },
    {
      "anonymous": false,
      "inputs": [
        {
          "indexed": false,
          "internalType": "uint256",
          "name": "id",
          "type": "uint256"
        }
      ],
      "name": "DuelCancelled",
      "type": "event"
    },
    {
      "anonymous": false,
      "inputs": [
        {
          "indexed": false,
          "internalType": "uint256",
          "name": "id",
          "type": "uint256"
        }
      ],
      "name": "DuelCreated",
      "type": "event"
    },
    {
      "anonymous": false,
      "inputs": [
        {
          "indexed": false,
          "internalType": "uint256",
          "name": "id",
          "type": "uint256"
        },
        {
          "indexed": false,
          "internalType": "address",
          "name": "currentPlayer",
          "type": "address"
        },
        {
          "indexed": false,
          "internalType": "string",
          "name": "words",
          "type": "string"
        },
        {
          "indexed": false,
          "internalType": "uint256",
          "name": "moveCount",
          "type": "uint256"
        }
      ],
      "name": "DuelMove",
      "type": "event"
    },
    {
      "anonymous": false,
      "inputs": [
        {
          "indexed": true,
          "internalType": "address",
          "name": "previousOwner",
          "type": "address"
        },
        {
          "indexed": true,
          "internalType": "address",
          "name": "newOwner",
          "type": "address"
        }
      ],
      "name": "OwnershipTransferred",
      "type": "event"
    },
    {
      "inputs": [
        {
          "internalType": "uint256",
          "name": "_duelId",
          "type": "uint256"
        }
      ],
      "name": "acceptDuel",
      "outputs": [],
      "stateMutability": "nonpayable",
      "type": "function"
    },
    {
      "inputs": [
        {
          "internalType": "uint256",
          "name": "_duelId",
          "type": "uint256"
        }
      ],
      "name": "cancelDuel",
      "outputs": [],
      "stateMutability": "nonpayable",
      "type": "function"
    },
    {
      "inputs": [
        {
          "internalType": "string",
          "name": "_email",
          "type": "string"
        },
        {
          "internalType": "string",
          "name": "_targetWord",
          "type": "string"
        }
      ],
      "name": "createDuel",
      "outputs": [],
      "stateMutability": "nonpayable",
      "type": "function"
    },
    {
      "inputs": [
        {
          "internalType": "uint256",
          "name": "",
          "type": "uint256"
        }
      ],
      "name": "duels",
      "outputs": [
        {
          "internalType": "uint256",
          "name": "id",
          "type": "uint256"
        },
        {
          "internalType": "address",
          "name": "challenger",
          "type": "address"
        },
        {
          "internalType": "address",
          "name": "opponent",
          "type": "address"
        },
        {
          "internalType": "address",
          "name": "currentPlayer",
          "type": "address"
        },
        {
          "internalType": "string",
          "name": "email",
          "type": "string"
        },
        {
          "internalType": "string",
          "name": "targetWord",
          "type": "string"
        },
        {
          "internalType": "string",
          "name": "words",
          "type": "string"
        },
        {
          "internalType": "uint256",
          "name": "createdAt",
          "type": "uint256"
        },
        {
          "internalType": "uint256",
          "name": "moveCount",
          "type": "uint256"
        },
        {
          "internalType": "enum FreeDuels.DuelState",
          "name": "state",
          "type": "uint8"
        }
      ],
      "stateMutability": "view",
      "type": "function"
    },
    {
      "inputs": [],
      "name": "getBalance",
      "outputs": [
        {
          "internalType": "uint256",
          "name": "",
          "type": "uint256"
        }
      ],
      "stateMutability": "view",
      "type": "function"
    },
    {
      "inputs": [
        {
          "internalType": "uint256",
          "name": "_duelId",
          "type": "uint256"
        }
      ],
      "name": "getDuel",
      "outputs": [
        {
          "components": [
            {
              "internalType": "uint256",
              "name": "id",
              "type": "uint256"
            },
            {
              "internalType": "address",
              "name": "challenger",
              "type": "address"
            },
            {
              "internalType": "address",
              "name": "opponent",
              "type": "address"
            },
            {
              "internalType": "address",
              "name": "currentPlayer",
              "type": "address"
            },
            {
              "internalType": "string",
              "name": "email",
              "type": "string"
            },
            {
              "internalType": "string",
              "name": "targetWord",
              "type": "string"
            },
            {
              "internalType": "string",
              "name": "words",
              "type": "string"
            },
            {
              "internalType": "uint256",
              "name": "createdAt",
              "type": "uint256"
            },
            {
              "internalType": "uint256",
              "name": "moveCount",
              "type": "uint256"
            },
            {
              "internalType": "enum FreeDuels.DuelState",
              "name": "state",
              "type": "uint8"
            }
          ],
          "internalType": "struct FreeDuels.Duel",
          "name": "",
          "type": "tuple"
        }
      ],
      "stateMutability": "view",
      "type": "function"
    },
    {
      "inputs": [],
      "name": "getDuels",
      "outputs": [
        {
          "components": [
            {
              "internalType": "uint256",
              "name": "id",
              "type": "uint256"
            },
            {
              "internalType": "address",
              "name": "challenger",
              "type": "address"
            },
            {
              "internalType": "address",
              "name": "opponent",
              "type": "address"
            },
            {
              "internalType": "address",
              "name": "currentPlayer",
              "type": "address"
            },
            {
              "internalType": "string",
              "name": "email",
              "type": "string"
            },
            {
              "internalType": "string",
              "name": "targetWord",
              "type": "string"
            },
            {
              "internalType": "string",
              "name": "words",
              "type": "string"
            },
            {
              "internalType": "uint256",
              "name": "createdAt",
              "type": "uint256"
            },
            {
              "internalType": "uint256",
              "name": "moveCount",
              "type": "uint256"
            },
            {
              "internalType": "enum FreeDuels.DuelState",
              "name": "state",
              "type": "uint8"
            }
          ],
          "internalType": "struct FreeDuels.Duel[]",
          "name": "",
          "type": "tuple[]"
        }
      ],
      "stateMutability": "view",
      "type": "function"
    },
    {
      "inputs": [
        {
          "internalType": "string",
          "name": "_email",
          "type": "string"
        }
      ],
      "name": "getDuelsByEmail",
      "outputs": [
        {
          "components": [
            {
              "internalType": "uint256",
              "name": "id",
              "type": "uint256"
            },
            {
              "internalType": "address",
              "name": "challenger",
              "type": "address"
            },
            {
              "internalType": "address",
              "name": "opponent",
              "type": "address"
            },
            {
              "internalType": "address",
              "name": "currentPlayer",
              "type": "address"
            },
            {
              "internalType": "string",
              "name": "email",
              "type": "string"
            },
            {
              "internalType": "string",
              "name": "targetWord",
              "type": "string"
            },
            {
              "internalType": "string",
              "name": "words",
              "type": "string"
            },
            {
              "internalType": "uint256",
              "name": "createdAt",
              "type": "uint256"
            },
            {
              "internalType": "uint256",
              "name": "moveCount",
              "type": "uint256"
            },
            {
              "internalType": "enum FreeDuels.DuelState",
              "name": "state",
              "type": "uint8"
            }
          ],
          "internalType": "struct FreeDuels.Duel[]",
          "name": "",
          "type": "tuple[]"
        }
      ],
      "stateMutability": "view",
      "type": "function"
    },
    {
      "inputs": [],
      "name": "getDuelsCount",
      "outputs": [
        {
          "internalType": "uint256",
          "name": "",
          "type": "uint256"
        }
      ],
      "stateMutability": "view",
      "type": "function"
    },
    {
      "inputs": [
        {
          "internalType": "address",
          "name": "_wallet",
          "type": "address"
        }
      ],
      "name": "getMyDuels",
      "outputs": [
        {
          "internalType": "uint256[]",
          "name": "",
          "type": "uint256[]"
        }
      ],
      "stateMutability": "view",
      "type": "function"
    },
    {
      "inputs": [
        {
          "internalType": "address",
          "name": "_wallet",
          "type": "address"
        }
      ],
      "name": "getMyDuelsCount",
      "outputs": [
        {
          "internalType": "uint256",
          "name": "",
          "type": "uint256"
        }
      ],
      "stateMutability": "view",
      "type": "function"
    },
    {
      "inputs": [
        {
          "internalType": "address",
          "name": "forwarder",
          "type": "address"
        }
      ],
      "name": "isTrustedForwarder",
      "outputs": [
        {
          "internalType": "bool",
          "name": "",
          "type": "bool"
        }
      ],
      "stateMutability": "view",
      "type": "function"
    },
    {
      "inputs": [
        {
          "internalType": "uint256",
          "name": "_duelId",
          "type": "uint256"
        },
        {
          "internalType": "string",
          "name": "_word",
          "type": "string"
        }
      ],
      "name": "makeMove",
      "outputs": [],
      "stateMutability": "nonpayable",
      "type": "function"
    },
    {
      "inputs": [
        {
          "internalType": "address",
          "name": "",
          "type": "address"
        },
        {
          "internalType": "uint256",
          "name": "",
          "type": "uint256"
        }
      ],
      "name": "myDuels",
      "outputs": [
        {
          "internalType": "uint256",
          "name": "",
          "type": "uint256"
        }
      ],
      "stateMutability": "view",
      "type": "function"
    },
    {
      "inputs": [],
      "name": "owner",
      "outputs": [
        {
          "internalType": "address",
          "name": "",
          "type": "address"
        }
      ],
      "stateMutability": "view",
      "type": "function"
    },
    {
      "inputs": [],
      "name": "renounceOwnership",
      "outputs": [],
      "stateMutability": "nonpayable",
      "type": "function"
    },
    {
      "inputs": [
        {
          "internalType": "address",
          "name": "newOwner",
          "type": "address"
        }
      ],
      "name": "transferOwnership",
      "outputs": [],
      "stateMutability": "nonpayable",
      "type": "function"
    }
  ],
  "bytecode": "0x60a06040523480156200001157600080fd5b506040516200395738038062003957833981810160405281019062000037919062000272565b808073ffffffffffffffffffffffffffffffffffffffff1660808173ffffffffffffffffffffffffffffffffffffffff1681525050506200008d620000816200009460201b60201c565b620000ab60201b60201c565b50620002a4565b6000620000a66200016f60201b60201c565b905090565b60008060009054906101000a900473ffffffffffffffffffffffffffffffffffffffff169050816000806101000a81548173ffffffffffffffffffffffffffffffffffffffff021916908373ffffffffffffffffffffffffffffffffffffffff1602179055508173ffffffffffffffffffffffffffffffffffffffff168173ffffffffffffffffffffffffffffffffffffffff167f8be0079c531659141344cd1fd0a4f28419497f9722a3daafe3b4186f6b6457e060405160405180910390a35050565b60006200018233620001c660201b60201c565b80156200019457506014600036905010155b15620001aa57601436033560601c9050620001c2565b620001ba6200020060201b60201c565b9050620001c3565b5b90565b600060805173ffffffffffffffffffffffffffffffffffffffff168273ffffffffffffffffffffffffffffffffffffffff16149050919050565b600033905090565b600080fd5b600073ffffffffffffffffffffffffffffffffffffffff82169050919050565b60006200023a826200020d565b9050919050565b6200024c816200022d565b81146200025857600080fd5b50565b6000815190506200026c8162000241565b92915050565b6000602082840312156200028b576200028a62000208565b5b60006200029b848285016200025b565b91505092915050565b608051613697620002c0600039600061071d01526136976000f3fe608060405234801561001057600080fd5b506004361061010b5760003560e01c80638da5cb5b116100a2578063b9cf240811610071578063b9cf2408146102c3578063c7081d3d146102f3578063c874b1c214610323578063d9c312f41461033f578063f2fde38b1461035b5761010b565b80638da5cb5b1461023b578063a0c9ed4714610259578063afce75d414610277578063b1cf42d8146102a75761010b565b80636107814e116100de5780636107814e146101be578063715018a6146101dc5780637d20e927146101e6578063859a62d0146102025761010b565b806312065fe0146101105780631d9e39d11461012e578063565e614f1461015e578063572b6c051461018e575b600080fd5b610118610377565b6040516101259190612364565b60405180910390f35b610148600480360381019061014391906123f1565b61037f565b6040516101559190612364565b60405180910390f35b6101786004803603810190610173919061244a565b6103cb565b6040516101859190612684565b60405180910390f35b6101a860048036038101906101a391906123f1565b610719565b6040516101b591906126c1565b60405180910390f35b6101c6610771565b6040516101d39190612364565b60405180910390f35b6101e461077e565b005b61020060048036038101906101fb9190612811565b610792565b005b61021c6004803603810190610217919061244a565b610dc8565b6040516102329a999897969594939291906128d5565b60405180910390f35b610243611031565b6040516102509190612986565b60405180910390f35b61026161105a565b60405161026e9190612b4b565b60405180910390f35b610291600480360381019061028c9190612b6d565b6113cb565b60405161029e9190612364565b60405180910390f35b6102c160048036038101906102bc9190612bad565b6113fc565b005b6102dd60048036038101906102d89190612c25565b611703565b6040516102ea9190612b4b565b60405180910390f35b61030d600480360381019061030891906123f1565b611c1b565b60405161031a9190612d1d565b60405180910390f35b61033d6004803603810190610338919061244a565b611cb2565b005b6103596004803603810190610354919061244a565b611eaa565b005b610375600480360381019061037091906123f1565b612085565b005b600047905090565b6000600260008373ffffffffffffffffffffffffffffffffffffffff1673ffffffffffffffffffffffffffffffffffffffff168152602001908152602001600020805490509050919050565b6103d36122a4565b600182815481106103e7576103e6612d3f565b5b90600052602060002090600a020160405180610140016040529081600082015481526020016001820160009054906101000a900473ffffffffffffffffffffffffffffffffffffffff1673ffffffffffffffffffffffffffffffffffffffff1673ffffffffffffffffffffffffffffffffffffffff1681526020016002820160009054906101000a900473ffffffffffffffffffffffffffffffffffffffff1673ffffffffffffffffffffffffffffffffffffffff1673ffffffffffffffffffffffffffffffffffffffff1681526020016003820160009054906101000a900473ffffffffffffffffffffffffffffffffffffffff1673ffffffffffffffffffffffffffffffffffffffff1673ffffffffffffffffffffffffffffffffffffffff16815260200160048201805461051d90612d9d565b80601f016020809104026020016040519081016040528092919081815260200182805461054990612d9d565b80156105965780601f1061056b57610100808354040283529160200191610596565b820191906000526020600020905b81548152906001019060200180831161057957829003601f168201915b505050505081526020016005820180546105af90612d9d565b80601f01602080910402602001604051908101604052809291908181526020018280546105db90612d9d565b80156106285780601f106105fd57610100808354040283529160200191610628565b820191906000526020600020905b81548152906001019060200180831161060b57829003601f168201915b5050505050815260200160068201805461064190612d9d565b80601f016020809104026020016040519081016040528092919081815260200182805461066d90612d9d565b80156106ba5780601f1061068f576101008083540402835291602001916106ba565b820191906000526020600020905b81548152906001019060200180831161069d57829003601f168201915b5050505050815260200160078201548152602001600882015481526020016009820160009054906101000a900460ff1660038111156106fc576106fb612525565b5b600381111561070e5761070d612525565b5b815250509050919050565b60007f000000000000000000000000000000000000000000000000000000000000000073ffffffffffffffffffffffffffffffffffffffff168273ffffffffffffffffffffffffffffffffffffffff16149050919050565b6000600180549050905090565b610786612108565b6107906000612186565b565b600160038111156107a6576107a5612525565b5b600183815481106107ba576107b9612d3f565b5b90600052602060002090600a020160090160009054906101000a900460ff1660038111156107eb576107ea612525565b5b1461082b576040517f08c379a000000000000000000000000000000000000000000000000000000000815260040161082290612e1a565b60405180910390fd5b61083361224a565b73ffffffffffffffffffffffffffffffffffffffff166001838154811061085d5761085c612d3f565b5b90600052602060002090600a020160030160009054906101000a900473ffffffffffffffffffffffffffffffffffffffff1673ffffffffffffffffffffffffffffffffffffffff16146108e5576040517f08c379a00000000000000000000000000000000000000000000000000000000081526004016108dc90612eac565b60405180910390fd5b600182815481106108f9576108f8612d3f565b5b90600052602060002090600a02016006018160405160200161091c929190612fec565b6040516020818303038152906040526001838154811061093f5761093e612d3f565b5b90600052602060002090600a0201600601908161095c91906131b2565b506001828154811061097157610970612d3f565b5b90600052602060002090600a02016005016040516020016109929190613284565b60405160208183030381529060405280519060200120816040516020016109b9919061329b565b6040516020818303038152906040528051906020012003610a27576002600183815481106109ea576109e9612d3f565b5b90600052602060002090600a020160090160006101000a81548160ff02191690836003811115610a1d57610a1c612525565b5b0217905550610dc4565b60018281548110610a3b57610a3a612d3f565b5b90600052602060002090600a020160010160009054906101000a900473ffffffffffffffffffffffffffffffffffffffff1673ffffffffffffffffffffffffffffffffffffffff1660018381548110610a9757610a96612d3f565b5b90600052602060002090600a020160030160009054906101000a900473ffffffffffffffffffffffffffffffffffffffff1673ffffffffffffffffffffffffffffffffffffffff1603610b925760018281548110610af857610af7612d3f565b5b90600052602060002090600a020160020160009054906101000a900473ffffffffffffffffffffffffffffffffffffffff1660018381548110610b3e57610b3d612d3f565b5b90600052602060002090600a020160030160006101000a81548173ffffffffffffffffffffffffffffffffffffffff021916908373ffffffffffffffffffffffffffffffffffffffff160217905550610c3c565b60018281548110610ba657610ba5612d3f565b5b90600052602060002090600a020160010160009054906101000a900473ffffffffffffffffffffffffffffffffffffffff1660018381548110610bec57610beb612d3f565b5b90600052602060002090600a020160030160006101000a81548173ffffffffffffffffffffffffffffffffffffffff021916908373ffffffffffffffffffffffffffffffffffffffff1602179055505b60018281548110610c5057610c4f612d3f565b5b90600052602060002090600a02016008016000815480929190610c72906132e1565b9190505550600660018381548110610c8d57610c8c612d3f565b5b90600052602060002090600a02016008015403610cf757600260018381548110610cba57610cb9612d3f565b5b90600052602060002090600a020160090160006101000a81548160ff02191690836003811115610ced57610cec612525565b5b0217905550610dc3565b7ff1fb0272a0c5071948832056b653548b50099324be42a8c46a012cf7ae6e30198260018481548110610d2d57610d2c612d3f565b5b90600052602060002090600a020160030160009054906101000a900473ffffffffffffffffffffffffffffffffffffffff1660018581548110610d7357610d72612d3f565b5b90600052602060002090600a020160060160018681548110610d9857610d97612d3f565b5b90600052602060002090600a020160080154604051610dba94939291906133ad565b60405180910390a15b5b5050565b60018181548110610dd857600080fd5b90600052602060002090600a02016000915090508060000154908060010160009054906101000a900473ffffffffffffffffffffffffffffffffffffffff16908060020160009054906101000a900473ffffffffffffffffffffffffffffffffffffffff16908060030160009054906101000a900473ffffffffffffffffffffffffffffffffffffffff1690806004018054610e7390612d9d565b80601f0160208091040260200160405190810160405280929190818152602001828054610e9f90612d9d565b8015610eec5780601f10610ec157610100808354040283529160200191610eec565b820191906000526020600020905b815481529060010190602001808311610ecf57829003601f168201915b505050505090806005018054610f0190612d9d565b80601f0160208091040260200160405190810160405280929190818152602001828054610f2d90612d9d565b8015610f7a5780601f10610f4f57610100808354040283529160200191610f7a565b820191906000526020600020905b815481529060010190602001808311610f5d57829003601f168201915b505050505090806006018054610f8f90612d9d565b80601f0160208091040260200160405190810160405280929190818152602001828054610fbb90612d9d565b80156110085780601f10610fdd57610100808354040283529160200191611008565b820191906000526020600020905b815481529060010190602001808311610feb57829003601f168201915b5050505050908060070154908060080154908060090160009054906101000a900460ff1690508a565b60008060009054906101000a900473ffffffffffffffffffffffffffffffffffffffff16905090565b60606001805480602002602001604051908101604052809291908181526020016000905b828210156113c257838290600052602060002090600a020160405180610140016040529081600082015481526020016001820160009054906101000a900473ffffffffffffffffffffffffffffffffffffffff1673ffffffffffffffffffffffffffffffffffffffff1673ffffffffffffffffffffffffffffffffffffffff1681526020016002820160009054906101000a900473ffffffffffffffffffffffffffffffffffffffff1673ffffffffffffffffffffffffffffffffffffffff1673ffffffffffffffffffffffffffffffffffffffff1681526020016003820160009054906101000a900473ffffffffffffffffffffffffffffffffffffffff1673ffffffffffffffffffffffffffffffffffffffff1673ffffffffffffffffffffffffffffffffffffffff1681526020016004820180546111be90612d9d565b80601f01602080910402602001604051908101604052809291908181526020018280546111ea90612d9d565b80156112375780601f1061120c57610100808354040283529160200191611237565b820191906000526020600020905b81548152906001019060200180831161121a57829003601f168201915b5050505050815260200160058201805461125090612d9d565b80601f016020809104026020016040519081016040528092919081815260200182805461127c90612d9d565b80156112c95780601f1061129e576101008083540402835291602001916112c9565b820191906000526020600020905b8154815290600101906020018083116112ac57829003601f168201915b505050505081526020016006820180546112e290612d9d565b80601f016020809104026020016040519081016040528092919081815260200182805461130e90612d9d565b801561135b5780601f106113305761010080835404028352916020019161135b565b820191906000526020600020905b81548152906001019060200180831161133e57829003601f168201915b5050505050815260200160078201548152602001600882015481526020016009820160009054906101000a900460ff16600381111561139d5761139c612525565b5b60038111156113af576113ae612525565b5b815250508152602001906001019061107e565b50505050905090565b600260205281600052604060002081815481106113e757600080fd5b90600052602060002001600091509150505481565b60006001805490509050600060405180610140016040528083815260200161142261224a565b73ffffffffffffffffffffffffffffffffffffffff168152602001600073ffffffffffffffffffffffffffffffffffffffff16815260200161146261224a565b73ffffffffffffffffffffffffffffffffffffffff16815260200185815260200184815260200160405180602001604052806000815250815260200142815260200160008152602001600060038111156114bf576114be612525565b5b815250905060018190806001815401808255809150506001900390600052602060002090600a02016000909190919091506000820151816000015560208201518160010160006101000a81548173ffffffffffffffffffffffffffffffffffffffff021916908373ffffffffffffffffffffffffffffffffffffffff16021790555060408201518160020160006101000a81548173ffffffffffffffffffffffffffffffffffffffff021916908373ffffffffffffffffffffffffffffffffffffffff16021790555060608201518160030160006101000a81548173ffffffffffffffffffffffffffffffffffffffff021916908373ffffffffffffffffffffffffffffffffffffffff16021790555060808201518160040190816115e491906131b2565b5060a08201518160050190816115fa91906131b2565b5060c082015181600601908161161091906131b2565b5060e0820151816007015561010082015181600801556101208201518160090160006101000a81548160ff0219169083600381111561165257611651612525565b5b021790555050506002600061166561224a565b73ffffffffffffffffffffffffffffffffffffffff1673ffffffffffffffffffffffffffffffffffffffff1681526020019081526020016000208290806001815401808255809150506001900390600052602060002001600090919091909150557fb0dbe2e299e34ddf17287956670f83f8023010cd8f30be461d12379d40447b06826040516116f59190612364565b60405180910390a150505050565b60606000805b6001805490508110156117af5783604051602001611727919061329b565b604051602081830303815290604052805190602001206001828154811061175157611750612d3f565b5b90600052602060002090600a02016004016040516020016117729190613284565b604051602081830303815290604052805190602001200361179c578180611798906132e1565b9250505b80806117a7906132e1565b915050611709565b5060008167ffffffffffffffff8111156117cc576117cb6126e6565b5b60405190808252806020026020018201604052801561180557816020015b6117f26122a4565b8152602001906001900390816117ea5790505b5090506000805b600180549050811015611c0f578560405160200161182a919061329b565b604051602081830303815290604052805190602001206001828154811061185457611853612d3f565b5b90600052602060002090600a02016004016040516020016118759190613284565b6040516020818303038152906040528051906020012003611bfc57600181815481106118a4576118a3612d3f565b5b90600052602060002090600a020160405180610140016040529081600082015481526020016001820160009054906101000a900473ffffffffffffffffffffffffffffffffffffffff1673ffffffffffffffffffffffffffffffffffffffff1673ffffffffffffffffffffffffffffffffffffffff1681526020016002820160009054906101000a900473ffffffffffffffffffffffffffffffffffffffff1673ffffffffffffffffffffffffffffffffffffffff1673ffffffffffffffffffffffffffffffffffffffff1681526020016003820160009054906101000a900473ffffffffffffffffffffffffffffffffffffffff1673ffffffffffffffffffffffffffffffffffffffff1673ffffffffffffffffffffffffffffffffffffffff1681526020016004820180546119da90612d9d565b80601f0160208091040260200160405190810160405280929190818152602001828054611a0690612d9d565b8015611a535780601f10611a2857610100808354040283529160200191611a53565b820191906000526020600020905b815481529060010190602001808311611a3657829003601f168201915b50505050508152602001600582018054611a6c90612d9d565b80601f0160208091040260200160405190810160405280929190818152602001828054611a9890612d9d565b8015611ae55780601f10611aba57610100808354040283529160200191611ae5565b820191906000526020600020905b815481529060010190602001808311611ac857829003601f168201915b50505050508152602001600682018054611afe90612d9d565b80601f0160208091040260200160405190810160405280929190818152602001828054611b2a90612d9d565b8015611b775780601f10611b4c57610100808354040283529160200191611b77565b820191906000526020600020905b815481529060010190602001808311611b5a57829003601f168201915b5050505050815260200160078201548152602001600882015481526020016009820160009054906101000a900460ff166003811115611bb957611bb8612525565b5b6003811115611bcb57611bca612525565b5b81525050838381518110611be257611be1612d3f565b5b60200260200101819052508180611bf8906132e1565b9250505b8080611c07906132e1565b91505061180c565b50819350505050919050565b6060600260008373ffffffffffffffffffffffffffffffffffffffff1673ffffffffffffffffffffffffffffffffffffffff168152602001908152602001600020805480602002602001604051908101604052809291908181526020018280548015611ca657602002820191906000526020600020905b815481526020019060010190808311611c92575b50505050509050919050565b60006003811115611cc657611cc5612525565b5b60018281548110611cda57611cd9612d3f565b5b90600052602060002090600a020160090160009054906101000a900460ff166003811115611d0b57611d0a612525565b5b14611d4b576040517f08c379a0000000000000000000000000000000000000000000000000000000008152600401611d4290613445565b60405180910390fd5b611d5361224a565b60018281548110611d6757611d66612d3f565b5b90600052602060002090600a020160020160006101000a81548173ffffffffffffffffffffffffffffffffffffffff021916908373ffffffffffffffffffffffffffffffffffffffff1602179055506001808281548110611dcb57611dca612d3f565b5b90600052602060002090600a020160090160006101000a81548160ff02191690836003811115611dfe57611dfd612525565b5b021790555060026000611e0f61224a565b73ffffffffffffffffffffffffffffffffffffffff1673ffffffffffffffffffffffffffffffffffffffff1681526020019081526020016000208190806001815401808255809150506001900390600052602060002001600090919091909150557f8ea16fd26bf5a97624d8b6fb303928937b9b559c4627028620ecf8e221dd32e981604051611e9f9190612364565b60405180910390a150565b611eb261224a565b73ffffffffffffffffffffffffffffffffffffffff1660018281548110611edc57611edb612d3f565b5b90600052602060002090600a020160010160009054906101000a900473ffffffffffffffffffffffffffffffffffffffff1673ffffffffffffffffffffffffffffffffffffffff1614611f64576040517f08c379a0000000000000000000000000000000000000000000000000000000008152600401611f5b906134d7565b60405180910390fd5b60006003811115611f7857611f77612525565b5b60018281548110611f8c57611f8b612d3f565b5b90600052602060002090600a020160090160009054906101000a900460ff166003811115611fbd57611fbc612525565b5b14611ffd576040517f08c379a0000000000000000000000000000000000000000000000000000000008152600401611ff490613543565b60405180910390fd5b60036001828154811061201357612012612d3f565b5b90600052602060002090600a020160090160006101000a81548160ff0219169083600381111561204657612045612525565b5b02179055507fe6869595d58c61aa991d00acb41ac260a2d3b5a40d58255f6aad94a14c2804a78160405161207a9190612364565b60405180910390a150565b61208d612108565b600073ffffffffffffffffffffffffffffffffffffffff168173ffffffffffffffffffffffffffffffffffffffff16036120fc576040517f08c379a00000000000000000000000000000000000000000000000000000000081526004016120f3906135d5565b60405180910390fd5b61210581612186565b50565b61211061224a565b73ffffffffffffffffffffffffffffffffffffffff1661212e611031565b73ffffffffffffffffffffffffffffffffffffffff1614612184576040517f08c379a000000000000000000000000000000000000000000000000000000000815260040161217b90613641565b60405180910390fd5b565b60008060009054906101000a900473ffffffffffffffffffffffffffffffffffffffff169050816000806101000a81548173ffffffffffffffffffffffffffffffffffffffff021916908373ffffffffffffffffffffffffffffffffffffffff1602179055508173ffffffffffffffffffffffffffffffffffffffff168173ffffffffffffffffffffffffffffffffffffffff167f8be0079c531659141344cd1fd0a4f28419497f9722a3daafe3b4186f6b6457e060405160405180910390a35050565b6000612254612259565b905090565b600061226433610719565b801561227557506014600036905010155b1561228957601436033560601c9050612298565b61229161229c565b9050612299565b5b90565b600033905090565b60405180610140016040528060008152602001600073ffffffffffffffffffffffffffffffffffffffff168152602001600073ffffffffffffffffffffffffffffffffffffffff168152602001600073ffffffffffffffffffffffffffffffffffffffff16815260200160608152602001606081526020016060815260200160008152602001600081526020016000600381111561234557612344612525565b5b81525090565b6000819050919050565b61235e8161234b565b82525050565b60006020820190506123796000830184612355565b92915050565b6000604051905090565b600080fd5b600080fd5b600073ffffffffffffffffffffffffffffffffffffffff82169050919050565b60006123be82612393565b9050919050565b6123ce816123b3565b81146123d957600080fd5b50565b6000813590506123eb816123c5565b92915050565b60006020828403121561240757612406612389565b5b6000612415848285016123dc565b91505092915050565b6124278161234b565b811461243257600080fd5b50565b6000813590506124448161241e565b92915050565b6000602082840312156124605761245f612389565b5b600061246e84828501612435565b91505092915050565b6124808161234b565b82525050565b61248f816123b3565b82525050565b600081519050919050565b600082825260208201905092915050565b60005b838110156124cf5780820151818401526020810190506124b4565b60008484015250505050565b6000601f19601f8301169050919050565b60006124f782612495565b61250181856124a0565b93506125118185602086016124b1565b61251a816124db565b840191505092915050565b7f4e487b7100000000000000000000000000000000000000000000000000000000600052602160045260246000fd5b6004811061256557612564612525565b5b50565b600081905061257682612554565b919050565b600061258682612568565b9050919050565b6125968161257b565b82525050565b6000610140830160008301516125b56000860182612477565b5060208301516125c86020860182612486565b5060408301516125db6040860182612486565b5060608301516125ee6060860182612486565b506080830151848203608086015261260682826124ec565b91505060a083015184820360a086015261262082826124ec565b91505060c083015184820360c086015261263a82826124ec565b91505060e083015161264f60e0860182612477565b50610100830151612664610100860182612477565b5061012083015161267961012086018261258d565b508091505092915050565b6000602082019050818103600083015261269e818461259c565b905092915050565b60008115159050919050565b6126bb816126a6565b82525050565b60006020820190506126d660008301846126b2565b92915050565b600080fd5b600080fd5b7f4e487b7100000000000000000000000000000000000000000000000000000000600052604160045260246000fd5b61271e826124db565b810181811067ffffffffffffffff8211171561273d5761273c6126e6565b5b80604052505050565b600061275061237f565b905061275c8282612715565b919050565b600067ffffffffffffffff82111561277c5761277b6126e6565b5b612785826124db565b9050602081019050919050565b82818337600083830152505050565b60006127b46127af84612761565b612746565b9050828152602081018484840111156127d0576127cf6126e1565b5b6127db848285612792565b509392505050565b600082601f8301126127f8576127f76126dc565b5b81356128088482602086016127a1565b91505092915050565b6000806040838503121561282857612827612389565b5b600061283685828601612435565b925050602083013567ffffffffffffffff8111156128575761285661238e565b5b612863858286016127e3565b9150509250929050565b612876816123b3565b82525050565b600082825260208201905092915050565b600061289882612495565b6128a2818561287c565b93506128b28185602086016124b1565b6128bb816124db565b840191505092915050565b6128cf8161257b565b82525050565b6000610140820190506128eb600083018d612355565b6128f8602083018c61286d565b612905604083018b61286d565b612912606083018a61286d565b8181036080830152612924818961288d565b905081810360a0830152612938818861288d565b905081810360c083015261294c818761288d565b905061295b60e0830186612355565b612969610100830185612355565b6129776101208301846128c6565b9b9a5050505050505050505050565b600060208201905061299b600083018461286d565b92915050565b600081519050919050565b600082825260208201905092915050565b6000819050602082019050919050565b6000610140830160008301516129e66000860182612477565b5060208301516129f96020860182612486565b506040830151612a0c6040860182612486565b506060830151612a1f6060860182612486565b5060808301518482036080860152612a3782826124ec565b91505060a083015184820360a0860152612a5182826124ec565b91505060c083015184820360c0860152612a6b82826124ec565b91505060e0830151612a8060e0860182612477565b50610100830151612a95610100860182612477565b50610120830151612aaa61012086018261258d565b508091505092915050565b6000612ac183836129cd565b905092915050565b6000602082019050919050565b6000612ae1826129a1565b612aeb81856129ac565b935083602082028501612afd856129bd565b8060005b85811015612b395784840389528151612b1a8582612ab5565b9450612b2583612ac9565b925060208a01995050600181019050612b01565b50829750879550505050505092915050565b60006020820190508181036000830152612b658184612ad6565b905092915050565b60008060408385031215612b8457612b83612389565b5b6000612b92858286016123dc565b9250506020612ba385828601612435565b9150509250929050565b60008060408385031215612bc457612bc3612389565b5b600083013567ffffffffffffffff811115612be257612be161238e565b5b612bee858286016127e3565b925050602083013567ffffffffffffffff811115612c0f57612c0e61238e565b5b612c1b858286016127e3565b9150509250929050565b600060208284031215612c3b57612c3a612389565b5b600082013567ffffffffffffffff811115612c5957612c5861238e565b5b612c65848285016127e3565b91505092915050565b600081519050919050565b600082825260208201905092915050565b6000819050602082019050919050565b6000612ca68383612477565b60208301905092915050565b6000602082019050919050565b6000612cca82612c6e565b612cd48185612c79565b9350612cdf83612c8a565b8060005b83811015612d10578151612cf78882612c9a565b9750612d0283612cb2565b925050600181019050612ce3565b5085935050505092915050565b60006020820190508181036000830152612d378184612cbf565b905092915050565b7f4e487b7100000000000000000000000000000000000000000000000000000000600052603260045260246000fd5b7f4e487b7100000000000000000000000000000000000000000000000000000000600052602260045260246000fd5b60006002820490506001821680612db557607f821691505b602082108103612dc857612dc7612d6e565b5b50919050565b7f4475656c206d7573742062652061636365707465640000000000000000000000600082015250565b6000612e0460158361287c565b9150612e0f82612dce565b602082019050919050565b60006020820190508181036000830152612e3381612df7565b9050919050565b7f4f6e6c79207468652063757272656e7420706c617965722063616e206d616b6560008201527f2061206d6f766500000000000000000000000000000000000000000000000000602082015250565b6000612e9660278361287c565b9150612ea182612e3a565b604082019050919050565b60006020820190508181036000830152612ec581612e89565b9050919050565b600081905092915050565b60008190508160005260206000209050919050565b60008154612ef981612d9d565b612f038186612ecc565b94506001821660008114612f1e5760018114612f3357612f66565b60ff1983168652811515820286019350612f66565b612f3c85612ed7565b60005b83811015612f5e57815481890152600182019150602081019050612f3f565b838801955050505b50505092915050565b7f2c00000000000000000000000000000000000000000000000000000000000000600082015250565b6000612fa5600183612ecc565b9150612fb082612f6f565b600182019050919050565b6000612fc682612495565b612fd08185612ecc565b9350612fe08185602086016124b1565b80840191505092915050565b6000612ff88285612eec565b915061300382612f98565b915061300f8284612fbb565b91508190509392505050565b60006020601f8301049050919050565b600082821b905092915050565b6000600883026130687fffffffffffffffffffffffffffffffffffffffffffffffffffffffffffffffff8261302b565b613072868361302b565b95508019841693508086168417925050509392505050565b6000819050919050565b60006130af6130aa6130a58461234b565b61308a565b61234b565b9050919050565b6000819050919050565b6130c983613094565b6130dd6130d5826130b6565b848454613038565b825550505050565b600090565b6130f26130e5565b6130fd8184846130c0565b505050565b5b81811015613121576131166000826130ea565b600181019050613103565b5050565b601f8211156131665761313781612ed7565b6131408461301b565b8101602085101561314f578190505b61316361315b8561301b565b830182613102565b50505b505050565b600082821c905092915050565b60006131896000198460080261316b565b1980831691505092915050565b60006131a28383613178565b9150826002028217905092915050565b6131bb82612495565b67ffffffffffffffff8111156131d4576131d36126e6565b5b6131de8254612d9d565b6131e9828285613125565b600060209050601f83116001811461321c576000841561320a578287015190505b6132148582613196565b86555061327c565b601f19841661322a86612ed7565b60005b828110156132525784890151825560018201915060208501945060208101905061322d565b8683101561326f578489015161326b601f891682613178565b8355505b6001600288020188555050505b505050505050565b60006132908284612eec565b915081905092915050565b60006132a78284612fbb565b915081905092915050565b7f4e487b7100000000000000000000000000000000000000000000000000000000600052601160045260246000fd5b60006132ec8261234b565b91507fffffffffffffffffffffffffffffffffffffffffffffffffffffffffffffffff820361331e5761331d6132b2565b5b600182019050919050565b6000815461333681612d9d565b613340818661287c565b9450600182166000811461335b5760018114613371576133a4565b60ff1983168652811515602002860193506133a4565b61337a85612ed7565b60005b8381101561339c5781548189015260018201915060208101905061337d565b808801955050505b50505092915050565b60006080820190506133c26000830187612355565b6133cf602083018661286d565b81810360408301526133e18185613329565b90506133f06060830184612355565b95945050505050565b7f4475656c206d757374206e6f7420626520616363657074656420796574000000600082015250565b600061342f601d8361287c565b915061343a826133f9565b602082019050919050565b6000602082019050818103600083015261345e81613422565b9050919050565b7f4f6e6c7920746865206368616c6c656e6765722063616e2063616e63656c207460008201527f6865206475656c00000000000000000000000000000000000000000000000000602082015250565b60006134c160278361287c565b91506134cc82613465565b604082019050919050565b600060208201905081810360008301526134f0816134b4565b9050919050565b7f4475656c206d757374206265206e6f7420626520616363657074656420796574600082015250565b600061352d60208361287c565b9150613538826134f7565b602082019050919050565b6000602082019050818103600083015261355c81613520565b9050919050565b7f4f776e61626c653a206e6577206f776e657220697320746865207a65726f206160008201527f6464726573730000000000000000000000000000000000000000000000000000602082015250565b60006135bf60268361287c565b91506135ca82613563565b604082019050919050565b600060208201905081810360008301526135ee816135b2565b9050919050565b7f4f776e61626c653a2063616c6c6572206973206e6f7420746865206f776e6572600082015250565b600061362b60208361287c565b9150613636826135f5565b602082019050919050565b6000602082019050818103600083015261365a8161361e565b905091905056fea2646970667358221220f3c9c3205ef0344b06cd55962ca7e84cae511d64ddc916d4f1106a421c84340864736f6c63430008130033",
  "linkReferences": {},
  "deployedLinkReferences": {}
}