{
  "_format": "hh-sol-artifact-1",
  "contractName": "OpenFreeDuels",
  "sourceName": "contracts/OpenFreeDuels.sol",
  "abi": [
    {
      "inputs": [
        {
          "internalType": "address",
          "name": "_gelatoRelay",
          "type": "address"
        }
      ],
      "stateMutability": "nonpayable",
      "type": "constructor"
    },
    {
      "anonymous": false,
      "inputs": [
        {
          "indexed": false,
          "internalType": "uint256",
          "name": "id",
          "type": "uint256"
        }
      ],
      "name": "DuelAccepted",
      "type": "event"
    },
    {
      "anonymous": false,
      "inputs": [
        {
          "indexed": false,
          "internalType": "uint256",
          "name": "id",
          "type": "uint256"
        }
      ],
      "name": "DuelCancelled",
      "type": "event"
    },
    {
      "anonymous": false,
      "inputs": [
        {
          "indexed": false,
          "internalType": "uint256",
          "name": "id",
          "type": "uint256"
        }
      ],
      "name": "DuelCreated",
      "type": "event"
    },
    {
      "anonymous": false,
      "inputs": [
        {
          "indexed": false,
          "internalType": "uint256",
          "name": "id",
          "type": "uint256"
        },
        {
          "indexed": false,
          "internalType": "address",
          "name": "currentPlayer",
          "type": "address"
        },
        {
          "indexed": false,
          "internalType": "string",
          "name": "words",
          "type": "string"
        },
        {
          "indexed": false,
          "internalType": "uint256",
          "name": "moveCount",
          "type": "uint256"
        }
      ],
      "name": "DuelMove",
      "type": "event"
    },
    {
      "anonymous": false,
      "inputs": [
        {
          "indexed": true,
          "internalType": "address",
          "name": "previousOwner",
          "type": "address"
        },
        {
          "indexed": true,
          "internalType": "address",
          "name": "newOwner",
          "type": "address"
        }
      ],
      "name": "OwnershipTransferred",
      "type": "event"
    },
    {
      "inputs": [
        {
          "internalType": "uint256",
          "name": "_duelId",
          "type": "uint256"
        }
      ],
      "name": "acceptDuel",
      "outputs": [],
      "stateMutability": "nonpayable",
      "type": "function"
    },
    {
      "inputs": [
        {
          "internalType": "uint256",
          "name": "_duelId",
          "type": "uint256"
        }
      ],
      "name": "cancelDuel",
      "outputs": [],
      "stateMutability": "nonpayable",
      "type": "function"
    },
    {
      "inputs": [
        {
          "internalType": "string",
          "name": "_targetWord",
          "type": "string"
        }
      ],
      "name": "createDuel",
      "outputs": [],
      "stateMutability": "nonpayable",
      "type": "function"
    },
    {
      "inputs": [
        {
          "internalType": "uint256",
          "name": "",
          "type": "uint256"
        }
      ],
      "name": "duels",
      "outputs": [
        {
          "internalType": "uint256",
          "name": "id",
          "type": "uint256"
        },
        {
          "internalType": "address",
          "name": "challenger",
          "type": "address"
        },
        {
          "internalType": "address",
          "name": "opponent",
          "type": "address"
        },
        {
          "internalType": "address",
          "name": "currentPlayer",
          "type": "address"
        },
        {
          "internalType": "string",
          "name": "targetWord",
          "type": "string"
        },
        {
          "internalType": "string",
          "name": "words",
          "type": "string"
        },
        {
          "internalType": "uint256",
          "name": "createdAt",
          "type": "uint256"
        },
        {
          "internalType": "uint256",
          "name": "moveCount",
          "type": "uint256"
        },
        {
          "internalType": "enum OpenFreeDuels.DuelState",
          "name": "state",
          "type": "uint8"
        }
      ],
      "stateMutability": "view",
      "type": "function"
    },
    {
      "inputs": [],
      "name": "getBalance",
      "outputs": [
        {
          "internalType": "uint256",
          "name": "",
          "type": "uint256"
        }
      ],
      "stateMutability": "view",
      "type": "function"
    },
    {
      "inputs": [
        {
          "internalType": "uint256",
          "name": "_duelId",
          "type": "uint256"
        }
      ],
      "name": "getDuel",
      "outputs": [
        {
          "components": [
            {
              "internalType": "uint256",
              "name": "id",
              "type": "uint256"
            },
            {
              "internalType": "address",
              "name": "challenger",
              "type": "address"
            },
            {
              "internalType": "address",
              "name": "opponent",
              "type": "address"
            },
            {
              "internalType": "address",
              "name": "currentPlayer",
              "type": "address"
            },
            {
              "internalType": "string",
              "name": "targetWord",
              "type": "string"
            },
            {
              "internalType": "string",
              "name": "words",
              "type": "string"
            },
            {
              "internalType": "uint256",
              "name": "createdAt",
              "type": "uint256"
            },
            {
              "internalType": "uint256",
              "name": "moveCount",
              "type": "uint256"
            },
            {
              "internalType": "enum OpenFreeDuels.DuelState",
              "name": "state",
              "type": "uint8"
            }
          ],
          "internalType": "struct OpenFreeDuels.Duel",
          "name": "",
          "type": "tuple"
        }
      ],
      "stateMutability": "view",
      "type": "function"
    },
    {
      "inputs": [],
      "name": "getDuels",
      "outputs": [
        {
          "components": [
            {
              "internalType": "uint256",
              "name": "id",
              "type": "uint256"
            },
            {
              "internalType": "address",
              "name": "challenger",
              "type": "address"
            },
            {
              "internalType": "address",
              "name": "opponent",
              "type": "address"
            },
            {
              "internalType": "address",
              "name": "currentPlayer",
              "type": "address"
            },
            {
              "internalType": "string",
              "name": "targetWord",
              "type": "string"
            },
            {
              "internalType": "string",
              "name": "words",
              "type": "string"
            },
            {
              "internalType": "uint256",
              "name": "createdAt",
              "type": "uint256"
            },
            {
              "internalType": "uint256",
              "name": "moveCount",
              "type": "uint256"
            },
            {
              "internalType": "enum OpenFreeDuels.DuelState",
              "name": "state",
              "type": "uint8"
            }
          ],
          "internalType": "struct OpenFreeDuels.Duel[]",
          "name": "",
          "type": "tuple[]"
        }
      ],
      "stateMutability": "view",
      "type": "function"
    },
    {
      "inputs": [],
      "name": "getDuelsCount",
      "outputs": [
        {
          "internalType": "uint256",
          "name": "",
          "type": "uint256"
        }
      ],
      "stateMutability": "view",
      "type": "function"
    },
    {
      "inputs": [
        {
          "internalType": "address",
          "name": "_wallet",
          "type": "address"
        }
      ],
      "name": "getMyDuels",
      "outputs": [
        {
          "internalType": "uint256[]",
          "name": "",
          "type": "uint256[]"
        }
      ],
      "stateMutability": "view",
      "type": "function"
    },
    {
      "inputs": [
        {
          "internalType": "address",
          "name": "_wallet",
          "type": "address"
        }
      ],
      "name": "getMyDuelsCount",
      "outputs": [
        {
          "internalType": "uint256",
          "name": "",
          "type": "uint256"
        }
      ],
      "stateMutability": "view",
      "type": "function"
    },
    {
      "inputs": [
        {
          "internalType": "address",
          "name": "forwarder",
          "type": "address"
        }
      ],
      "name": "isTrustedForwarder",
      "outputs": [
        {
          "internalType": "bool",
          "name": "",
          "type": "bool"
        }
      ],
      "stateMutability": "view",
      "type": "function"
    },
    {
      "inputs": [
        {
          "internalType": "uint256",
          "name": "_duelId",
          "type": "uint256"
        },
        {
          "internalType": "string",
          "name": "_word",
          "type": "string"
        }
      ],
      "name": "makeMove",
      "outputs": [],
      "stateMutability": "nonpayable",
      "type": "function"
    },
    {
      "inputs": [
        {
          "internalType": "address",
          "name": "",
          "type": "address"
        },
        {
          "internalType": "uint256",
          "name": "",
          "type": "uint256"
        }
      ],
      "name": "myDuels",
      "outputs": [
        {
          "internalType": "uint256",
          "name": "",
          "type": "uint256"
        }
      ],
      "stateMutability": "view",
      "type": "function"
    },
    {
      "inputs": [],
      "name": "owner",
      "outputs": [
        {
          "internalType": "address",
          "name": "",
          "type": "address"
        }
      ],
      "stateMutability": "view",
      "type": "function"
    },
    {
      "inputs": [],
      "name": "renounceOwnership",
      "outputs": [],
      "stateMutability": "nonpayable",
      "type": "function"
    },
    {
      "inputs": [
        {
          "internalType": "address",
          "name": "newOwner",
          "type": "address"
        }
      ],
      "name": "transferOwnership",
      "outputs": [],
      "stateMutability": "nonpayable",
      "type": "function"
    }
  ],
  "bytecode": "0x60a06040523480156200001157600080fd5b506040516200316638038062003166833981810160405281019062000037919062000272565b808073ffffffffffffffffffffffffffffffffffffffff1660808173ffffffffffffffffffffffffffffffffffffffff1681525050506200008d620000816200009460201b60201c565b620000ab60201b60201c565b50620002a4565b6000620000a66200016f60201b60201c565b905090565b60008060009054906101000a900473ffffffffffffffffffffffffffffffffffffffff169050816000806101000a81548173ffffffffffffffffffffffffffffffffffffffff021916908373ffffffffffffffffffffffffffffffffffffffff1602179055508173ffffffffffffffffffffffffffffffffffffffff168173ffffffffffffffffffffffffffffffffffffffff167f8be0079c531659141344cd1fd0a4f28419497f9722a3daafe3b4186f6b6457e060405160405180910390a35050565b60006200018233620001c660201b60201c565b80156200019457506014600036905010155b15620001aa57601436033560601c9050620001c2565b620001ba6200020060201b60201c565b9050620001c3565b5b90565b600060805173ffffffffffffffffffffffffffffffffffffffff168273ffffffffffffffffffffffffffffffffffffffff16149050919050565b600033905090565b600080fd5b600073ffffffffffffffffffffffffffffffffffffffff82169050919050565b60006200023a826200020d565b9050919050565b6200024c816200022d565b81146200025857600080fd5b50565b6000815190506200026c8162000241565b92915050565b6000602082840312156200028b576200028a62000208565b5b60006200029b848285016200025b565b91505092915050565b608051612ea6620002c0600039600061064f0152612ea66000f3fe608060405234801561001057600080fd5b50600436106101005760003560e01c8063859a62d011610097578063c7081d3d11610066578063c7081d3d146102b7578063c874b1c2146102e7578063d9c312f414610303578063f2fde38b1461031f57610100565b8063859a62d0146102135780638da5cb5b1461024b578063a0c9ed4714610269578063afce75d41461028757610100565b80635e2d8223116100d35780635e2d8223146101b35780636107814e146101cf578063715018a6146101ed5780637d20e927146101f757610100565b806312065fe0146101055780631d9e39d114610123578063565e614f14610153578063572b6c0514610183575b600080fd5b61010d61033b565b60405161011a9190611c39565b60405180910390f35b61013d60048036038101906101389190611cc6565b610343565b60405161014a9190611c39565b60405180910390f35b61016d60048036038101906101689190611d1f565b61038f565b60405161017a9190611f3d565b60405180910390f35b61019d60048036038101906101989190611cc6565b61064b565b6040516101aa9190611f7a565b60405180910390f35b6101cd60048036038101906101c891906120ca565b6106a3565b005b6101d761098c565b6040516101e49190611c39565b60405180910390f35b6101f5610999565b005b610211600480360381019061020c9190612113565b6109ad565b005b61022d60048036038101906102289190611d1f565b610fe3565b604051610242999897969594939291906121d7565b60405180910390f35b6102536111be565b6040516102609190612272565b60405180910390f35b6102716111e7565b60405161027e919061241b565b60405180910390f35b6102a1600480360381019061029c919061243d565b6114c6565b6040516102ae9190611c39565b60405180910390f35b6102d160048036038101906102cc9190611cc6565b6114f7565b6040516102de919061252c565b60405180910390f35b61030160048036038101906102fc9190611d1f565b61158e565b005b61031d60048036038101906103189190611d1f565b611786565b005b61033960048036038101906103349190611cc6565b611961565b005b600047905090565b6000600260008373ffffffffffffffffffffffffffffffffffffffff1673ffffffffffffffffffffffffffffffffffffffff168152602001908152602001600020805490509050919050565b610397611b80565b600182815481106103ab576103aa61254e565b5b906000526020600020906009020160405180610120016040529081600082015481526020016001820160009054906101000a900473ffffffffffffffffffffffffffffffffffffffff1673ffffffffffffffffffffffffffffffffffffffff1673ffffffffffffffffffffffffffffffffffffffff1681526020016002820160009054906101000a900473ffffffffffffffffffffffffffffffffffffffff1673ffffffffffffffffffffffffffffffffffffffff1673ffffffffffffffffffffffffffffffffffffffff1681526020016003820160009054906101000a900473ffffffffffffffffffffffffffffffffffffffff1673ffffffffffffffffffffffffffffffffffffffff1673ffffffffffffffffffffffffffffffffffffffff1681526020016004820180546104e1906125ac565b80601f016020809104026020016040519081016040528092919081815260200182805461050d906125ac565b801561055a5780601f1061052f5761010080835404028352916020019161055a565b820191906000526020600020905b81548152906001019060200180831161053d57829003601f168201915b50505050508152602001600582018054610573906125ac565b80601f016020809104026020016040519081016040528092919081815260200182805461059f906125ac565b80156105ec5780601f106105c1576101008083540402835291602001916105ec565b820191906000526020600020905b8154815290600101906020018083116105cf57829003601f168201915b5050505050815260200160068201548152602001600782015481526020016008820160009054906101000a900460ff16600381111561062e5761062d611dfa565b5b60038111156106405761063f611dfa565b5b815250509050919050565b60007f000000000000000000000000000000000000000000000000000000000000000073ffffffffffffffffffffffffffffffffffffffff168273ffffffffffffffffffffffffffffffffffffffff16149050919050565b6000600180549050905060006040518061012001604052808381526020016106c96119e4565b73ffffffffffffffffffffffffffffffffffffffff168152602001600073ffffffffffffffffffffffffffffffffffffffff1681526020016107096119e4565b73ffffffffffffffffffffffffffffffffffffffff16815260200184815260200160405180602001604052806000815250815260200142815260200160008152602001600060038111156107605761075f611dfa565b5b815250905060018190806001815401808255809150506001900390600052602060002090600902016000909190919091506000820151816000015560208201518160010160006101000a81548173ffffffffffffffffffffffffffffffffffffffff021916908373ffffffffffffffffffffffffffffffffffffffff16021790555060408201518160020160006101000a81548173ffffffffffffffffffffffffffffffffffffffff021916908373ffffffffffffffffffffffffffffffffffffffff16021790555060608201518160030160006101000a81548173ffffffffffffffffffffffffffffffffffffffff021916908373ffffffffffffffffffffffffffffffffffffffff16021790555060808201518160040190816108859190612789565b5060a082015181600501908161089b9190612789565b5060c0820151816006015560e082015181600701556101008201518160080160006101000a81548160ff021916908360038111156108dc576108db611dfa565b5b02179055505050600260006108ef6119e4565b73ffffffffffffffffffffffffffffffffffffffff1673ffffffffffffffffffffffffffffffffffffffff1681526020019081526020016000208290806001815401808255809150506001900390600052602060002001600090919091909150557fb0dbe2e299e34ddf17287956670f83f8023010cd8f30be461d12379d40447b068260405161097f9190611c39565b60405180910390a1505050565b6000600180549050905090565b6109a16119f3565b6109ab6000611a71565b565b600160038111156109c1576109c0611dfa565b5b600183815481106109d5576109d461254e565b5b906000526020600020906009020160080160009054906101000a900460ff166003811115610a0657610a05611dfa565b5b14610a46576040517f08c379a0000000000000000000000000000000000000000000000000000000008152600401610a3d906128a7565b60405180910390fd5b610a4e6119e4565b73ffffffffffffffffffffffffffffffffffffffff1660018381548110610a7857610a7761254e565b5b906000526020600020906009020160030160009054906101000a900473ffffffffffffffffffffffffffffffffffffffff1673ffffffffffffffffffffffffffffffffffffffff1614610b00576040517f08c379a0000000000000000000000000000000000000000000000000000000008152600401610af790612939565b60405180910390fd5b60018281548110610b1457610b1361254e565b5b906000526020600020906009020160050181604051602001610b37929190612a64565b60405160208183030381529060405260018381548110610b5a57610b5961254e565b5b90600052602060002090600902016005019081610b779190612789565b5060018281548110610b8c57610b8b61254e565b5b9060005260206000209060090201600401604051602001610bad9190612a93565b6040516020818303038152906040528051906020012081604051602001610bd49190612aaa565b6040516020818303038152906040528051906020012003610c4257600260018381548110610c0557610c0461254e565b5b906000526020600020906009020160080160006101000a81548160ff02191690836003811115610c3857610c37611dfa565b5b0217905550610fdf565b60018281548110610c5657610c5561254e565b5b906000526020600020906009020160010160009054906101000a900473ffffffffffffffffffffffffffffffffffffffff1673ffffffffffffffffffffffffffffffffffffffff1660018381548110610cb257610cb161254e565b5b906000526020600020906009020160030160009054906101000a900473ffffffffffffffffffffffffffffffffffffffff1673ffffffffffffffffffffffffffffffffffffffff1603610dad5760018281548110610d1357610d1261254e565b5b906000526020600020906009020160020160009054906101000a900473ffffffffffffffffffffffffffffffffffffffff1660018381548110610d5957610d5861254e565b5b906000526020600020906009020160030160006101000a81548173ffffffffffffffffffffffffffffffffffffffff021916908373ffffffffffffffffffffffffffffffffffffffff160217905550610e57565b60018281548110610dc157610dc061254e565b5b906000526020600020906009020160010160009054906101000a900473ffffffffffffffffffffffffffffffffffffffff1660018381548110610e0757610e0661254e565b5b906000526020600020906009020160030160006101000a81548173ffffffffffffffffffffffffffffffffffffffff021916908373ffffffffffffffffffffffffffffffffffffffff1602179055505b60018281548110610e6b57610e6a61254e565b5b90600052602060002090600902016007016000815480929190610e8d90612af0565b9190505550600660018381548110610ea857610ea761254e565b5b90600052602060002090600902016007015403610f1257600260018381548110610ed557610ed461254e565b5b906000526020600020906009020160080160006101000a81548160ff02191690836003811115610f0857610f07611dfa565b5b0217905550610fde565b7ff1fb0272a0c5071948832056b653548b50099324be42a8c46a012cf7ae6e30198260018481548110610f4857610f4761254e565b5b906000526020600020906009020160030160009054906101000a900473ffffffffffffffffffffffffffffffffffffffff1660018581548110610f8e57610f8d61254e565b5b906000526020600020906009020160050160018681548110610fb357610fb261254e565b5b906000526020600020906009020160070154604051610fd59493929190612bbc565b60405180910390a15b5b5050565b60018181548110610ff357600080fd5b90600052602060002090600902016000915090508060000154908060010160009054906101000a900473ffffffffffffffffffffffffffffffffffffffff16908060020160009054906101000a900473ffffffffffffffffffffffffffffffffffffffff16908060030160009054906101000a900473ffffffffffffffffffffffffffffffffffffffff169080600401805461108e906125ac565b80601f01602080910402602001604051908101604052809291908181526020018280546110ba906125ac565b80156111075780601f106110dc57610100808354040283529160200191611107565b820191906000526020600020905b8154815290600101906020018083116110ea57829003601f168201915b50505050509080600501805461111c906125ac565b80601f0160208091040260200160405190810160405280929190818152602001828054611148906125ac565b80156111955780601f1061116a57610100808354040283529160200191611195565b820191906000526020600020905b81548152906001019060200180831161117857829003601f168201915b5050505050908060060154908060070154908060080160009054906101000a900460ff16905089565b60008060009054906101000a900473ffffffffffffffffffffffffffffffffffffffff16905090565b60606001805480602002602001604051908101604052809291908181526020016000905b828210156114bd578382906000526020600020906009020160405180610120016040529081600082015481526020016001820160009054906101000a900473ffffffffffffffffffffffffffffffffffffffff1673ffffffffffffffffffffffffffffffffffffffff1673ffffffffffffffffffffffffffffffffffffffff1681526020016002820160009054906101000a900473ffffffffffffffffffffffffffffffffffffffff1673ffffffffffffffffffffffffffffffffffffffff1673ffffffffffffffffffffffffffffffffffffffff1681526020016003820160009054906101000a900473ffffffffffffffffffffffffffffffffffffffff1673ffffffffffffffffffffffffffffffffffffffff1673ffffffffffffffffffffffffffffffffffffffff16815260200160048201805461134b906125ac565b80601f0160208091040260200160405190810160405280929190818152602001828054611377906125ac565b80156113c45780601f10611399576101008083540402835291602001916113c4565b820191906000526020600020905b8154815290600101906020018083116113a757829003601f168201915b505050505081526020016005820180546113dd906125ac565b80601f0160208091040260200160405190810160405280929190818152602001828054611409906125ac565b80156114565780601f1061142b57610100808354040283529160200191611456565b820191906000526020600020905b81548152906001019060200180831161143957829003601f168201915b5050505050815260200160068201548152602001600782015481526020016008820160009054906101000a900460ff16600381111561149857611497611dfa565b5b60038111156114aa576114a9611dfa565b5b815250508152602001906001019061120b565b50505050905090565b600260205281600052604060002081815481106114e257600080fd5b90600052602060002001600091509150505481565b6060600260008373ffffffffffffffffffffffffffffffffffffffff1673ffffffffffffffffffffffffffffffffffffffff16815260200190815260200160002080548060200260200160405190810160405280929190818152602001828054801561158257602002820191906000526020600020905b81548152602001906001019080831161156e575b50505050509050919050565b600060038111156115a2576115a1611dfa565b5b600182815481106115b6576115b561254e565b5b906000526020600020906009020160080160009054906101000a900460ff1660038111156115e7576115e6611dfa565b5b14611627576040517f08c379a000000000000000000000000000000000000000000000000000000000815260040161161e90612c54565b60405180910390fd5b61162f6119e4565b600182815481106116435761164261254e565b5b906000526020600020906009020160020160006101000a81548173ffffffffffffffffffffffffffffffffffffffff021916908373ffffffffffffffffffffffffffffffffffffffff16021790555060018082815481106116a7576116a661254e565b5b906000526020600020906009020160080160006101000a81548160ff021916908360038111156116da576116d9611dfa565b5b0217905550600260006116eb6119e4565b73ffffffffffffffffffffffffffffffffffffffff1673ffffffffffffffffffffffffffffffffffffffff1681526020019081526020016000208190806001815401808255809150506001900390600052602060002001600090919091909150557f8ea16fd26bf5a97624d8b6fb303928937b9b559c4627028620ecf8e221dd32e98160405161177b9190611c39565b60405180910390a150565b61178e6119e4565b73ffffffffffffffffffffffffffffffffffffffff16600182815481106117b8576117b761254e565b5b906000526020600020906009020160010160009054906101000a900473ffffffffffffffffffffffffffffffffffffffff1673ffffffffffffffffffffffffffffffffffffffff1614611840576040517f08c379a000000000000000000000000000000000000000000000000000000000815260040161183790612ce6565b60405180910390fd5b6000600381111561185457611853611dfa565b5b600182815481106118685761186761254e565b5b906000526020600020906009020160080160009054906101000a900460ff16600381111561189957611898611dfa565b5b146118d9576040517f08c379a00000000000000000000000000000000000000000000000000000000081526004016118d090612d52565b60405180910390fd5b6003600182815481106118ef576118ee61254e565b5b906000526020600020906009020160080160006101000a81548160ff0219169083600381111561192257611921611dfa565b5b02179055507fe6869595d58c61aa991d00acb41ac260a2d3b5a40d58255f6aad94a14c2804a7816040516119569190611c39565b60405180910390a150565b6119696119f3565b600073ffffffffffffffffffffffffffffffffffffffff168173ffffffffffffffffffffffffffffffffffffffff16036119d8576040517f08c379a00000000000000000000000000000000000000000000000000000000081526004016119cf90612de4565b60405180910390fd5b6119e181611a71565b50565b60006119ee611b35565b905090565b6119fb6119e4565b73ffffffffffffffffffffffffffffffffffffffff16611a196111be565b73ffffffffffffffffffffffffffffffffffffffff1614611a6f576040517f08c379a0000000000000000000000000000000000000000000000000000000008152600401611a6690612e50565b60405180910390fd5b565b60008060009054906101000a900473ffffffffffffffffffffffffffffffffffffffff169050816000806101000a81548173ffffffffffffffffffffffffffffffffffffffff021916908373ffffffffffffffffffffffffffffffffffffffff1602179055508173ffffffffffffffffffffffffffffffffffffffff168173ffffffffffffffffffffffffffffffffffffffff167f8be0079c531659141344cd1fd0a4f28419497f9722a3daafe3b4186f6b6457e060405160405180910390a35050565b6000611b403361064b565b8015611b5157506014600036905010155b15611b6557601436033560601c9050611b74565b611b6d611b78565b9050611b75565b5b90565b600033905090565b60405180610120016040528060008152602001600073ffffffffffffffffffffffffffffffffffffffff168152602001600073ffffffffffffffffffffffffffffffffffffffff168152602001600073ffffffffffffffffffffffffffffffffffffffff1681526020016060815260200160608152602001600081526020016000815260200160006003811115611c1a57611c19611dfa565b5b81525090565b6000819050919050565b611c3381611c20565b82525050565b6000602082019050611c4e6000830184611c2a565b92915050565b6000604051905090565b600080fd5b600080fd5b600073ffffffffffffffffffffffffffffffffffffffff82169050919050565b6000611c9382611c68565b9050919050565b611ca381611c88565b8114611cae57600080fd5b50565b600081359050611cc081611c9a565b92915050565b600060208284031215611cdc57611cdb611c5e565b5b6000611cea84828501611cb1565b91505092915050565b611cfc81611c20565b8114611d0757600080fd5b50565b600081359050611d1981611cf3565b92915050565b600060208284031215611d3557611d34611c5e565b5b6000611d4384828501611d0a565b91505092915050565b611d5581611c20565b82525050565b611d6481611c88565b82525050565b600081519050919050565b600082825260208201905092915050565b60005b83811015611da4578082015181840152602081019050611d89565b60008484015250505050565b6000601f19601f8301169050919050565b6000611dcc82611d6a565b611dd68185611d75565b9350611de6818560208601611d86565b611def81611db0565b840191505092915050565b7f4e487b7100000000000000000000000000000000000000000000000000000000600052602160045260246000fd5b60048110611e3a57611e39611dfa565b5b50565b6000819050611e4b82611e29565b919050565b6000611e5b82611e3d565b9050919050565b611e6b81611e50565b82525050565b600061012083016000830151611e8a6000860182611d4c565b506020830151611e9d6020860182611d5b565b506040830151611eb06040860182611d5b565b506060830151611ec36060860182611d5b565b5060808301518482036080860152611edb8282611dc1565b91505060a083015184820360a0860152611ef58282611dc1565b91505060c0830151611f0a60c0860182611d4c565b5060e0830151611f1d60e0860182611d4c565b50610100830151611f32610100860182611e62565b508091505092915050565b60006020820190508181036000830152611f578184611e71565b905092915050565b60008115159050919050565b611f7481611f5f565b82525050565b6000602082019050611f8f6000830184611f6b565b92915050565b600080fd5b600080fd5b7f4e487b7100000000000000000000000000000000000000000000000000000000600052604160045260246000fd5b611fd782611db0565b810181811067ffffffffffffffff82111715611ff657611ff5611f9f565b5b80604052505050565b6000612009611c54565b90506120158282611fce565b919050565b600067ffffffffffffffff82111561203557612034611f9f565b5b61203e82611db0565b9050602081019050919050565b82818337600083830152505050565b600061206d6120688461201a565b611fff565b90508281526020810184848401111561208957612088611f9a565b5b61209484828561204b565b509392505050565b600082601f8301126120b1576120b0611f95565b5b81356120c184826020860161205a565b91505092915050565b6000602082840312156120e0576120df611c5e565b5b600082013567ffffffffffffffff8111156120fe576120fd611c63565b5b61210a8482850161209c565b91505092915050565b6000806040838503121561212a57612129611c5e565b5b600061213885828601611d0a565b925050602083013567ffffffffffffffff81111561215957612158611c63565b5b6121658582860161209c565b9150509250929050565b61217881611c88565b82525050565b600082825260208201905092915050565b600061219a82611d6a565b6121a4818561217e565b93506121b4818560208601611d86565b6121bd81611db0565b840191505092915050565b6121d181611e50565b82525050565b6000610120820190506121ed600083018c611c2a565b6121fa602083018b61216f565b612207604083018a61216f565b612214606083018961216f565b8181036080830152612226818861218f565b905081810360a083015261223a818761218f565b905061224960c0830186611c2a565b61225660e0830185611c2a565b6122646101008301846121c8565b9a9950505050505050505050565b6000602082019050612287600083018461216f565b92915050565b600081519050919050565b600082825260208201905092915050565b6000819050602082019050919050565b6000610120830160008301516122d26000860182611d4c565b5060208301516122e56020860182611d5b565b5060408301516122f86040860182611d5b565b50606083015161230b6060860182611d5b565b50608083015184820360808601526123238282611dc1565b91505060a083015184820360a086015261233d8282611dc1565b91505060c083015161235260c0860182611d4c565b5060e083015161236560e0860182611d4c565b5061010083015161237a610100860182611e62565b508091505092915050565b600061239183836122b9565b905092915050565b6000602082019050919050565b60006123b18261228d565b6123bb8185612298565b9350836020820285016123cd856122a9565b8060005b8581101561240957848403895281516123ea8582612385565b94506123f583612399565b925060208a019950506001810190506123d1565b50829750879550505050505092915050565b6000602082019050818103600083015261243581846123a6565b905092915050565b6000806040838503121561245457612453611c5e565b5b600061246285828601611cb1565b925050602061247385828601611d0a565b9150509250929050565b600081519050919050565b600082825260208201905092915050565b6000819050602082019050919050565b60006124b58383611d4c565b60208301905092915050565b6000602082019050919050565b60006124d98261247d565b6124e38185612488565b93506124ee83612499565b8060005b8381101561251f57815161250688826124a9565b9750612511836124c1565b9250506001810190506124f2565b5085935050505092915050565b6000602082019050818103600083015261254681846124ce565b905092915050565b7f4e487b7100000000000000000000000000000000000000000000000000000000600052603260045260246000fd5b7f4e487b7100000000000000000000000000000000000000000000000000000000600052602260045260246000fd5b600060028204905060018216806125c457607f821691505b6020821081036125d7576125d661257d565b5b50919050565b60008190508160005260206000209050919050565b60006020601f8301049050919050565b600082821b905092915050565b60006008830261263f7fffffffffffffffffffffffffffffffffffffffffffffffffffffffffffffffff82612602565b6126498683612602565b95508019841693508086168417925050509392505050565b6000819050919050565b600061268661268161267c84611c20565b612661565b611c20565b9050919050565b6000819050919050565b6126a08361266b565b6126b46126ac8261268d565b84845461260f565b825550505050565b600090565b6126c96126bc565b6126d4818484612697565b505050565b5b818110156126f8576126ed6000826126c1565b6001810190506126da565b5050565b601f82111561273d5761270e816125dd565b612717846125f2565b81016020851015612726578190505b61273a612732856125f2565b8301826126d9565b50505b505050565b600082821c905092915050565b600061276060001984600802612742565b1980831691505092915050565b6000612779838361274f565b9150826002028217905092915050565b61279282611d6a565b67ffffffffffffffff8111156127ab576127aa611f9f565b5b6127b582546125ac565b6127c08282856126fc565b600060209050601f8311600181146127f357600084156127e1578287015190505b6127eb858261276d565b865550612853565b601f198416612801866125dd565b60005b8281101561282957848901518255600182019150602085019450602081019050612804565b868310156128465784890151612842601f89168261274f565b8355505b6001600288020188555050505b505050505050565b7f4475656c206d7573742062652061636365707465640000000000000000000000600082015250565b600061289160158361217e565b915061289c8261285b565b602082019050919050565b600060208201905081810360008301526128c081612884565b9050919050565b7f4f6e6c79207468652063757272656e7420706c617965722063616e206d616b6560008201527f2061206d6f766500000000000000000000000000000000000000000000000000602082015250565b600061292360278361217e565b915061292e826128c7565b604082019050919050565b6000602082019050818103600083015261295281612916565b9050919050565b600081905092915050565b60008154612971816125ac565b61297b8186612959565b9450600182166000811461299657600181146129ab576129de565b60ff19831686528115158202860193506129de565b6129b4856125dd565b60005b838110156129d6578154818901526001820191506020810190506129b7565b838801955050505b50505092915050565b7f2c00000000000000000000000000000000000000000000000000000000000000600082015250565b6000612a1d600183612959565b9150612a28826129e7565b600182019050919050565b6000612a3e82611d6a565b612a488185612959565b9350612a58818560208601611d86565b80840191505092915050565b6000612a708285612964565b9150612a7b82612a10565b9150612a878284612a33565b91508190509392505050565b6000612a9f8284612964565b915081905092915050565b6000612ab68284612a33565b915081905092915050565b7f4e487b7100000000000000000000000000000000000000000000000000000000600052601160045260246000fd5b6000612afb82611c20565b91507fffffffffffffffffffffffffffffffffffffffffffffffffffffffffffffffff8203612b2d57612b2c612ac1565b5b600182019050919050565b60008154612b45816125ac565b612b4f818661217e565b94506001821660008114612b6a5760018114612b8057612bb3565b60ff198316865281151560200286019350612bb3565b612b89856125dd565b60005b83811015612bab57815481890152600182019150602081019050612b8c565b808801955050505b50505092915050565b6000608082019050612bd16000830187611c2a565b612bde602083018661216f565b8181036040830152612bf08185612b38565b9050612bff6060830184611c2a565b95945050505050565b7f4475656c206d757374206e6f7420626520616363657074656420796574000000600082015250565b6000612c3e601d8361217e565b9150612c4982612c08565b602082019050919050565b60006020820190508181036000830152612c6d81612c31565b9050919050565b7f4f6e6c7920746865206368616c6c656e6765722063616e2063616e63656c207460008201527f6865206475656c00000000000000000000000000000000000000000000000000602082015250565b6000612cd060278361217e565b9150612cdb82612c74565b604082019050919050565b60006020820190508181036000830152612cff81612cc3565b9050919050565b7f4475656c206d757374206265206e6f7420626520616363657074656420796574600082015250565b6000612d3c60208361217e565b9150612d4782612d06565b602082019050919050565b60006020820190508181036000830152612d6b81612d2f565b9050919050565b7f4f776e61626c653a206e6577206f776e657220697320746865207a65726f206160008201527f6464726573730000000000000000000000000000000000000000000000000000602082015250565b6000612dce60268361217e565b9150612dd982612d72565b604082019050919050565b60006020820190508181036000830152612dfd81612dc1565b9050919050565b7f4f776e61626c653a2063616c6c6572206973206e6f7420746865206f776e6572600082015250565b6000612e3a60208361217e565b9150612e4582612e04565b602082019050919050565b60006020820190508181036000830152612e6981612e2d565b905091905056fea264697066735822122005db74f0f984c2eeeeae4905994320f3f91c898d918aa66b6360e3f4d07ea95764736f6c63430008130033",
  "linkReferences": {},
  "deployedLinkReferences": {}
}