{
  "_format": "hh-sol-artifact-1",
  "contractName": "OpenDuels",
  "sourceName": "contracts/OpenDuels.sol",
  "abi": [
    {
      "anonymous": false,
      "inputs": [
        {
          "indexed": false,
          "internalType": "uint256",
          "name": "id",
          "type": "uint256"
        }
      ],
      "name": "DuelAccepted",
      "type": "event"
    },
    {
      "anonymous": false,
      "inputs": [
        {
          "indexed": false,
          "internalType": "uint256",
          "name": "id",
          "type": "uint256"
        }
      ],
      "name": "DuelCancelled",
      "type": "event"
    },
    {
      "anonymous": false,
      "inputs": [
        {
          "indexed": false,
          "internalType": "uint256",
          "name": "id",
          "type": "uint256"
        }
      ],
      "name": "DuelCreated",
      "type": "event"
    },
    {
      "anonymous": false,
      "inputs": [
        {
          "indexed": false,
          "internalType": "uint256",
          "name": "id",
          "type": "uint256"
        },
        {
          "indexed": false,
          "internalType": "address",
          "name": "currentPlayer",
          "type": "address"
        },
        {
          "indexed": false,
          "internalType": "string",
          "name": "words",
          "type": "string"
        },
        {
          "indexed": false,
          "internalType": "uint256",
          "name": "moveCount",
          "type": "uint256"
        }
      ],
      "name": "DuelMove",
      "type": "event"
    },
    {
      "anonymous": false,
      "inputs": [
        {
          "indexed": true,
          "internalType": "address",
          "name": "previousOwner",
          "type": "address"
        },
        {
          "indexed": true,
          "internalType": "address",
          "name": "newOwner",
          "type": "address"
        }
      ],
      "name": "OwnershipTransferred",
      "type": "event"
    },
    {
      "inputs": [],
      "name": "FEE",
      "outputs": [
        {
          "internalType": "uint256",
          "name": "",
          "type": "uint256"
        }
      ],
      "stateMutability": "view",
      "type": "function"
    },
    {
      "inputs": [
        {
          "internalType": "uint256",
          "name": "_duelId",
          "type": "uint256"
        }
      ],
      "name": "acceptDuel",
      "outputs": [],
      "stateMutability": "payable",
      "type": "function"
    },
    {
      "inputs": [
        {
          "internalType": "uint256",
          "name": "_duelId",
          "type": "uint256"
        }
      ],
      "name": "cancelDuel",
      "outputs": [],
      "stateMutability": "nonpayable",
      "type": "function"
    },
    {
      "inputs": [
        {
          "internalType": "string",
          "name": "_targetWord",
          "type": "string"
        }
      ],
      "name": "createDuel",
      "outputs": [],
      "stateMutability": "payable",
      "type": "function"
    },
    {
      "inputs": [
        {
          "internalType": "address",
          "name": "",
          "type": "address"
        },
        {
          "internalType": "uint256",
          "name": "",
          "type": "uint256"
        }
      ],
      "name": "draws",
      "outputs": [
        {
          "internalType": "uint256",
          "name": "",
          "type": "uint256"
        }
      ],
      "stateMutability": "view",
      "type": "function"
    },
    {
      "inputs": [
        {
          "internalType": "uint256",
          "name": "",
          "type": "uint256"
        }
      ],
      "name": "duels",
      "outputs": [
        {
          "internalType": "uint256",
          "name": "id",
          "type": "uint256"
        },
        {
          "internalType": "address",
          "name": "challenger",
          "type": "address"
        },
        {
          "internalType": "address",
          "name": "opponent",
          "type": "address"
        },
        {
          "internalType": "address",
          "name": "currentPlayer",
          "type": "address"
        },
        {
          "internalType": "string",
          "name": "targetWord",
          "type": "string"
        },
        {
          "internalType": "string",
          "name": "words",
          "type": "string"
        },
        {
          "internalType": "uint256",
          "name": "moveAmount",
          "type": "uint256"
        },
        {
          "internalType": "uint256",
          "name": "potAmount",
          "type": "uint256"
        },
        {
          "internalType": "uint256",
          "name": "createdAt",
          "type": "uint256"
        },
        {
          "internalType": "uint256",
          "name": "moveCount",
          "type": "uint256"
        },
        {
          "internalType": "enum OpenDuels.DuelState",
          "name": "state",
          "type": "uint8"
        }
      ],
      "stateMutability": "view",
      "type": "function"
    },
    {
      "inputs": [],
      "name": "getAcceptedDuels",
      "outputs": [
        {
          "components": [
            {
              "internalType": "uint256",
              "name": "id",
              "type": "uint256"
            },
            {
              "internalType": "address",
              "name": "challenger",
              "type": "address"
            },
            {
              "internalType": "address",
              "name": "opponent",
              "type": "address"
            },
            {
              "internalType": "address",
              "name": "currentPlayer",
              "type": "address"
            },
            {
              "internalType": "string",
              "name": "targetWord",
              "type": "string"
            },
            {
              "internalType": "string",
              "name": "words",
              "type": "string"
            },
            {
              "internalType": "uint256",
              "name": "moveAmount",
              "type": "uint256"
            },
            {
              "internalType": "uint256",
              "name": "potAmount",
              "type": "uint256"
            },
            {
              "internalType": "uint256",
              "name": "createdAt",
              "type": "uint256"
            },
            {
              "internalType": "uint256",
              "name": "moveCount",
              "type": "uint256"
            },
            {
              "internalType": "enum OpenDuels.DuelState",
              "name": "state",
              "type": "uint8"
            }
          ],
          "internalType": "struct OpenDuels.Duel[]",
          "name": "",
          "type": "tuple[]"
        }
      ],
      "stateMutability": "view",
      "type": "function"
    },
    {
      "inputs": [],
      "name": "getBalance",
      "outputs": [
        {
          "internalType": "uint256",
          "name": "",
          "type": "uint256"
        }
      ],
      "stateMutability": "view",
      "type": "function"
    },
    {
      "inputs": [],
      "name": "getCancelledDuels",
      "outputs": [
        {
          "components": [
            {
              "internalType": "uint256",
              "name": "id",
              "type": "uint256"
            },
            {
              "internalType": "address",
              "name": "challenger",
              "type": "address"
            },
            {
              "internalType": "address",
              "name": "opponent",
              "type": "address"
            },
            {
              "internalType": "address",
              "name": "currentPlayer",
              "type": "address"
            },
            {
              "internalType": "string",
              "name": "targetWord",
              "type": "string"
            },
            {
              "internalType": "string",
              "name": "words",
              "type": "string"
            },
            {
              "internalType": "uint256",
              "name": "moveAmount",
              "type": "uint256"
            },
            {
              "internalType": "uint256",
              "name": "potAmount",
              "type": "uint256"
            },
            {
              "internalType": "uint256",
              "name": "createdAt",
              "type": "uint256"
            },
            {
              "internalType": "uint256",
              "name": "moveCount",
              "type": "uint256"
            },
            {
              "internalType": "enum OpenDuels.DuelState",
              "name": "state",
              "type": "uint8"
            }
          ],
          "internalType": "struct OpenDuels.Duel[]",
          "name": "",
          "type": "tuple[]"
        }
      ],
      "stateMutability": "view",
      "type": "function"
    },
    {
      "inputs": [],
      "name": "getCreatedDuels",
      "outputs": [
        {
          "components": [
            {
              "internalType": "uint256",
              "name": "id",
              "type": "uint256"
            },
            {
              "internalType": "address",
              "name": "challenger",
              "type": "address"
            },
            {
              "internalType": "address",
              "name": "opponent",
              "type": "address"
            },
            {
              "internalType": "address",
              "name": "currentPlayer",
              "type": "address"
            },
            {
              "internalType": "string",
              "name": "targetWord",
              "type": "string"
            },
            {
              "internalType": "string",
              "name": "words",
              "type": "string"
            },
            {
              "internalType": "uint256",
              "name": "moveAmount",
              "type": "uint256"
            },
            {
              "internalType": "uint256",
              "name": "potAmount",
              "type": "uint256"
            },
            {
              "internalType": "uint256",
              "name": "createdAt",
              "type": "uint256"
            },
            {
              "internalType": "uint256",
              "name": "moveCount",
              "type": "uint256"
            },
            {
              "internalType": "enum OpenDuels.DuelState",
              "name": "state",
              "type": "uint8"
            }
          ],
          "internalType": "struct OpenDuels.Duel[]",
          "name": "",
          "type": "tuple[]"
        }
      ],
      "stateMutability": "view",
      "type": "function"
    },
    {
      "inputs": [
        {
          "internalType": "address",
          "name": "_wallet",
          "type": "address"
        }
      ],
      "name": "getDraws",
      "outputs": [
        {
          "internalType": "uint256[]",
          "name": "",
          "type": "uint256[]"
        }
      ],
      "stateMutability": "view",
      "type": "function"
    },
    {
      "inputs": [
        {
          "internalType": "address",
          "name": "_wallet",
          "type": "address"
        }
      ],
      "name": "getDrawsCount",
      "outputs": [
        {
          "internalType": "uint256",
          "name": "",
          "type": "uint256"
        }
      ],
      "stateMutability": "view",
      "type": "function"
    },
    {
      "inputs": [
        {
          "internalType": "uint256",
          "name": "_duelId",
          "type": "uint256"
        }
      ],
      "name": "getDuel",
      "outputs": [
        {
          "components": [
            {
              "internalType": "uint256",
              "name": "id",
              "type": "uint256"
            },
            {
              "internalType": "address",
              "name": "challenger",
              "type": "address"
            },
            {
              "internalType": "address",
              "name": "opponent",
              "type": "address"
            },
            {
              "internalType": "address",
              "name": "currentPlayer",
              "type": "address"
            },
            {
              "internalType": "string",
              "name": "targetWord",
              "type": "string"
            },
            {
              "internalType": "string",
              "name": "words",
              "type": "string"
            },
            {
              "internalType": "uint256",
              "name": "moveAmount",
              "type": "uint256"
            },
            {
              "internalType": "uint256",
              "name": "potAmount",
              "type": "uint256"
            },
            {
              "internalType": "uint256",
              "name": "createdAt",
              "type": "uint256"
            },
            {
              "internalType": "uint256",
              "name": "moveCount",
              "type": "uint256"
            },
            {
              "internalType": "enum OpenDuels.DuelState",
              "name": "state",
              "type": "uint8"
            }
          ],
          "internalType": "struct OpenDuels.Duel",
          "name": "",
          "type": "tuple"
        }
      ],
      "stateMutability": "view",
      "type": "function"
    },
    {
      "inputs": [],
      "name": "getDuels",
      "outputs": [
        {
          "components": [
            {
              "internalType": "uint256",
              "name": "id",
              "type": "uint256"
            },
            {
              "internalType": "address",
              "name": "challenger",
              "type": "address"
            },
            {
              "internalType": "address",
              "name": "opponent",
              "type": "address"
            },
            {
              "internalType": "address",
              "name": "currentPlayer",
              "type": "address"
            },
            {
              "internalType": "string",
              "name": "targetWord",
              "type": "string"
            },
            {
              "internalType": "string",
              "name": "words",
              "type": "string"
            },
            {
              "internalType": "uint256",
              "name": "moveAmount",
              "type": "uint256"
            },
            {
              "internalType": "uint256",
              "name": "potAmount",
              "type": "uint256"
            },
            {
              "internalType": "uint256",
              "name": "createdAt",
              "type": "uint256"
            },
            {
              "internalType": "uint256",
              "name": "moveCount",
              "type": "uint256"
            },
            {
              "internalType": "enum OpenDuels.DuelState",
              "name": "state",
              "type": "uint8"
            }
          ],
          "internalType": "struct OpenDuels.Duel[]",
          "name": "",
          "type": "tuple[]"
        }
      ],
      "stateMutability": "view",
      "type": "function"
    },
    {
      "inputs": [],
      "name": "getDuelsCount",
      "outputs": [
        {
          "internalType": "uint256",
          "name": "",
          "type": "uint256"
        }
      ],
      "stateMutability": "view",
      "type": "function"
    },
    {
      "inputs": [],
      "name": "getFinishedDuels",
      "outputs": [
        {
          "components": [
            {
              "internalType": "uint256",
              "name": "id",
              "type": "uint256"
            },
            {
              "internalType": "address",
              "name": "challenger",
              "type": "address"
            },
            {
              "internalType": "address",
              "name": "opponent",
              "type": "address"
            },
            {
              "internalType": "address",
              "name": "currentPlayer",
              "type": "address"
            },
            {
              "internalType": "string",
              "name": "targetWord",
              "type": "string"
            },
            {
              "internalType": "string",
              "name": "words",
              "type": "string"
            },
            {
              "internalType": "uint256",
              "name": "moveAmount",
              "type": "uint256"
            },
            {
              "internalType": "uint256",
              "name": "potAmount",
              "type": "uint256"
            },
            {
              "internalType": "uint256",
              "name": "createdAt",
              "type": "uint256"
            },
            {
              "internalType": "uint256",
              "name": "moveCount",
              "type": "uint256"
            },
            {
              "internalType": "enum OpenDuels.DuelState",
              "name": "state",
              "type": "uint8"
            }
          ],
          "internalType": "struct OpenDuels.Duel[]",
          "name": "",
          "type": "tuple[]"
        }
      ],
      "stateMutability": "view",
      "type": "function"
    },
    {
      "inputs": [
        {
          "internalType": "address",
          "name": "_wallet",
          "type": "address"
        }
      ],
      "name": "getLosses",
      "outputs": [
        {
          "internalType": "uint256[]",
          "name": "",
          "type": "uint256[]"
        }
      ],
      "stateMutability": "view",
      "type": "function"
    },
    {
      "inputs": [
        {
          "internalType": "address",
          "name": "_wallet",
          "type": "address"
        }
      ],
      "name": "getLossesCount",
      "outputs": [
        {
          "internalType": "uint256",
          "name": "",
          "type": "uint256"
        }
      ],
      "stateMutability": "view",
      "type": "function"
    },
    {
      "inputs": [
        {
          "internalType": "address",
          "name": "_wallet",
          "type": "address"
        }
      ],
      "name": "getMyDuels",
      "outputs": [
        {
          "internalType": "uint256[]",
          "name": "",
          "type": "uint256[]"
        }
      ],
      "stateMutability": "view",
      "type": "function"
    },
    {
      "inputs": [
        {
          "internalType": "address",
          "name": "_wallet",
          "type": "address"
        }
      ],
      "name": "getMyDuelsCount",
      "outputs": [
        {
          "internalType": "uint256",
          "name": "",
          "type": "uint256"
        }
      ],
      "stateMutability": "view",
      "type": "function"
    },
    {
      "inputs": [
        {
          "internalType": "address",
          "name": "_wallet",
          "type": "address"
        }
      ],
      "name": "getWins",
      "outputs": [
        {
          "internalType": "uint256[]",
          "name": "",
          "type": "uint256[]"
        }
      ],
      "stateMutability": "view",
      "type": "function"
    },
    {
      "inputs": [
        {
          "internalType": "address",
          "name": "_wallet",
          "type": "address"
        }
      ],
      "name": "getWinsCount",
      "outputs": [
        {
          "internalType": "uint256",
          "name": "",
          "type": "uint256"
        }
      ],
      "stateMutability": "view",
      "type": "function"
    },
    {
      "inputs": [
        {
          "internalType": "address",
          "name": "",
          "type": "address"
        },
        {
          "internalType": "uint256",
          "name": "",
          "type": "uint256"
        }
      ],
      "name": "losses",
      "outputs": [
        {
          "internalType": "uint256",
          "name": "",
          "type": "uint256"
        }
      ],
      "stateMutability": "view",
      "type": "function"
    },
    {
      "inputs": [
        {
          "internalType": "uint256",
          "name": "_duelId",
          "type": "uint256"
        },
        {
          "internalType": "string",
          "name": "_word",
          "type": "string"
        }
      ],
      "name": "makeMove",
      "outputs": [],
      "stateMutability": "payable",
      "type": "function"
    },
    {
      "inputs": [
        {
          "internalType": "address",
          "name": "",
          "type": "address"
        },
        {
          "internalType": "uint256",
          "name": "",
          "type": "uint256"
        }
      ],
      "name": "myDuels",
      "outputs": [
        {
          "internalType": "uint256",
          "name": "",
          "type": "uint256"
        }
      ],
      "stateMutability": "view",
      "type": "function"
    },
    {
      "inputs": [],
      "name": "owner",
      "outputs": [
        {
          "internalType": "address",
          "name": "",
          "type": "address"
        }
      ],
      "stateMutability": "view",
      "type": "function"
    },
    {
      "inputs": [],
      "name": "renounceOwnership",
      "outputs": [],
      "stateMutability": "nonpayable",
      "type": "function"
    },
    {
      "inputs": [
        {
          "internalType": "address",
          "name": "newOwner",
          "type": "address"
        }
      ],
      "name": "transferOwnership",
      "outputs": [],
      "stateMutability": "nonpayable",
      "type": "function"
    },
    {
      "inputs": [
        {
          "internalType": "address",
          "name": "",
          "type": "address"
        },
        {
          "internalType": "uint256",
          "name": "",
          "type": "uint256"
        }
      ],
      "name": "wins",
      "outputs": [
        {
          "internalType": "uint256",
          "name": "",
          "type": "uint256"
        }
      ],
      "stateMutability": "view",
      "type": "function"
    }
  ],
  "bytecode": "0x60806040523480156200001157600080fd5b5062000032620000266200003860201b60201c565b6200004060201b60201c565b62000104565b600033905090565b60008060009054906101000a900473ffffffffffffffffffffffffffffffffffffffff169050816000806101000a81548173ffffffffffffffffffffffffffffffffffffffff021916908373ffffffffffffffffffffffffffffffffffffffff1602179055508173ffffffffffffffffffffffffffffffffffffffff168173ffffffffffffffffffffffffffffffffffffffff167f8be0079c531659141344cd1fd0a4f28419497f9722a3daafe3b4186f6b6457e060405160405180910390a35050565b614f6b80620001146000396000f3fe6080604052600436106101c25760003560e01c8063a0c9ed47116100f7578063c874b1c211610095578063f9cc2d6c11610064578063f9cc2d6c14610673578063fba5a75e146106b0578063fc329d0c146106ed578063ffb1a6cb1461072a576101c2565b8063c874b1c2146105c8578063d9c312f4146105e4578063ec3535901461060d578063f2fde38b1461064a576101c2565b8063afce75d4116100d1578063afce75d4146104e6578063c063d80014610523578063c57981b514610560578063c7081d3d1461058b576101c2565b8063a0c9ed4714610453578063a66c7ee71461047e578063a75a6c86146104bb576101c2565b80635e2d822311610164578063715018a61161013e578063715018a6146103ae5780637d20e927146103c5578063859a62d0146103e15780638da5cb5b14610428576101c2565b80635e2d82231461032a57806360d1adeb146103465780636107814e14610383576101c2565b806339b13e6a116101a057806339b13e6a1461025a57806344c57cac14610285578063565e614f146102c25780635e2c243c146102ff576101c2565b80630b2a7e38146101c757806312065fe0146101f25780631d9e39d11461021d575b600080fd5b3480156101d357600080fd5b506101dc610767565b6040516101e99190613dd6565b60405180910390f35b3480156101fe57600080fd5b50610207610b3f565b6040516102149190613e07565b60405180910390f35b34801561022957600080fd5b50610244600480360381019061023f9190613e62565b610b47565b6040516102519190613e07565b60405180910390f35b34801561026657600080fd5b5061026f610b93565b60405161027c9190613dd6565b60405180910390f35b34801561029157600080fd5b506102ac60048036038101906102a79190613ebb565b610f6b565b6040516102b99190613e07565b60405180910390f35b3480156102ce57600080fd5b506102e960048036038101906102e49190613efb565b610f9c565b6040516102f6919061401e565b60405180910390f35b34801561030b57600080fd5b5061031461126c565b6040516103219190613dd6565b60405180910390f35b610344600480360381019061033f9190614175565b611643565b005b34801561035257600080fd5b5061036d60048036038101906103689190613e62565b6119e9565b60405161037a9190613e07565b60405180910390f35b34801561038f57600080fd5b50610398611a35565b6040516103a59190613e07565b60405180910390f35b3480156103ba57600080fd5b506103c3611a42565b005b6103df60048036038101906103da91906141be565b611a56565b005b3480156103ed57600080fd5b5061040860048036038101906104039190613efb565b612708565b60405161041f9b9a99989796959493929190614282565b60405180910390f35b34801561043457600080fd5b5061043d6128ef565b60405161044a919061433b565b60405180910390f35b34801561045f57600080fd5b50610468612918565b6040516104759190613dd6565b60405180910390f35b34801561048a57600080fd5b506104a560048036038101906104a09190613e62565b612c0b565b6040516104b29190613e07565b60405180910390f35b3480156104c757600080fd5b506104d0612c57565b6040516104dd9190613dd6565b60405180910390f35b3480156104f257600080fd5b5061050d60048036038101906105089190613ebb565b61302f565b60405161051a9190613e07565b60405180910390f35b34801561052f57600080fd5b5061054a60048036038101906105459190613ebb565b613060565b6040516105579190613e07565b60405180910390f35b34801561056c57600080fd5b50610575613091565b6040516105829190613e07565b60405180910390f35b34801561059757600080fd5b506105b260048036038101906105ad9190613e62565b61309c565b6040516105bf9190614405565b60405180910390f35b6105e260048036038101906105dd9190613efb565b613133565b005b3480156105f057600080fd5b5061060b60048036038101906106069190613efb565b6133c0565b005b34801561061957600080fd5b50610634600480360381019061062f9190613ebb565b613600565b6040516106419190613e07565b60405180910390f35b34801561065657600080fd5b50610671600480360381019061066c9190613e62565b613631565b005b34801561067f57600080fd5b5061069a60048036038101906106959190613e62565b6136b4565b6040516106a79190613e07565b60405180910390f35b3480156106bc57600080fd5b506106d760048036038101906106d29190613e62565b613700565b6040516106e49190614405565b60405180910390f35b3480156106f957600080fd5b50610714600480360381019061070f9190613e62565b613797565b6040516107219190614405565b60405180910390f35b34801561073657600080fd5b50610751600480360381019061074c9190613e62565b61382e565b60405161075e9190614405565b60405180910390f35b6060600060018054905067ffffffffffffffff81111561078a5761078961404a565b5b6040519080825280602002602001820160405280156107c357816020015b6107b0613a0f565b8152602001906001900390816107a85790505b5090506000805b600180549050811015610b3657600260038111156107eb576107ea613bd3565b5b600182815481106107ff576107fe614427565b5b90600052602060002090600b0201600a0160009054906101000a900460ff1660038111156108305761082f613bd3565b5b03610b23576001818154811061084957610848614427565b5b90600052602060002090600b020160405180610160016040529081600082015481526020016001820160009054906101000a900473ffffffffffffffffffffffffffffffffffffffff1673ffffffffffffffffffffffffffffffffffffffff1673ffffffffffffffffffffffffffffffffffffffff1681526020016002820160009054906101000a900473ffffffffffffffffffffffffffffffffffffffff1673ffffffffffffffffffffffffffffffffffffffff1673ffffffffffffffffffffffffffffffffffffffff1681526020016003820160009054906101000a900473ffffffffffffffffffffffffffffffffffffffff1673ffffffffffffffffffffffffffffffffffffffff1673ffffffffffffffffffffffffffffffffffffffff16815260200160048201805461097f90614485565b80601f01602080910402602001604051908101604052809291908181526020018280546109ab90614485565b80156109f85780601f106109cd576101008083540402835291602001916109f8565b820191906000526020600020905b8154815290600101906020018083116109db57829003601f168201915b50505050508152602001600582018054610a1190614485565b80601f0160208091040260200160405190810160405280929190818152602001828054610a3d90614485565b8015610a8a5780601f10610a5f57610100808354040283529160200191610a8a565b820191906000526020600020905b815481529060010190602001808311610a6d57829003601f168201915b5050505050815260200160068201548152602001600782015481526020016008820154815260200160098201548152602001600a820160009054906101000a900460ff166003811115610ae057610adf613bd3565b5b6003811115610af257610af1613bd3565b5b81525050838381518110610b0957610b08614427565b5b60200260200101819052508180610b1f906144e5565b9250505b8080610b2e906144e5565b9150506107ca565b50819250505090565b600047905090565b6000600260008373ffffffffffffffffffffffffffffffffffffffff1673ffffffffffffffffffffffffffffffffffffffff168152602001908152602001600020805490509050919050565b6060600060018054905067ffffffffffffffff811115610bb657610bb561404a565b5b604051908082528060200260200182016040528015610bef57816020015b610bdc613a0f565b815260200190600190039081610bd45790505b5090506000805b600180549050811015610f625760006003811115610c1757610c16613bd3565b5b60018281548110610c2b57610c2a614427565b5b90600052602060002090600b0201600a0160009054906101000a900460ff166003811115610c5c57610c5b613bd3565b5b03610f4f5760018181548110610c7557610c74614427565b5b90600052602060002090600b020160405180610160016040529081600082015481526020016001820160009054906101000a900473ffffffffffffffffffffffffffffffffffffffff1673ffffffffffffffffffffffffffffffffffffffff1673ffffffffffffffffffffffffffffffffffffffff1681526020016002820160009054906101000a900473ffffffffffffffffffffffffffffffffffffffff1673ffffffffffffffffffffffffffffffffffffffff1673ffffffffffffffffffffffffffffffffffffffff1681526020016003820160009054906101000a900473ffffffffffffffffffffffffffffffffffffffff1673ffffffffffffffffffffffffffffffffffffffff1673ffffffffffffffffffffffffffffffffffffffff168152602001600482018054610dab90614485565b80601f0160208091040260200160405190810160405280929190818152602001828054610dd790614485565b8015610e245780601f10610df957610100808354040283529160200191610e24565b820191906000526020600020905b815481529060010190602001808311610e0757829003601f168201915b50505050508152602001600582018054610e3d90614485565b80601f0160208091040260200160405190810160405280929190818152602001828054610e6990614485565b8015610eb65780601f10610e8b57610100808354040283529160200191610eb6565b820191906000526020600020905b815481529060010190602001808311610e9957829003601f168201915b5050505050815260200160068201548152602001600782015481526020016008820154815260200160098201548152602001600a820160009054906101000a900460ff166003811115610f0c57610f0b613bd3565b5b6003811115610f1e57610f1d613bd3565b5b81525050838381518110610f3557610f34614427565b5b60200260200101819052508180610f4b906144e5565b9250505b8080610f5a906144e5565b915050610bf6565b50819250505090565b60036020528160005260406000208181548110610f8757600080fd5b90600052602060002001600091509150505481565b610fa4613a0f565b60018281548110610fb857610fb7614427565b5b90600052602060002090600b020160405180610160016040529081600082015481526020016001820160009054906101000a900473ffffffffffffffffffffffffffffffffffffffff1673ffffffffffffffffffffffffffffffffffffffff1673ffffffffffffffffffffffffffffffffffffffff1681526020016002820160009054906101000a900473ffffffffffffffffffffffffffffffffffffffff1673ffffffffffffffffffffffffffffffffffffffff1673ffffffffffffffffffffffffffffffffffffffff1681526020016003820160009054906101000a900473ffffffffffffffffffffffffffffffffffffffff1673ffffffffffffffffffffffffffffffffffffffff1673ffffffffffffffffffffffffffffffffffffffff1681526020016004820180546110ee90614485565b80601f016020809104026020016040519081016040528092919081815260200182805461111a90614485565b80156111675780601f1061113c57610100808354040283529160200191611167565b820191906000526020600020905b81548152906001019060200180831161114a57829003601f168201915b5050505050815260200160058201805461118090614485565b80601f01602080910402602001604051908101604052809291908181526020018280546111ac90614485565b80156111f95780601f106111ce576101008083540402835291602001916111f9565b820191906000526020600020905b8154815290600101906020018083116111dc57829003601f168201915b5050505050815260200160068201548152602001600782015481526020016008820154815260200160098201548152602001600a820160009054906101000a900460ff16600381111561124f5761124e613bd3565b5b600381111561126157611260613bd3565b5b815250509050919050565b6060600060018054905067ffffffffffffffff81111561128f5761128e61404a565b5b6040519080825280602002602001820160405280156112c857816020015b6112b5613a0f565b8152602001906001900390816112ad5790505b5090506000805b60018054905081101561163a576003808111156112ef576112ee613bd3565b5b6001828154811061130357611302614427565b5b90600052602060002090600b0201600a0160009054906101000a900460ff16600381111561133457611333613bd3565b5b03611627576001818154811061134d5761134c614427565b5b90600052602060002090600b020160405180610160016040529081600082015481526020016001820160009054906101000a900473ffffffffffffffffffffffffffffffffffffffff1673ffffffffffffffffffffffffffffffffffffffff1673ffffffffffffffffffffffffffffffffffffffff1681526020016002820160009054906101000a900473ffffffffffffffffffffffffffffffffffffffff1673ffffffffffffffffffffffffffffffffffffffff1673ffffffffffffffffffffffffffffffffffffffff1681526020016003820160009054906101000a900473ffffffffffffffffffffffffffffffffffffffff1673ffffffffffffffffffffffffffffffffffffffff1673ffffffffffffffffffffffffffffffffffffffff16815260200160048201805461148390614485565b80601f01602080910402602001604051908101604052809291908181526020018280546114af90614485565b80156114fc5780601f106114d1576101008083540402835291602001916114fc565b820191906000526020600020905b8154815290600101906020018083116114df57829003601f168201915b5050505050815260200160058201805461151590614485565b80601f016020809104026020016040519081016040528092919081815260200182805461154190614485565b801561158e5780601f106115635761010080835404028352916020019161158e565b820191906000526020600020905b81548152906001019060200180831161157157829003601f168201915b5050505050815260200160068201548152602001600782015481526020016008820154815260200160098201548152602001600a820160009054906101000a900460ff1660038111156115e4576115e3613bd3565b5b60038111156115f6576115f5613bd3565b5b8152505083838151811061160d5761160c614427565b5b60200260200101819052508180611623906144e5565b9250505b8080611632906144e5565b9150506112cf565b50819250505090565b6602c2ad68fd9000341161168c576040517f08c379a00000000000000000000000000000000000000000000000000000000081526004016116839061459f565b60405180910390fd5b6000600180549050905060006040518061016001604052808381526020013373ffffffffffffffffffffffffffffffffffffffff168152602001600073ffffffffffffffffffffffffffffffffffffffff1681526020013373ffffffffffffffffffffffffffffffffffffffff1681526020018481526020016040518060200160405280600081525081526020013481526020016602c2ad68fd90003461173391906145bf565b8152602001428152602001600081526020016000600381111561175957611758613bd3565b5b815250905060018190806001815401808255809150506001900390600052602060002090600b02016000909190919091506000820151816000015560208201518160010160006101000a81548173ffffffffffffffffffffffffffffffffffffffff021916908373ffffffffffffffffffffffffffffffffffffffff16021790555060408201518160020160006101000a81548173ffffffffffffffffffffffffffffffffffffffff021916908373ffffffffffffffffffffffffffffffffffffffff16021790555060608201518160030160006101000a81548173ffffffffffffffffffffffffffffffffffffffff021916908373ffffffffffffffffffffffffffffffffffffffff160217905550608082015181600401908161187e919061479f565b5060a0820151816005019081611894919061479f565b5060c0820151816006015560e082015181600701556101008201518160080155610120820151816009015561014082015181600a0160006101000a81548160ff021916908360038111156118eb576118ea613bd3565b5b02179055505050600260003373ffffffffffffffffffffffffffffffffffffffff1673ffffffffffffffffffffffffffffffffffffffff1681526020019081526020016000208290806001815401808255809150506001900390600052602060002001600090919091909150556119606128ef565b73ffffffffffffffffffffffffffffffffffffffff166108fc6602c2ad68fd90009081150290604051600060405180830381858888f193505050501580156119ac573d6000803e3d6000fd5b507fb0dbe2e299e34ddf17287956670f83f8023010cd8f30be461d12379d40447b06826040516119dc9190613e07565b60405180910390a1505050565b6000600460008373ffffffffffffffffffffffffffffffffffffffff1673ffffffffffffffffffffffffffffffffffffffff168152602001908152602001600020805490509050919050565b6000600180549050905090565b611a4a6138c5565b611a546000613943565b565b60016003811115611a6a57611a69613bd3565b5b60018381548110611a7e57611a7d614427565b5b90600052602060002090600b0201600a0160009054906101000a900460ff166003811115611aaf57611aae613bd3565b5b14611aef576040517f08c379a0000000000000000000000000000000000000000000000000000000008152600401611ae6906148bd565b60405180910390fd5b3373ffffffffffffffffffffffffffffffffffffffff1660018381548110611b1a57611b19614427565b5b90600052602060002090600b020160030160009054906101000a900473ffffffffffffffffffffffffffffffffffffffff1673ffffffffffffffffffffffffffffffffffffffff1614611ba2576040517f08c379a0000000000000000000000000000000000000000000000000000000008152600401611b999061494f565b60405180910390fd5b60018281548110611bb657611bb5614427565b5b90600052602060002090600b0201600601543414611c09576040517f08c379a0000000000000000000000000000000000000000000000000000000008152600401611c00906149e1565b60405180910390fd5b3460018381548110611c1e57611c1d614427565b5b90600052602060002090600b02016007016000828254611c3e9190614a01565b9250508190555060018281548110611c5957611c58614427565b5b90600052602060002090600b020160050181604051602001611c7c929190614b40565b60405160208183030381529060405260018381548110611c9f57611c9e614427565b5b90600052602060002090600b02016005019081611cbc919061479f565b5060018281548110611cd157611cd0614427565b5b90600052602060002090600b0201600401604051602001611cf29190614b6f565b6040516020818303038152906040528051906020012081604051602001611d199190614b86565b604051602081830303815290604052805190602001200361209757600260018381548110611d4a57611d49614427565b5b90600052602060002090600b0201600a0160006101000a81548160ff02191690836003811115611d7d57611d7c613bd3565b5b021790555060018281548110611d9657611d95614427565b5b90600052602060002090600b020160030160009054906101000a900473ffffffffffffffffffffffffffffffffffffffff1673ffffffffffffffffffffffffffffffffffffffff166108fc60018481548110611df557611df4614427565b5b90600052602060002090600b0201600701549081150290604051600060405180830381858888f19350505050158015611e32573d6000803e3d6000fd5b506003600060018481548110611e4b57611e4a614427565b5b90600052602060002090600b020160030160009054906101000a900473ffffffffffffffffffffffffffffffffffffffff1673ffffffffffffffffffffffffffffffffffffffff1673ffffffffffffffffffffffffffffffffffffffff1681526020019081526020016000208290806001815401808255809150506001900390600052602060002001600090919091909150556004600060018481548110611ef657611ef5614427565b5b90600052602060002090600b020160010160009054906101000a900473ffffffffffffffffffffffffffffffffffffffff1673ffffffffffffffffffffffffffffffffffffffff1660018581548110611f5257611f51614427565b5b90600052602060002090600b020160030160009054906101000a900473ffffffffffffffffffffffffffffffffffffffff1673ffffffffffffffffffffffffffffffffffffffff1614611fea5760018481548110611fb357611fb2614427565b5b90600052602060002090600b020160010160009054906101000a900473ffffffffffffffffffffffffffffffffffffffff16612031565b60018481548110611ffe57611ffd614427565b5b90600052602060002090600b020160020160009054906101000a900473ffffffffffffffffffffffffffffffffffffffff165b73ffffffffffffffffffffffffffffffffffffffff1673ffffffffffffffffffffffffffffffffffffffff168152602001908152602001600020829080600181540180825580915050600190039060005260206000200160009091909190915055612704565b600182815481106120ab576120aa614427565b5b90600052602060002090600b020160010160009054906101000a900473ffffffffffffffffffffffffffffffffffffffff1673ffffffffffffffffffffffffffffffffffffffff166001838154811061210757612106614427565b5b90600052602060002090600b020160030160009054906101000a900473ffffffffffffffffffffffffffffffffffffffff1673ffffffffffffffffffffffffffffffffffffffff1603612202576001828154811061216857612167614427565b5b90600052602060002090600b020160020160009054906101000a900473ffffffffffffffffffffffffffffffffffffffff16600183815481106121ae576121ad614427565b5b90600052602060002090600b020160030160006101000a81548173ffffffffffffffffffffffffffffffffffffffff021916908373ffffffffffffffffffffffffffffffffffffffff1602179055506122ac565b6001828154811061221657612215614427565b5b90600052602060002090600b020160010160009054906101000a900473ffffffffffffffffffffffffffffffffffffffff166001838154811061225c5761225b614427565b5b90600052602060002090600b020160030160006101000a81548173ffffffffffffffffffffffffffffffffffffffff021916908373ffffffffffffffffffffffffffffffffffffffff1602179055505b600182815481106122c0576122bf614427565b5b90600052602060002090600b020160090160008154809291906122e2906144e5565b91905055506006600183815481106122fd576122fc614427565b5b90600052602060002090600b020160090154036126375760026001838154811061232a57612329614427565b5b90600052602060002090600b0201600a0160006101000a81548160ff0219169083600381111561235d5761235c613bd3565b5b02179055506001828154811061237657612375614427565b5b90600052602060002090600b020160010160009054906101000a900473ffffffffffffffffffffffffffffffffffffffff1673ffffffffffffffffffffffffffffffffffffffff166108fc6002600185815481106123d7576123d6614427565b5b90600052602060002090600b0201600701546123f39190614bcc565b9081150290604051600060405180830381858888f1935050505015801561241e573d6000803e3d6000fd5b506001828154811061243357612432614427565b5b90600052602060002090600b020160020160009054906101000a900473ffffffffffffffffffffffffffffffffffffffff1673ffffffffffffffffffffffffffffffffffffffff166108fc60026001858154811061249457612493614427565b5b90600052602060002090600b0201600701546124b09190614bcc565b9081150290604051600060405180830381858888f193505050501580156124db573d6000803e3d6000fd5b5060056000600184815481106124f4576124f3614427565b5b90600052602060002090600b020160010160009054906101000a900473ffffffffffffffffffffffffffffffffffffffff1673ffffffffffffffffffffffffffffffffffffffff1673ffffffffffffffffffffffffffffffffffffffff168152602001908152602001600020829080600181540180825580915050600190039060005260206000200160009091909190915055600560006001848154811061259f5761259e614427565b5b90600052602060002090600b020160020160009054906101000a900473ffffffffffffffffffffffffffffffffffffffff1673ffffffffffffffffffffffffffffffffffffffff1673ffffffffffffffffffffffffffffffffffffffff168152602001908152602001600020829080600181540180825580915050600190039060005260206000200160009091909190915055612703565b7ff1fb0272a0c5071948832056b653548b50099324be42a8c46a012cf7ae6e3019826001848154811061266d5761266c614427565b5b90600052602060002090600b020160030160009054906101000a900473ffffffffffffffffffffffffffffffffffffffff16600185815481106126b3576126b2614427565b5b90600052602060002090600b0201600501600186815481106126d8576126d7614427565b5b90600052602060002090600b0201600901546040516126fa9493929190614c81565b60405180910390a15b5b5050565b6001818154811061271857600080fd5b90600052602060002090600b02016000915090508060000154908060010160009054906101000a900473ffffffffffffffffffffffffffffffffffffffff16908060020160009054906101000a900473ffffffffffffffffffffffffffffffffffffffff16908060030160009054906101000a900473ffffffffffffffffffffffffffffffffffffffff16908060040180546127b390614485565b80601f01602080910402602001604051908101604052809291908181526020018280546127df90614485565b801561282c5780601f106128015761010080835404028352916020019161282c565b820191906000526020600020905b81548152906001019060200180831161280f57829003601f168201915b50505050509080600501805461284190614485565b80601f016020809104026020016040519081016040528092919081815260200182805461286d90614485565b80156128ba5780601f1061288f576101008083540402835291602001916128ba565b820191906000526020600020905b81548152906001019060200180831161289d57829003601f168201915b50505050509080600601549080600701549080600801549080600901549080600a0160009054906101000a900460ff1690508b565b60008060009054906101000a900473ffffffffffffffffffffffffffffffffffffffff16905090565b60606001805480602002602001604051908101604052809291908181526020016000905b82821015612c0257838290600052602060002090600b020160405180610160016040529081600082015481526020016001820160009054906101000a900473ffffffffffffffffffffffffffffffffffffffff1673ffffffffffffffffffffffffffffffffffffffff1673ffffffffffffffffffffffffffffffffffffffff1681526020016002820160009054906101000a900473ffffffffffffffffffffffffffffffffffffffff1673ffffffffffffffffffffffffffffffffffffffff1673ffffffffffffffffffffffffffffffffffffffff1681526020016003820160009054906101000a900473ffffffffffffffffffffffffffffffffffffffff1673ffffffffffffffffffffffffffffffffffffffff1673ffffffffffffffffffffffffffffffffffffffff168152602001600482018054612a7c90614485565b80601f0160208091040260200160405190810160405280929190818152602001828054612aa890614485565b8015612af55780601f10612aca57610100808354040283529160200191612af5565b820191906000526020600020905b815481529060010190602001808311612ad857829003601f168201915b50505050508152602001600582018054612b0e90614485565b80601f0160208091040260200160405190810160405280929190818152602001828054612b3a90614485565b8015612b875780601f10612b5c57610100808354040283529160200191612b87565b820191906000526020600020905b815481529060010190602001808311612b6a57829003601f168201915b5050505050815260200160068201548152602001600782015481526020016008820154815260200160098201548152602001600a820160009054906101000a900460ff166003811115612bdd57612bdc613bd3565b5b6003811115612bef57612bee613bd3565b5b815250508152602001906001019061293c565b50505050905090565b6000600560008373ffffffffffffffffffffffffffffffffffffffff1673ffffffffffffffffffffffffffffffffffffffff168152602001908152602001600020805490509050919050565b6060600060018054905067ffffffffffffffff811115612c7a57612c7961404a565b5b604051908082528060200260200182016040528015612cb357816020015b612ca0613a0f565b815260200190600190039081612c985790505b5090506000805b6001805490508110156130265760016003811115612cdb57612cda613bd3565b5b60018281548110612cef57612cee614427565b5b90600052602060002090600b0201600a0160009054906101000a900460ff166003811115612d2057612d1f613bd3565b5b036130135760018181548110612d3957612d38614427565b5b90600052602060002090600b020160405180610160016040529081600082015481526020016001820160009054906101000a900473ffffffffffffffffffffffffffffffffffffffff1673ffffffffffffffffffffffffffffffffffffffff1673ffffffffffffffffffffffffffffffffffffffff1681526020016002820160009054906101000a900473ffffffffffffffffffffffffffffffffffffffff1673ffffffffffffffffffffffffffffffffffffffff1673ffffffffffffffffffffffffffffffffffffffff1681526020016003820160009054906101000a900473ffffffffffffffffffffffffffffffffffffffff1673ffffffffffffffffffffffffffffffffffffffff1673ffffffffffffffffffffffffffffffffffffffff168152602001600482018054612e6f90614485565b80601f0160208091040260200160405190810160405280929190818152602001828054612e9b90614485565b8015612ee85780601f10612ebd57610100808354040283529160200191612ee8565b820191906000526020600020905b815481529060010190602001808311612ecb57829003601f168201915b50505050508152602001600582018054612f0190614485565b80601f0160208091040260200160405190810160405280929190818152602001828054612f2d90614485565b8015612f7a5780601f10612f4f57610100808354040283529160200191612f7a565b820191906000526020600020905b815481529060010190602001808311612f5d57829003601f168201915b5050505050815260200160068201548152602001600782015481526020016008820154815260200160098201548152602001600a820160009054906101000a900460ff166003811115612fd057612fcf613bd3565b5b6003811115612fe257612fe1613bd3565b5b81525050838381518110612ff957612ff8614427565b5b6020026020010181905250818061300f906144e5565b9250505b808061301e906144e5565b915050612cba565b50819250505090565b6002602052816000526040600020818154811061304b57600080fd5b90600052602060002001600091509150505481565b6005602052816000526040600020818154811061307c57600080fd5b90600052602060002001600091509150505481565b6602c2ad68fd900081565b6060600260008373ffffffffffffffffffffffffffffffffffffffff1673ffffffffffffffffffffffffffffffffffffffff16815260200190815260200160002080548060200260200160405190810160405280929190818152602001828054801561312757602002820191906000526020600020905b815481526020019060010190808311613113575b50505050509050919050565b6000600381111561314757613146613bd3565b5b6001828154811061315b5761315a614427565b5b90600052602060002090600b0201600a0160009054906101000a900460ff16600381111561318c5761318b613bd3565b5b146131cc576040517f08c379a00000000000000000000000000000000000000000000000000000000081526004016131c390614d19565b60405180910390fd5b600181815481106131e0576131df614427565b5b90600052602060002090600b0201600601543414613233576040517f08c379a000000000000000000000000000000000000000000000000000000000815260040161322a906149e1565b60405180910390fd5b336001828154811061324857613247614427565b5b90600052602060002090600b020160020160006101000a81548173ffffffffffffffffffffffffffffffffffffffff021916908373ffffffffffffffffffffffffffffffffffffffff16021790555034600182815481106132ac576132ab614427565b5b90600052602060002090600b020160070160008282546132cc9190614a01565b9250508190555060018082815481106132e8576132e7614427565b5b90600052602060002090600b0201600a0160006101000a81548160ff0219169083600381111561331b5761331a613bd3565b5b0217905550600260003373ffffffffffffffffffffffffffffffffffffffff1673ffffffffffffffffffffffffffffffffffffffff1681526020019081526020016000208190806001815401808255809150506001900390600052602060002001600090919091909150557f8ea16fd26bf5a97624d8b6fb303928937b9b559c4627028620ecf8e221dd32e9816040516133b59190613e07565b60405180910390a150565b3373ffffffffffffffffffffffffffffffffffffffff16600182815481106133eb576133ea614427565b5b90600052602060002090600b020160010160009054906101000a900473ffffffffffffffffffffffffffffffffffffffff1673ffffffffffffffffffffffffffffffffffffffff1614613473576040517f08c379a000000000000000000000000000000000000000000000000000000000815260040161346a90614dab565b60405180910390fd5b6000600381111561348757613486613bd3565b5b6001828154811061349b5761349a614427565b5b90600052602060002090600b0201600a0160009054906101000a900460ff1660038111156134cc576134cb613bd3565b5b1461350c576040517f08c379a000000000000000000000000000000000000000000000000000000000815260040161350390614e17565b60405180910390fd5b60036001828154811061352257613521614427565b5b90600052602060002090600b0201600a0160006101000a81548160ff0219169083600381111561355557613554613bd3565b5b02179055503373ffffffffffffffffffffffffffffffffffffffff166108fc6001838154811061358857613587614427565b5b90600052602060002090600b0201600701549081150290604051600060405180830381858888f193505050501580156135c5573d6000803e3d6000fd5b507fe6869595d58c61aa991d00acb41ac260a2d3b5a40d58255f6aad94a14c2804a7816040516135f59190613e07565b60405180910390a150565b6004602052816000526040600020818154811061361c57600080fd5b90600052602060002001600091509150505481565b6136396138c5565b600073ffffffffffffffffffffffffffffffffffffffff168173ffffffffffffffffffffffffffffffffffffffff16036136a8576040517f08c379a000000000000000000000000000000000000000000000000000000000815260040161369f90614ea9565b60405180910390fd5b6136b181613943565b50565b6000600360008373ffffffffffffffffffffffffffffffffffffffff1673ffffffffffffffffffffffffffffffffffffffff168152602001908152602001600020805490509050919050565b6060600560008373ffffffffffffffffffffffffffffffffffffffff1673ffffffffffffffffffffffffffffffffffffffff16815260200190815260200160002080548060200260200160405190810160405280929190818152602001828054801561378b57602002820191906000526020600020905b815481526020019060010190808311613777575b50505050509050919050565b6060600460008373ffffffffffffffffffffffffffffffffffffffff1673ffffffffffffffffffffffffffffffffffffffff16815260200190815260200160002080548060200260200160405190810160405280929190818152602001828054801561382257602002820191906000526020600020905b81548152602001906001019080831161380e575b50505050509050919050565b6060600360008373ffffffffffffffffffffffffffffffffffffffff1673ffffffffffffffffffffffffffffffffffffffff1681526020019081526020016000208054806020026020016040519081016040528092919081815260200182805480156138b957602002820191906000526020600020905b8154815260200190600101908083116138a5575b50505050509050919050565b6138cd613a07565b73ffffffffffffffffffffffffffffffffffffffff166138eb6128ef565b73ffffffffffffffffffffffffffffffffffffffff1614613941576040517f08c379a000000000000000000000000000000000000000000000000000000000815260040161393890614f15565b60405180910390fd5b565b60008060009054906101000a900473ffffffffffffffffffffffffffffffffffffffff169050816000806101000a81548173ffffffffffffffffffffffffffffffffffffffff021916908373ffffffffffffffffffffffffffffffffffffffff1602179055508173ffffffffffffffffffffffffffffffffffffffff168173ffffffffffffffffffffffffffffffffffffffff167f8be0079c531659141344cd1fd0a4f28419497f9722a3daafe3b4186f6b6457e060405160405180910390a35050565b600033905090565b60405180610160016040528060008152602001600073ffffffffffffffffffffffffffffffffffffffff168152602001600073ffffffffffffffffffffffffffffffffffffffff168152602001600073ffffffffffffffffffffffffffffffffffffffff16815260200160608152602001606081526020016000815260200160008152602001600081526020016000815260200160006003811115613ab757613ab6613bd3565b5b81525090565b600081519050919050565b600082825260208201905092915050565b6000819050602082019050919050565b6000819050919050565b613afc81613ae9565b82525050565b600073ffffffffffffffffffffffffffffffffffffffff82169050919050565b6000613b2d82613b02565b9050919050565b613b3d81613b22565b82525050565b600081519050919050565b600082825260208201905092915050565b60005b83811015613b7d578082015181840152602081019050613b62565b60008484015250505050565b6000601f19601f8301169050919050565b6000613ba582613b43565b613baf8185613b4e565b9350613bbf818560208601613b5f565b613bc881613b89565b840191505092915050565b7f4e487b7100000000000000000000000000000000000000000000000000000000600052602160045260246000fd5b60048110613c1357613c12613bd3565b5b50565b6000819050613c2482613c02565b919050565b6000613c3482613c16565b9050919050565b613c4481613c29565b82525050565b600061016083016000830151613c636000860182613af3565b506020830151613c766020860182613b34565b506040830151613c896040860182613b34565b506060830151613c9c6060860182613b34565b5060808301518482036080860152613cb48282613b9a565b91505060a083015184820360a0860152613cce8282613b9a565b91505060c0830151613ce360c0860182613af3565b5060e0830151613cf660e0860182613af3565b50610100830151613d0b610100860182613af3565b50610120830151613d20610120860182613af3565b50610140830151613d35610140860182613c3b565b508091505092915050565b6000613d4c8383613c4a565b905092915050565b6000602082019050919050565b6000613d6c82613abd565b613d768185613ac8565b935083602082028501613d8885613ad9565b8060005b85811015613dc45784840389528151613da58582613d40565b9450613db083613d54565b925060208a01995050600181019050613d8c565b50829750879550505050505092915050565b60006020820190508181036000830152613df08184613d61565b905092915050565b613e0181613ae9565b82525050565b6000602082019050613e1c6000830184613df8565b92915050565b6000604051905090565b600080fd5b600080fd5b613e3f81613b22565b8114613e4a57600080fd5b50565b600081359050613e5c81613e36565b92915050565b600060208284031215613e7857613e77613e2c565b5b6000613e8684828501613e4d565b91505092915050565b613e9881613ae9565b8114613ea357600080fd5b50565b600081359050613eb581613e8f565b92915050565b60008060408385031215613ed257613ed1613e2c565b5b6000613ee085828601613e4d565b9250506020613ef185828601613ea6565b9150509250929050565b600060208284031215613f1157613f10613e2c565b5b6000613f1f84828501613ea6565b91505092915050565b600061016083016000830151613f416000860182613af3565b506020830151613f546020860182613b34565b506040830151613f676040860182613b34565b506060830151613f7a6060860182613b34565b5060808301518482036080860152613f928282613b9a565b91505060a083015184820360a0860152613fac8282613b9a565b91505060c0830151613fc160c0860182613af3565b5060e0830151613fd460e0860182613af3565b50610100830151613fe9610100860182613af3565b50610120830151613ffe610120860182613af3565b50610140830151614013610140860182613c3b565b508091505092915050565b600060208201905081810360008301526140388184613f28565b905092915050565b600080fd5b600080fd5b7f4e487b7100000000000000000000000000000000000000000000000000000000600052604160045260246000fd5b61408282613b89565b810181811067ffffffffffffffff821117156140a1576140a061404a565b5b80604052505050565b60006140b4613e22565b90506140c08282614079565b919050565b600067ffffffffffffffff8211156140e0576140df61404a565b5b6140e982613b89565b9050602081019050919050565b82818337600083830152505050565b6000614118614113846140c5565b6140aa565b90508281526020810184848401111561413457614133614045565b5b61413f8482856140f6565b509392505050565b600082601f83011261415c5761415b614040565b5b813561416c848260208601614105565b91505092915050565b60006020828403121561418b5761418a613e2c565b5b600082013567ffffffffffffffff8111156141a9576141a8613e31565b5b6141b584828501614147565b91505092915050565b600080604083850312156141d5576141d4613e2c565b5b60006141e385828601613ea6565b925050602083013567ffffffffffffffff81111561420457614203613e31565b5b61421085828601614147565b9150509250929050565b61422381613b22565b82525050565b600082825260208201905092915050565b600061424582613b43565b61424f8185614229565b935061425f818560208601613b5f565b61426881613b89565b840191505092915050565b61427c81613c29565b82525050565b600061016082019050614298600083018e613df8565b6142a5602083018d61421a565b6142b2604083018c61421a565b6142bf606083018b61421a565b81810360808301526142d1818a61423a565b905081810360a08301526142e5818961423a565b90506142f460c0830188613df8565b61430160e0830187613df8565b61430f610100830186613df8565b61431d610120830185613df8565b61432b610140830184614273565b9c9b505050505050505050505050565b6000602082019050614350600083018461421a565b92915050565b600081519050919050565b600082825260208201905092915050565b6000819050602082019050919050565b600061438e8383613af3565b60208301905092915050565b6000602082019050919050565b60006143b282614356565b6143bc8185614361565b93506143c783614372565b8060005b838110156143f85781516143df8882614382565b97506143ea8361439a565b9250506001810190506143cb565b5085935050505092915050565b6000602082019050818103600083015261441f81846143a7565b905092915050565b7f4e487b7100000000000000000000000000000000000000000000000000000000600052603260045260246000fd5b7f4e487b7100000000000000000000000000000000000000000000000000000000600052602260045260246000fd5b6000600282049050600182168061449d57607f821691505b6020821081036144b0576144af614456565b5b50919050565b7f4e487b7100000000000000000000000000000000000000000000000000000000600052601160045260246000fd5b60006144f082613ae9565b91507fffffffffffffffffffffffffffffffffffffffffffffffffffffffffffffffff8203614522576145216144b6565b5b600182019050919050565b7f416d6f756e74206d7573742062652067726561746572207468616e20302e303060008201527f3037373720455448000000000000000000000000000000000000000000000000602082015250565b6000614589602883614229565b91506145948261452d565b604082019050919050565b600060208201905081810360008301526145b88161457c565b9050919050565b60006145ca82613ae9565b91506145d583613ae9565b92508282039050818111156145ed576145ec6144b6565b5b92915050565b60008190508160005260206000209050919050565b60006020601f8301049050919050565b600082821b905092915050565b6000600883026146557fffffffffffffffffffffffffffffffffffffffffffffffffffffffffffffffff82614618565b61465f8683614618565b95508019841693508086168417925050509392505050565b6000819050919050565b600061469c61469761469284613ae9565b614677565b613ae9565b9050919050565b6000819050919050565b6146b683614681565b6146ca6146c2826146a3565b848454614625565b825550505050565b600090565b6146df6146d2565b6146ea8184846146ad565b505050565b5b8181101561470e576147036000826146d7565b6001810190506146f0565b5050565b601f82111561475357614724816145f3565b61472d84614608565b8101602085101561473c578190505b61475061474885614608565b8301826146ef565b50505b505050565b600082821c905092915050565b600061477660001984600802614758565b1980831691505092915050565b600061478f8383614765565b9150826002028217905092915050565b6147a882613b43565b67ffffffffffffffff8111156147c1576147c061404a565b5b6147cb8254614485565b6147d6828285614712565b600060209050601f83116001811461480957600084156147f7578287015190505b6148018582614783565b865550614869565b601f198416614817866145f3565b60005b8281101561483f5784890151825560018201915060208501945060208101905061481a565b8683101561485c5784890151614858601f891682614765565b8355505b6001600288020188555050505b505050505050565b7f4475656c206d7573742062652061636365707465640000000000000000000000600082015250565b60006148a7601583614229565b91506148b282614871565b602082019050919050565b600060208201905081810360008301526148d68161489a565b9050919050565b7f4f6e6c79207468652063757272656e7420706c617965722063616e206d616b6560008201527f2061206d6f766500000000000000000000000000000000000000000000000000602082015250565b6000614939602783614229565b9150614944826148dd565b604082019050919050565b600060208201905081810360008301526149688161492c565b9050919050565b7f416d6f756e74206d75737420626520657175616c20746f20746865206368616c60008201527f6c656e6765722773206d6f766520616d6f756e74000000000000000000000000602082015250565b60006149cb603483614229565b91506149d68261496f565b604082019050919050565b600060208201905081810360008301526149fa816149be565b9050919050565b6000614a0c82613ae9565b9150614a1783613ae9565b9250828201905080821115614a2f57614a2e6144b6565b5b92915050565b600081905092915050565b60008154614a4d81614485565b614a578186614a35565b94506001821660008114614a725760018114614a8757614aba565b60ff1983168652811515820286019350614aba565b614a90856145f3565b60005b83811015614ab257815481890152600182019150602081019050614a93565b838801955050505b50505092915050565b7f2c00000000000000000000000000000000000000000000000000000000000000600082015250565b6000614af9600183614a35565b9150614b0482614ac3565b600182019050919050565b6000614b1a82613b43565b614b248185614a35565b9350614b34818560208601613b5f565b80840191505092915050565b6000614b4c8285614a40565b9150614b5782614aec565b9150614b638284614b0f565b91508190509392505050565b6000614b7b8284614a40565b915081905092915050565b6000614b928284614b0f565b915081905092915050565b7f4e487b7100000000000000000000000000000000000000000000000000000000600052601260045260246000fd5b6000614bd782613ae9565b9150614be283613ae9565b925082614bf257614bf1614b9d565b5b828204905092915050565b60008154614c0a81614485565b614c148186614229565b94506001821660008114614c2f5760018114614c4557614c78565b60ff198316865281151560200286019350614c78565b614c4e856145f3565b60005b83811015614c7057815481890152600182019150602081019050614c51565b808801955050505b50505092915050565b6000608082019050614c966000830187613df8565b614ca3602083018661421a565b8181036040830152614cb58185614bfd565b9050614cc46060830184613df8565b95945050505050565b7f4475656c206d757374206e6f7420626520616363657074656420796574000000600082015250565b6000614d03601d83614229565b9150614d0e82614ccd565b602082019050919050565b60006020820190508181036000830152614d3281614cf6565b9050919050565b7f4f6e6c7920746865206368616c6c656e6765722063616e2063616e63656c207460008201527f6865206475656c00000000000000000000000000000000000000000000000000602082015250565b6000614d95602783614229565b9150614da082614d39565b604082019050919050565b60006020820190508181036000830152614dc481614d88565b9050919050565b7f4475656c206d757374206265206e6f7420626520616363657074656420796574600082015250565b6000614e01602083614229565b9150614e0c82614dcb565b602082019050919050565b60006020820190508181036000830152614e3081614df4565b9050919050565b7f4f776e61626c653a206e6577206f776e657220697320746865207a65726f206160008201527f6464726573730000000000000000000000000000000000000000000000000000602082015250565b6000614e93602683614229565b9150614e9e82614e37565b604082019050919050565b60006020820190508181036000830152614ec281614e86565b9050919050565b7f4f776e61626c653a2063616c6c6572206973206e6f7420746865206f776e6572600082015250565b6000614eff602083614229565b9150614f0a82614ec9565b602082019050919050565b60006020820190508181036000830152614f2e81614ef2565b905091905056fea26469706673582212206f750a175a8b1508d723fc970f2841b0a9891ae31d01d7ac9b473569986e7c8364736f6c63430008130033",
  "linkReferences": {},
  "deployedLinkReferences": {}
}