{
  "_format": "hh-sol-artifact-1",
  "contractName": "OpenDuels",
  "sourceName": "contracts/OpenDuels.sol",
  "abi": [
    {
      "anonymous": false,
      "inputs": [
        {
          "indexed": false,
          "internalType": "uint256",
          "name": "id",
          "type": "uint256"
        }
      ],
      "name": "DuelAccepted",
      "type": "event"
    },
    {
      "anonymous": false,
      "inputs": [
        {
          "indexed": false,
          "internalType": "uint256",
          "name": "id",
          "type": "uint256"
        }
      ],
      "name": "DuelCancelled",
      "type": "event"
    },
    {
      "anonymous": false,
      "inputs": [
        {
          "indexed": false,
          "internalType": "uint256",
          "name": "id",
          "type": "uint256"
        }
      ],
      "name": "DuelCreated",
      "type": "event"
    },
    {
      "anonymous": false,
      "inputs": [
        {
          "indexed": false,
          "internalType": "uint256",
          "name": "id",
          "type": "uint256"
        },
        {
          "indexed": false,
          "internalType": "address",
          "name": "currentPlayer",
          "type": "address"
        },
        {
          "indexed": false,
          "internalType": "string",
          "name": "words",
          "type": "string"
        },
        {
          "indexed": false,
          "internalType": "uint256",
          "name": "moveCount",
          "type": "uint256"
        }
      ],
      "name": "DuelMove",
      "type": "event"
    },
    {
      "anonymous": false,
      "inputs": [
        {
          "indexed": true,
          "internalType": "address",
          "name": "previousOwner",
          "type": "address"
        },
        {
          "indexed": true,
          "internalType": "address",
          "name": "newOwner",
          "type": "address"
        }
      ],
      "name": "OwnershipTransferred",
      "type": "event"
    },
    {
      "inputs": [],
      "name": "FEE",
      "outputs": [
        {
          "internalType": "uint256",
          "name": "",
          "type": "uint256"
        }
      ],
      "stateMutability": "view",
      "type": "function"
    },
    {
      "inputs": [
        {
          "internalType": "uint256",
          "name": "_duelId",
          "type": "uint256"
        }
      ],
      "name": "acceptDuel",
      "outputs": [],
      "stateMutability": "payable",
      "type": "function"
    },
    {
      "inputs": [
        {
          "internalType": "uint256",
          "name": "_duelId",
          "type": "uint256"
        }
      ],
      "name": "cancelDuel",
      "outputs": [],
      "stateMutability": "nonpayable",
      "type": "function"
    },
    {
      "inputs": [
        {
          "internalType": "string",
          "name": "_targetWord",
          "type": "string"
        }
      ],
      "name": "createDuel",
      "outputs": [],
      "stateMutability": "payable",
      "type": "function"
    },
    {
      "inputs": [
        {
          "internalType": "address",
          "name": "",
          "type": "address"
        },
        {
          "internalType": "uint256",
          "name": "",
          "type": "uint256"
        }
      ],
      "name": "draws",
      "outputs": [
        {
          "internalType": "uint256",
          "name": "",
          "type": "uint256"
        }
      ],
      "stateMutability": "view",
      "type": "function"
    },
    {
      "inputs": [
        {
          "internalType": "uint256",
          "name": "",
          "type": "uint256"
        }
      ],
      "name": "duels",
      "outputs": [
        {
          "internalType": "uint256",
          "name": "id",
          "type": "uint256"
        },
        {
          "internalType": "address",
          "name": "challenger",
          "type": "address"
        },
        {
          "internalType": "address",
          "name": "opponent",
          "type": "address"
        },
        {
          "internalType": "address",
          "name": "currentPlayer",
          "type": "address"
        },
        {
          "internalType": "string",
          "name": "targetWord",
          "type": "string"
        },
        {
          "internalType": "string",
          "name": "words",
          "type": "string"
        },
        {
          "internalType": "uint256",
          "name": "moveAmount",
          "type": "uint256"
        },
        {
          "internalType": "uint256",
          "name": "potAmount",
          "type": "uint256"
        },
        {
          "internalType": "uint256",
          "name": "createdAt",
          "type": "uint256"
        },
        {
          "internalType": "uint256",
          "name": "moveCount",
          "type": "uint256"
        },
        {
          "internalType": "enum OpenDuels.DuelState",
          "name": "state",
          "type": "uint8"
        }
      ],
      "stateMutability": "view",
      "type": "function"
    },
    {
      "inputs": [],
      "name": "getAcceptedDuels",
      "outputs": [
        {
          "components": [
            {
              "internalType": "uint256",
              "name": "id",
              "type": "uint256"
            },
            {
              "internalType": "address",
              "name": "challenger",
              "type": "address"
            },
            {
              "internalType": "address",
              "name": "opponent",
              "type": "address"
            },
            {
              "internalType": "address",
              "name": "currentPlayer",
              "type": "address"
            },
            {
              "internalType": "string",
              "name": "targetWord",
              "type": "string"
            },
            {
              "internalType": "string",
              "name": "words",
              "type": "string"
            },
            {
              "internalType": "uint256",
              "name": "moveAmount",
              "type": "uint256"
            },
            {
              "internalType": "uint256",
              "name": "potAmount",
              "type": "uint256"
            },
            {
              "internalType": "uint256",
              "name": "createdAt",
              "type": "uint256"
            },
            {
              "internalType": "uint256",
              "name": "moveCount",
              "type": "uint256"
            },
            {
              "internalType": "enum OpenDuels.DuelState",
              "name": "state",
              "type": "uint8"
            }
          ],
          "internalType": "struct OpenDuels.Duel[]",
          "name": "",
          "type": "tuple[]"
        }
      ],
      "stateMutability": "view",
      "type": "function"
    },
    {
      "inputs": [],
      "name": "getBalance",
      "outputs": [
        {
          "internalType": "uint256",
          "name": "",
          "type": "uint256"
        }
      ],
      "stateMutability": "view",
      "type": "function"
    },
    {
      "inputs": [],
      "name": "getCancelledDuels",
      "outputs": [
        {
          "components": [
            {
              "internalType": "uint256",
              "name": "id",
              "type": "uint256"
            },
            {
              "internalType": "address",
              "name": "challenger",
              "type": "address"
            },
            {
              "internalType": "address",
              "name": "opponent",
              "type": "address"
            },
            {
              "internalType": "address",
              "name": "currentPlayer",
              "type": "address"
            },
            {
              "internalType": "string",
              "name": "targetWord",
              "type": "string"
            },
            {
              "internalType": "string",
              "name": "words",
              "type": "string"
            },
            {
              "internalType": "uint256",
              "name": "moveAmount",
              "type": "uint256"
            },
            {
              "internalType": "uint256",
              "name": "potAmount",
              "type": "uint256"
            },
            {
              "internalType": "uint256",
              "name": "createdAt",
              "type": "uint256"
            },
            {
              "internalType": "uint256",
              "name": "moveCount",
              "type": "uint256"
            },
            {
              "internalType": "enum OpenDuels.DuelState",
              "name": "state",
              "type": "uint8"
            }
          ],
          "internalType": "struct OpenDuels.Duel[]",
          "name": "",
          "type": "tuple[]"
        }
      ],
      "stateMutability": "view",
      "type": "function"
    },
    {
      "inputs": [],
      "name": "getCreatedDuels",
      "outputs": [
        {
          "components": [
            {
              "internalType": "uint256",
              "name": "id",
              "type": "uint256"
            },
            {
              "internalType": "address",
              "name": "challenger",
              "type": "address"
            },
            {
              "internalType": "address",
              "name": "opponent",
              "type": "address"
            },
            {
              "internalType": "address",
              "name": "currentPlayer",
              "type": "address"
            },
            {
              "internalType": "string",
              "name": "targetWord",
              "type": "string"
            },
            {
              "internalType": "string",
              "name": "words",
              "type": "string"
            },
            {
              "internalType": "uint256",
              "name": "moveAmount",
              "type": "uint256"
            },
            {
              "internalType": "uint256",
              "name": "potAmount",
              "type": "uint256"
            },
            {
              "internalType": "uint256",
              "name": "createdAt",
              "type": "uint256"
            },
            {
              "internalType": "uint256",
              "name": "moveCount",
              "type": "uint256"
            },
            {
              "internalType": "enum OpenDuels.DuelState",
              "name": "state",
              "type": "uint8"
            }
          ],
          "internalType": "struct OpenDuels.Duel[]",
          "name": "",
          "type": "tuple[]"
        }
      ],
      "stateMutability": "view",
      "type": "function"
    },
    {
      "inputs": [
        {
          "internalType": "address",
          "name": "_wallet",
          "type": "address"
        }
      ],
      "name": "getDraws",
      "outputs": [
        {
          "internalType": "uint256[]",
          "name": "",
          "type": "uint256[]"
        }
      ],
      "stateMutability": "view",
      "type": "function"
    },
    {
      "inputs": [
        {
          "internalType": "address",
          "name": "_wallet",
          "type": "address"
        }
      ],
      "name": "getDrawsCount",
      "outputs": [
        {
          "internalType": "uint256",
          "name": "",
          "type": "uint256"
        }
      ],
      "stateMutability": "view",
      "type": "function"
    },
    {
      "inputs": [
        {
          "internalType": "uint256",
          "name": "_duelId",
          "type": "uint256"
        }
      ],
      "name": "getDuel",
      "outputs": [
        {
          "components": [
            {
              "internalType": "uint256",
              "name": "id",
              "type": "uint256"
            },
            {
              "internalType": "address",
              "name": "challenger",
              "type": "address"
            },
            {
              "internalType": "address",
              "name": "opponent",
              "type": "address"
            },
            {
              "internalType": "address",
              "name": "currentPlayer",
              "type": "address"
            },
            {
              "internalType": "string",
              "name": "targetWord",
              "type": "string"
            },
            {
              "internalType": "string",
              "name": "words",
              "type": "string"
            },
            {
              "internalType": "uint256",
              "name": "moveAmount",
              "type": "uint256"
            },
            {
              "internalType": "uint256",
              "name": "potAmount",
              "type": "uint256"
            },
            {
              "internalType": "uint256",
              "name": "createdAt",
              "type": "uint256"
            },
            {
              "internalType": "uint256",
              "name": "moveCount",
              "type": "uint256"
            },
            {
              "internalType": "enum OpenDuels.DuelState",
              "name": "state",
              "type": "uint8"
            }
          ],
          "internalType": "struct OpenDuels.Duel",
          "name": "",
          "type": "tuple"
        }
      ],
      "stateMutability": "view",
      "type": "function"
    },
    {
      "inputs": [],
      "name": "getDuels",
      "outputs": [
        {
          "components": [
            {
              "internalType": "uint256",
              "name": "id",
              "type": "uint256"
            },
            {
              "internalType": "address",
              "name": "challenger",
              "type": "address"
            },
            {
              "internalType": "address",
              "name": "opponent",
              "type": "address"
            },
            {
              "internalType": "address",
              "name": "currentPlayer",
              "type": "address"
            },
            {
              "internalType": "string",
              "name": "targetWord",
              "type": "string"
            },
            {
              "internalType": "string",
              "name": "words",
              "type": "string"
            },
            {
              "internalType": "uint256",
              "name": "moveAmount",
              "type": "uint256"
            },
            {
              "internalType": "uint256",
              "name": "potAmount",
              "type": "uint256"
            },
            {
              "internalType": "uint256",
              "name": "createdAt",
              "type": "uint256"
            },
            {
              "internalType": "uint256",
              "name": "moveCount",
              "type": "uint256"
            },
            {
              "internalType": "enum OpenDuels.DuelState",
              "name": "state",
              "type": "uint8"
            }
          ],
          "internalType": "struct OpenDuels.Duel[]",
          "name": "",
          "type": "tuple[]"
        }
      ],
      "stateMutability": "view",
      "type": "function"
    },
    {
      "inputs": [],
      "name": "getDuelsCount",
      "outputs": [
        {
          "internalType": "uint256",
          "name": "",
          "type": "uint256"
        }
      ],
      "stateMutability": "view",
      "type": "function"
    },
    {
      "inputs": [],
      "name": "getFinishedDuels",
      "outputs": [
        {
          "components": [
            {
              "internalType": "uint256",
              "name": "id",
              "type": "uint256"
            },
            {
              "internalType": "address",
              "name": "challenger",
              "type": "address"
            },
            {
              "internalType": "address",
              "name": "opponent",
              "type": "address"
            },
            {
              "internalType": "address",
              "name": "currentPlayer",
              "type": "address"
            },
            {
              "internalType": "string",
              "name": "targetWord",
              "type": "string"
            },
            {
              "internalType": "string",
              "name": "words",
              "type": "string"
            },
            {
              "internalType": "uint256",
              "name": "moveAmount",
              "type": "uint256"
            },
            {
              "internalType": "uint256",
              "name": "potAmount",
              "type": "uint256"
            },
            {
              "internalType": "uint256",
              "name": "createdAt",
              "type": "uint256"
            },
            {
              "internalType": "uint256",
              "name": "moveCount",
              "type": "uint256"
            },
            {
              "internalType": "enum OpenDuels.DuelState",
              "name": "state",
              "type": "uint8"
            }
          ],
          "internalType": "struct OpenDuels.Duel[]",
          "name": "",
          "type": "tuple[]"
        }
      ],
      "stateMutability": "view",
      "type": "function"
    },
    {
      "inputs": [
        {
          "internalType": "address",
          "name": "_wallet",
          "type": "address"
        }
      ],
      "name": "getLosses",
      "outputs": [
        {
          "internalType": "uint256[]",
          "name": "",
          "type": "uint256[]"
        }
      ],
      "stateMutability": "view",
      "type": "function"
    },
    {
      "inputs": [
        {
          "internalType": "address",
          "name": "_wallet",
          "type": "address"
        }
      ],
      "name": "getLossesCount",
      "outputs": [
        {
          "internalType": "uint256",
          "name": "",
          "type": "uint256"
        }
      ],
      "stateMutability": "view",
      "type": "function"
    },
    {
      "inputs": [
        {
          "internalType": "address",
          "name": "_wallet",
          "type": "address"
        }
      ],
      "name": "getMyDuels",
      "outputs": [
        {
          "internalType": "uint256[]",
          "name": "",
          "type": "uint256[]"
        }
      ],
      "stateMutability": "view",
      "type": "function"
    },
    {
      "inputs": [
        {
          "internalType": "address",
          "name": "_wallet",
          "type": "address"
        }
      ],
      "name": "getMyDuelsCount",
      "outputs": [
        {
          "internalType": "uint256",
          "name": "",
          "type": "uint256"
        }
      ],
      "stateMutability": "view",
      "type": "function"
    },
    {
      "inputs": [
        {
          "internalType": "address",
          "name": "_wallet",
          "type": "address"
        }
      ],
      "name": "getWins",
      "outputs": [
        {
          "internalType": "uint256[]",
          "name": "",
          "type": "uint256[]"
        }
      ],
      "stateMutability": "view",
      "type": "function"
    },
    {
      "inputs": [
        {
          "internalType": "address",
          "name": "_wallet",
          "type": "address"
        }
      ],
      "name": "getWinsCount",
      "outputs": [
        {
          "internalType": "uint256",
          "name": "",
          "type": "uint256"
        }
      ],
      "stateMutability": "view",
      "type": "function"
    },
    {
      "inputs": [
        {
          "internalType": "address",
          "name": "",
          "type": "address"
        },
        {
          "internalType": "uint256",
          "name": "",
          "type": "uint256"
        }
      ],
      "name": "losses",
      "outputs": [
        {
          "internalType": "uint256",
          "name": "",
          "type": "uint256"
        }
      ],
      "stateMutability": "view",
      "type": "function"
    },
    {
      "inputs": [
        {
          "internalType": "uint256",
          "name": "_duelId",
          "type": "uint256"
        },
        {
          "internalType": "string",
          "name": "_word",
          "type": "string"
        }
      ],
      "name": "makeMove",
      "outputs": [],
      "stateMutability": "payable",
      "type": "function"
    },
    {
      "inputs": [
        {
          "internalType": "address",
          "name": "",
          "type": "address"
        },
        {
          "internalType": "uint256",
          "name": "",
          "type": "uint256"
        }
      ],
      "name": "myDuels",
      "outputs": [
        {
          "internalType": "uint256",
          "name": "",
          "type": "uint256"
        }
      ],
      "stateMutability": "view",
      "type": "function"
    },
    {
      "inputs": [],
      "name": "owner",
      "outputs": [
        {
          "internalType": "address",
          "name": "",
          "type": "address"
        }
      ],
      "stateMutability": "view",
      "type": "function"
    },
    {
      "inputs": [],
      "name": "renounceOwnership",
      "outputs": [],
      "stateMutability": "nonpayable",
      "type": "function"
    },
    {
      "inputs": [
        {
          "internalType": "address",
          "name": "newOwner",
          "type": "address"
        }
      ],
      "name": "transferOwnership",
      "outputs": [],
      "stateMutability": "nonpayable",
      "type": "function"
    },
    {
      "inputs": [
        {
          "internalType": "address",
          "name": "",
          "type": "address"
        },
        {
          "internalType": "uint256",
          "name": "",
          "type": "uint256"
        }
      ],
      "name": "wins",
      "outputs": [
        {
          "internalType": "uint256",
          "name": "",
          "type": "uint256"
        }
      ],
      "stateMutability": "view",
      "type": "function"
    }
  ],
  "bytecode": "0x60806040523480156200001157600080fd5b5062000032620000266200003860201b60201c565b6200004060201b60201c565b62000104565b600033905090565b60008060009054906101000a900473ffffffffffffffffffffffffffffffffffffffff169050816000806101000a81548173ffffffffffffffffffffffffffffffffffffffff021916908373ffffffffffffffffffffffffffffffffffffffff1602179055508173ffffffffffffffffffffffffffffffffffffffff168173ffffffffffffffffffffffffffffffffffffffff167f8be0079c531659141344cd1fd0a4f28419497f9722a3daafe3b4186f6b6457e060405160405180910390a35050565b614fcf80620001146000396000f3fe6080604052600436106101c25760003560e01c8063a0c9ed47116100f7578063c874b1c211610095578063f9cc2d6c11610064578063f9cc2d6c14610673578063fba5a75e146106b0578063fc329d0c146106ed578063ffb1a6cb1461072a576101c2565b8063c874b1c2146105c8578063d9c312f4146105e4578063ec3535901461060d578063f2fde38b1461064a576101c2565b8063afce75d4116100d1578063afce75d4146104e6578063c063d80014610523578063c57981b514610560578063c7081d3d1461058b576101c2565b8063a0c9ed4714610453578063a66c7ee71461047e578063a75a6c86146104bb576101c2565b80635e2d822311610164578063715018a61161013e578063715018a6146103ae5780637d20e927146103c5578063859a62d0146103e15780638da5cb5b14610428576101c2565b80635e2d82231461032a57806360d1adeb146103465780636107814e14610383576101c2565b806339b13e6a116101a057806339b13e6a1461025a57806344c57cac14610285578063565e614f146102c25780635e2c243c146102ff576101c2565b80630b2a7e38146101c757806312065fe0146101f25780631d9e39d11461021d575b600080fd5b3480156101d357600080fd5b506101dc610767565b6040516101e99190613e3a565b60405180910390f35b3480156101fe57600080fd5b50610207610b3f565b6040516102149190613e6b565b60405180910390f35b34801561022957600080fd5b50610244600480360381019061023f9190613ec6565b610b47565b6040516102519190613e6b565b60405180910390f35b34801561026657600080fd5b5061026f610b93565b60405161027c9190613e3a565b60405180910390f35b34801561029157600080fd5b506102ac60048036038101906102a79190613f1f565b610f6b565b6040516102b99190613e6b565b60405180910390f35b3480156102ce57600080fd5b506102e960048036038101906102e49190613f5f565b610f9c565b6040516102f69190614082565b60405180910390f35b34801561030b57600080fd5b5061031461126c565b6040516103219190613e3a565b60405180910390f35b610344600480360381019061033f91906141d9565b611643565b005b34801561035257600080fd5b5061036d60048036038101906103689190613ec6565b6119e9565b60405161037a9190613e6b565b60405180910390f35b34801561038f57600080fd5b50610398611a35565b6040516103a59190613e6b565b60405180910390f35b3480156103ba57600080fd5b506103c3611a42565b005b6103df60048036038101906103da9190614222565b611a56565b005b3480156103ed57600080fd5b5061040860048036038101906104039190613f5f565b612708565b60405161041f9b9a999897969594939291906142e6565b60405180910390f35b34801561043457600080fd5b5061043d6128ef565b60405161044a919061439f565b60405180910390f35b34801561045f57600080fd5b50610468612918565b6040516104759190613e3a565b60405180910390f35b34801561048a57600080fd5b506104a560048036038101906104a09190613ec6565b612c0b565b6040516104b29190613e6b565b60405180910390f35b3480156104c757600080fd5b506104d0612c57565b6040516104dd9190613e3a565b60405180910390f35b3480156104f257600080fd5b5061050d60048036038101906105089190613f1f565b61302f565b60405161051a9190613e6b565b60405180910390f35b34801561052f57600080fd5b5061054a60048036038101906105459190613f1f565b613060565b6040516105579190613e6b565b60405180910390f35b34801561056c57600080fd5b50610575613091565b6040516105829190613e6b565b60405180910390f35b34801561059757600080fd5b506105b260048036038101906105ad9190613ec6565b61309c565b6040516105bf9190614469565b60405180910390f35b6105e260048036038101906105dd9190613f5f565b613133565b005b3480156105f057600080fd5b5061060b60048036038101906106069190613f5f565b613424565b005b34801561061957600080fd5b50610634600480360381019061062f9190613f1f565b613664565b6040516106419190613e6b565b60405180910390f35b34801561065657600080fd5b50610671600480360381019061066c9190613ec6565b613695565b005b34801561067f57600080fd5b5061069a60048036038101906106959190613ec6565b613718565b6040516106a79190613e6b565b60405180910390f35b3480156106bc57600080fd5b506106d760048036038101906106d29190613ec6565b613764565b6040516106e49190614469565b60405180910390f35b3480156106f957600080fd5b50610714600480360381019061070f9190613ec6565b6137fb565b6040516107219190614469565b60405180910390f35b34801561073657600080fd5b50610751600480360381019061074c9190613ec6565b613892565b60405161075e9190614469565b60405180910390f35b6060600060018054905067ffffffffffffffff81111561078a576107896140ae565b5b6040519080825280602002602001820160405280156107c357816020015b6107b0613a73565b8152602001906001900390816107a85790505b5090506000805b600180549050811015610b3657600260038111156107eb576107ea613c37565b5b600182815481106107ff576107fe61448b565b5b90600052602060002090600b0201600a0160009054906101000a900460ff1660038111156108305761082f613c37565b5b03610b2357600181815481106108495761084861448b565b5b90600052602060002090600b020160405180610160016040529081600082015481526020016001820160009054906101000a900473ffffffffffffffffffffffffffffffffffffffff1673ffffffffffffffffffffffffffffffffffffffff1673ffffffffffffffffffffffffffffffffffffffff1681526020016002820160009054906101000a900473ffffffffffffffffffffffffffffffffffffffff1673ffffffffffffffffffffffffffffffffffffffff1673ffffffffffffffffffffffffffffffffffffffff1681526020016003820160009054906101000a900473ffffffffffffffffffffffffffffffffffffffff1673ffffffffffffffffffffffffffffffffffffffff1673ffffffffffffffffffffffffffffffffffffffff16815260200160048201805461097f906144e9565b80601f01602080910402602001604051908101604052809291908181526020018280546109ab906144e9565b80156109f85780601f106109cd576101008083540402835291602001916109f8565b820191906000526020600020905b8154815290600101906020018083116109db57829003601f168201915b50505050508152602001600582018054610a11906144e9565b80601f0160208091040260200160405190810160405280929190818152602001828054610a3d906144e9565b8015610a8a5780601f10610a5f57610100808354040283529160200191610a8a565b820191906000526020600020905b815481529060010190602001808311610a6d57829003601f168201915b5050505050815260200160068201548152602001600782015481526020016008820154815260200160098201548152602001600a820160009054906101000a900460ff166003811115610ae057610adf613c37565b5b6003811115610af257610af1613c37565b5b81525050838381518110610b0957610b0861448b565b5b60200260200101819052508180610b1f90614549565b9250505b8080610b2e90614549565b9150506107ca565b50819250505090565b600047905090565b6000600260008373ffffffffffffffffffffffffffffffffffffffff1673ffffffffffffffffffffffffffffffffffffffff168152602001908152602001600020805490509050919050565b6060600060018054905067ffffffffffffffff811115610bb657610bb56140ae565b5b604051908082528060200260200182016040528015610bef57816020015b610bdc613a73565b815260200190600190039081610bd45790505b5090506000805b600180549050811015610f625760006003811115610c1757610c16613c37565b5b60018281548110610c2b57610c2a61448b565b5b90600052602060002090600b0201600a0160009054906101000a900460ff166003811115610c5c57610c5b613c37565b5b03610f4f5760018181548110610c7557610c7461448b565b5b90600052602060002090600b020160405180610160016040529081600082015481526020016001820160009054906101000a900473ffffffffffffffffffffffffffffffffffffffff1673ffffffffffffffffffffffffffffffffffffffff1673ffffffffffffffffffffffffffffffffffffffff1681526020016002820160009054906101000a900473ffffffffffffffffffffffffffffffffffffffff1673ffffffffffffffffffffffffffffffffffffffff1673ffffffffffffffffffffffffffffffffffffffff1681526020016003820160009054906101000a900473ffffffffffffffffffffffffffffffffffffffff1673ffffffffffffffffffffffffffffffffffffffff1673ffffffffffffffffffffffffffffffffffffffff168152602001600482018054610dab906144e9565b80601f0160208091040260200160405190810160405280929190818152602001828054610dd7906144e9565b8015610e245780601f10610df957610100808354040283529160200191610e24565b820191906000526020600020905b815481529060010190602001808311610e0757829003601f168201915b50505050508152602001600582018054610e3d906144e9565b80601f0160208091040260200160405190810160405280929190818152602001828054610e69906144e9565b8015610eb65780601f10610e8b57610100808354040283529160200191610eb6565b820191906000526020600020905b815481529060010190602001808311610e9957829003601f168201915b5050505050815260200160068201548152602001600782015481526020016008820154815260200160098201548152602001600a820160009054906101000a900460ff166003811115610f0c57610f0b613c37565b5b6003811115610f1e57610f1d613c37565b5b81525050838381518110610f3557610f3461448b565b5b60200260200101819052508180610f4b90614549565b9250505b8080610f5a90614549565b915050610bf6565b50819250505090565b60036020528160005260406000208181548110610f8757600080fd5b90600052602060002001600091509150505481565b610fa4613a73565b60018281548110610fb857610fb761448b565b5b90600052602060002090600b020160405180610160016040529081600082015481526020016001820160009054906101000a900473ffffffffffffffffffffffffffffffffffffffff1673ffffffffffffffffffffffffffffffffffffffff1673ffffffffffffffffffffffffffffffffffffffff1681526020016002820160009054906101000a900473ffffffffffffffffffffffffffffffffffffffff1673ffffffffffffffffffffffffffffffffffffffff1673ffffffffffffffffffffffffffffffffffffffff1681526020016003820160009054906101000a900473ffffffffffffffffffffffffffffffffffffffff1673ffffffffffffffffffffffffffffffffffffffff1673ffffffffffffffffffffffffffffffffffffffff1681526020016004820180546110ee906144e9565b80601f016020809104026020016040519081016040528092919081815260200182805461111a906144e9565b80156111675780601f1061113c57610100808354040283529160200191611167565b820191906000526020600020905b81548152906001019060200180831161114a57829003601f168201915b50505050508152602001600582018054611180906144e9565b80601f01602080910402602001604051908101604052809291908181526020018280546111ac906144e9565b80156111f95780601f106111ce576101008083540402835291602001916111f9565b820191906000526020600020905b8154815290600101906020018083116111dc57829003601f168201915b5050505050815260200160068201548152602001600782015481526020016008820154815260200160098201548152602001600a820160009054906101000a900460ff16600381111561124f5761124e613c37565b5b600381111561126157611260613c37565b5b815250509050919050565b6060600060018054905067ffffffffffffffff81111561128f5761128e6140ae565b5b6040519080825280602002602001820160405280156112c857816020015b6112b5613a73565b8152602001906001900390816112ad5790505b5090506000805b60018054905081101561163a576003808111156112ef576112ee613c37565b5b600182815481106113035761130261448b565b5b90600052602060002090600b0201600a0160009054906101000a900460ff16600381111561133457611333613c37565b5b03611627576001818154811061134d5761134c61448b565b5b90600052602060002090600b020160405180610160016040529081600082015481526020016001820160009054906101000a900473ffffffffffffffffffffffffffffffffffffffff1673ffffffffffffffffffffffffffffffffffffffff1673ffffffffffffffffffffffffffffffffffffffff1681526020016002820160009054906101000a900473ffffffffffffffffffffffffffffffffffffffff1673ffffffffffffffffffffffffffffffffffffffff1673ffffffffffffffffffffffffffffffffffffffff1681526020016003820160009054906101000a900473ffffffffffffffffffffffffffffffffffffffff1673ffffffffffffffffffffffffffffffffffffffff1673ffffffffffffffffffffffffffffffffffffffff168152602001600482018054611483906144e9565b80601f01602080910402602001604051908101604052809291908181526020018280546114af906144e9565b80156114fc5780601f106114d1576101008083540402835291602001916114fc565b820191906000526020600020905b8154815290600101906020018083116114df57829003601f168201915b50505050508152602001600582018054611515906144e9565b80601f0160208091040260200160405190810160405280929190818152602001828054611541906144e9565b801561158e5780601f106115635761010080835404028352916020019161158e565b820191906000526020600020905b81548152906001019060200180831161157157829003601f168201915b5050505050815260200160068201548152602001600782015481526020016008820154815260200160098201548152602001600a820160009054906101000a900460ff1660038111156115e4576115e3613c37565b5b60038111156115f6576115f5613c37565b5b8152505083838151811061160d5761160c61448b565b5b6020026020010181905250818061162390614549565b9250505b808061163290614549565b9150506112cf565b50819250505090565b6602c2ad68fd9000341161168c576040517f08c379a000000000000000000000000000000000000000000000000000000000815260040161168390614603565b60405180910390fd5b6000600180549050905060006040518061016001604052808381526020013373ffffffffffffffffffffffffffffffffffffffff168152602001600073ffffffffffffffffffffffffffffffffffffffff1681526020013373ffffffffffffffffffffffffffffffffffffffff1681526020018481526020016040518060200160405280600081525081526020013481526020016602c2ad68fd9000346117339190614623565b8152602001428152602001600081526020016000600381111561175957611758613c37565b5b815250905060018190806001815401808255809150506001900390600052602060002090600b02016000909190919091506000820151816000015560208201518160010160006101000a81548173ffffffffffffffffffffffffffffffffffffffff021916908373ffffffffffffffffffffffffffffffffffffffff16021790555060408201518160020160006101000a81548173ffffffffffffffffffffffffffffffffffffffff021916908373ffffffffffffffffffffffffffffffffffffffff16021790555060608201518160030160006101000a81548173ffffffffffffffffffffffffffffffffffffffff021916908373ffffffffffffffffffffffffffffffffffffffff160217905550608082015181600401908161187e9190614803565b5060a08201518160050190816118949190614803565b5060c0820151816006015560e082015181600701556101008201518160080155610120820151816009015561014082015181600a0160006101000a81548160ff021916908360038111156118eb576118ea613c37565b5b02179055505050600260003373ffffffffffffffffffffffffffffffffffffffff1673ffffffffffffffffffffffffffffffffffffffff1681526020019081526020016000208290806001815401808255809150506001900390600052602060002001600090919091909150556119606128ef565b73ffffffffffffffffffffffffffffffffffffffff166108fc6602c2ad68fd90009081150290604051600060405180830381858888f193505050501580156119ac573d6000803e3d6000fd5b507fb0dbe2e299e34ddf17287956670f83f8023010cd8f30be461d12379d40447b06826040516119dc9190613e6b565b60405180910390a1505050565b6000600460008373ffffffffffffffffffffffffffffffffffffffff1673ffffffffffffffffffffffffffffffffffffffff168152602001908152602001600020805490509050919050565b6000600180549050905090565b611a4a613929565b611a5460006139a7565b565b60016003811115611a6a57611a69613c37565b5b60018381548110611a7e57611a7d61448b565b5b90600052602060002090600b0201600a0160009054906101000a900460ff166003811115611aaf57611aae613c37565b5b14611aef576040517f08c379a0000000000000000000000000000000000000000000000000000000008152600401611ae690614921565b60405180910390fd5b3373ffffffffffffffffffffffffffffffffffffffff1660018381548110611b1a57611b1961448b565b5b90600052602060002090600b020160030160009054906101000a900473ffffffffffffffffffffffffffffffffffffffff1673ffffffffffffffffffffffffffffffffffffffff1614611ba2576040517f08c379a0000000000000000000000000000000000000000000000000000000008152600401611b99906149b3565b60405180910390fd5b60018281548110611bb657611bb561448b565b5b90600052602060002090600b0201600601543414611c09576040517f08c379a0000000000000000000000000000000000000000000000000000000008152600401611c0090614a45565b60405180910390fd5b3460018381548110611c1e57611c1d61448b565b5b90600052602060002090600b02016007016000828254611c3e9190614a65565b9250508190555060018281548110611c5957611c5861448b565b5b90600052602060002090600b020160050181604051602001611c7c929190614ba4565b60405160208183030381529060405260018381548110611c9f57611c9e61448b565b5b90600052602060002090600b02016005019081611cbc9190614803565b5060018281548110611cd157611cd061448b565b5b90600052602060002090600b0201600401604051602001611cf29190614bd3565b6040516020818303038152906040528051906020012081604051602001611d199190614bea565b604051602081830303815290604052805190602001200361209757600260018381548110611d4a57611d4961448b565b5b90600052602060002090600b0201600a0160006101000a81548160ff02191690836003811115611d7d57611d7c613c37565b5b021790555060018281548110611d9657611d9561448b565b5b90600052602060002090600b020160030160009054906101000a900473ffffffffffffffffffffffffffffffffffffffff1673ffffffffffffffffffffffffffffffffffffffff166108fc60018481548110611df557611df461448b565b5b90600052602060002090600b0201600701549081150290604051600060405180830381858888f19350505050158015611e32573d6000803e3d6000fd5b506003600060018481548110611e4b57611e4a61448b565b5b90600052602060002090600b020160030160009054906101000a900473ffffffffffffffffffffffffffffffffffffffff1673ffffffffffffffffffffffffffffffffffffffff1673ffffffffffffffffffffffffffffffffffffffff1681526020019081526020016000208290806001815401808255809150506001900390600052602060002001600090919091909150556004600060018481548110611ef657611ef561448b565b5b90600052602060002090600b020160010160009054906101000a900473ffffffffffffffffffffffffffffffffffffffff1673ffffffffffffffffffffffffffffffffffffffff1660018581548110611f5257611f5161448b565b5b90600052602060002090600b020160030160009054906101000a900473ffffffffffffffffffffffffffffffffffffffff1673ffffffffffffffffffffffffffffffffffffffff1614611fea5760018481548110611fb357611fb261448b565b5b90600052602060002090600b020160010160009054906101000a900473ffffffffffffffffffffffffffffffffffffffff16612031565b60018481548110611ffe57611ffd61448b565b5b90600052602060002090600b020160020160009054906101000a900473ffffffffffffffffffffffffffffffffffffffff165b73ffffffffffffffffffffffffffffffffffffffff1673ffffffffffffffffffffffffffffffffffffffff168152602001908152602001600020829080600181540180825580915050600190039060005260206000200160009091909190915055612704565b600182815481106120ab576120aa61448b565b5b90600052602060002090600b020160010160009054906101000a900473ffffffffffffffffffffffffffffffffffffffff1673ffffffffffffffffffffffffffffffffffffffff16600183815481106121075761210661448b565b5b90600052602060002090600b020160030160009054906101000a900473ffffffffffffffffffffffffffffffffffffffff1673ffffffffffffffffffffffffffffffffffffffff160361220257600182815481106121685761216761448b565b5b90600052602060002090600b020160020160009054906101000a900473ffffffffffffffffffffffffffffffffffffffff16600183815481106121ae576121ad61448b565b5b90600052602060002090600b020160030160006101000a81548173ffffffffffffffffffffffffffffffffffffffff021916908373ffffffffffffffffffffffffffffffffffffffff1602179055506122ac565b600182815481106122165761221561448b565b5b90600052602060002090600b020160010160009054906101000a900473ffffffffffffffffffffffffffffffffffffffff166001838154811061225c5761225b61448b565b5b90600052602060002090600b020160030160006101000a81548173ffffffffffffffffffffffffffffffffffffffff021916908373ffffffffffffffffffffffffffffffffffffffff1602179055505b600182815481106122c0576122bf61448b565b5b90600052602060002090600b020160090160008154809291906122e290614549565b91905055506006600183815481106122fd576122fc61448b565b5b90600052602060002090600b020160090154036126375760026001838154811061232a5761232961448b565b5b90600052602060002090600b0201600a0160006101000a81548160ff0219169083600381111561235d5761235c613c37565b5b0217905550600182815481106123765761237561448b565b5b90600052602060002090600b020160010160009054906101000a900473ffffffffffffffffffffffffffffffffffffffff1673ffffffffffffffffffffffffffffffffffffffff166108fc6002600185815481106123d7576123d661448b565b5b90600052602060002090600b0201600701546123f39190614c30565b9081150290604051600060405180830381858888f1935050505015801561241e573d6000803e3d6000fd5b50600182815481106124335761243261448b565b5b90600052602060002090600b020160020160009054906101000a900473ffffffffffffffffffffffffffffffffffffffff1673ffffffffffffffffffffffffffffffffffffffff166108fc6002600185815481106124945761249361448b565b5b90600052602060002090600b0201600701546124b09190614c30565b9081150290604051600060405180830381858888f193505050501580156124db573d6000803e3d6000fd5b5060056000600184815481106124f4576124f361448b565b5b90600052602060002090600b020160010160009054906101000a900473ffffffffffffffffffffffffffffffffffffffff1673ffffffffffffffffffffffffffffffffffffffff1673ffffffffffffffffffffffffffffffffffffffff168152602001908152602001600020829080600181540180825580915050600190039060005260206000200160009091909190915055600560006001848154811061259f5761259e61448b565b5b90600052602060002090600b020160020160009054906101000a900473ffffffffffffffffffffffffffffffffffffffff1673ffffffffffffffffffffffffffffffffffffffff1673ffffffffffffffffffffffffffffffffffffffff168152602001908152602001600020829080600181540180825580915050600190039060005260206000200160009091909190915055612703565b7ff1fb0272a0c5071948832056b653548b50099324be42a8c46a012cf7ae6e3019826001848154811061266d5761266c61448b565b5b90600052602060002090600b020160030160009054906101000a900473ffffffffffffffffffffffffffffffffffffffff16600185815481106126b3576126b261448b565b5b90600052602060002090600b0201600501600186815481106126d8576126d761448b565b5b90600052602060002090600b0201600901546040516126fa9493929190614ce5565b60405180910390a15b5b5050565b6001818154811061271857600080fd5b90600052602060002090600b02016000915090508060000154908060010160009054906101000a900473ffffffffffffffffffffffffffffffffffffffff16908060020160009054906101000a900473ffffffffffffffffffffffffffffffffffffffff16908060030160009054906101000a900473ffffffffffffffffffffffffffffffffffffffff16908060040180546127b3906144e9565b80601f01602080910402602001604051908101604052809291908181526020018280546127df906144e9565b801561282c5780601f106128015761010080835404028352916020019161282c565b820191906000526020600020905b81548152906001019060200180831161280f57829003601f168201915b505050505090806005018054612841906144e9565b80601f016020809104026020016040519081016040528092919081815260200182805461286d906144e9565b80156128ba5780601f1061288f576101008083540402835291602001916128ba565b820191906000526020600020905b81548152906001019060200180831161289d57829003601f168201915b50505050509080600601549080600701549080600801549080600901549080600a0160009054906101000a900460ff1690508b565b60008060009054906101000a900473ffffffffffffffffffffffffffffffffffffffff16905090565b60606001805480602002602001604051908101604052809291908181526020016000905b82821015612c0257838290600052602060002090600b020160405180610160016040529081600082015481526020016001820160009054906101000a900473ffffffffffffffffffffffffffffffffffffffff1673ffffffffffffffffffffffffffffffffffffffff1673ffffffffffffffffffffffffffffffffffffffff1681526020016002820160009054906101000a900473ffffffffffffffffffffffffffffffffffffffff1673ffffffffffffffffffffffffffffffffffffffff1673ffffffffffffffffffffffffffffffffffffffff1681526020016003820160009054906101000a900473ffffffffffffffffffffffffffffffffffffffff1673ffffffffffffffffffffffffffffffffffffffff1673ffffffffffffffffffffffffffffffffffffffff168152602001600482018054612a7c906144e9565b80601f0160208091040260200160405190810160405280929190818152602001828054612aa8906144e9565b8015612af55780601f10612aca57610100808354040283529160200191612af5565b820191906000526020600020905b815481529060010190602001808311612ad857829003601f168201915b50505050508152602001600582018054612b0e906144e9565b80601f0160208091040260200160405190810160405280929190818152602001828054612b3a906144e9565b8015612b875780601f10612b5c57610100808354040283529160200191612b87565b820191906000526020600020905b815481529060010190602001808311612b6a57829003601f168201915b5050505050815260200160068201548152602001600782015481526020016008820154815260200160098201548152602001600a820160009054906101000a900460ff166003811115612bdd57612bdc613c37565b5b6003811115612bef57612bee613c37565b5b815250508152602001906001019061293c565b50505050905090565b6000600560008373ffffffffffffffffffffffffffffffffffffffff1673ffffffffffffffffffffffffffffffffffffffff168152602001908152602001600020805490509050919050565b6060600060018054905067ffffffffffffffff811115612c7a57612c796140ae565b5b604051908082528060200260200182016040528015612cb357816020015b612ca0613a73565b815260200190600190039081612c985790505b5090506000805b6001805490508110156130265760016003811115612cdb57612cda613c37565b5b60018281548110612cef57612cee61448b565b5b90600052602060002090600b0201600a0160009054906101000a900460ff166003811115612d2057612d1f613c37565b5b036130135760018181548110612d3957612d3861448b565b5b90600052602060002090600b020160405180610160016040529081600082015481526020016001820160009054906101000a900473ffffffffffffffffffffffffffffffffffffffff1673ffffffffffffffffffffffffffffffffffffffff1673ffffffffffffffffffffffffffffffffffffffff1681526020016002820160009054906101000a900473ffffffffffffffffffffffffffffffffffffffff1673ffffffffffffffffffffffffffffffffffffffff1673ffffffffffffffffffffffffffffffffffffffff1681526020016003820160009054906101000a900473ffffffffffffffffffffffffffffffffffffffff1673ffffffffffffffffffffffffffffffffffffffff1673ffffffffffffffffffffffffffffffffffffffff168152602001600482018054612e6f906144e9565b80601f0160208091040260200160405190810160405280929190818152602001828054612e9b906144e9565b8015612ee85780601f10612ebd57610100808354040283529160200191612ee8565b820191906000526020600020905b815481529060010190602001808311612ecb57829003601f168201915b50505050508152602001600582018054612f01906144e9565b80601f0160208091040260200160405190810160405280929190818152602001828054612f2d906144e9565b8015612f7a5780601f10612f4f57610100808354040283529160200191612f7a565b820191906000526020600020905b815481529060010190602001808311612f5d57829003601f168201915b5050505050815260200160068201548152602001600782015481526020016008820154815260200160098201548152602001600a820160009054906101000a900460ff166003811115612fd057612fcf613c37565b5b6003811115612fe257612fe1613c37565b5b81525050838381518110612ff957612ff861448b565b5b6020026020010181905250818061300f90614549565b9250505b808061301e90614549565b915050612cba565b50819250505090565b6002602052816000526040600020818154811061304b57600080fd5b90600052602060002001600091509150505481565b6005602052816000526040600020818154811061307c57600080fd5b90600052602060002001600091509150505481565b6602c2ad68fd900081565b6060600260008373ffffffffffffffffffffffffffffffffffffffff1673ffffffffffffffffffffffffffffffffffffffff16815260200190815260200160002080548060200260200160405190810160405280929190818152602001828054801561312757602002820191906000526020600020905b815481526020019060010190808311613113575b50505050509050919050565b6000600381111561314757613146613c37565b5b6001828154811061315b5761315a61448b565b5b90600052602060002090600b0201600a0160009054906101000a900460ff16600381111561318c5761318b613c37565b5b146131cc576040517f08c379a00000000000000000000000000000000000000000000000000000000081526004016131c390614d7d565b60405180910390fd5b600181815481106131e0576131df61448b565b5b90600052602060002090600b0201600601543414613233576040517f08c379a000000000000000000000000000000000000000000000000000000000815260040161322a90614a45565b60405180910390fd5b33600182815481106132485761324761448b565b5b90600052602060002090600b020160020160006101000a81548173ffffffffffffffffffffffffffffffffffffffff021916908373ffffffffffffffffffffffffffffffffffffffff16021790555034600182815481106132ac576132ab61448b565b5b90600052602060002090600b020160070160008282546132cc9190614a65565b9250508190555060018082815481106132e8576132e761448b565b5b90600052602060002090600b0201600a0160006101000a81548160ff0219169083600381111561331b5761331a613c37565b5b0217905550600260003373ffffffffffffffffffffffffffffffffffffffff1673ffffffffffffffffffffffffffffffffffffffff168152602001908152602001600020819080600181540180825580915050600190039060005260206000200160009091909190915055336001828154811061339b5761339a61448b565b5b90600052602060002090600b020160030160006101000a81548173ffffffffffffffffffffffffffffffffffffffff021916908373ffffffffffffffffffffffffffffffffffffffff1602179055507f8ea16fd26bf5a97624d8b6fb303928937b9b559c4627028620ecf8e221dd32e9816040516134199190613e6b565b60405180910390a150565b3373ffffffffffffffffffffffffffffffffffffffff166001828154811061344f5761344e61448b565b5b90600052602060002090600b020160010160009054906101000a900473ffffffffffffffffffffffffffffffffffffffff1673ffffffffffffffffffffffffffffffffffffffff16146134d7576040517f08c379a00000000000000000000000000000000000000000000000000000000081526004016134ce90614e0f565b60405180910390fd5b600060038111156134eb576134ea613c37565b5b600182815481106134ff576134fe61448b565b5b90600052602060002090600b0201600a0160009054906101000a900460ff1660038111156135305761352f613c37565b5b14613570576040517f08c379a000000000000000000000000000000000000000000000000000000000815260040161356790614e7b565b60405180910390fd5b6003600182815481106135865761358561448b565b5b90600052602060002090600b0201600a0160006101000a81548160ff021916908360038111156135b9576135b8613c37565b5b02179055503373ffffffffffffffffffffffffffffffffffffffff166108fc600183815481106135ec576135eb61448b565b5b90600052602060002090600b0201600701549081150290604051600060405180830381858888f19350505050158015613629573d6000803e3d6000fd5b507fe6869595d58c61aa991d00acb41ac260a2d3b5a40d58255f6aad94a14c2804a7816040516136599190613e6b565b60405180910390a150565b6004602052816000526040600020818154811061368057600080fd5b90600052602060002001600091509150505481565b61369d613929565b600073ffffffffffffffffffffffffffffffffffffffff168173ffffffffffffffffffffffffffffffffffffffff160361370c576040517f08c379a000000000000000000000000000000000000000000000000000000000815260040161370390614f0d565b60405180910390fd5b613715816139a7565b50565b6000600360008373ffffffffffffffffffffffffffffffffffffffff1673ffffffffffffffffffffffffffffffffffffffff168152602001908152602001600020805490509050919050565b6060600560008373ffffffffffffffffffffffffffffffffffffffff1673ffffffffffffffffffffffffffffffffffffffff1681526020019081526020016000208054806020026020016040519081016040528092919081815260200182805480156137ef57602002820191906000526020600020905b8154815260200190600101908083116137db575b50505050509050919050565b6060600460008373ffffffffffffffffffffffffffffffffffffffff1673ffffffffffffffffffffffffffffffffffffffff16815260200190815260200160002080548060200260200160405190810160405280929190818152602001828054801561388657602002820191906000526020600020905b815481526020019060010190808311613872575b50505050509050919050565b6060600360008373ffffffffffffffffffffffffffffffffffffffff1673ffffffffffffffffffffffffffffffffffffffff16815260200190815260200160002080548060200260200160405190810160405280929190818152602001828054801561391d57602002820191906000526020600020905b815481526020019060010190808311613909575b50505050509050919050565b613931613a6b565b73ffffffffffffffffffffffffffffffffffffffff1661394f6128ef565b73ffffffffffffffffffffffffffffffffffffffff16146139a5576040517f08c379a000000000000000000000000000000000000000000000000000000000815260040161399c90614f79565b60405180910390fd5b565b60008060009054906101000a900473ffffffffffffffffffffffffffffffffffffffff169050816000806101000a81548173ffffffffffffffffffffffffffffffffffffffff021916908373ffffffffffffffffffffffffffffffffffffffff1602179055508173ffffffffffffffffffffffffffffffffffffffff168173ffffffffffffffffffffffffffffffffffffffff167f8be0079c531659141344cd1fd0a4f28419497f9722a3daafe3b4186f6b6457e060405160405180910390a35050565b600033905090565b60405180610160016040528060008152602001600073ffffffffffffffffffffffffffffffffffffffff168152602001600073ffffffffffffffffffffffffffffffffffffffff168152602001600073ffffffffffffffffffffffffffffffffffffffff16815260200160608152602001606081526020016000815260200160008152602001600081526020016000815260200160006003811115613b1b57613b1a613c37565b5b81525090565b600081519050919050565b600082825260208201905092915050565b6000819050602082019050919050565b6000819050919050565b613b6081613b4d565b82525050565b600073ffffffffffffffffffffffffffffffffffffffff82169050919050565b6000613b9182613b66565b9050919050565b613ba181613b86565b82525050565b600081519050919050565b600082825260208201905092915050565b60005b83811015613be1578082015181840152602081019050613bc6565b60008484015250505050565b6000601f19601f8301169050919050565b6000613c0982613ba7565b613c138185613bb2565b9350613c23818560208601613bc3565b613c2c81613bed565b840191505092915050565b7f4e487b7100000000000000000000000000000000000000000000000000000000600052602160045260246000fd5b60048110613c7757613c76613c37565b5b50565b6000819050613c8882613c66565b919050565b6000613c9882613c7a565b9050919050565b613ca881613c8d565b82525050565b600061016083016000830151613cc76000860182613b57565b506020830151613cda6020860182613b98565b506040830151613ced6040860182613b98565b506060830151613d006060860182613b98565b5060808301518482036080860152613d188282613bfe565b91505060a083015184820360a0860152613d328282613bfe565b91505060c0830151613d4760c0860182613b57565b5060e0830151613d5a60e0860182613b57565b50610100830151613d6f610100860182613b57565b50610120830151613d84610120860182613b57565b50610140830151613d99610140860182613c9f565b508091505092915050565b6000613db08383613cae565b905092915050565b6000602082019050919050565b6000613dd082613b21565b613dda8185613b2c565b935083602082028501613dec85613b3d565b8060005b85811015613e285784840389528151613e098582613da4565b9450613e1483613db8565b925060208a01995050600181019050613df0565b50829750879550505050505092915050565b60006020820190508181036000830152613e548184613dc5565b905092915050565b613e6581613b4d565b82525050565b6000602082019050613e806000830184613e5c565b92915050565b6000604051905090565b600080fd5b600080fd5b613ea381613b86565b8114613eae57600080fd5b50565b600081359050613ec081613e9a565b92915050565b600060208284031215613edc57613edb613e90565b5b6000613eea84828501613eb1565b91505092915050565b613efc81613b4d565b8114613f0757600080fd5b50565b600081359050613f1981613ef3565b92915050565b60008060408385031215613f3657613f35613e90565b5b6000613f4485828601613eb1565b9250506020613f5585828601613f0a565b9150509250929050565b600060208284031215613f7557613f74613e90565b5b6000613f8384828501613f0a565b91505092915050565b600061016083016000830151613fa56000860182613b57565b506020830151613fb86020860182613b98565b506040830151613fcb6040860182613b98565b506060830151613fde6060860182613b98565b5060808301518482036080860152613ff68282613bfe565b91505060a083015184820360a08601526140108282613bfe565b91505060c083015161402560c0860182613b57565b5060e083015161403860e0860182613b57565b5061010083015161404d610100860182613b57565b50610120830151614062610120860182613b57565b50610140830151614077610140860182613c9f565b508091505092915050565b6000602082019050818103600083015261409c8184613f8c565b905092915050565b600080fd5b600080fd5b7f4e487b7100000000000000000000000000000000000000000000000000000000600052604160045260246000fd5b6140e682613bed565b810181811067ffffffffffffffff82111715614105576141046140ae565b5b80604052505050565b6000614118613e86565b905061412482826140dd565b919050565b600067ffffffffffffffff821115614144576141436140ae565b5b61414d82613bed565b9050602081019050919050565b82818337600083830152505050565b600061417c61417784614129565b61410e565b905082815260208101848484011115614198576141976140a9565b5b6141a384828561415a565b509392505050565b600082601f8301126141c0576141bf6140a4565b5b81356141d0848260208601614169565b91505092915050565b6000602082840312156141ef576141ee613e90565b5b600082013567ffffffffffffffff81111561420d5761420c613e95565b5b614219848285016141ab565b91505092915050565b6000806040838503121561423957614238613e90565b5b600061424785828601613f0a565b925050602083013567ffffffffffffffff81111561426857614267613e95565b5b614274858286016141ab565b9150509250929050565b61428781613b86565b82525050565b600082825260208201905092915050565b60006142a982613ba7565b6142b3818561428d565b93506142c3818560208601613bc3565b6142cc81613bed565b840191505092915050565b6142e081613c8d565b82525050565b6000610160820190506142fc600083018e613e5c565b614309602083018d61427e565b614316604083018c61427e565b614323606083018b61427e565b8181036080830152614335818a61429e565b905081810360a0830152614349818961429e565b905061435860c0830188613e5c565b61436560e0830187613e5c565b614373610100830186613e5c565b614381610120830185613e5c565b61438f6101408301846142d7565b9c9b505050505050505050505050565b60006020820190506143b4600083018461427e565b92915050565b600081519050919050565b600082825260208201905092915050565b6000819050602082019050919050565b60006143f28383613b57565b60208301905092915050565b6000602082019050919050565b6000614416826143ba565b61442081856143c5565b935061442b836143d6565b8060005b8381101561445c57815161444388826143e6565b975061444e836143fe565b92505060018101905061442f565b5085935050505092915050565b60006020820190508181036000830152614483818461440b565b905092915050565b7f4e487b7100000000000000000000000000000000000000000000000000000000600052603260045260246000fd5b7f4e487b7100000000000000000000000000000000000000000000000000000000600052602260045260246000fd5b6000600282049050600182168061450157607f821691505b602082108103614514576145136144ba565b5b50919050565b7f4e487b7100000000000000000000000000000000000000000000000000000000600052601160045260246000fd5b600061455482613b4d565b91507fffffffffffffffffffffffffffffffffffffffffffffffffffffffffffffffff82036145865761458561451a565b5b600182019050919050565b7f416d6f756e74206d7573742062652067726561746572207468616e20302e303060008201527f3037373720455448000000000000000000000000000000000000000000000000602082015250565b60006145ed60288361428d565b91506145f882614591565b604082019050919050565b6000602082019050818103600083015261461c816145e0565b9050919050565b600061462e82613b4d565b915061463983613b4d565b92508282039050818111156146515761465061451a565b5b92915050565b60008190508160005260206000209050919050565b60006020601f8301049050919050565b600082821b905092915050565b6000600883026146b97fffffffffffffffffffffffffffffffffffffffffffffffffffffffffffffffff8261467c565b6146c3868361467c565b95508019841693508086168417925050509392505050565b6000819050919050565b60006147006146fb6146f684613b4d565b6146db565b613b4d565b9050919050565b6000819050919050565b61471a836146e5565b61472e61472682614707565b848454614689565b825550505050565b600090565b614743614736565b61474e818484614711565b505050565b5b818110156147725761476760008261473b565b600181019050614754565b5050565b601f8211156147b75761478881614657565b6147918461466c565b810160208510156147a0578190505b6147b46147ac8561466c565b830182614753565b50505b505050565b600082821c905092915050565b60006147da600019846008026147bc565b1980831691505092915050565b60006147f383836147c9565b9150826002028217905092915050565b61480c82613ba7565b67ffffffffffffffff811115614825576148246140ae565b5b61482f82546144e9565b61483a828285614776565b600060209050601f83116001811461486d576000841561485b578287015190505b61486585826147e7565b8655506148cd565b601f19841661487b86614657565b60005b828110156148a35784890151825560018201915060208501945060208101905061487e565b868310156148c057848901516148bc601f8916826147c9565b8355505b6001600288020188555050505b505050505050565b7f4475656c206d7573742062652061636365707465640000000000000000000000600082015250565b600061490b60158361428d565b9150614916826148d5565b602082019050919050565b6000602082019050818103600083015261493a816148fe565b9050919050565b7f4f6e6c79207468652063757272656e7420706c617965722063616e206d616b6560008201527f2061206d6f766500000000000000000000000000000000000000000000000000602082015250565b600061499d60278361428d565b91506149a882614941565b604082019050919050565b600060208201905081810360008301526149cc81614990565b9050919050565b7f416d6f756e74206d75737420626520657175616c20746f20746865206368616c60008201527f6c656e6765722773206d6f766520616d6f756e74000000000000000000000000602082015250565b6000614a2f60348361428d565b9150614a3a826149d3565b604082019050919050565b60006020820190508181036000830152614a5e81614a22565b9050919050565b6000614a7082613b4d565b9150614a7b83613b4d565b9250828201905080821115614a9357614a9261451a565b5b92915050565b600081905092915050565b60008154614ab1816144e9565b614abb8186614a99565b94506001821660008114614ad65760018114614aeb57614b1e565b60ff1983168652811515820286019350614b1e565b614af485614657565b60005b83811015614b1657815481890152600182019150602081019050614af7565b838801955050505b50505092915050565b7f2c00000000000000000000000000000000000000000000000000000000000000600082015250565b6000614b5d600183614a99565b9150614b6882614b27565b600182019050919050565b6000614b7e82613ba7565b614b888185614a99565b9350614b98818560208601613bc3565b80840191505092915050565b6000614bb08285614aa4565b9150614bbb82614b50565b9150614bc78284614b73565b91508190509392505050565b6000614bdf8284614aa4565b915081905092915050565b6000614bf68284614b73565b915081905092915050565b7f4e487b7100000000000000000000000000000000000000000000000000000000600052601260045260246000fd5b6000614c3b82613b4d565b9150614c4683613b4d565b925082614c5657614c55614c01565b5b828204905092915050565b60008154614c6e816144e9565b614c78818661428d565b94506001821660008114614c935760018114614ca957614cdc565b60ff198316865281151560200286019350614cdc565b614cb285614657565b60005b83811015614cd457815481890152600182019150602081019050614cb5565b808801955050505b50505092915050565b6000608082019050614cfa6000830187613e5c565b614d07602083018661427e565b8181036040830152614d198185614c61565b9050614d286060830184613e5c565b95945050505050565b7f4475656c206d757374206e6f7420626520616363657074656420796574000000600082015250565b6000614d67601d8361428d565b9150614d7282614d31565b602082019050919050565b60006020820190508181036000830152614d9681614d5a565b9050919050565b7f4f6e6c7920746865206368616c6c656e6765722063616e2063616e63656c207460008201527f6865206475656c00000000000000000000000000000000000000000000000000602082015250565b6000614df960278361428d565b9150614e0482614d9d565b604082019050919050565b60006020820190508181036000830152614e2881614dec565b9050919050565b7f4475656c206d757374206265206e6f7420626520616363657074656420796574600082015250565b6000614e6560208361428d565b9150614e7082614e2f565b602082019050919050565b60006020820190508181036000830152614e9481614e58565b9050919050565b7f4f776e61626c653a206e6577206f776e657220697320746865207a65726f206160008201527f6464726573730000000000000000000000000000000000000000000000000000602082015250565b6000614ef760268361428d565b9150614f0282614e9b565b604082019050919050565b60006020820190508181036000830152614f2681614eea565b9050919050565b7f4f776e61626c653a2063616c6c6572206973206e6f7420746865206f776e6572600082015250565b6000614f6360208361428d565b9150614f6e82614f2d565b602082019050919050565b60006020820190508181036000830152614f9281614f56565b905091905056fea2646970667358221220d030d6f0c38cb6bf2a09d82c22cf4f4b41642a0f8a23db5793a610b8246efd0864736f6c63430008130033",
  "linkReferences": {},
  "deployedLinkReferences": {}
}