{
  "_format": "hh-sol-artifact-1",
  "contractName": "OpenFreeDuels",
  "sourceName": "contracts/OpenFreeDuels.sol",
  "abi": [
    {
      "inputs": [
        {
          "internalType": "address",
          "name": "_gelatoRelay",
          "type": "address"
        }
      ],
      "stateMutability": "nonpayable",
      "type": "constructor"
    },
    {
      "anonymous": false,
      "inputs": [
        {
          "indexed": false,
          "internalType": "uint256",
          "name": "id",
          "type": "uint256"
        }
      ],
      "name": "DuelAccepted",
      "type": "event"
    },
    {
      "anonymous": false,
      "inputs": [
        {
          "indexed": false,
          "internalType": "uint256",
          "name": "id",
          "type": "uint256"
        }
      ],
      "name": "DuelCancelled",
      "type": "event"
    },
    {
      "anonymous": false,
      "inputs": [
        {
          "indexed": false,
          "internalType": "uint256",
          "name": "id",
          "type": "uint256"
        }
      ],
      "name": "DuelCreated",
      "type": "event"
    },
    {
      "anonymous": false,
      "inputs": [
        {
          "indexed": false,
          "internalType": "uint256",
          "name": "id",
          "type": "uint256"
        },
        {
          "indexed": false,
          "internalType": "address",
          "name": "currentPlayer",
          "type": "address"
        },
        {
          "indexed": false,
          "internalType": "string",
          "name": "words",
          "type": "string"
        },
        {
          "indexed": false,
          "internalType": "uint256",
          "name": "moveCount",
          "type": "uint256"
        }
      ],
      "name": "DuelMove",
      "type": "event"
    },
    {
      "anonymous": false,
      "inputs": [
        {
          "indexed": true,
          "internalType": "address",
          "name": "previousOwner",
          "type": "address"
        },
        {
          "indexed": true,
          "internalType": "address",
          "name": "newOwner",
          "type": "address"
        }
      ],
      "name": "OwnershipTransferred",
      "type": "event"
    },
    {
      "inputs": [
        {
          "internalType": "uint256",
          "name": "_duelId",
          "type": "uint256"
        }
      ],
      "name": "acceptDuel",
      "outputs": [],
      "stateMutability": "nonpayable",
      "type": "function"
    },
    {
      "inputs": [
        {
          "internalType": "uint256",
          "name": "_duelId",
          "type": "uint256"
        }
      ],
      "name": "cancelDuel",
      "outputs": [],
      "stateMutability": "nonpayable",
      "type": "function"
    },
    {
      "inputs": [
        {
          "internalType": "string",
          "name": "_targetWord",
          "type": "string"
        }
      ],
      "name": "createDuel",
      "outputs": [],
      "stateMutability": "nonpayable",
      "type": "function"
    },
    {
      "inputs": [
        {
          "internalType": "address",
          "name": "",
          "type": "address"
        },
        {
          "internalType": "uint256",
          "name": "",
          "type": "uint256"
        }
      ],
      "name": "draws",
      "outputs": [
        {
          "internalType": "uint256",
          "name": "",
          "type": "uint256"
        }
      ],
      "stateMutability": "view",
      "type": "function"
    },
    {
      "inputs": [
        {
          "internalType": "uint256",
          "name": "",
          "type": "uint256"
        }
      ],
      "name": "duels",
      "outputs": [
        {
          "internalType": "uint256",
          "name": "id",
          "type": "uint256"
        },
        {
          "internalType": "address",
          "name": "challenger",
          "type": "address"
        },
        {
          "internalType": "address",
          "name": "opponent",
          "type": "address"
        },
        {
          "internalType": "address",
          "name": "currentPlayer",
          "type": "address"
        },
        {
          "internalType": "string",
          "name": "targetWord",
          "type": "string"
        },
        {
          "internalType": "string",
          "name": "words",
          "type": "string"
        },
        {
          "internalType": "uint256",
          "name": "createdAt",
          "type": "uint256"
        },
        {
          "internalType": "uint256",
          "name": "moveCount",
          "type": "uint256"
        },
        {
          "internalType": "enum OpenFreeDuels.DuelState",
          "name": "state",
          "type": "uint8"
        }
      ],
      "stateMutability": "view",
      "type": "function"
    },
    {
      "inputs": [
        {
          "internalType": "address",
          "name": "_wallet",
          "type": "address"
        }
      ],
      "name": "getDrawsCount",
      "outputs": [
        {
          "internalType": "uint256",
          "name": "",
          "type": "uint256"
        }
      ],
      "stateMutability": "view",
      "type": "function"
    },
    {
      "inputs": [
        {
          "internalType": "uint256",
          "name": "_duelId",
          "type": "uint256"
        }
      ],
      "name": "getDuel",
      "outputs": [
        {
          "components": [
            {
              "internalType": "uint256",
              "name": "id",
              "type": "uint256"
            },
            {
              "internalType": "address",
              "name": "challenger",
              "type": "address"
            },
            {
              "internalType": "address",
              "name": "opponent",
              "type": "address"
            },
            {
              "internalType": "address",
              "name": "currentPlayer",
              "type": "address"
            },
            {
              "internalType": "string",
              "name": "targetWord",
              "type": "string"
            },
            {
              "internalType": "string",
              "name": "words",
              "type": "string"
            },
            {
              "internalType": "uint256",
              "name": "createdAt",
              "type": "uint256"
            },
            {
              "internalType": "uint256",
              "name": "moveCount",
              "type": "uint256"
            },
            {
              "internalType": "enum OpenFreeDuels.DuelState",
              "name": "state",
              "type": "uint8"
            }
          ],
          "internalType": "struct OpenFreeDuels.Duel",
          "name": "",
          "type": "tuple"
        }
      ],
      "stateMutability": "view",
      "type": "function"
    },
    {
      "inputs": [],
      "name": "getDuels",
      "outputs": [
        {
          "components": [
            {
              "internalType": "uint256",
              "name": "id",
              "type": "uint256"
            },
            {
              "internalType": "address",
              "name": "challenger",
              "type": "address"
            },
            {
              "internalType": "address",
              "name": "opponent",
              "type": "address"
            },
            {
              "internalType": "address",
              "name": "currentPlayer",
              "type": "address"
            },
            {
              "internalType": "string",
              "name": "targetWord",
              "type": "string"
            },
            {
              "internalType": "string",
              "name": "words",
              "type": "string"
            },
            {
              "internalType": "uint256",
              "name": "createdAt",
              "type": "uint256"
            },
            {
              "internalType": "uint256",
              "name": "moveCount",
              "type": "uint256"
            },
            {
              "internalType": "enum OpenFreeDuels.DuelState",
              "name": "state",
              "type": "uint8"
            }
          ],
          "internalType": "struct OpenFreeDuels.Duel[]",
          "name": "",
          "type": "tuple[]"
        }
      ],
      "stateMutability": "view",
      "type": "function"
    },
    {
      "inputs": [],
      "name": "getDuelsCount",
      "outputs": [
        {
          "internalType": "uint256",
          "name": "",
          "type": "uint256"
        }
      ],
      "stateMutability": "view",
      "type": "function"
    },
    {
      "inputs": [
        {
          "internalType": "address",
          "name": "_wallet",
          "type": "address"
        }
      ],
      "name": "getLossesCount",
      "outputs": [
        {
          "internalType": "uint256",
          "name": "",
          "type": "uint256"
        }
      ],
      "stateMutability": "view",
      "type": "function"
    },
    {
      "inputs": [
        {
          "internalType": "address",
          "name": "_wallet",
          "type": "address"
        }
      ],
      "name": "getMyDuels",
      "outputs": [
        {
          "internalType": "uint256[]",
          "name": "",
          "type": "uint256[]"
        }
      ],
      "stateMutability": "view",
      "type": "function"
    },
    {
      "inputs": [
        {
          "internalType": "address",
          "name": "_wallet",
          "type": "address"
        }
      ],
      "name": "getMyDuelsCount",
      "outputs": [
        {
          "internalType": "uint256",
          "name": "",
          "type": "uint256"
        }
      ],
      "stateMutability": "view",
      "type": "function"
    },
    {
      "inputs": [
        {
          "internalType": "address",
          "name": "_wallet",
          "type": "address"
        }
      ],
      "name": "getWinsCount",
      "outputs": [
        {
          "internalType": "uint256",
          "name": "",
          "type": "uint256"
        }
      ],
      "stateMutability": "view",
      "type": "function"
    },
    {
      "inputs": [
        {
          "internalType": "address",
          "name": "forwarder",
          "type": "address"
        }
      ],
      "name": "isTrustedForwarder",
      "outputs": [
        {
          "internalType": "bool",
          "name": "",
          "type": "bool"
        }
      ],
      "stateMutability": "view",
      "type": "function"
    },
    {
      "inputs": [
        {
          "internalType": "address",
          "name": "",
          "type": "address"
        },
        {
          "internalType": "uint256",
          "name": "",
          "type": "uint256"
        }
      ],
      "name": "losses",
      "outputs": [
        {
          "internalType": "uint256",
          "name": "",
          "type": "uint256"
        }
      ],
      "stateMutability": "view",
      "type": "function"
    },
    {
      "inputs": [
        {
          "internalType": "uint256",
          "name": "_duelId",
          "type": "uint256"
        },
        {
          "internalType": "string",
          "name": "_word",
          "type": "string"
        }
      ],
      "name": "makeMove",
      "outputs": [],
      "stateMutability": "nonpayable",
      "type": "function"
    },
    {
      "inputs": [
        {
          "internalType": "address",
          "name": "",
          "type": "address"
        },
        {
          "internalType": "uint256",
          "name": "",
          "type": "uint256"
        }
      ],
      "name": "myDuels",
      "outputs": [
        {
          "internalType": "uint256",
          "name": "",
          "type": "uint256"
        }
      ],
      "stateMutability": "view",
      "type": "function"
    },
    {
      "inputs": [],
      "name": "owner",
      "outputs": [
        {
          "internalType": "address",
          "name": "",
          "type": "address"
        }
      ],
      "stateMutability": "view",
      "type": "function"
    },
    {
      "inputs": [],
      "name": "renounceOwnership",
      "outputs": [],
      "stateMutability": "nonpayable",
      "type": "function"
    },
    {
      "inputs": [
        {
          "internalType": "address",
          "name": "newOwner",
          "type": "address"
        }
      ],
      "name": "transferOwnership",
      "outputs": [],
      "stateMutability": "nonpayable",
      "type": "function"
    },
    {
      "inputs": [
        {
          "internalType": "address",
          "name": "",
          "type": "address"
        },
        {
          "internalType": "uint256",
          "name": "",
          "type": "uint256"
        }
      ],
      "name": "wins",
      "outputs": [
        {
          "internalType": "uint256",
          "name": "",
          "type": "uint256"
        }
      ],
      "stateMutability": "view",
      "type": "function"
    }
  ],
  "bytecode": "0x60a06040523480156200001157600080fd5b506040516200382738038062003827833981810160405281019062000037919062000272565b808073ffffffffffffffffffffffffffffffffffffffff1660808173ffffffffffffffffffffffffffffffffffffffff1681525050506200008d620000816200009460201b60201c565b620000ab60201b60201c565b50620002a4565b6000620000a66200016f60201b60201c565b905090565b60008060009054906101000a900473ffffffffffffffffffffffffffffffffffffffff169050816000806101000a81548173ffffffffffffffffffffffffffffffffffffffff021916908373ffffffffffffffffffffffffffffffffffffffff1602179055508173ffffffffffffffffffffffffffffffffffffffff168173ffffffffffffffffffffffffffffffffffffffff167f8be0079c531659141344cd1fd0a4f28419497f9722a3daafe3b4186f6b6457e060405160405180910390a35050565b60006200018233620001c660201b60201c565b80156200019457506014600036905010155b15620001aa57601436033560601c9050620001c2565b620001ba6200020060201b60201c565b9050620001c3565b5b90565b600060805173ffffffffffffffffffffffffffffffffffffffff168273ffffffffffffffffffffffffffffffffffffffff16149050919050565b600033905090565b600080fd5b600073ffffffffffffffffffffffffffffffffffffffff82169050919050565b60006200023a826200020d565b9050919050565b6200024c816200022d565b81146200025857600080fd5b50565b6000815190506200026c8162000241565b92915050565b6000602082840312156200028b576200028a62000208565b5b60006200029b848285016200025b565b91505092915050565b608051613567620002c060003960006107b101526135676000f3fe608060405234801561001057600080fd5b50600436106101375760003560e01c80638da5cb5b116100b8578063c7081d3d1161007c578063c7081d3d14610390578063c874b1c2146103c0578063d9c312f4146103dc578063ec353590146103f8578063f2fde38b14610428578063f9cc2d6c1461044457610137565b80638da5cb5b146102c4578063a0c9ed47146102e2578063a66c7ee714610300578063afce75d414610330578063c063d8001461036057610137565b806360d1adeb116100ff57806360d1adeb146102185780636107814e14610248578063715018a6146102665780637d20e92714610270578063859a62d01461028c57610137565b80631d9e39d11461013c57806344c57cac1461016c578063565e614f1461019c578063572b6c05146101cc5780635e2d8223146101fc575b600080fd5b61015660048036038101906101519190612353565b610474565b6040516101639190612399565b60405180910390f35b610186600480360381019061018191906123e0565b6104c0565b6040516101939190612399565b60405180910390f35b6101b660048036038101906101b19190612420565b6104f1565b6040516101c3919061263e565b60405180910390f35b6101e660048036038101906101e19190612353565b6107ad565b6040516101f3919061267b565b60405180910390f35b610216600480360381019061021191906127cb565b610805565b005b610232600480360381019061022d9190612353565b610aee565b60405161023f9190612399565b60405180910390f35b610250610b3a565b60405161025d9190612399565b60405180910390f35b61026e610b47565b005b61028a60048036038101906102859190612814565b610b5b565b005b6102a660048036038101906102a19190612420565b611546565b6040516102bb999897969594939291906128d8565b60405180910390f35b6102cc611721565b6040516102d99190612973565b60405180910390f35b6102ea61174a565b6040516102f79190612b1c565b60405180910390f35b61031a60048036038101906103159190612353565b611a29565b6040516103279190612399565b60405180910390f35b61034a600480360381019061034591906123e0565b611a75565b6040516103579190612399565b60405180910390f35b61037a600480360381019061037591906123e0565b611aa6565b6040516103879190612399565b60405180910390f35b6103aa60048036038101906103a59190612353565b611ad7565b6040516103b79190612bed565b60405180910390f35b6103da60048036038101906103d59190612420565b611b6e565b005b6103f660048036038101906103f19190612420565b611dca565b005b610412600480360381019061040d91906123e0565b611fa5565b60405161041f9190612399565b60405180910390f35b610442600480360381019061043d9190612353565b611fd6565b005b61045e60048036038101906104599190612353565b612059565b60405161046b9190612399565b60405180910390f35b6000600260008373ffffffffffffffffffffffffffffffffffffffff1673ffffffffffffffffffffffffffffffffffffffff168152602001908152602001600020805490509050919050565b600360205281600052604060002081815481106104dc57600080fd5b90600052602060002001600091509150505481565b6104f9612241565b6001828154811061050d5761050c612c0f565b5b906000526020600020906009020160405180610120016040529081600082015481526020016001820160009054906101000a900473ffffffffffffffffffffffffffffffffffffffff1673ffffffffffffffffffffffffffffffffffffffff1673ffffffffffffffffffffffffffffffffffffffff1681526020016002820160009054906101000a900473ffffffffffffffffffffffffffffffffffffffff1673ffffffffffffffffffffffffffffffffffffffff1673ffffffffffffffffffffffffffffffffffffffff1681526020016003820160009054906101000a900473ffffffffffffffffffffffffffffffffffffffff1673ffffffffffffffffffffffffffffffffffffffff1673ffffffffffffffffffffffffffffffffffffffff16815260200160048201805461064390612c6d565b80601f016020809104026020016040519081016040528092919081815260200182805461066f90612c6d565b80156106bc5780601f10610691576101008083540402835291602001916106bc565b820191906000526020600020905b81548152906001019060200180831161069f57829003601f168201915b505050505081526020016005820180546106d590612c6d565b80601f016020809104026020016040519081016040528092919081815260200182805461070190612c6d565b801561074e5780601f106107235761010080835404028352916020019161074e565b820191906000526020600020905b81548152906001019060200180831161073157829003601f168201915b5050505050815260200160068201548152602001600782015481526020016008820160009054906101000a900460ff1660038111156107905761078f6124fb565b5b60038111156107a2576107a16124fb565b5b815250509050919050565b60007f000000000000000000000000000000000000000000000000000000000000000073ffffffffffffffffffffffffffffffffffffffff168273ffffffffffffffffffffffffffffffffffffffff16149050919050565b60006001805490509050600060405180610120016040528083815260200161082b6120a5565b73ffffffffffffffffffffffffffffffffffffffff168152602001600073ffffffffffffffffffffffffffffffffffffffff16815260200161086b6120a5565b73ffffffffffffffffffffffffffffffffffffffff16815260200184815260200160405180602001604052806000815250815260200142815260200160008152602001600060038111156108c2576108c16124fb565b5b815250905060018190806001815401808255809150506001900390600052602060002090600902016000909190919091506000820151816000015560208201518160010160006101000a81548173ffffffffffffffffffffffffffffffffffffffff021916908373ffffffffffffffffffffffffffffffffffffffff16021790555060408201518160020160006101000a81548173ffffffffffffffffffffffffffffffffffffffff021916908373ffffffffffffffffffffffffffffffffffffffff16021790555060608201518160030160006101000a81548173ffffffffffffffffffffffffffffffffffffffff021916908373ffffffffffffffffffffffffffffffffffffffff16021790555060808201518160040190816109e79190612e4a565b5060a08201518160050190816109fd9190612e4a565b5060c0820151816006015560e082015181600701556101008201518160080160006101000a81548160ff02191690836003811115610a3e57610a3d6124fb565b5b0217905550505060026000610a516120a5565b73ffffffffffffffffffffffffffffffffffffffff1673ffffffffffffffffffffffffffffffffffffffff1681526020019081526020016000208290806001815401808255809150506001900390600052602060002001600090919091909150557fb0dbe2e299e34ddf17287956670f83f8023010cd8f30be461d12379d40447b0682604051610ae19190612399565b60405180910390a1505050565b6000600460008373ffffffffffffffffffffffffffffffffffffffff1673ffffffffffffffffffffffffffffffffffffffff168152602001908152602001600020805490509050919050565b6000600180549050905090565b610b4f6120b4565b610b596000612132565b565b60016003811115610b6f57610b6e6124fb565b5b60018381548110610b8357610b82612c0f565b5b906000526020600020906009020160080160009054906101000a900460ff166003811115610bb457610bb36124fb565b5b14610bf4576040517f08c379a0000000000000000000000000000000000000000000000000000000008152600401610beb90612f68565b60405180910390fd5b610bfc6120a5565b73ffffffffffffffffffffffffffffffffffffffff1660018381548110610c2657610c25612c0f565b5b906000526020600020906009020160030160009054906101000a900473ffffffffffffffffffffffffffffffffffffffff1673ffffffffffffffffffffffffffffffffffffffff1614610cae576040517f08c379a0000000000000000000000000000000000000000000000000000000008152600401610ca590612ffa565b60405180910390fd5b60018281548110610cc257610cc1612c0f565b5b906000526020600020906009020160050181604051602001610ce5929190613125565b60405160208183030381529060405260018381548110610d0857610d07612c0f565b5b90600052602060002090600902016005019081610d259190612e4a565b5060018281548110610d3a57610d39612c0f565b5b9060005260206000209060090201600401604051602001610d5b9190613154565b6040516020818303038152906040528051906020012081604051602001610d82919061316b565b604051602081830303815290604052805190602001200361104f57600260018381548110610db357610db2612c0f565b5b906000526020600020906009020160080160006101000a81548160ff02191690836003811115610de657610de56124fb565b5b02179055506003600060018481548110610e0357610e02612c0f565b5b906000526020600020906009020160030160009054906101000a900473ffffffffffffffffffffffffffffffffffffffff1673ffffffffffffffffffffffffffffffffffffffff1673ffffffffffffffffffffffffffffffffffffffff1681526020019081526020016000208290806001815401808255809150506001900390600052602060002001600090919091909150556004600060018481548110610eae57610ead612c0f565b5b906000526020600020906009020160010160009054906101000a900473ffffffffffffffffffffffffffffffffffffffff1673ffffffffffffffffffffffffffffffffffffffff1660018581548110610f0a57610f09612c0f565b5b906000526020600020906009020160030160009054906101000a900473ffffffffffffffffffffffffffffffffffffffff1673ffffffffffffffffffffffffffffffffffffffff1614610fa25760018481548110610f6b57610f6a612c0f565b5b906000526020600020906009020160010160009054906101000a900473ffffffffffffffffffffffffffffffffffffffff16610fe9565b60018481548110610fb657610fb5612c0f565b5b906000526020600020906009020160020160009054906101000a900473ffffffffffffffffffffffffffffffffffffffff165b73ffffffffffffffffffffffffffffffffffffffff1673ffffffffffffffffffffffffffffffffffffffff168152602001908152602001600020829080600181540180825580915050600190039060005260206000200160009091909190915055611542565b6001828154811061106357611062612c0f565b5b906000526020600020906009020160010160009054906101000a900473ffffffffffffffffffffffffffffffffffffffff1673ffffffffffffffffffffffffffffffffffffffff16600183815481106110bf576110be612c0f565b5b906000526020600020906009020160030160009054906101000a900473ffffffffffffffffffffffffffffffffffffffff1673ffffffffffffffffffffffffffffffffffffffff16036111ba57600182815481106111205761111f612c0f565b5b906000526020600020906009020160020160009054906101000a900473ffffffffffffffffffffffffffffffffffffffff166001838154811061116657611165612c0f565b5b906000526020600020906009020160030160006101000a81548173ffffffffffffffffffffffffffffffffffffffff021916908373ffffffffffffffffffffffffffffffffffffffff160217905550611264565b600182815481106111ce576111cd612c0f565b5b906000526020600020906009020160010160009054906101000a900473ffffffffffffffffffffffffffffffffffffffff166001838154811061121457611213612c0f565b5b906000526020600020906009020160030160006101000a81548173ffffffffffffffffffffffffffffffffffffffff021916908373ffffffffffffffffffffffffffffffffffffffff1602179055505b6001828154811061127857611277612c0f565b5b9060005260206000209060090201600701600081548092919061129a906131b1565b91905055506006600183815481106112b5576112b4612c0f565b5b90600052602060002090600902016007015403611475576002600183815481106112e2576112e1612c0f565b5b906000526020600020906009020160080160006101000a81548160ff02191690836003811115611315576113146124fb565b5b0217905550600560006001848154811061133257611331612c0f565b5b906000526020600020906009020160010160009054906101000a900473ffffffffffffffffffffffffffffffffffffffff1673ffffffffffffffffffffffffffffffffffffffff1673ffffffffffffffffffffffffffffffffffffffff16815260200190815260200160002082908060018154018082558091505060019003906000526020600020016000909190919091505560056000600184815481106113dd576113dc612c0f565b5b906000526020600020906009020160020160009054906101000a900473ffffffffffffffffffffffffffffffffffffffff1673ffffffffffffffffffffffffffffffffffffffff1673ffffffffffffffffffffffffffffffffffffffff168152602001908152602001600020829080600181540180825580915050600190039060005260206000200160009091909190915055611541565b7ff1fb0272a0c5071948832056b653548b50099324be42a8c46a012cf7ae6e301982600184815481106114ab576114aa612c0f565b5b906000526020600020906009020160030160009054906101000a900473ffffffffffffffffffffffffffffffffffffffff16600185815481106114f1576114f0612c0f565b5b90600052602060002090600902016005016001868154811061151657611515612c0f565b5b906000526020600020906009020160070154604051611538949392919061327d565b60405180910390a15b5b5050565b6001818154811061155657600080fd5b90600052602060002090600902016000915090508060000154908060010160009054906101000a900473ffffffffffffffffffffffffffffffffffffffff16908060020160009054906101000a900473ffffffffffffffffffffffffffffffffffffffff16908060030160009054906101000a900473ffffffffffffffffffffffffffffffffffffffff16908060040180546115f190612c6d565b80601f016020809104026020016040519081016040528092919081815260200182805461161d90612c6d565b801561166a5780601f1061163f5761010080835404028352916020019161166a565b820191906000526020600020905b81548152906001019060200180831161164d57829003601f168201915b50505050509080600501805461167f90612c6d565b80601f01602080910402602001604051908101604052809291908181526020018280546116ab90612c6d565b80156116f85780601f106116cd576101008083540402835291602001916116f8565b820191906000526020600020905b8154815290600101906020018083116116db57829003601f168201915b5050505050908060060154908060070154908060080160009054906101000a900460ff16905089565b60008060009054906101000a900473ffffffffffffffffffffffffffffffffffffffff16905090565b60606001805480602002602001604051908101604052809291908181526020016000905b82821015611a20578382906000526020600020906009020160405180610120016040529081600082015481526020016001820160009054906101000a900473ffffffffffffffffffffffffffffffffffffffff1673ffffffffffffffffffffffffffffffffffffffff1673ffffffffffffffffffffffffffffffffffffffff1681526020016002820160009054906101000a900473ffffffffffffffffffffffffffffffffffffffff1673ffffffffffffffffffffffffffffffffffffffff1673ffffffffffffffffffffffffffffffffffffffff1681526020016003820160009054906101000a900473ffffffffffffffffffffffffffffffffffffffff1673ffffffffffffffffffffffffffffffffffffffff1673ffffffffffffffffffffffffffffffffffffffff1681526020016004820180546118ae90612c6d565b80601f01602080910402602001604051908101604052809291908181526020018280546118da90612c6d565b80156119275780601f106118fc57610100808354040283529160200191611927565b820191906000526020600020905b81548152906001019060200180831161190a57829003601f168201915b5050505050815260200160058201805461194090612c6d565b80601f016020809104026020016040519081016040528092919081815260200182805461196c90612c6d565b80156119b95780601f1061198e576101008083540402835291602001916119b9565b820191906000526020600020905b81548152906001019060200180831161199c57829003601f168201915b5050505050815260200160068201548152602001600782015481526020016008820160009054906101000a900460ff1660038111156119fb576119fa6124fb565b5b6003811115611a0d57611a0c6124fb565b5b815250508152602001906001019061176e565b50505050905090565b6000600560008373ffffffffffffffffffffffffffffffffffffffff1673ffffffffffffffffffffffffffffffffffffffff168152602001908152602001600020805490509050919050565b60026020528160005260406000208181548110611a9157600080fd5b90600052602060002001600091509150505481565b60056020528160005260406000208181548110611ac257600080fd5b90600052602060002001600091509150505481565b6060600260008373ffffffffffffffffffffffffffffffffffffffff1673ffffffffffffffffffffffffffffffffffffffff168152602001908152602001600020805480602002602001604051908101604052809291908181526020018280548015611b6257602002820191906000526020600020905b815481526020019060010190808311611b4e575b50505050509050919050565b60006003811115611b8257611b816124fb565b5b60018281548110611b9657611b95612c0f565b5b906000526020600020906009020160080160009054906101000a900460ff166003811115611bc757611bc66124fb565b5b14611c07576040517f08c379a0000000000000000000000000000000000000000000000000000000008152600401611bfe90613315565b60405180910390fd5b611c0f6120a5565b60018281548110611c2357611c22612c0f565b5b906000526020600020906009020160020160006101000a81548173ffffffffffffffffffffffffffffffffffffffff021916908373ffffffffffffffffffffffffffffffffffffffff1602179055506001808281548110611c8757611c86612c0f565b5b906000526020600020906009020160080160006101000a81548160ff02191690836003811115611cba57611cb96124fb565b5b021790555060026000611ccb6120a5565b73ffffffffffffffffffffffffffffffffffffffff1673ffffffffffffffffffffffffffffffffffffffff1681526020019081526020016000208190806001815401808255809150506001900390600052602060002001600090919091909150553360018281548110611d4157611d40612c0f565b5b906000526020600020906009020160030160006101000a81548173ffffffffffffffffffffffffffffffffffffffff021916908373ffffffffffffffffffffffffffffffffffffffff1602179055507f8ea16fd26bf5a97624d8b6fb303928937b9b559c4627028620ecf8e221dd32e981604051611dbf9190612399565b60405180910390a150565b611dd26120a5565b73ffffffffffffffffffffffffffffffffffffffff1660018281548110611dfc57611dfb612c0f565b5b906000526020600020906009020160010160009054906101000a900473ffffffffffffffffffffffffffffffffffffffff1673ffffffffffffffffffffffffffffffffffffffff1614611e84576040517f08c379a0000000000000000000000000000000000000000000000000000000008152600401611e7b906133a7565b60405180910390fd5b60006003811115611e9857611e976124fb565b5b60018281548110611eac57611eab612c0f565b5b906000526020600020906009020160080160009054906101000a900460ff166003811115611edd57611edc6124fb565b5b14611f1d576040517f08c379a0000000000000000000000000000000000000000000000000000000008152600401611f1490613413565b60405180910390fd5b600360018281548110611f3357611f32612c0f565b5b906000526020600020906009020160080160006101000a81548160ff02191690836003811115611f6657611f656124fb565b5b02179055507fe6869595d58c61aa991d00acb41ac260a2d3b5a40d58255f6aad94a14c2804a781604051611f9a9190612399565b60405180910390a150565b60046020528160005260406000208181548110611fc157600080fd5b90600052602060002001600091509150505481565b611fde6120b4565b600073ffffffffffffffffffffffffffffffffffffffff168173ffffffffffffffffffffffffffffffffffffffff160361204d576040517f08c379a0000000000000000000000000000000000000000000000000000000008152600401612044906134a5565b60405180910390fd5b61205681612132565b50565b6000600360008373ffffffffffffffffffffffffffffffffffffffff1673ffffffffffffffffffffffffffffffffffffffff168152602001908152602001600020805490509050919050565b60006120af6121f6565b905090565b6120bc6120a5565b73ffffffffffffffffffffffffffffffffffffffff166120da611721565b73ffffffffffffffffffffffffffffffffffffffff1614612130576040517f08c379a000000000000000000000000000000000000000000000000000000000815260040161212790613511565b60405180910390fd5b565b60008060009054906101000a900473ffffffffffffffffffffffffffffffffffffffff169050816000806101000a81548173ffffffffffffffffffffffffffffffffffffffff021916908373ffffffffffffffffffffffffffffffffffffffff1602179055508173ffffffffffffffffffffffffffffffffffffffff168173ffffffffffffffffffffffffffffffffffffffff167f8be0079c531659141344cd1fd0a4f28419497f9722a3daafe3b4186f6b6457e060405160405180910390a35050565b6000612201336107ad565b801561221257506014600036905010155b1561222657601436033560601c9050612235565b61222e612239565b9050612236565b5b90565b600033905090565b60405180610120016040528060008152602001600073ffffffffffffffffffffffffffffffffffffffff168152602001600073ffffffffffffffffffffffffffffffffffffffff168152602001600073ffffffffffffffffffffffffffffffffffffffff16815260200160608152602001606081526020016000815260200160008152602001600060038111156122db576122da6124fb565b5b81525090565b6000604051905090565b600080fd5b600080fd5b600073ffffffffffffffffffffffffffffffffffffffff82169050919050565b6000612320826122f5565b9050919050565b61233081612315565b811461233b57600080fd5b50565b60008135905061234d81612327565b92915050565b600060208284031215612369576123686122eb565b5b60006123778482850161233e565b91505092915050565b6000819050919050565b61239381612380565b82525050565b60006020820190506123ae600083018461238a565b92915050565b6123bd81612380565b81146123c857600080fd5b50565b6000813590506123da816123b4565b92915050565b600080604083850312156123f7576123f66122eb565b5b60006124058582860161233e565b9250506020612416858286016123cb565b9150509250929050565b600060208284031215612436576124356122eb565b5b6000612444848285016123cb565b91505092915050565b61245681612380565b82525050565b61246581612315565b82525050565b600081519050919050565b600082825260208201905092915050565b60005b838110156124a557808201518184015260208101905061248a565b60008484015250505050565b6000601f19601f8301169050919050565b60006124cd8261246b565b6124d78185612476565b93506124e7818560208601612487565b6124f0816124b1565b840191505092915050565b7f4e487b7100000000000000000000000000000000000000000000000000000000600052602160045260246000fd5b6004811061253b5761253a6124fb565b5b50565b600081905061254c8261252a565b919050565b600061255c8261253e565b9050919050565b61256c81612551565b82525050565b60006101208301600083015161258b600086018261244d565b50602083015161259e602086018261245c565b5060408301516125b1604086018261245c565b5060608301516125c4606086018261245c565b50608083015184820360808601526125dc82826124c2565b91505060a083015184820360a08601526125f682826124c2565b91505060c083015161260b60c086018261244d565b5060e083015161261e60e086018261244d565b50610100830151612633610100860182612563565b508091505092915050565b600060208201905081810360008301526126588184612572565b905092915050565b60008115159050919050565b61267581612660565b82525050565b6000602082019050612690600083018461266c565b92915050565b600080fd5b600080fd5b7f4e487b7100000000000000000000000000000000000000000000000000000000600052604160045260246000fd5b6126d8826124b1565b810181811067ffffffffffffffff821117156126f7576126f66126a0565b5b80604052505050565b600061270a6122e1565b905061271682826126cf565b919050565b600067ffffffffffffffff821115612736576127356126a0565b5b61273f826124b1565b9050602081019050919050565b82818337600083830152505050565b600061276e6127698461271b565b612700565b90508281526020810184848401111561278a5761278961269b565b5b61279584828561274c565b509392505050565b600082601f8301126127b2576127b1612696565b5b81356127c284826020860161275b565b91505092915050565b6000602082840312156127e1576127e06122eb565b5b600082013567ffffffffffffffff8111156127ff576127fe6122f0565b5b61280b8482850161279d565b91505092915050565b6000806040838503121561282b5761282a6122eb565b5b6000612839858286016123cb565b925050602083013567ffffffffffffffff81111561285a576128596122f0565b5b6128668582860161279d565b9150509250929050565b61287981612315565b82525050565b600082825260208201905092915050565b600061289b8261246b565b6128a5818561287f565b93506128b5818560208601612487565b6128be816124b1565b840191505092915050565b6128d281612551565b82525050565b6000610120820190506128ee600083018c61238a565b6128fb602083018b612870565b612908604083018a612870565b6129156060830189612870565b81810360808301526129278188612890565b905081810360a083015261293b8187612890565b905061294a60c083018661238a565b61295760e083018561238a565b6129656101008301846128c9565b9a9950505050505050505050565b60006020820190506129886000830184612870565b92915050565b600081519050919050565b600082825260208201905092915050565b6000819050602082019050919050565b6000610120830160008301516129d3600086018261244d565b5060208301516129e6602086018261245c565b5060408301516129f9604086018261245c565b506060830151612a0c606086018261245c565b5060808301518482036080860152612a2482826124c2565b91505060a083015184820360a0860152612a3e82826124c2565b91505060c0830151612a5360c086018261244d565b5060e0830151612a6660e086018261244d565b50610100830151612a7b610100860182612563565b508091505092915050565b6000612a9283836129ba565b905092915050565b6000602082019050919050565b6000612ab28261298e565b612abc8185612999565b935083602082028501612ace856129aa565b8060005b85811015612b0a5784840389528151612aeb8582612a86565b9450612af683612a9a565b925060208a01995050600181019050612ad2565b50829750879550505050505092915050565b60006020820190508181036000830152612b368184612aa7565b905092915050565b600081519050919050565b600082825260208201905092915050565b6000819050602082019050919050565b6000612b76838361244d565b60208301905092915050565b6000602082019050919050565b6000612b9a82612b3e565b612ba48185612b49565b9350612baf83612b5a565b8060005b83811015612be0578151612bc78882612b6a565b9750612bd283612b82565b925050600181019050612bb3565b5085935050505092915050565b60006020820190508181036000830152612c078184612b8f565b905092915050565b7f4e487b7100000000000000000000000000000000000000000000000000000000600052603260045260246000fd5b7f4e487b7100000000000000000000000000000000000000000000000000000000600052602260045260246000fd5b60006002820490506001821680612c8557607f821691505b602082108103612c9857612c97612c3e565b5b50919050565b60008190508160005260206000209050919050565b60006020601f8301049050919050565b600082821b905092915050565b600060088302612d007fffffffffffffffffffffffffffffffffffffffffffffffffffffffffffffffff82612cc3565b612d0a8683612cc3565b95508019841693508086168417925050509392505050565b6000819050919050565b6000612d47612d42612d3d84612380565b612d22565b612380565b9050919050565b6000819050919050565b612d6183612d2c565b612d75612d6d82612d4e565b848454612cd0565b825550505050565b600090565b612d8a612d7d565b612d95818484612d58565b505050565b5b81811015612db957612dae600082612d82565b600181019050612d9b565b5050565b601f821115612dfe57612dcf81612c9e565b612dd884612cb3565b81016020851015612de7578190505b612dfb612df385612cb3565b830182612d9a565b50505b505050565b600082821c905092915050565b6000612e2160001984600802612e03565b1980831691505092915050565b6000612e3a8383612e10565b9150826002028217905092915050565b612e538261246b565b67ffffffffffffffff811115612e6c57612e6b6126a0565b5b612e768254612c6d565b612e81828285612dbd565b600060209050601f831160018114612eb45760008415612ea2578287015190505b612eac8582612e2e565b865550612f14565b601f198416612ec286612c9e565b60005b82811015612eea57848901518255600182019150602085019450602081019050612ec5565b86831015612f075784890151612f03601f891682612e10565b8355505b6001600288020188555050505b505050505050565b7f4475656c206d7573742062652061636365707465640000000000000000000000600082015250565b6000612f5260158361287f565b9150612f5d82612f1c565b602082019050919050565b60006020820190508181036000830152612f8181612f45565b9050919050565b7f4f6e6c79207468652063757272656e7420706c617965722063616e206d616b6560008201527f2061206d6f766500000000000000000000000000000000000000000000000000602082015250565b6000612fe460278361287f565b9150612fef82612f88565b604082019050919050565b6000602082019050818103600083015261301381612fd7565b9050919050565b600081905092915050565b6000815461303281612c6d565b61303c818661301a565b94506001821660008114613057576001811461306c5761309f565b60ff198316865281151582028601935061309f565b61307585612c9e565b60005b8381101561309757815481890152600182019150602081019050613078565b838801955050505b50505092915050565b7f2c00000000000000000000000000000000000000000000000000000000000000600082015250565b60006130de60018361301a565b91506130e9826130a8565b600182019050919050565b60006130ff8261246b565b613109818561301a565b9350613119818560208601612487565b80840191505092915050565b60006131318285613025565b915061313c826130d1565b915061314882846130f4565b91508190509392505050565b60006131608284613025565b915081905092915050565b600061317782846130f4565b915081905092915050565b7f4e487b7100000000000000000000000000000000000000000000000000000000600052601160045260246000fd5b60006131bc82612380565b91507fffffffffffffffffffffffffffffffffffffffffffffffffffffffffffffffff82036131ee576131ed613182565b5b600182019050919050565b6000815461320681612c6d565b613210818661287f565b9450600182166000811461322b576001811461324157613274565b60ff198316865281151560200286019350613274565b61324a85612c9e565b60005b8381101561326c5781548189015260018201915060208101905061324d565b808801955050505b50505092915050565b6000608082019050613292600083018761238a565b61329f6020830186612870565b81810360408301526132b181856131f9565b90506132c0606083018461238a565b95945050505050565b7f4475656c206d757374206e6f7420626520616363657074656420796574000000600082015250565b60006132ff601d8361287f565b915061330a826132c9565b602082019050919050565b6000602082019050818103600083015261332e816132f2565b9050919050565b7f4f6e6c7920746865206368616c6c656e6765722063616e2063616e63656c207460008201527f6865206475656c00000000000000000000000000000000000000000000000000602082015250565b600061339160278361287f565b915061339c82613335565b604082019050919050565b600060208201905081810360008301526133c081613384565b9050919050565b7f4475656c206d757374206265206e6f7420626520616363657074656420796574600082015250565b60006133fd60208361287f565b9150613408826133c7565b602082019050919050565b6000602082019050818103600083015261342c816133f0565b9050919050565b7f4f776e61626c653a206e6577206f776e657220697320746865207a65726f206160008201527f6464726573730000000000000000000000000000000000000000000000000000602082015250565b600061348f60268361287f565b915061349a82613433565b604082019050919050565b600060208201905081810360008301526134be81613482565b9050919050565b7f4f776e61626c653a2063616c6c6572206973206e6f7420746865206f776e6572600082015250565b60006134fb60208361287f565b9150613506826134c5565b602082019050919050565b6000602082019050818103600083015261352a816134ee565b905091905056fea2646970667358221220cdf72255313c2d12925a6363f1fdaca7fbbbf9d32c12e9e5ac99c9bb1a79f73564736f6c63430008130033",
  "linkReferences": {},
  "deployedLinkReferences": {}
}