{
  "_format": "hh-sol-artifact-1",
  "contractName": "XP",
  "sourceName": "contracts/XP.sol",
  "abi": [
    {
      "inputs": [],
      "stateMutability": "nonpayable",
      "type": "constructor"
    },
    {
      "anonymous": false,
      "inputs": [
        {
          "indexed": true,
          "internalType": "address",
          "name": "owner",
          "type": "address"
        },
        {
          "indexed": true,
          "internalType": "address",
          "name": "spender",
          "type": "address"
        },
        {
          "indexed": false,
          "internalType": "uint256",
          "name": "value",
          "type": "uint256"
        }
      ],
      "name": "Approval",
      "type": "event"
    },
    {
      "anonymous": false,
      "inputs": [
        {
          "indexed": true,
          "internalType": "address",
          "name": "previousOwner",
          "type": "address"
        },
        {
          "indexed": true,
          "internalType": "address",
          "name": "newOwner",
          "type": "address"
        }
      ],
      "name": "OwnershipTransferred",
      "type": "event"
    },
    {
      "anonymous": false,
      "inputs": [
        {
          "indexed": true,
          "internalType": "address",
          "name": "from",
          "type": "address"
        },
        {
          "indexed": true,
          "internalType": "address",
          "name": "to",
          "type": "address"
        },
        {
          "indexed": false,
          "internalType": "uint256",
          "name": "value",
          "type": "uint256"
        }
      ],
      "name": "Transfer",
      "type": "event"
    },
    {
      "inputs": [
        {
          "internalType": "address",
          "name": "owner",
          "type": "address"
        },
        {
          "internalType": "address",
          "name": "spender",
          "type": "address"
        }
      ],
      "name": "allowance",
      "outputs": [
        {
          "internalType": "uint256",
          "name": "",
          "type": "uint256"
        }
      ],
      "stateMutability": "view",
      "type": "function"
    },
    {
      "inputs": [
        {
          "internalType": "address",
          "name": "spender",
          "type": "address"
        },
        {
          "internalType": "uint256",
          "name": "amount",
          "type": "uint256"
        }
      ],
      "name": "approve",
      "outputs": [
        {
          "internalType": "bool",
          "name": "",
          "type": "bool"
        }
      ],
      "stateMutability": "nonpayable",
      "type": "function"
    },
    {
      "inputs": [
        {
          "internalType": "address",
          "name": "account",
          "type": "address"
        }
      ],
      "name": "balanceOf",
      "outputs": [
        {
          "internalType": "uint256",
          "name": "",
          "type": "uint256"
        }
      ],
      "stateMutability": "view",
      "type": "function"
    },
    {
      "inputs": [],
      "name": "decimals",
      "outputs": [
        {
          "internalType": "uint8",
          "name": "",
          "type": "uint8"
        }
      ],
      "stateMutability": "view",
      "type": "function"
    },
    {
      "inputs": [
        {
          "internalType": "address",
          "name": "spender",
          "type": "address"
        },
        {
          "internalType": "uint256",
          "name": "subtractedValue",
          "type": "uint256"
        }
      ],
      "name": "decreaseAllowance",
      "outputs": [
        {
          "internalType": "bool",
          "name": "",
          "type": "bool"
        }
      ],
      "stateMutability": "nonpayable",
      "type": "function"
    },
    {
      "inputs": [
        {
          "internalType": "address",
          "name": "spender",
          "type": "address"
        },
        {
          "internalType": "uint256",
          "name": "addedValue",
          "type": "uint256"
        }
      ],
      "name": "increaseAllowance",
      "outputs": [
        {
          "internalType": "bool",
          "name": "",
          "type": "bool"
        }
      ],
      "stateMutability": "nonpayable",
      "type": "function"
    },
    {
      "inputs": [
        {
          "internalType": "address",
          "name": "to",
          "type": "address"
        },
        {
          "internalType": "uint256",
          "name": "amount",
          "type": "uint256"
        }
      ],
      "name": "mint",
      "outputs": [],
      "stateMutability": "nonpayable",
      "type": "function"
    },
    {
      "inputs": [
        {
          "internalType": "bytes[]",
          "name": "data",
          "type": "bytes[]"
        }
      ],
      "name": "multicall",
      "outputs": [
        {
          "internalType": "bytes[]",
          "name": "results",
          "type": "bytes[]"
        }
      ],
      "stateMutability": "nonpayable",
      "type": "function"
    },
    {
      "inputs": [],
      "name": "name",
      "outputs": [
        {
          "internalType": "string",
          "name": "",
          "type": "string"
        }
      ],
      "stateMutability": "view",
      "type": "function"
    },
    {
      "inputs": [],
      "name": "owner",
      "outputs": [
        {
          "internalType": "address",
          "name": "",
          "type": "address"
        }
      ],
      "stateMutability": "view",
      "type": "function"
    },
    {
      "inputs": [],
      "name": "renounceOwnership",
      "outputs": [],
      "stateMutability": "nonpayable",
      "type": "function"
    },
    {
      "inputs": [],
      "name": "symbol",
      "outputs": [
        {
          "internalType": "string",
          "name": "",
          "type": "string"
        }
      ],
      "stateMutability": "view",
      "type": "function"
    },
    {
      "inputs": [],
      "name": "totalSupply",
      "outputs": [
        {
          "internalType": "uint256",
          "name": "",
          "type": "uint256"
        }
      ],
      "stateMutability": "view",
      "type": "function"
    },
    {
      "inputs": [
        {
          "internalType": "address",
          "name": "to",
          "type": "address"
        },
        {
          "internalType": "uint256",
          "name": "amount",
          "type": "uint256"
        }
      ],
      "name": "transfer",
      "outputs": [
        {
          "internalType": "bool",
          "name": "",
          "type": "bool"
        }
      ],
      "stateMutability": "nonpayable",
      "type": "function"
    },
    {
      "inputs": [
        {
          "internalType": "address",
          "name": "from",
          "type": "address"
        },
        {
          "internalType": "address",
          "name": "to",
          "type": "address"
        },
        {
          "internalType": "uint256",
          "name": "amount",
          "type": "uint256"
        }
      ],
      "name": "transferFrom",
      "outputs": [
        {
          "internalType": "bool",
          "name": "",
          "type": "bool"
        }
      ],
      "stateMutability": "nonpayable",
      "type": "function"
    },
    {
      "inputs": [
        {
          "internalType": "address",
          "name": "newOwner",
          "type": "address"
        }
      ],
      "name": "transferOwnership",
      "outputs": [],
      "stateMutability": "nonpayable",
      "type": "function"
    }
  ],
  "bytecode": "0x60806040523480156200001157600080fd5b506040518060400160405280600281526020017f58500000000000000000000000000000000000000000000000000000000000008152506040518060400160405280600281526020017f585000000000000000000000000000000000000000000000000000000000000081525081600390816200008f9190620005d1565b508060049081620000a19190620005d1565b505050620000c4620000b86200010960201b60201c565b6200011160201b60201c565b6200010333620000d9620001d760201b60201c565b600a620000e7919062000848565b62989680620000f7919062000899565b620001e060201b60201c565b620009d0565b600033905090565b6000600560009054906101000a900473ffffffffffffffffffffffffffffffffffffffff16905081600560006101000a81548173ffffffffffffffffffffffffffffffffffffffff021916908373ffffffffffffffffffffffffffffffffffffffff1602179055508173ffffffffffffffffffffffffffffffffffffffff168173ffffffffffffffffffffffffffffffffffffffff167f8be0079c531659141344cd1fd0a4f28419497f9722a3daafe3b4186f6b6457e060405160405180910390a35050565b60006012905090565b600073ffffffffffffffffffffffffffffffffffffffff168273ffffffffffffffffffffffffffffffffffffffff160362000252576040517f08c379a0000000000000000000000000000000000000000000000000000000008152600401620002499062000945565b60405180910390fd5b62000266600083836200034d60201b60201c565b80600260008282546200027a919062000967565b92505081905550806000808473ffffffffffffffffffffffffffffffffffffffff1673ffffffffffffffffffffffffffffffffffffffff168152602001908152602001600020600082825401925050819055508173ffffffffffffffffffffffffffffffffffffffff16600073ffffffffffffffffffffffffffffffffffffffff167fddf252ad1be2c89b69c2b068fc378daa952ba7f163c4a11628f55a4df523b3ef836040516200032d9190620009b3565b60405180910390a362000349600083836200035260201b60201c565b5050565b505050565b505050565b600081519050919050565b7f4e487b7100000000000000000000000000000000000000000000000000000000600052604160045260246000fd5b7f4e487b7100000000000000000000000000000000000000000000000000000000600052602260045260246000fd5b60006002820490506001821680620003d957607f821691505b602082108103620003ef57620003ee62000391565b5b50919050565b60008190508160005260206000209050919050565b60006020601f8301049050919050565b600082821b905092915050565b600060088302620004597fffffffffffffffffffffffffffffffffffffffffffffffffffffffffffffffff826200041a565b6200046586836200041a565b95508019841693508086168417925050509392505050565b6000819050919050565b6000819050919050565b6000620004b2620004ac620004a6846200047d565b62000487565b6200047d565b9050919050565b6000819050919050565b620004ce8362000491565b620004e6620004dd82620004b9565b84845462000427565b825550505050565b600090565b620004fd620004ee565b6200050a818484620004c3565b505050565b5b81811015620005325762000526600082620004f3565b60018101905062000510565b5050565b601f82111562000581576200054b81620003f5565b62000556846200040a565b8101602085101562000566578190505b6200057e62000575856200040a565b8301826200050f565b50505b505050565b600082821c905092915050565b6000620005a66000198460080262000586565b1980831691505092915050565b6000620005c1838362000593565b9150826002028217905092915050565b620005dc8262000357565b67ffffffffffffffff811115620005f857620005f762000362565b5b620006048254620003c0565b6200061182828562000536565b600060209050601f83116001811462000649576000841562000634578287015190505b620006408582620005b3565b865550620006b0565b601f1984166200065986620003f5565b60005b8281101562000683578489015182556001820191506020850194506020810190506200065c565b86831015620006a357848901516200069f601f89168262000593565b8355505b6001600288020188555050505b505050505050565b7f4e487b7100000000000000000000000000000000000000000000000000000000600052601160045260246000fd5b60008160011c9050919050565b6000808291508390505b600185111562000746578086048111156200071e576200071d620006b8565b5b60018516156200072e5780820291505b80810290506200073e85620006e7565b9450620006fe565b94509492505050565b60008262000761576001905062000834565b8162000771576000905062000834565b81600181146200078a57600281146200079557620007cb565b600191505062000834565b60ff841115620007aa57620007a9620006b8565b5b8360020a915084821115620007c457620007c3620006b8565b5b5062000834565b5060208310610133831016604e8410600b8410161715620008055782820a905083811115620007ff57620007fe620006b8565b5b62000834565b620008148484846001620006f4565b925090508184048111156200082e576200082d620006b8565b5b81810290505b9392505050565b600060ff82169050919050565b600062000855826200047d565b915062000862836200083b565b9250620008917fffffffffffffffffffffffffffffffffffffffffffffffffffffffffffffffff84846200074f565b905092915050565b6000620008a6826200047d565b9150620008b3836200047d565b9250828202620008c3816200047d565b91508282048414831517620008dd57620008dc620006b8565b5b5092915050565b600082825260208201905092915050565b7f45524332303a206d696e7420746f20746865207a65726f206164647265737300600082015250565b60006200092d601f83620008e4565b91506200093a82620008f5565b602082019050919050565b6000602082019050818103600083015262000960816200091e565b9050919050565b600062000974826200047d565b915062000981836200047d565b92508282019050808211156200099c576200099b620006b8565b5b92915050565b620009ad816200047d565b82525050565b6000602082019050620009ca6000830184620009a2565b92915050565b611eb080620009e06000396000f3fe608060405234801561001057600080fd5b50600436106101005760003560e01c8063715018a611610097578063a9059cbb11610066578063a9059cbb146102b1578063ac9650d8146102e1578063dd62ed3e14610311578063f2fde38b1461034157610100565b8063715018a61461023b5780638da5cb5b1461024557806395d89b4114610263578063a457c2d71461028157610100565b8063313ce567116100d3578063313ce567146101a157806339509351146101bf57806340c10f19146101ef57806370a082311461020b57610100565b806306fdde0314610105578063095ea7b31461012357806318160ddd1461015357806323b872dd14610171575b600080fd5b61010d61035d565b60405161011a919061120b565b60405180910390f35b61013d600480360381019061013891906112cb565b6103ef565b60405161014a9190611326565b60405180910390f35b61015b610412565b6040516101689190611350565b60405180910390f35b61018b6004803603810190610186919061136b565b61041c565b6040516101989190611326565b60405180910390f35b6101a961044b565b6040516101b691906113da565b60405180910390f35b6101d960048036038101906101d491906112cb565b610454565b6040516101e69190611326565b60405180910390f35b610209600480360381019061020491906112cb565b61048b565b005b610225600480360381019061022091906113f5565b6104a1565b6040516102329190611350565b60405180910390f35b6102436104e9565b005b61024d6104fd565b60405161025a9190611431565b60405180910390f35b61026b610527565b604051610278919061120b565b60405180910390f35b61029b600480360381019061029691906112cb565b6105b9565b6040516102a89190611326565b60405180910390f35b6102cb60048036038101906102c691906112cb565b610630565b6040516102d89190611326565b60405180910390f35b6102fb60048036038101906102f691906114b1565b610653565b6040516103089190611615565b60405180910390f35b61032b60048036038101906103269190611637565b61075f565b6040516103389190611350565b60405180910390f35b61035b600480360381019061035691906113f5565b6107e6565b005b60606003805461036c906116a6565b80601f0160208091040260200160405190810160405280929190818152602001828054610398906116a6565b80156103e55780601f106103ba576101008083540402835291602001916103e5565b820191906000526020600020905b8154815290600101906020018083116103c857829003601f168201915b5050505050905090565b6000806103fa610869565b9050610407818585610871565b600191505092915050565b6000600254905090565b600080610427610869565b9050610434858285610a3a565b61043f858585610ac6565b60019150509392505050565b60006012905090565b60008061045f610869565b9050610480818585610471858961075f565b61047b9190611706565b610871565b600191505092915050565b610493610d3c565b61049d8282610dba565b5050565b60008060008373ffffffffffffffffffffffffffffffffffffffff1673ffffffffffffffffffffffffffffffffffffffff168152602001908152602001600020549050919050565b6104f1610d3c565b6104fb6000610f10565b565b6000600560009054906101000a900473ffffffffffffffffffffffffffffffffffffffff16905090565b606060048054610536906116a6565b80601f0160208091040260200160405190810160405280929190818152602001828054610562906116a6565b80156105af5780601f10610584576101008083540402835291602001916105af565b820191906000526020600020905b81548152906001019060200180831161059257829003601f168201915b5050505050905090565b6000806105c4610869565b905060006105d2828661075f565b905083811015610617576040517f08c379a000000000000000000000000000000000000000000000000000000000815260040161060e906117ac565b60405180910390fd5b6106248286868403610871565b60019250505092915050565b60008061063b610869565b9050610648818585610ac6565b600191505092915050565b60608282905067ffffffffffffffff811115610672576106716117cc565b5b6040519080825280602002602001820160405280156106a557816020015b60608152602001906001900390816106905790505b50905060005b8383905081101561075857610727308585848181106106cd576106cc6117fb565b5b90506020028101906106df9190611839565b8080601f016020809104026020016040519081016040528093929190818152602001838380828437600081840152601f19601f82011690508083019250505050505050610fd6565b82828151811061073a576107396117fb565b5b602002602001018190525080806107509061189c565b9150506106ab565b5092915050565b6000600160008473ffffffffffffffffffffffffffffffffffffffff1673ffffffffffffffffffffffffffffffffffffffff16815260200190815260200160002060008373ffffffffffffffffffffffffffffffffffffffff1673ffffffffffffffffffffffffffffffffffffffff16815260200190815260200160002054905092915050565b6107ee610d3c565b600073ffffffffffffffffffffffffffffffffffffffff168173ffffffffffffffffffffffffffffffffffffffff160361085d576040517f08c379a000000000000000000000000000000000000000000000000000000000815260040161085490611956565b60405180910390fd5b61086681610f10565b50565b600033905090565b600073ffffffffffffffffffffffffffffffffffffffff168373ffffffffffffffffffffffffffffffffffffffff16036108e0576040517f08c379a00000000000000000000000000000000000000000000000000000000081526004016108d7906119e8565b60405180910390fd5b600073ffffffffffffffffffffffffffffffffffffffff168273ffffffffffffffffffffffffffffffffffffffff160361094f576040517f08c379a000000000000000000000000000000000000000000000000000000000815260040161094690611a7a565b60405180910390fd5b80600160008573ffffffffffffffffffffffffffffffffffffffff1673ffffffffffffffffffffffffffffffffffffffff16815260200190815260200160002060008473ffffffffffffffffffffffffffffffffffffffff1673ffffffffffffffffffffffffffffffffffffffff168152602001908152602001600020819055508173ffffffffffffffffffffffffffffffffffffffff168373ffffffffffffffffffffffffffffffffffffffff167f8c5be1e5ebec7d5bd14f71427d1e84f3dd0314c0f7b2291e5b200ac8c7c3b92583604051610a2d9190611350565b60405180910390a3505050565b6000610a46848461075f565b90507fffffffffffffffffffffffffffffffffffffffffffffffffffffffffffffffff8114610ac05781811015610ab2576040517f08c379a0000000000000000000000000000000000000000000000000000000008152600401610aa990611ae6565b60405180910390fd5b610abf8484848403610871565b5b50505050565b600073ffffffffffffffffffffffffffffffffffffffff168373ffffffffffffffffffffffffffffffffffffffff1603610b35576040517f08c379a0000000000000000000000000000000000000000000000000000000008152600401610b2c90611b78565b60405180910390fd5b600073ffffffffffffffffffffffffffffffffffffffff168273ffffffffffffffffffffffffffffffffffffffff1603610ba4576040517f08c379a0000000000000000000000000000000000000000000000000000000008152600401610b9b90611c0a565b60405180910390fd5b610baf838383611003565b60008060008573ffffffffffffffffffffffffffffffffffffffff1673ffffffffffffffffffffffffffffffffffffffff16815260200190815260200160002054905081811015610c35576040517f08c379a0000000000000000000000000000000000000000000000000000000008152600401610c2c90611c9c565b60405180910390fd5b8181036000808673ffffffffffffffffffffffffffffffffffffffff1673ffffffffffffffffffffffffffffffffffffffff16815260200190815260200160002081905550816000808573ffffffffffffffffffffffffffffffffffffffff1673ffffffffffffffffffffffffffffffffffffffff168152602001908152602001600020600082825401925050819055508273ffffffffffffffffffffffffffffffffffffffff168473ffffffffffffffffffffffffffffffffffffffff167fddf252ad1be2c89b69c2b068fc378daa952ba7f163c4a11628f55a4df523b3ef84604051610d239190611350565b60405180910390a3610d36848484611008565b50505050565b610d44610869565b73ffffffffffffffffffffffffffffffffffffffff16610d626104fd565b73ffffffffffffffffffffffffffffffffffffffff1614610db8576040517f08c379a0000000000000000000000000000000000000000000000000000000008152600401610daf90611d08565b60405180910390fd5b565b600073ffffffffffffffffffffffffffffffffffffffff168273ffffffffffffffffffffffffffffffffffffffff1603610e29576040517f08c379a0000000000000000000000000000000000000000000000000000000008152600401610e2090611d74565b60405180910390fd5b610e3560008383611003565b8060026000828254610e479190611706565b92505081905550806000808473ffffffffffffffffffffffffffffffffffffffff1673ffffffffffffffffffffffffffffffffffffffff168152602001908152602001600020600082825401925050819055508173ffffffffffffffffffffffffffffffffffffffff16600073ffffffffffffffffffffffffffffffffffffffff167fddf252ad1be2c89b69c2b068fc378daa952ba7f163c4a11628f55a4df523b3ef83604051610ef89190611350565b60405180910390a3610f0c60008383611008565b5050565b6000600560009054906101000a900473ffffffffffffffffffffffffffffffffffffffff16905081600560006101000a81548173ffffffffffffffffffffffffffffffffffffffff021916908373ffffffffffffffffffffffffffffffffffffffff1602179055508173ffffffffffffffffffffffffffffffffffffffff168173ffffffffffffffffffffffffffffffffffffffff167f8be0079c531659141344cd1fd0a4f28419497f9722a3daafe3b4186f6b6457e060405160405180910390a35050565b6060610ffb8383604051806060016040528060278152602001611e546027913961100d565b905092915050565b505050565b505050565b60606000808573ffffffffffffffffffffffffffffffffffffffff16856040516110379190611dd0565b600060405180830381855af49150503d8060008114611072576040519150601f19603f3d011682016040523d82523d6000602084013e611077565b606091505b509150915061108886838387611093565b925050509392505050565b606083156110f55760008351036110ed576110ad85611108565b6110ec576040517f08c379a00000000000000000000000000000000000000000000000000000000081526004016110e390611e33565b60405180910390fd5b5b829050611100565b6110ff838361112b565b5b949350505050565b6000808273ffffffffffffffffffffffffffffffffffffffff163b119050919050565b60008251111561113e5781518083602001fd5b806040517f08c379a0000000000000000000000000000000000000000000000000000000008152600401611172919061120b565b60405180910390fd5b600081519050919050565b600082825260208201905092915050565b60005b838110156111b557808201518184015260208101905061119a565b60008484015250505050565b6000601f19601f8301169050919050565b60006111dd8261117b565b6111e78185611186565b93506111f7818560208601611197565b611200816111c1565b840191505092915050565b6000602082019050818103600083015261122581846111d2565b905092915050565b600080fd5b600080fd5b600073ffffffffffffffffffffffffffffffffffffffff82169050919050565b600061126282611237565b9050919050565b61127281611257565b811461127d57600080fd5b50565b60008135905061128f81611269565b92915050565b6000819050919050565b6112a881611295565b81146112b357600080fd5b50565b6000813590506112c58161129f565b92915050565b600080604083850312156112e2576112e161122d565b5b60006112f085828601611280565b9250506020611301858286016112b6565b9150509250929050565b60008115159050919050565b6113208161130b565b82525050565b600060208201905061133b6000830184611317565b92915050565b61134a81611295565b82525050565b60006020820190506113656000830184611341565b92915050565b6000806000606084860312156113845761138361122d565b5b600061139286828701611280565b93505060206113a386828701611280565b92505060406113b4868287016112b6565b9150509250925092565b600060ff82169050919050565b6113d4816113be565b82525050565b60006020820190506113ef60008301846113cb565b92915050565b60006020828403121561140b5761140a61122d565b5b600061141984828501611280565b91505092915050565b61142b81611257565b82525050565b60006020820190506114466000830184611422565b92915050565b600080fd5b600080fd5b600080fd5b60008083601f8401126114715761147061144c565b5b8235905067ffffffffffffffff81111561148e5761148d611451565b5b6020830191508360208202830111156114aa576114a9611456565b5b9250929050565b600080602083850312156114c8576114c761122d565b5b600083013567ffffffffffffffff8111156114e6576114e5611232565b5b6114f28582860161145b565b92509250509250929050565b600081519050919050565b600082825260208201905092915050565b6000819050602082019050919050565b600081519050919050565b600082825260208201905092915050565b60006115518261152a565b61155b8185611535565b935061156b818560208601611197565b611574816111c1565b840191505092915050565b600061158b8383611546565b905092915050565b6000602082019050919050565b60006115ab826114fe565b6115b58185611509565b9350836020820285016115c78561151a565b8060005b8581101561160357848403895281516115e4858261157f565b94506115ef83611593565b925060208a019950506001810190506115cb565b50829750879550505050505092915050565b6000602082019050818103600083015261162f81846115a0565b905092915050565b6000806040838503121561164e5761164d61122d565b5b600061165c85828601611280565b925050602061166d85828601611280565b9150509250929050565b7f4e487b7100000000000000000000000000000000000000000000000000000000600052602260045260246000fd5b600060028204905060018216806116be57607f821691505b6020821081036116d1576116d0611677565b5b50919050565b7f4e487b7100000000000000000000000000000000000000000000000000000000600052601160045260246000fd5b600061171182611295565b915061171c83611295565b9250828201905080821115611734576117336116d7565b5b92915050565b7f45524332303a2064656372656173656420616c6c6f77616e63652062656c6f7760008201527f207a65726f000000000000000000000000000000000000000000000000000000602082015250565b6000611796602583611186565b91506117a18261173a565b604082019050919050565b600060208201905081810360008301526117c581611789565b9050919050565b7f4e487b7100000000000000000000000000000000000000000000000000000000600052604160045260246000fd5b7f4e487b7100000000000000000000000000000000000000000000000000000000600052603260045260246000fd5b600080fd5b600080fd5b600080fd5b600080833560016020038436030381126118565761185561182a565b5b80840192508235915067ffffffffffffffff8211156118785761187761182f565b5b60208301925060018202360383131561189457611893611834565b5b509250929050565b60006118a782611295565b91507fffffffffffffffffffffffffffffffffffffffffffffffffffffffffffffffff82036118d9576118d86116d7565b5b600182019050919050565b7f4f776e61626c653a206e6577206f776e657220697320746865207a65726f206160008201527f6464726573730000000000000000000000000000000000000000000000000000602082015250565b6000611940602683611186565b915061194b826118e4565b604082019050919050565b6000602082019050818103600083015261196f81611933565b9050919050565b7f45524332303a20617070726f76652066726f6d20746865207a65726f2061646460008201527f7265737300000000000000000000000000000000000000000000000000000000602082015250565b60006119d2602483611186565b91506119dd82611976565b604082019050919050565b60006020820190508181036000830152611a01816119c5565b9050919050565b7f45524332303a20617070726f766520746f20746865207a65726f20616464726560008201527f7373000000000000000000000000000000000000000000000000000000000000602082015250565b6000611a64602283611186565b9150611a6f82611a08565b604082019050919050565b60006020820190508181036000830152611a9381611a57565b9050919050565b7f45524332303a20696e73756666696369656e7420616c6c6f77616e6365000000600082015250565b6000611ad0601d83611186565b9150611adb82611a9a565b602082019050919050565b60006020820190508181036000830152611aff81611ac3565b9050919050565b7f45524332303a207472616e736665722066726f6d20746865207a65726f20616460008201527f6472657373000000000000000000000000000000000000000000000000000000602082015250565b6000611b62602583611186565b9150611b6d82611b06565b604082019050919050565b60006020820190508181036000830152611b9181611b55565b9050919050565b7f45524332303a207472616e7366657220746f20746865207a65726f206164647260008201527f6573730000000000000000000000000000000000000000000000000000000000602082015250565b6000611bf4602383611186565b9150611bff82611b98565b604082019050919050565b60006020820190508181036000830152611c2381611be7565b9050919050565b7f45524332303a207472616e7366657220616d6f756e742065786365656473206260008201527f616c616e63650000000000000000000000000000000000000000000000000000602082015250565b6000611c86602683611186565b9150611c9182611c2a565b604082019050919050565b60006020820190508181036000830152611cb581611c79565b9050919050565b7f4f776e61626c653a2063616c6c6572206973206e6f7420746865206f776e6572600082015250565b6000611cf2602083611186565b9150611cfd82611cbc565b602082019050919050565b60006020820190508181036000830152611d2181611ce5565b9050919050565b7f45524332303a206d696e7420746f20746865207a65726f206164647265737300600082015250565b6000611d5e601f83611186565b9150611d6982611d28565b602082019050919050565b60006020820190508181036000830152611d8d81611d51565b9050919050565b600081905092915050565b6000611daa8261152a565b611db48185611d94565b9350611dc4818560208601611197565b80840191505092915050565b6000611ddc8284611d9f565b915081905092915050565b7f416464726573733a2063616c6c20746f206e6f6e2d636f6e7472616374000000600082015250565b6000611e1d601d83611186565b9150611e2882611de7565b602082019050919050565b60006020820190508181036000830152611e4c81611e10565b905091905056fe416464726573733a206c6f772d6c6576656c2064656c65676174652063616c6c206661696c6564a264697066735822122013517daa1cdc64121860ad1a8947a456c58d88f197bb6679f327309a2c20ffb164736f6c63430008130033",
  "linkReferences": {},
  "deployedLinkReferences": {}
}